{
  "_format": "hh-sol-artifact-1",
  "contractName": "CrossTaker",
  "sourceName": "contracts/periphery/CrossTaker.sol",
  "abi": [
    {
      "inputs": [
        {
          "internalType": "address",
          "name": "_WETH",
          "type": "address"
        }
      ],
      "stateMutability": "nonpayable",
      "type": "constructor"
    },
    {
      "anonymous": false,
      "inputs": [
        {
          "indexed": true,
          "internalType": "address",
          "name": "previousOwner",
          "type": "address"
        },
        {
          "indexed": true,
          "internalType": "address",
          "name": "newOwner",
          "type": "address"
        }
      ],
      "name": "OwnershipTransferred",
      "type": "event"
    },
    {
      "anonymous": false,
      "inputs": [
        {
          "indexed": false,
          "internalType": "enum SessionType",
          "name": "_sessionType",
          "type": "uint8"
        },
        {
          "components": [
            {
              "internalType": "uint32",
              "name": "develop",
              "type": "uint32"
            },
            {
              "internalType": "uint32",
              "name": "buyback",
              "type": "uint32"
            },
            {
              "internalType": "uint32",
              "name": "liquidity",
              "type": "uint32"
            },
            {
              "internalType": "uint32",
              "name": "treasury",
              "type": "uint32"
            }
          ],
          "indexed": false,
          "internalType": "struct FeeRates",
          "name": "_feeRates",
          "type": "tuple"
        }
      ],
      "name": "SetFeeRates",
      "type": "event"
    },
    {
      "anonymous": false,
      "inputs": [
        {
          "components": [
            {
              "internalType": "address",
              "name": "develop",
              "type": "address"
            },
            {
              "internalType": "address",
              "name": "buyback",
              "type": "address"
            },
            {
              "internalType": "address",
              "name": "liquidity",
              "type": "address"
            },
            {
              "internalType": "address",
              "name": "treasury",
              "type": "address"
            }
          ],
          "indexed": false,
          "internalType": "struct FeeStores",
          "name": "_feeStores",
          "type": "tuple"
        }
      ],
      "name": "SetFeeStores",
      "type": "event"
    },
    {
      "anonymous": false,
      "inputs": [
        {
          "indexed": false,
          "internalType": "enum NodeType",
          "name": "nodeType",
          "type": "uint8"
        },
        {
          "indexed": false,
          "internalType": "address",
          "name": "node",
          "type": "address"
        },
        {
          "indexed": false,
          "internalType": "address",
          "name": "msgSender",
          "type": "address"
        }
      ],
      "name": "SetNode",
      "type": "event"
    },
    {
      "inputs": [],
      "name": "WETH",
      "outputs": [
        {
          "internalType": "address",
          "name": "",
          "type": "address"
        }
      ],
      "stateMutability": "view",
      "type": "function"
    },
    {
      "inputs": [
        {
          "internalType": "address",
          "name": "",
          "type": "address"
        }
      ],
      "name": "chainlinkFeeds",
      "outputs": [
        {
          "internalType": "uint64",
          "name": "deviation",
          "type": "uint64"
        },
        {
          "internalType": "uint64",
          "name": "heartbeat",
          "type": "uint64"
        },
        {
          "internalType": "uint64",
          "name": "decimal",
          "type": "uint64"
        },
        {
          "internalType": "uint64",
          "name": "gap",
          "type": "uint64"
        },
        {
          "internalType": "address",
          "name": "proxy",
          "type": "address"
        }
      ],
      "stateMutability": "view",
      "type": "function"
    },
    {
      "inputs": [
        {
          "internalType": "enum SessionType",
          "name": "",
          "type": "uint8"
        }
      ],
      "name": "feeRates",
      "outputs": [
        {
          "internalType": "uint32",
          "name": "develop",
          "type": "uint32"
        },
        {
          "internalType": "uint32",
          "name": "buyback",
          "type": "uint32"
        },
        {
          "internalType": "uint32",
          "name": "liquidity",
          "type": "uint32"
        },
        {
          "internalType": "uint32",
          "name": "treasury",
          "type": "uint32"
        }
      ],
      "stateMutability": "view",
      "type": "function"
    },
    {
      "inputs": [],
      "name": "feeStores",
      "outputs": [
        {
          "internalType": "address",
          "name": "develop",
          "type": "address"
        },
        {
          "internalType": "address",
          "name": "buyback",
          "type": "address"
        },
        {
          "internalType": "address",
          "name": "liquidity",
          "type": "address"
        },
        {
          "internalType": "address",
          "name": "treasury",
          "type": "address"
        }
      ],
      "stateMutability": "view",
      "type": "function"
    },
    {
      "inputs": [
        {
          "internalType": "uint256",
          "name": "amountOut",
          "type": "uint256"
        },
        {
          "internalType": "uint256",
          "name": "reserveIn",
          "type": "uint256"
        },
        {
          "internalType": "uint256",
          "name": "reserveOut",
          "type": "uint256"
        }
      ],
      "name": "getAmountIn",
      "outputs": [
        {
          "internalType": "uint256",
          "name": "amountIn",
          "type": "uint256"
        }
      ],
      "stateMutability": "pure",
      "type": "function"
    },
    {
      "inputs": [
        {
          "internalType": "uint256",
          "name": "amountIn",
          "type": "uint256"
        },
        {
          "internalType": "uint256",
          "name": "reserveIn",
          "type": "uint256"
        },
        {
          "internalType": "uint256",
          "name": "reserveOut",
          "type": "uint256"
        }
      ],
      "name": "getAmountOut",
      "outputs": [
        {
          "internalType": "uint256",
          "name": "amountOut",
          "type": "uint256"
        }
      ],
      "stateMutability": "pure",
      "type": "function"
    },
    {
      "inputs": [
        {
          "internalType": "uint256",
          "name": "amountOut",
          "type": "uint256"
        },
        {
          "internalType": "address[]",
          "name": "path",
          "type": "address[]"
        }
      ],
      "name": "getAmountsIn",
      "outputs": [
        {
          "internalType": "uint256[]",
          "name": "amounts",
          "type": "uint256[]"
        }
      ],
      "stateMutability": "view",
      "type": "function"
    },
    {
      "inputs": [
        {
          "internalType": "uint256",
          "name": "amountIn",
          "type": "uint256"
        },
        {
          "internalType": "address[]",
          "name": "path",
          "type": "address[]"
        }
      ],
      "name": "getAmountsOut",
      "outputs": [
        {
          "internalType": "uint256[]",
          "name": "amounts",
          "type": "uint256[]"
        }
      ],
      "stateMutability": "view",
      "type": "function"
    },
    {
      "inputs": [],
      "name": "getOwner",
      "outputs": [
        {
          "internalType": "address",
          "name": "",
          "type": "address"
        }
      ],
      "stateMutability": "view",
      "type": "function"
    },
    {
      "inputs": [
        {
          "internalType": "address",
          "name": "_token",
          "type": "address"
        }
      ],
      "name": "getReserveOnETHPair",
      "outputs": [
        {
          "internalType": "uint256",
          "name": "reserve",
          "type": "uint256"
        }
      ],
      "stateMutability": "view",
      "type": "function"
    },
    {
      "inputs": [
        {
          "internalType": "address",
          "name": "pair",
          "type": "address"
        },
        {
          "internalType": "address",
          "name": "token0",
          "type": "address"
        },
        {
          "internalType": "address",
          "name": "token1",
          "type": "address"
        },
        {
          "internalType": "address",
          "name": "caller",
          "type": "address"
        }
      ],
      "name": "informOfPair",
      "outputs": [],
      "stateMutability": "nonpayable",
      "type": "function"
    },
    {
      "inputs": [],
      "name": "nextNode",
      "outputs": [
        {
          "internalType": "address",
          "name": "",
          "type": "address"
        }
      ],
      "stateMutability": "view",
      "type": "function"
    },
    {
      "inputs": [],
      "name": "owner",
      "outputs": [
        {
          "internalType": "address",
          "name": "",
          "type": "address"
        }
      ],
      "stateMutability": "view",
      "type": "function"
    },
    {
      "inputs": [],
      "name": "prevNode",
      "outputs": [
        {
          "internalType": "address",
          "name": "",
          "type": "address"
        }
      ],
      "stateMutability": "view",
      "type": "function"
    },
    {
      "inputs": [
        {
          "internalType": "uint256",
          "name": "amountA",
          "type": "uint256"
        },
        {
          "internalType": "uint256",
          "name": "reserveA",
          "type": "uint256"
        },
        {
          "internalType": "uint256",
          "name": "reserveB",
          "type": "uint256"
        }
      ],
      "name": "quote",
      "outputs": [
        {
          "internalType": "uint256",
          "name": "amountB",
          "type": "uint256"
        }
      ],
      "stateMutability": "pure",
      "type": "function"
    },
    {
      "inputs": [],
      "name": "renounceOwnership",
      "outputs": [],
      "stateMutability": "nonpayable",
      "type": "function"
    },
    {
      "inputs": [],
      "name": "sessionPriceChangeLimit",
      "outputs": [
        {
          "internalType": "uint256",
          "name": "",
          "type": "uint256"
        }
      ],
      "stateMutability": "view",
      "type": "function"
    },
    {
      "inputs": [
        {
          "internalType": "enum SessionType",
          "name": "_sessionType",
          "type": "uint8"
        },
        {
          "components": [
            {
              "internalType": "uint32",
              "name": "develop",
              "type": "uint32"
            },
            {
              "internalType": "uint32",
              "name": "buyback",
              "type": "uint32"
            },
            {
              "internalType": "uint32",
              "name": "liquidity",
              "type": "uint32"
            },
            {
              "internalType": "uint32",
              "name": "treasury",
              "type": "uint32"
            }
          ],
          "internalType": "struct FeeRates",
          "name": "_feeRates",
          "type": "tuple"
        },
        {
          "internalType": "address",
          "name": "caller",
          "type": "address"
        }
      ],
      "name": "setFeeRates",
      "outputs": [],
      "stateMutability": "nonpayable",
      "type": "function"
    },
    {
      "inputs": [
        {
          "components": [
            {
              "internalType": "address",
              "name": "develop",
              "type": "address"
            },
            {
              "internalType": "address",
              "name": "buyback",
              "type": "address"
            },
            {
              "internalType": "address",
              "name": "liquidity",
              "type": "address"
            },
            {
              "internalType": "address",
              "name": "treasury",
              "type": "address"
            }
          ],
          "internalType": "struct FeeStores",
          "name": "_feeStores",
          "type": "tuple"
        },
        {
          "internalType": "address",
          "name": "caller",
          "type": "address"
        }
      ],
      "name": "setFeeStores",
      "outputs": [],
      "stateMutability": "nonpayable",
      "type": "function"
    },
    {
      "inputs": [
        {
          "internalType": "enum NodeType",
          "name": "nodeType",
          "type": "uint8"
        },
        {
          "internalType": "address",
          "name": "node",
          "type": "address"
        },
        {
          "internalType": "address",
          "name": "caller",
          "type": "address"
        }
      ],
      "name": "setNode",
      "outputs": [],
      "stateMutability": "nonpayable",
      "type": "function"
    },
    {
      "inputs": [
        {
          "internalType": "uint256",
          "name": "newLimit",
          "type": "uint256"
        }
      ],
      "name": "setPriceChangeLimit",
      "outputs": [],
      "stateMutability": "nonpayable",
      "type": "function"
    },
    {
      "inputs": [
        {
          "internalType": "uint256",
          "name": "amountOut",
          "type": "uint256"
        },
        {
          "internalType": "address[]",
          "name": "path",
          "type": "address[]"
        },
        {
          "internalType": "address",
          "name": "to",
          "type": "address"
        },
        {
          "internalType": "uint256",
          "name": "deadline",
          "type": "uint256"
        }
      ],
      "name": "swapETHForExactTokens",
      "outputs": [
        {
          "internalType": "uint256[]",
          "name": "amounts",
          "type": "uint256[]"
        }
      ],
      "stateMutability": "payable",
      "type": "function"
    },
    {
      "inputs": [
        {
          "internalType": "uint256",
          "name": "amountOutMin",
          "type": "uint256"
        },
        {
          "internalType": "address[]",
          "name": "path",
          "type": "address[]"
        },
        {
          "internalType": "address",
          "name": "to",
          "type": "address"
        },
        {
          "internalType": "uint256",
          "name": "deadline",
          "type": "uint256"
        }
      ],
      "name": "swapExactETHForTokens",
      "outputs": [
        {
          "internalType": "uint256[]",
          "name": "amounts",
          "type": "uint256[]"
        }
      ],
      "stateMutability": "payable",
      "type": "function"
    },
    {
      "inputs": [
        {
          "internalType": "uint256",
          "name": "amountOutMin",
          "type": "uint256"
        },
        {
          "internalType": "address[]",
          "name": "path",
          "type": "address[]"
        },
        {
          "internalType": "address",
          "name": "to",
          "type": "address"
        },
        {
          "internalType": "uint256",
          "name": "deadline",
          "type": "uint256"
        }
      ],
      "name": "swapExactETHForTokensSupportingFeeOnTransferTokens",
      "outputs": [],
      "stateMutability": "payable",
      "type": "function"
    },
    {
      "inputs": [
        {
          "internalType": "uint256",
          "name": "amountIn",
          "type": "uint256"
        },
        {
          "internalType": "uint256",
          "name": "amountOutMin",
          "type": "uint256"
        },
        {
          "internalType": "address[]",
          "name": "path",
          "type": "address[]"
        },
        {
          "internalType": "address",
          "name": "to",
          "type": "address"
        },
        {
          "internalType": "uint256",
          "name": "deadline",
          "type": "uint256"
        }
      ],
      "name": "swapExactTokensForETH",
      "outputs": [
        {
          "internalType": "uint256[]",
          "name": "amounts",
          "type": "uint256[]"
        }
      ],
      "stateMutability": "nonpayable",
      "type": "function"
    },
    {
      "inputs": [
        {
          "internalType": "uint256",
          "name": "amountIn",
          "type": "uint256"
        },
        {
          "internalType": "uint256",
          "name": "amountOutMin",
          "type": "uint256"
        },
        {
          "internalType": "address[]",
          "name": "path",
          "type": "address[]"
        },
        {
          "internalType": "address",
          "name": "to",
          "type": "address"
        },
        {
          "internalType": "uint256",
          "name": "deadline",
          "type": "uint256"
        }
      ],
      "name": "swapExactTokensForETHSupportingFeeOnTransferTokens",
      "outputs": [],
      "stateMutability": "nonpayable",
      "type": "function"
    },
    {
      "inputs": [
        {
          "internalType": "uint256",
          "name": "amountIn",
          "type": "uint256"
        },
        {
          "internalType": "uint256",
          "name": "amountOutMin",
          "type": "uint256"
        },
        {
          "internalType": "address[]",
          "name": "path",
          "type": "address[]"
        },
        {
          "internalType": "address",
          "name": "to",
          "type": "address"
        },
        {
          "internalType": "uint256",
          "name": "deadline",
          "type": "uint256"
        }
      ],
      "name": "swapExactTokensForTokens",
      "outputs": [
        {
          "internalType": "uint256[]",
          "name": "amounts",
          "type": "uint256[]"
        }
      ],
      "stateMutability": "nonpayable",
      "type": "function"
    },
    {
      "inputs": [
        {
          "internalType": "uint256",
          "name": "amountIn",
          "type": "uint256"
        },
        {
          "internalType": "uint256",
          "name": "amountOutMin",
          "type": "uint256"
        },
        {
          "internalType": "address[]",
          "name": "path",
          "type": "address[]"
        },
        {
          "internalType": "address",
          "name": "to",
          "type": "address"
        },
        {
          "internalType": "uint256",
          "name": "deadline",
          "type": "uint256"
        }
      ],
      "name": "swapExactTokensForTokensSupportingFeeOnTransferTokens",
      "outputs": [],
      "stateMutability": "nonpayable",
      "type": "function"
    },
    {
      "inputs": [
        {
          "internalType": "uint256",
          "name": "amountOut",
          "type": "uint256"
        },
        {
          "internalType": "uint256",
          "name": "amountInMax",
          "type": "uint256"
        },
        {
          "internalType": "address[]",
          "name": "path",
          "type": "address[]"
        },
        {
          "internalType": "address",
          "name": "to",
          "type": "address"
        },
        {
          "internalType": "uint256",
          "name": "deadline",
          "type": "uint256"
        }
      ],
      "name": "swapTokensForExactETH",
      "outputs": [
        {
          "internalType": "uint256[]",
          "name": "amounts",
          "type": "uint256[]"
        }
      ],
      "stateMutability": "nonpayable",
      "type": "function"
    },
    {
      "inputs": [
        {
          "internalType": "uint256",
          "name": "amountOut",
          "type": "uint256"
        },
        {
          "internalType": "uint256",
          "name": "amountInMax",
          "type": "uint256"
        },
        {
          "internalType": "address[]",
          "name": "path",
          "type": "address[]"
        },
        {
          "internalType": "address",
          "name": "to",
          "type": "address"
        },
        {
          "internalType": "uint256",
          "name": "deadline",
          "type": "uint256"
        }
      ],
      "name": "swapTokensForExactTokens",
      "outputs": [
        {
          "internalType": "uint256[]",
          "name": "amounts",
          "type": "uint256[]"
        }
      ],
      "stateMutability": "nonpayable",
      "type": "function"
    },
    {
      "inputs": [
        {
          "internalType": "address",
          "name": "newOwner",
          "type": "address"
        }
      ],
      "name": "transferOwnership",
      "outputs": [],
      "stateMutability": "nonpayable",
      "type": "function"
    },
    {
      "inputs": [
        {
          "internalType": "address",
          "name": "_prevNode",
          "type": "address"
        },
        {
          "internalType": "address",
          "name": "_nextNode",
          "type": "address"
        }
      ],
      "name": "wire",
      "outputs": [],
      "stateMutability": "nonpayable",
      "type": "function"
    },
    {
      "inputs": [
        {
          "internalType": "uint256",
          "name": "",
          "type": "uint256"
        }
      ],
      "name": "zValuePerRuleOutPercent",
      "outputs": [
        {
          "internalType": "int32",
          "name": "",
          "type": "int32"
        }
      ],
      "stateMutability": "view",
      "type": "function"
    },
    {
      "stateMutability": "payable",
      "type": "receive"
    }
  ],
  "bytecode": "0x6113886011556101e06040526204481860a09081526203ed7860c0526203b4d460e05262038aa461010052620369d46101205262034cec61014052620334b46101605262031ed46101805262030b4c6101a0526202f8f06101c0526200006a90601290600a62006839565b5060056014556040805180820190915260158082527f43726f737354616b65723a20466f7262696464656e00000000000000000000006020909201918252620000b691601a91620068f2565b506040805180820190915260188082527f43726f737354616b65723a20496e76616c6964207061746800000000000000006020909201918252620000fd91601b91620068f2565b506040518060600160405280602681526020016200c7896026913980516200012e91601c91602090910190620068f2565b506040518060600160405280602181526020016200c7686021913980516200015f91601d91602090910190620068f2565b506040518060600160405280602181526020016200c7af6021913980516200019091601e91602090910190620068f2565b506040518060600160405280602281526020016200c746602291398051620001c191601f91602090910190620068f2565b506040805180820190915260138082527f43726f737354616b65723a2045787069726564000000000000000000000000006020928301908152620002069291620068f2565b503480156200021457600080fd5b506040516200c7d03803806200c7d0833981016040819052620002379162006986565b6200024233620067e7565b6001600160601b0319606082901b16608052620067e06040518060a0016040528060146001600160401b03168152602001600a6001600160401b0316815260200160086001600160401b0316815260200160006001600160401b0316815260200173a8357bf572460fc40f4b0acacbb2a6a61c89f4756001600160a01b03168152506013600073fb6115445bff7b52feb98650c87f44907e58f8026001600160a01b03166001600160a01b0316815260200190815260200160002060008201518160000160006101000a8154816001600160401b0302191690836001600160401b0316021790555060208201518160000160086101000a8154816001600160401b0302191690836001600160401b0316021790555060408201518160000160106101000a8154816001600160401b0302191690836001600160401b0316021790555060608201518160000160186101000a8154816001600160401b0302191690836001600160401b0316021790555060808201518160010160006101000a8154816001600160a01b0302191690836001600160a01b031602179055509050506040518060a0016040528060146001600160401b03168152602001600a6001600160401b0316815260200160086001600160401b0316815260200160006001600160401b0316815260200173a767f745331d267c7751297d982b050c939856276001600160a01b031681525060136000733ee2200efb3400fabb9aacf31297cbdd1d435d476001600160a01b03166001600160a01b0316815260200190815260200160002060008201518160000160006101000a8154816001600160401b0302191690836001600160401b0316021790555060208201518160000160086101000a8154816001600160401b0302191690836001600160401b0316021790555060408201518160000160106101000a8154816001600160401b0302191690836001600160401b0316021790555060608201518160000160186101000a8154816001600160401b0302191690836001600160401b0316021790555060808201518160010160006101000a8154816001600160a01b0302191690836001600160a01b031602179055509050506040518060a0016040528060326001600160401b031681526020016105a06001600160401b0316815260200160086001600160401b0316815260200160006001600160401b0316815260200173e0073b60833249ffd1bb2af809112c2fbf221df66001600160a01b031681525060136000738f0528ce5ef7b51152a59745befdd91d97091d2f6001600160a01b03166001600160a01b0316815260200190815260200160002060008201518160000160006101000a8154816001600160401b0302191690836001600160401b0316021790555060208201518160000160086101000a8154816001600160401b0302191690836001600160401b0316021790555060408201518160000160106101000a8154816001600160401b0302191690836001600160401b0316021790555060608201518160000160186101000a8154816001600160401b0302191690836001600160401b0316021790555060808201518160010160006101000a8154816001600160a01b0302191690836001600160a01b031602179055509050506040518060a0016040528060326001600160401b031681526020016105a06001600160401b0316815260200160086001600160401b0316815260200160006001600160401b031681526020017331e0110f8c1376a699c8e3e65b5110e0525a811d6001600160a01b031681525060136000736f769e65c14ebd1f68817f5f1dcdb61cfa2d6f7e6001600160a01b03166001600160a01b0316815260200190815260200160002060008201518160000160006101000a8154816001600160401b0302191690836001600160401b0316021790555060208201518160000160086101000a8154816001600160401b0302191690836001600160401b0316021790555060408201518160000160106101000a8154816001600160401b0302191690836001600160401b0316021790555060608201518160000160186101000a8154816001600160401b0302191690836001600160401b0316021790555060808201518160010160006101000a8154816001600160a01b0302191690836001600160a01b031602179055509050506040518060a0016040528060326001600160401b031681526020016105a06001600160401b0316815260200160086001600160401b0316815260200160006001600160401b0316815260200173b056b7c804297279a9a673289264c17e6dc6055d6001600160a01b031681525060136000730eb3a705fc54725037cc9e008bdede697f62f3356001600160a01b03166001600160a01b0316815260200190815260200160002060008201518160000160006101000a8154816001600160401b0302191690836001600160401b0316021790555060208201518160000160086101000a8154816001600160401b0302191690836001600160401b0316021790555060408201518160000160106101000a8154816001600160401b0302191690836001600160401b0316021790555060608201518160000160186101000a8154816001600160401b0302191690836001600160401b0316021790555060808201518160010160006101000a8154816001600160a01b0302191690836001600160a01b031602179055509050506040518060a0016040528060326001600160401b031681526020016105a06001600160401b0316815260200160086001600160401b0316815260200160006001600160401b031681526020017388e71e6520e5ac75f5338f5f0c9ded9d4f692cda6001600160a01b03168152506013600073a184088a740c695e156f91f5cc086a06bb78b8276001600160a01b03166001600160a01b0316815260200190815260200160002060008201518160000160006101000a8154816001600160401b0302191690836001600160401b0316021790555060208201518160000160086101000a8154816001600160401b0302191690836001600160401b0316021790555060408201518160000160106101000a8154816001600160401b0302191690836001600160401b0316021790555060608201518160000160186101000a8154816001600160401b0302191690836001600160401b0316021790555060808201518160010160006101000a8154816001600160a01b0302191690836001600160a01b031602179055509050506040518060a0016040528060326001600160401b031681526020016105a06001600160401b0316815260200160086001600160401b0316815260200160006001600160401b03168152602001735974855ce31ee8e1fff2e76591cbf83d7110f1516001600160a01b031681525060136000731ce0c2827e2ef14d5c4f29a091d735a2047940416001600160a01b03166001600160a01b0316815260200190815260200160002060008201518160000160006101000a8154816001600160401b0302191690836001600160401b0316021790555060208201518160000160086101000a8154816001600160401b0302191690836001600160401b0316021790555060408201518160000160106101000a8154816001600160401b0302191690836001600160401b0316021790555060608201518160000160186101000a8154816001600160401b0302191690836001600160401b0316021790555060808201518160010160006101000a8154816001600160a01b0302191690836001600160a01b031602179055509050506040518060a0016040528060326001600160401b031681526020016105a06001600160401b0316815260200160086001600160401b0316815260200160006001600160401b03168152602001737b49524ee5740c99435f52d731dfc94082fe61ab6001600160a01b03168152506013600073715d400f88c167884bbcc41c5fea407ed4d2f8a06001600160a01b03166001600160a01b0316815260200190815260200160002060008201518160000160006101000a8154816001600160401b0302191690836001600160401b0316021790555060208201518160000160086101000a8154816001600160401b0302191690836001600160401b0316021790555060408201518160000160106101000a8154816001600160401b0302191690836001600160401b0316021790555060608201518160000160186101000a8154816001600160401b0302191690836001600160401b0316021790555060808201518160010160006101000a8154816001600160a01b0302191690836001600160a01b031602179055509050506040518060a0016040528060326001600160401b031681526020016105a06001600160401b0316815260200160086001600160401b0316815260200160006001600160401b0316815260200173c78b99ae87ff43535b0c782128db3cb49c74a4d36001600160a01b03168152506013600073ad6caeb32cd2c308980a548bd0bc5aa4306c6c186001600160a01b03166001600160a01b0316815260200190815260200160002060008201518160000160006101000a8154816001600160401b0302191690836001600160401b0316021790555060208201518160000160086101000a8154816001600160401b0302191690836001600160401b0316021790555060408201518160000160106101000a8154816001600160401b0302191690836001600160401b0316021790555060608201518160000160186101000a8154816001600160401b0302191690836001600160401b0316021790555060808201518160010160006101000a8154816001600160a01b0302191690836001600160a01b031602179055509050506040518060a00160405280601e6001600160401b031681526020016105a06001600160401b0316815260200160086001600160401b0316815260200160006001600160401b031681526020017343d80f616daf0b0b42a928eed32147dc59027d416001600160a01b031681525060136000738ff795a6f4d97e7887c79bea79aba5cc76444adf6001600160a01b03166001600160a01b0316815260200190815260200160002060008201518160000160006101000a8154816001600160401b0302191690836001600160401b0316021790555060208201518160000160086101000a8154816001600160401b0302191690836001600160401b0316021790555060408201518160000160106101000a8154816001600160401b0302191690836001600160401b0316021790555060608201518160000160186101000a8154816001600160401b0302191690836001600160401b0316021790555060808201518160010160006101000a8154816001600160a01b0302191690836001600160a01b031602179055509050506040518060a00160405280601e6001600160401b031681526020016105a06001600160401b0316815260200160086001600160401b0316815260200160006001600160401b03168152602001732a3796273d47c4ed363b361d3aefb7f7e2a137826001600160a01b03168152506013600073250632378e573c6be1ac2f97fcdf00515d0aa91b6001600160a01b03166001600160a01b0316815260200190815260200160002060008201518160000160006101000a8154816001600160401b0302191690836001600160401b0316021790555060208201518160000160086101000a8154816001600160401b0302191690836001600160401b0316021790555060408201518160000160106101000a8154816001600160401b0302191690836001600160401b0316021790555060608201518160000160186101000a8154816001600160401b0302191690836001600160401b0316021790555060808201518160010160006101000a8154816001600160a01b0302191690836001600160a01b031602179055509050506040518060a0016040528060326001600160401b031681526020016105a06001600160401b0316815260200160086001600160401b0316815260200160006001600160401b0316815260200173ab827b69dacd586a37e80a7d552a4395d576e6456001600160a01b03168152506013600073ca3f508b8e4dd382ee878a314789373d80a5190a6001600160a01b03166001600160a01b0316815260200190815260200160002060008201518160000160006101000a8154816001600160401b0302191690836001600160401b0316021790555060208201518160000160086101000a8154816001600160401b0302191690836001600160401b0316021790555060408201518160000160106101000a8154816001600160401b0302191690836001600160401b0316021790555060608201518160000160186101000a8154816001600160401b0302191690836001600160401b0316021790555060808201518160010160006101000a8154816001600160a01b0302191690836001600160a01b031602179055509050506040518060a0016040528060646001600160401b0316815260200160016001600160401b0316815260200160086001600160401b0316815260200160006001600160401b03168152602001730567f2323251f0aab15c8dfb1967e4e8a7d42aee6001600160a01b03168152506013600073bb4cdb9cbd36b01bd1cbaebf2de08d9173bc095c6001600160a01b03166001600160a01b0316815260200190815260200160002060008201518160000160006101000a8154816001600160401b0302191690836001600160401b0316021790555060208201518160000160086101000a8154816001600160401b0302191690836001600160401b0316021790555060408201518160000160106101000a8154816001600160401b0302191690836001600160401b0316021790555060608201518160000160186101000a8154816001600160401b0302191690836001600160401b0316021790555060808201518160010160006101000a8154816001600160a01b0302191690836001600160a01b031602179055509050506040518060a0016040528060326001600160401b031681526020016105a06001600160401b0316815260200160086001600160401b0316815260200160006001600160401b03168152602001735289a08b6d5d2f8fad4cc169c65177f68c0f0a996001600160a01b03168152506013600073d045d776d894ec6e8b685dbef196527ea8720bab6001600160a01b03166001600160a01b0316815260200190815260200160002060008201518160000160006101000a8154816001600160401b0302191690836001600160401b0316021790555060208201518160000160086101000a8154816001600160401b0302191690836001600160401b0316021790555060408201518160000160106101000a8154816001600160401b0302191690836001600160401b0316021790555060608201518160000160186101000a8154816001600160401b0302191690836001600160401b0316021790555060808201518160010160006101000a8154816001600160a01b0302191690836001600160a01b031602179055509050506040518060a00160405280601e6001600160401b031681526020016105a06001600160401b0316815260200160086001600160401b0316815260200160006001600160401b03168152602001735cb1cb3ea5fb46de1ce1d0f3badb3212e8d8ef486001600160a01b0316815250601360007312c87331f086c3c926248f964f8702c0842fd77f6001600160a01b03166001600160a01b0316815260200190815260200160002060008201518160000160006101000a8154816001600160401b0302191690836001600160401b0316021790555060208201518160000160086101000a8154816001600160401b0302191690836001600160401b0316021790555060408201518160000160106101000a8154816001600160401b0302191690836001600160401b0316021790555060608201518160000160186101000a8154816001600160401b0302191690836001600160401b0316021790555060808201518160010160006101000a8154816001600160a01b0302191690836001600160a01b031602179055509050506040518060a00160405280600a6001600160401b0316815260200160016001600160401b0316815260200160086001600160401b0316815260200160006001600160401b0316815260200173264990fbd0a4796a3e3d8e37c4d5f87a3aca5ebf6001600160a01b031681525060136000737130d2a12b9bcbfae4f2634d864a1ee1ce3ead9c6001600160a01b03166001600160a01b0316815260200190815260200160002060008201518160000160006101000a8154816001600160401b0302191690836001600160401b0316021790555060208201518160000160086101000a8154816001600160401b0302191690836001600160401b0316021790555060408201518160000160106101000a8154816001600160401b0302191690836001600160401b0316021790555060608201518160000160186101000a8154816001600160401b0302191690836001600160401b0316021790555060808201518160010160006101000a8154816001600160a01b0302191690836001600160a01b031602179055509050506040518060a0016040528060326001600160401b031681526020016105a06001600160401b0316815260200160086001600160401b0316815260200160006001600160401b0316815260200173cbb98864ef56e9042e7d2efef76141f15731b82f6001600160a01b03168152506013600073e9e7cea3dedca5984780bafc599bd69add087d566001600160a01b03166001600160a01b0316815260200190815260200160002060008201518160000160006101000a8154816001600160401b0302191690836001600160401b0316021790555060208201518160000160086101000a8154816001600160401b0302191690836001600160401b0316021790555060408201518160000160106101000a8154816001600160401b0302191690836001600160401b0316021790555060608201518160000160186101000a8154816001600160401b0302191690836001600160401b0316021790555060808201518160010160006101000a8154816001600160a01b0302191690836001600160a01b031602179055509050506040518060a0016040528060326001600160401b031681526020016105a06001600160401b0316815260200160086001600160401b0316815260200160006001600160401b0316815260200173889158e39628c0397dc54b84f6b1cbe0aaeb7ffc6001600160a01b03168152506013600073aec945e04baf28b135fa7c640f624f8d90f1c3a66001600160a01b03166001600160a01b0316815260200190815260200160002060008201518160000160006101000a8154816001600160401b0302191690836001600160401b0316021790555060208201518160000160086101000a8154816001600160401b0302191690836001600160401b0316021790555060408201518160000160106101000a8154816001600160401b0302191690836001600160401b0316021790555060608201518160000160186101000a8154816001600160401b0302191690836001600160401b0316021790555060808201518160010160006101000a8154816001600160a01b0302191690836001600160a01b031602179055509050506040518060a0016040528060146001600160401b0316815260200160016001600160401b0316815260200160086001600160401b0316815260200160006001600160401b0316815260200173b6064ed41d4f67e353768aa239ca86f4f73665a16001600160a01b031681525060136000730e09fabb73bd3ade0a17ecc321fd13a19e81ce826001600160a01b03166001600160a01b0316815260200190815260200160002060008201518160000160006101000a8154816001600160401b0302191690836001600160401b0316021790555060208201518160000160086101000a8154816001600160401b0302191690836001600160401b0316021790555060408201518160000160106101000a8154816001600160401b0302191690836001600160401b0316021790555060608201518160000160186101000a8154816001600160401b0302191690836001600160401b0316021790555060808201518160010160006101000a8154816001600160a01b0302191690836001600160a01b031602179055509050506040518060a0016040528060326001600160401b031681526020016105a06001600160401b0316815260200160086001600160401b0316815260200160006001600160401b03168152602001731f771b2b1f3c3db6c7a1d5f38961a49cecd116da6001600160a01b03168152506013600073f9cec8d50f6c8ad3fb6dccec577e05aa32b224fe6001600160a01b03166001600160a01b0316815260200190815260200160002060008201518160000160006101000a8154816001600160401b0302191690836001600160401b0316021790555060208201518160000160086101000a8154816001600160401b0302191690836001600160401b0316021790555060408201518160000160106101000a8154816001600160401b0302191690836001600160401b0316021790555060608201518160000160186101000a8154816001600160401b0302191690836001600160401b0316021790555060808201518160010160006101000a8154816001600160a01b0302191690836001600160a01b031602179055509050506040518060a0016040528060326001600160401b031681526020016105a06001600160401b0316815260200160086001600160401b0316815260200160006001600160401b03168152602001730db8945f9aef5651fa5bd52314c5aae78dfde5406001600160a01b0316815250601360007352ce071bd9b1c4b00a0b92d298c512478cad67e86001600160a01b03166001600160a01b0316815260200190815260200160002060008201518160000160006101000a8154816001600160401b0302191690836001600160401b0316021790555060208201518160000160086101000a8154816001600160401b0302191690836001600160401b0316021790555060408201518160000160106101000a8154816001600160401b0302191690836001600160401b0316021790555060608201518160000160186101000a8154816001600160401b0302191690836001600160401b0316021790555060808201518160010160006101000a8154816001600160a01b0302191690836001600160a01b031602179055509050506040518060a0016040528060326001600160401b031681526020016105a06001600160401b0316815260200160086001600160401b0316815260200160006001600160401b0316815260200173a12fc27a873cf114e6d8bbaf8bd9b8ac56110b396001600160a01b03168152506013600073d4cb328a82bdf5f03eb737f37fa6b370aef3e8886001600160a01b03166001600160a01b0316815260200190815260200160002060008201518160000160006101000a8154816001600160401b0302191690836001600160401b0316021790555060208201518160000160086101000a8154816001600160401b0302191690836001600160401b0316021790555060408201518160000160106101000a8154816001600160401b0302191690836001600160401b0316021790555060608201518160000160186101000a8154816001600160401b0302191690836001600160401b0316021790555060808201518160010160006101000a8154816001600160a01b0302191690836001600160a01b031602179055509050506040518060a00160405280600a6001600160401b031681526020016105a06001600160401b0316815260200160086001600160401b0316815260200160006001600160401b0316815260200173132d3c0b1d2cea0bc552588063bdbb210fdeecfa6001600160a01b031681525060136000731af3f329e8be154074d8769d1ffa4ee058b1dbc36001600160a01b03166001600160a01b0316815260200190815260200160002060008201518160000160006101000a8154816001600160401b0302191690836001600160401b0316021790555060208201518160000160086101000a8154816001600160401b0302191690836001600160401b0316021790555060408201518160000160106101000a8154816001600160401b0302191690836001600160401b0316021790555060608201518160000160186101000a8154816001600160401b0302191690836001600160401b0316021790555060808201518160010160006101000a8154816001600160a01b0302191690836001600160a01b031602179055509050506040518060a0016040528060326001600160401b031681526020016105a06001600160401b0316815260200160086001600160401b0316815260200160006001600160401b031681526020017339f1275366d130eb677d4f47d40f9296b62d877a6001600160a01b031681525060136000733fda9383a84c05ec8f7630fe10adf1fac13241cc6001600160a01b03166001600160a01b0316815260200190815260200160002060008201518160000160006101000a8154816001600160401b0302191690836001600160401b0316021790555060208201518160000160086101000a8154816001600160401b0302191690836001600160401b0316021790555060408201518160000160106101000a8154816001600160401b0302191690836001600160401b0316021790555060608201518160000160186101000a8154816001600160401b0302191690836001600160401b0316021790555060808201518160010160006101000a8154816001600160a01b0302191690836001600160a01b031602179055509050506040518060a0016040528060326001600160401b031681526020016105a06001600160401b0316815260200160086001600160401b0316815260200160006001600160401b03168152602001731b816f5e122efa230300126f97c018716c4e47f56001600160a01b031681525060136000734a9a2b2b04549c3927dd2c9668a5ef3fca4736236001600160a01b03166001600160a01b0316815260200190815260200160002060008201518160000160006101000a8154816001600160401b0302191690836001600160401b0316021790555060208201518160000160086101000a8154816001600160401b0302191690836001600160401b0316021790555060408201518160000160106101000a8154816001600160401b0302191690836001600160401b0316021790555060608201518160000160186101000a8154816001600160401b0302191690836001600160401b0316021790555060808201518160010160006101000a8154816001600160a01b0302191690836001600160a01b031602179055509050506040518060a0016040528060326001600160401b031681526020016105a06001600160401b0316815260200160086001600160401b0316815260200160006001600160401b031681526020017387701b15c08687341c2a847ca44ecfbc8d7873e16001600160a01b0316815250601360007367ee3cb086f8a16f34bee3ca72fad36f7db929e26001600160a01b03166001600160a01b0316815260200190815260200160002060008201518160000160006101000a8154816001600160401b0302191690836001600160401b0316021790555060208201518160000160086101000a8154816001600160401b0302191690836001600160401b0316021790555060408201518160000160106101000a8154816001600160401b0302191690836001600160401b0316021790555060608201518160000160186101000a8154816001600160401b0302191690836001600160401b0316021790555060808201518160010160006101000a8154816001600160a01b0302191690836001600160a01b031602179055509050506040518060a0016040528060146001600160401b03168152602001610b046001600160401b0316815260200160086001600160401b0316815260200160006001600160401b03168152602001733ab0a0d137d4f946fbb19eecc6e92e64660231c86001600160a01b03168152506013600073ba2ae424d960c26247dd6c32edc70b295c744c436001600160a01b03166001600160a01b0316815260200190815260200160002060008201518160000160006101000a8154816001600160401b0302191690836001600160401b0316021790555060208201518160000160086101000a8154816001600160401b0302191690836001600160401b0316021790555060408201518160000160106101000a8154816001600160401b0302191690836001600160401b0316021790555060608201518160000160186101000a8154816001600160401b0302191690836001600160401b0316021790555060808201518160010160006101000a8154816001600160a01b0302191690836001600160a01b031602179055509050506040518060a0016040528060146001600160401b03168152602001600a6001600160401b0316815260200160086001600160401b0316815260200160006001600160401b0316815260200173c333eb0086309a16aa7c8308dfd32c8bba0a25926001600160a01b031681525060136000737083609fce4d1d8dc0c979aab8c869ea2c8734026001600160a01b03166001600160a01b0316815260200190815260200160002060008201518160000160006101000a8154816001600160401b0302191690836001600160401b0316021790555060208201518160000160086101000a8154816001600160401b0302191690836001600160401b0316021790555060408201518160000160106101000a8154816001600160401b0302191690836001600160401b0316021790555060608201518160000160186101000a8154816001600160401b0302191690836001600160401b0316021790555060808201518160010160006101000a8154816001600160a01b0302191690836001600160a01b031602179055509050506040518060a0016040528060326001600160401b031681526020016105a06001600160401b0316815260200160086001600160401b0316815260200160006001600160401b0316815260200173d5508c8ffdb8f15ce336e629fd4ca9adb48f50f06001600160a01b0316815250601360007356b6fb708fc5732dec1afc8d8556423a2edccbd66001600160a01b03166001600160a01b0316815260200190815260200160002060008201518160000160006101000a8154816001600160401b0302191690836001600160401b0316021790555060208201518160000160086101000a8154816001600160401b0302191690836001600160401b0316021790555060408201518160000160106101000a8154816001600160401b0302191690836001600160401b0316021790555060608201518160000160186101000a8154816001600160401b0302191690836001600160401b0316021790555060808201518160010160006101000a8154816001600160a01b0302191690836001600160a01b031602179055509050506040518060a00160405280600a6001600160401b0316815260200160016001600160401b0316815260200160086001600160401b0316815260200160006001600160401b03168152602001739ef1b8c0e4f7dc8bf5719ea496883dc6401d5b2e6001600160a01b031681525060136000732170ed0880ac9a755fd29b2688956bd959f933f86001600160a01b03166001600160a01b0316815260200190815260200160002060008201518160000160006101000a8154816001600160401b0302191690836001600160401b0316021790555060208201518160000160086101000a8154816001600160401b0302191690836001600160401b0316021790555060408201518160000160106101000a8154816001600160401b0302191690836001600160401b0316021790555060608201518160000160186101000a8154816001600160401b0302191690836001600160401b0316021790555060808201518160010160006101000a8154816001600160a01b0302191690836001600160a01b031602179055509050506040518060a0016040528060326001600160401b031681526020016105a06001600160401b0316815260200160086001600160401b0316815260200160006001600160401b0316815260200173657e700c66c48c135c4a29c4292908dbda7aa2806001600160a01b03168152506013600073031b41e504677879370e9dbcf937283a8691fa7f6001600160a01b03166001600160a01b0316815260200190815260200160002060008201518160000160006101000a8154816001600160401b0302191690836001600160401b0316021790555060208201518160000160086101000a8154816001600160401b0302191690836001600160401b0316021790555060408201518160000160106101000a8154816001600160401b0302191690836001600160401b0316021790555060608201518160000160186101000a8154816001600160401b0302191690836001600160401b0316021790555060808201518160010160006101000a8154816001600160a01b0302191690836001600160a01b031602179055509050506040518060a00160405280601e6001600160401b031681526020016105a06001600160401b0316815260200160086001600160401b0316815260200160006001600160401b0316815260200173e5dbfd9003bff9df5feb2f4f445ca00fb121fb836001600160a01b031681525060136000730d8ce2a99bb6e3b7db580ed848240e4a0f9ae1536001600160a01b03166001600160a01b0316815260200190815260200160002060008201518160000160006101000a8154816001600160401b0302191690836001600160401b0316021790555060208201518160000160086101000a8154816001600160401b0302191690836001600160401b0316021790555060408201518160000160106101000a8154816001600160401b0302191690836001600160401b0316021790555060608201518160000160186101000a8154816001600160401b0302191690836001600160401b0316021790555060808201518160010160006101000a8154816001600160a01b0302191690836001600160a01b031602179055509050506040518060a00160405280601e6001600160401b031681526020016105a06001600160401b0316815260200160086001600160401b0316815260200160006001600160401b031681526020017313a9c98b07f098c5319f4ff786eb16e22dc738e16001600160a01b0316815250601360007390c97f71e18723b0cf0dfa30ee176ab653e89f406001600160a01b03166001600160a01b0316815260200190815260200160002060008201518160000160006101000a8154816001600160401b0302191690836001600160401b0316021790555060208201518160000160086101000a8154816001600160401b0302191690836001600160401b0316021790555060408201518160000160106101000a8154816001600160401b0302191690836001600160401b0316021790555060608201518160000160186101000a8154816001600160401b0302191690836001600160401b0316021790555060808201518160010160006101000a8154816001600160a01b0302191690836001600160a01b031602179055509050506040518060a0016040528060326001600160401b031681526020016105a06001600160401b0316815260200160086001600160401b0316815260200160006001600160401b0316815260200173e2a47e87c0f4134c8d06a41975f6860468b2f9256001600160a01b03168152506013600073a4b6e76bba7413b9b4bd83f4e3aa63cc181d869f6001600160a01b03166001600160a01b0316815260200190815260200160002060008201518160000160006101000a8154816001600160401b0302191690836001600160401b0316021790555060208201518160000160086101000a8154816001600160401b0302191690836001600160401b0316021790555060408201518160000160106101000a8154816001600160401b0302191690836001600160401b0316021790555060608201518160000160186101000a8154816001600160401b0302191690836001600160401b0316021790555060808201518160010160006101000a8154816001600160a01b0302191690836001600160a01b031602179055509050506040518060a0016040528060326001600160401b031681526020016105a06001600160401b0316815260200160086001600160401b0316815260200160006001600160401b031681526020017366cd2975d02f5f5cdef2e05cbca12549b1a5022d6001600160a01b0316815250601360007384e9a6f9d240fdd33801f7135908bfa16866939a6001600160a01b03166001600160a01b0316815260200190815260200160002060008201518160000160006101000a8154816001600160401b0302191690836001600160401b0316021790555060208201518160000160086101000a8154816001600160401b0302191690836001600160401b0316021790555060408201518160000160106101000a8154816001600160401b0302191690836001600160401b0316021790555060608201518160000160186101000a8154816001600160401b0302191690836001600160401b0316021790555060808201518160010160006101000a8154816001600160a01b0302191690836001600160a01b031602179055509050506040518060a0016040528060326001600160401b031681526020016105a06001600160401b0316815260200160086001600160401b0316815260200160006001600160401b031681526020017363a9133cd7c611d6049761038c16f238fdda71d76001600160a01b03168152506013600073a2b726b1145a4773f68593cf171187d8ebe4d4956001600160a01b03166001600160a01b0316815260200190815260200160002060008201518160000160006101000a8154816001600160401b0302191690836001600160401b0316021790555060208201518160000160086101000a8154816001600160401b0302191690836001600160401b0316021790555060408201518160000160106101000a8154816001600160401b0302191690836001600160401b0316021790555060608201518160000160186101000a8154816001600160401b0302191690836001600160401b0316021790555060808201518160010160006101000a8154816001600160a01b0302191690836001600160a01b031602179055509050506040518060a0016040528060146001600160401b03168152602001600a6001600160401b0316815260200160086001600160401b0316815260200160006001600160401b031681526020017338393201952f2764e04b290af9df427217d56b416001600160a01b03168152506013600073762539b45a1dcce3d36d080f74d1aed37844b8786001600160a01b03166001600160a01b0316815260200190815260200160002060008201518160000160006101000a8154816001600160401b0302191690836001600160401b0316021790555060208201518160000160086101000a8154816001600160401b0302191690836001600160401b0316021790555060408201518160000160106101000a8154816001600160401b0302191690836001600160401b0316021790555060608201518160000160186101000a8154816001600160401b0302191690836001600160401b0316021790555060808201518160010160006101000a8154816001600160a01b0302191690836001600160a01b031602179055509050506040518060a0016040528060146001600160401b03168152602001600a6001600160401b0316815260200160086001600160401b0316815260200160006001600160401b0316815260200173ca236e327f629f9fc2c30a4e95775ebf0b89fac86001600160a01b03168152506013600073f8a0bf9cf54bb92f17374d9e9a321e6a111a51bd6001600160a01b03166001600160a01b0316815260200190815260200160002060008201518160000160006101000a8154816001600160401b0302191690836001600160401b0316021790555060208201518160000160086101000a8154816001600160401b0302191690836001600160401b0316021790555060408201518160000160106101000a8154816001600160401b0302191690836001600160401b0316021790555060608201518160000160186101000a8154816001600160401b0302191690836001600160401b0316021790555060808201518160010160006101000a8154816001600160a01b0302191690836001600160a01b031602179055509050506040518060a00160405280601e6001600160401b031681526020016105a06001600160401b0316815260200160086001600160401b0316815260200160006001600160401b031681526020017374e72f37a8c415c8f1a98ed42e78ff997435791d6001600160a01b031681525060136000734338665cbb7b2485a8855a139b75d5e34ab0db946001600160a01b03166001600160a01b0316815260200190815260200160002060008201518160000160006101000a8154816001600160401b0302191690836001600160401b0316021790555060208201518160000160086101000a8154816001600160401b0302191690836001600160401b0316021790555060408201518160000160106101000a8154816001600160401b0302191690836001600160401b0316021790555060608201518160000160186101000a8154816001600160401b0302191690836001600160401b0316021790555060808201518160010160006101000a8154816001600160a01b0302191690836001600160a01b031602179055509050506040518060a0016040528060326001600160401b031681526020016105a06001600160401b0316815260200160086001600160401b0316815260200160006001600160401b03168152602001734978c0abe6899178c1a74838ee0062280888e2cf6001600160a01b031681525060136000732ed9a5c8c13b93955103b9a7c167b67ef4d568a36001600160a01b03166001600160a01b0316815260200190815260200160002060008201518160000160006101000a8154816001600160401b0302191690836001600160401b0316021790555060208201518160000160086101000a8154816001600160401b0302191690836001600160401b0316021790555060408201518160000160106101000a8154816001600160401b0302191690836001600160401b0316021790555060608201518160000160186101000a8154816001600160401b0302191690836001600160401b0316021790555060808201518160010160006101000a8154816001600160a01b0302191690836001600160a01b031602179055509050506040518060a0016040528060326001600160401b031681526020016105a06001600160401b0316815260200160086001600160401b0316815260200160006001600160401b0316815260200173c9d267542b23b41fb93397a93e5a1d7b80ea5a016001600160a01b03168152506013600073fe19f0b51438fd612f6fd59c1dbb3ea319f433ba6001600160a01b03166001600160a01b0316815260200190815260200160002060008201518160000160006101000a8154816001600160401b0302191690836001600160401b0316021790555060208201518160000160086101000a8154816001600160401b0302191690836001600160401b0316021790555060408201518160000160106101000a8154816001600160401b0302191690836001600160401b0316021790555060608201518160000160186101000a8154816001600160401b0302191690836001600160401b0316021790555060808201518160010160006101000a8154816001600160a01b0302191690836001600160a01b031602179055509050506040518060a0016040528060326001600160401b031681526020016105a06001600160401b0316815260200160086001600160401b0316815260200160006001600160401b0316815260200173291b2983b995870779c36a102da101f8765244d66001600160a01b031681525060136000735b6dcf557e2abe2323c48445e8cc948910d8c2c96001600160a01b03166001600160a01b0316815260200190815260200160002060008201518160000160006101000a8154816001600160401b0302191690836001600160401b0316021790555060208201518160000160086101000a8154816001600160401b0302191690836001600160401b0316021790555060408201518160000160106101000a8154816001600160401b0302191690836001600160401b0316021790555060608201518160000160186101000a8154816001600160401b0302191690836001600160401b0316021790555060808201518160010160006101000a8154816001600160a01b0302191690836001600160a01b031602179055509050506040518060a0016040528060326001600160401b031681526020016105a06001600160401b0316815260200160086001600160401b0316815260200160006001600160401b03168152602001736b25f7f189c3f26d3cac43b754578b67fc8d952a6001600160a01b0316815250601360007316a7fa783378da47a4f09613296b0b2dd2b08d066001600160a01b03166001600160a01b0316815260200190815260200160002060008201518160000160006101000a8154816001600160401b0302191690836001600160401b0316021790555060208201518160000160086101000a8154816001600160401b0302191690836001600160401b0316021790555060408201518160000160106101000a8154816001600160401b0302191690836001600160401b0316021790555060608201518160000160186101000a8154816001600160401b0302191690836001600160401b0316021790555060808201518160010160006101000a8154816001600160a01b0302191690836001600160a01b031602179055509050506040518060a0016040528060326001600160401b031681526020016105a06001600160401b0316815260200160086001600160401b0316815260200160006001600160401b0316815260200173acfbe73231d312ac6954496b3f786e892bf0f7e56001600160a01b031681525060136000738cd6e29d3686d24d3c2018cee54621ea0f89313b6001600160a01b03166001600160a01b0316815260200190815260200160002060008201518160000160006101000a8154816001600160401b0302191690836001600160401b0316021790555060208201518160000160086101000a8154816001600160401b0302191690836001600160401b0316021790555060408201518160000160106101000a8154816001600160401b0302191690836001600160401b0316021790555060608201518160000160186101000a8154816001600160401b0302191690836001600160401b0316021790555060808201518160010160006101000a8154816001600160a01b0302191690836001600160a01b031602179055509050506040518060a0016040528060326001600160401b031681526020016105a06001600160401b0316815260200160086001600160401b0316815260200160006001600160401b0316815260200173887f177cbed2cf555a64e7bf125e1825eb69db826001600160a01b03168152506013600073fd7b3a77848f1c2d67e05e54d78d174a0c8503356001600160a01b03166001600160a01b0316815260200190815260200160002060008201518160000160006101000a8154816001600160401b0302191690836001600160401b0316021790555060208201518160000160086101000a8154816001600160401b0302191690836001600160401b0316021790555060408201518160000160106101000a8154816001600160401b0302191690836001600160401b0316021790555060608201518160000160186101000a8154816001600160401b0302191690836001600160401b0316021790555060808201518160010160006101000a8154816001600160a01b0302191690836001600160a01b031602179055509050506040518060a0016040528060326001600160401b031681526020016105a06001600160401b0316815260200160086001600160401b0316815260200160006001600160401b0316815260200173d1225da5fc21d17cae526ee4b6464787c6a71b4c6001600160a01b031681525060136000738519ea49c997f50ceffa444d240fb655e89248aa6001600160a01b03166001600160a01b0316815260200190815260200160002060008201518160000160006101000a8154816001600160401b0302191690836001600160401b0316021790555060208201518160000160086101000a8154816001600160401b0302191690836001600160401b0316021790555060408201518160000160106101000a8154816001600160401b0302191690836001600160401b0316021790555060608201518160000160186101000a8154816001600160401b0302191690836001600160401b0316021790555060808201518160010160006101000a8154816001600160a01b0302191690836001600160a01b031602179055509050506040518060a0016040528060326001600160401b031681526020016105a06001600160401b0316815260200160086001600160401b0316815260200160006001600160401b0316815260200173a615be6cb0f3f36a641858db6f30b9242d0abed86001600160a01b03168152506013600073b1547683da678f2e1f003a780143ec10af8a832b6001600160a01b03166001600160a01b0316815260200190815260200160002060008201518160000160006101000a8154816001600160401b0302191690836001600160401b0316021790555060208201518160000160086101000a8154816001600160401b0302191690836001600160401b0316021790555060408201518160000160106101000a8154816001600160401b0302191690836001600160401b0316021790555060608201518160000160186101000a8154816001600160401b0302191690836001600160401b0316021790555060808201518160010160006101000a8154816001600160a01b0302191690836001600160a01b031602179055509050506040518060a0016040528060326001600160401b031681526020016105a06001600160401b0316815260200160086001600160401b0316815260200160006001600160401b0316815260200173b24d1dee5f9a3f761d286b56d2bc44ce1d02df7e6001600160a01b0316815250601360007317fd3caa66502c6f1cbd5600d8448f3af8f2aba16001600160a01b03166001600160a01b0316815260200190815260200160002060008201518160000160006101000a8154816001600160401b0302191690836001600160401b0316021790555060208201518160000160086101000a8154816001600160401b0302191690836001600160401b0316021790555060408201518160000160106101000a8154816001600160401b0302191690836001600160401b0316021790555060608201518160000160186101000a8154816001600160401b0302191690836001600160401b0316021790555060808201518160010160006101000a8154816001600160a01b0302191690836001600160a01b031602179055509050506040518060a0016040528060326001600160401b031681526020016105a06001600160401b0316815260200160086001600160401b0316815260200160006001600160401b0316815260200173a679c72a97b654cfff58ab704de3ba15cde89b076001600160a01b03168152506013600073947950bcc74888a40ffa2593c5798f11fc9124c46001600160a01b03166001600160a01b0316815260200190815260200160002060008201518160000160006101000a8154816001600160401b0302191690836001600160401b0316021790555060208201518160000160086101000a8154816001600160401b0302191690836001600160401b0316021790555060408201518160000160106101000a8154816001600160401b0302191690836001600160401b0316021790555060608201518160000160186101000a8154816001600160401b0302191690836001600160401b0316021790555060808201518160010160006101000a8154816001600160a01b0302191690836001600160a01b031602179055509050506040518060a00160405280601e6001600160401b031681526020016105a06001600160401b0316815260200160086001600160401b0316815260200160006001600160401b0316815260200173e188a9875af525d25334d75f3327863b2b8cd0f16001600160a01b0316815250601360007347bead2563dcbf3bf2c9407fea4dc236faba485a6001600160a01b03166001600160a01b0316815260200190815260200160002060008201518160000160006101000a8154816001600160401b0302191690836001600160401b0316021790555060208201518160000160086101000a8154816001600160401b0302191690836001600160401b0316021790555060408201518160000160106101000a8154816001600160401b0302191690836001600160401b0316021790555060608201518160000160186101000a8154816001600160401b0302191690836001600160401b0316021790555060808201518160010160006101000a8154816001600160a01b0302191690836001600160a01b031602179055509050506040518060a0016040528060146001600160401b03168152602001600a6001600160401b0316815260200160086001600160401b0316815260200160006001600160401b0316815260200173f4c5e535756d11994fcbb12ba8add0192d9b88be6001600160a01b0316815250601360007385eac5ac2f758618dfa09bdbe0cf174e7d574d5b6001600160a01b03166001600160a01b0316815260200190815260200160002060008201518160000160006101000a8154816001600160401b0302191690836001600160401b0316021790555060208201518160000160086101000a8154816001600160401b0302191690836001600160401b0316021790555060408201518160000160106101000a8154816001600160401b0302191690836001600160401b0316021790555060608201518160000160186101000a8154816001600160401b0302191690836001600160401b0316021790555060808201518160010160006101000a8154816001600160a01b0302191690836001600160a01b031602179055509050506040518060a00160405280601e6001600160401b031681526020016105a06001600160401b0316815260200160086001600160401b0316815260200160006001600160401b0316815260200173a3334a9762090e827413a7495afece76f41dfc066001600160a01b0316815250601360007314016e85a25aeb13065688cafb43044c2ef867846001600160a01b03166001600160a01b0316815260200190815260200160002060008201518160000160006101000a8154816001600160401b0302191690836001600160401b0316021790555060208201518160000160086101000a8154816001600160401b0302191690836001600160401b0316021790555060408201518160000160106101000a8154816001600160401b0302191690836001600160401b0316021790555060608201518160000160186101000a8154816001600160401b0302191690836001600160401b0316021790555060808201518160010160006101000a8154816001600160a01b0302191690836001600160a01b031602179055509050506040518060a0016040528060146001600160401b03168152602001600a6001600160401b0316815260200160086001600160401b0316815260200160006001600160401b0316815260200173b57f259e7c24e56a1da00f66b55a5640d9f9e7e46001600160a01b03168152506013600073bf5140a22578168fd562dccf235e5d43a02ce9b16001600160a01b03166001600160a01b0316815260200190815260200160002060008201518160000160006101000a8154816001600160401b0302191690836001600160401b0316021790555060208201518160000160086101000a8154816001600160401b0302191690836001600160401b0316021790555060408201518160000160106101000a8154816001600160401b0302191690836001600160401b0316021790555060608201518160000160186101000a8154816001600160401b0302191690836001600160401b0316021790555060808201518160010160006101000a8154816001600160a01b0302191690836001600160a01b031602179055509050506040518060a00160405280600a6001600160401b031681526020016105a06001600160401b0316815260200160086001600160401b0316815260200160006001600160401b031681526020017351597f405303c4377e36123cbc172b13269ea1636001600160a01b031681525060136000738ac76a51cc950d9822d68b83fe1ad97b32cd580d6001600160a01b03166001600160a01b0316815260200190815260200160002060008201518160000160006101000a8154816001600160401b0302191690836001600160401b0316021790555060208201518160000160086101000a8154816001600160401b0302191690836001600160401b0316021790555060408201518160000160106101000a8154816001600160401b0302191690836001600160401b0316021790555060608201518160000160186101000a8154816001600160401b0302191690836001600160401b0316021790555060808201518160010160006101000a8154816001600160a01b0302191690836001600160a01b031602179055509050506040518060a00160405280601e6001600160401b031681526020016105a06001600160401b0316815260200160086001600160401b0316815260200160006001600160401b03168152602001737c0bc703dc56645203cfebe1928e34b8e885ae376001600160a01b0316815250601360007303ab98f5dc94996f8c33e15cd4468794d12d41f96001600160a01b03166001600160a01b0316815260200190815260200160002060008201518160000160006101000a8154816001600160401b0302191690836001600160401b0316021790555060208201518160000160086101000a8154816001600160401b0302191690836001600160401b0316021790555060408201518160000160106101000a8154816001600160401b0302191690836001600160401b0316021790555060608201518160000160186101000a8154816001600160401b0302191690836001600160401b0316021790555060808201518160010160006101000a8154816001600160a01b0302191690836001600160a01b031602179055509050506040518060a00160405280600a6001600160401b031681526020016105a06001600160401b0316815260200160086001600160401b0316815260200160006001600160401b0316815260200173b97ad0e74fa7d920791e90258a6e2085088b43206001600160a01b0316815250601360007355d398326f99059ff775485246999027b31979556001600160a01b03166001600160a01b0316815260200190815260200160002060008201518160000160006101000a8154816001600160401b0302191690836001600160401b0316021790555060208201518160000160086101000a8154816001600160401b0302191690836001600160401b0316021790555060408201518160000160106101000a8154816001600160401b0302191690836001600160401b0316021790555060608201518160000160186101000a8154816001600160401b0302191690836001600160401b0316021790555060808201518160010160006101000a8154816001600160a01b0302191690836001600160a01b031602179055509050506040518060a0016040528060326001600160401b031681526020016105a06001600160401b0316815260200160086001600160401b0316815260200160006001600160401b0316815260200173cbf8518f8727b8582b22837403cdabc53463d4626001600160a01b0316815250601360007323396cf899ca06c4472205fc903bdb4de249d6fc6001600160a01b03166001600160a01b0316815260200190815260200160002060008201518160000160006101000a8154816001600160401b0302191690836001600160401b0316021790555060208201518160000160086101000a8154816001600160401b0302191690836001600160401b0316021790555060408201518160000160106101000a8154816001600160401b0302191690836001600160401b0316021790555060608201518160000160186101000a8154816001600160401b0302191690836001600160401b0316021790555060808201518160010160006101000a8154816001600160a01b0302191690836001600160a01b031602179055509050506040518060a00160405280601e6001600160401b031681526020016105a06001600160401b0316815260200160086001600160401b0316815260200160006001600160401b0316815260200173058316f8bb13acd442ee7a216c7b60cfb4ea1b536001600160a01b031681525060136000734bd17003473389a42daf6a0a729f6fdb328bbbd76001600160a01b03166001600160a01b0316815260200190815260200160002060008201518160000160006101000a8154816001600160401b0302191690836001600160401b0316021790555060208201518160000160086101000a8154816001600160401b0302191690836001600160401b0316021790555060408201518160000160106101000a8154816001600160401b0302191690836001600160401b0316021790555060608201518160000160186101000a8154816001600160401b0302191690836001600160401b0316021790555060808201518160010160006101000a8154816001600160a01b0302191690836001600160a01b031602179055509050506040518060a0016040528060326001600160401b031681526020016105a06001600160401b0316815260200160086001600160401b0316815260200160006001600160401b0316815260200173f7e7c0ffcb11dac6eca1434c67fab9ae000e10a76001600160a01b031681525060136000733cb7378565718c64ab86970802140cc48ef1f9696001600160a01b03166001600160a01b0316815260200190815260200160002060008201518160000160006101000a8154816001600160401b0302191690836001600160401b0316021790555060208201518160000160086101000a8154816001600160401b0302191690836001600160401b0316021790555060408201518160000160106101000a8154816001600160401b0302191690836001600160401b0316021790555060608201518160000160186101000a8154816001600160401b0302191690836001600160401b0316021790555060808201518160010160006101000a8154816001600160a01b0302191690836001600160a01b031602179055509050506040518060a0016040528060326001600160401b031681526020016105a06001600160401b0316815260200160086001600160401b0316815260200160006001600160401b031681526020017302bfe714e78e2ad1bb1c2bee93ec8dc5423b66d46001600160a01b031681525060136000734691937a7508860f876c9c0a2a617e7d9e945d4b6001600160a01b03166001600160a01b0316815260200190815260200160002060008201518160000160006101000a8154816001600160401b0302191690836001600160401b0316021790555060208201518160000160086101000a8154816001600160401b0302191690836001600160401b0316021790555060408201518160000160106101000a8154816001600160401b0302191690836001600160401b0316021790555060608201518160000160186101000a8154816001600160401b0302191690836001600160401b0316021790555060808201518160010160006101000a8154816001600160a01b0302191690836001600160a01b031602179055509050506040518060a0016040528060146001600160401b03168152602001600a6001600160401b0316815260200160086001600160401b0316815260200160006001600160401b031681526020017393a67d414896a280bf8ffb3b389fe3686e014fda6001600160a01b031681525060136000731d2f0da169ceb9fc7b3144628db156f3f6c60dbe6001600160a01b03166001600160a01b0316815260200190815260200160002060008201518160000160006101000a8154816001600160401b0302191690836001600160401b0316021790555060208201518160000160086101000a8154816001600160401b0302191690836001600160401b0316021790555060408201518160000160106101000a8154816001600160401b0302191690836001600160401b0316021790555060608201518160000160186101000a8154816001600160401b0302191690836001600160401b0316021790555060808201518160010160006101000a8154816001600160a01b0302191690836001600160a01b031602179055509050506040518060a0016040528060326001600160401b031681526020016105a06001600160401b0316815260200160086001600160401b0316815260200160006001600160401b03168152602001739a18137adcf7b05f033ad26968ed5a9cf0bf8e6b6001600160a01b0316815250601360007316939ef78684453bfdfb47825f8a5f714f12623a6001600160a01b03166001600160a01b0316815260200190815260200160002060008201518160000160006101000a8154816001600160401b0302191690836001600160401b0316021790555060208201518160000160086101000a8154816001600160401b0302191690836001600160401b0316021790555060408201518160000160106101000a8154816001600160401b0302191690836001600160401b0316021790555060608201518160000160186101000a8154816001600160401b0302191690836001600160401b0316021790555060808201518160010160006101000a8154816001600160a01b0302191690836001600160a01b031602179055509050506040518060a00160405280601e6001600160401b031681526020016105a06001600160401b0316815260200160086001600160401b0316815260200160006001600160401b0316815260200173bf63f430a79d4036a5900c19818aff1fa710f2066001600160a01b03168152506013600073cf6bb5389c92bdda8a3747ddb454cb7a64626c636001600160a01b03166001600160a01b0316815260200190815260200160002060008201518160000160006101000a8154816001600160401b0302191690836001600160401b0316021790555060208201518160000160086101000a8154816001600160401b0302191690836001600160401b0316021790555060408201518160000160106101000a8154816001600160401b0302191690836001600160401b0316021790555060608201518160000160186101000a8154816001600160401b0302191690836001600160401b0316021790555060808201518160010160006101000a8154816001600160a01b0302191690836001600160a01b031602179055509050506040518060a0016040528060c86001600160401b03168152602001600a6001600160401b0316815260200160086001600160401b0316815260200160006001600160401b0316815260200173d7eaa5bf3013a96e3d515c055dbd98dbdc8c620d6001600160a01b0316815250601360007388f1a5ae2a3bf98aeaf342d26b30a79438c9142e6001600160a01b03166001600160a01b0316815260200190815260200160002060008201518160000160006101000a8154816001600160401b0302191690836001600160401b0316021790555060208201518160000160086101000a8154816001600160401b0302191690836001600160401b0316021790555060408201518160000160106101000a8154816001600160401b0302191690836001600160401b0316021790555060608201518160000160186101000a8154816001600160401b0302191690836001600160401b0316021790555060808201518160010160006101000a8154816001600160a01b0302191690836001600160a01b031602179055509050506040518060a0016040528060326001600160401b031681526020016105a06001600160401b0316815260200160086001600160401b0316815260200160006001600160401b0316815260200173c94580faaf145b2fd0ab5215031833c98d3b77e46001600160a01b031681525060136000737f70642d88cf1c4a3a7abb072b53b929b653eda56001600160a01b03166001600160a01b0316815260200190815260200160002060008201518160000160006101000a8154816001600160401b0302191690836001600160401b0316021790555060208201518160000160086101000a8154816001600160401b0302191690836001600160401b0316021790555060408201518160000160106101000a8154816001600160401b0302191690836001600160401b0316021790555060608201518160000160186101000a8154816001600160401b0302191690836001600160401b0316021790555060808201518160010160006101000a8154816001600160a01b0302191690836001600160a01b031602179055509050506040518060a0016040528060146001600160401b03168152602001600a6001600160401b0316815260200160086001600160401b0316815260200160006001600160401b03168152602001733e3aa4fc329529c8ab921c810850626021dba7e66001600160a01b03168152506013600073b86abcb37c3a4b64f74f59301aff131a1becc7876001600160a01b03166001600160a01b0316815260200190815260200160002060008201518160000160006101000a8154816001600160401b0302191690836001600160401b0316021790555060208201518160000160086101000a8154816001600160401b0302191690836001600160401b0316021790555060408201518160000160106101000a8154816001600160401b0302191690836001600160401b0316021790555060608201518160000160186101000a8154816001600160401b0302191690836001600160401b0316021790555060808201518160010160006101000a8154816001600160a01b0302191690836001600160a01b03160217905550905050565b50620069f3565b600980546001600160a01b038381166001600160a01b0319831681179093556040519116919082907f8be0079c531659141344cd1fd0a4f28419497f9722a3daafe3b4186f6b6457e090600090a35050565b82805482825590600052602060002090600701600890048101928215620068e05791602002820160005b83821115620068ac57835183826101000a81548163ffffffff021916908360030b63ffffffff160217905550926020019260040160208160030104928301926001030262006863565b8015620068de5782816101000a81549063ffffffff0219169055600401602081600301049283019260010302620068ac565b505b50620068ee9291506200696f565b5090565b8280546200690090620069b6565b90600052602060002090601f016020900481019282620069245760008555620068e0565b82601f106200693f57805160ff1916838001178555620068e0565b82800160010185558215620068e0579182015b82811115620068e057825182559160200191906001019062006952565b5b80821115620068ee576000815560010162006970565b60006020828403121562006998578081fd5b81516001600160a01b0381168114620069af578182fd5b9392505050565b600181811c90821680620069cb57607f821691505b60208210811415620069ed57634e487b7160e01b600052602260045260246000fd5b50919050565b60805160601c615cb662006a9060003960008181610192015281816104e7015281816107ae01528181610a0601528181610df20152818161146101528181611597015281816116580152818161170101528181611831015281816118d501528181611d0d01528181611d9d01528181611e19015281816121a9015281816121d90152818161234e0152818161247201526125160152615cb66000f3fe6080604052600436106101825760003560e01c8063054d50d4146101d4578063102247111461020757806318cbafe5146102895780631f00ca74146102b6578063249dfad7146102d657806328fd8cda1461030357806338ed1739146103235780634a25d94a146103435780635c11d79514610363578063616129391461038357806365715c56146103a3578063715018a6146103c3578063791ac947146103d85780637ff36ab5146103f857806385f8c2591461040b5780638803dbee1461042b578063893d20e81461044b5780638da5cb5b1461046057806390e3677f14610475578063928879d61461049557806394f376f6146104b5578063ad5c4648146104d5578063ad615dec14610509578063affc8dd714610529578063b6f9de951461053f578063b8d05b1114610552578063bb04a5e614610572578063c23b078314610592578063d06ca61f146105c5578063e8c16500146105e5578063f2fde38b14610691578063f9a21e8a146106b1578063fb3bdb41146106f4576101cf565b366101cf57336001600160a01b037f000000000000000000000000000000000000000000000000000000000000000016146101cd57634e487b7160e01b600052600160045260246000fd5b005b600080fd5b3480156101e057600080fd5b506101f46101ef36600461526d565b610707565b6040519081526020015b60405180910390f35b34801561021357600080fd5b50610259610222366004614ee5565b60196020526000908152604090205463ffffffff80821691600160201b8104821691600160401b8204811691600160601b90041684565b6040805163ffffffff958616815293851660208501529184169183019190915290911660608201526080016101fe565b34801561029557600080fd5b506102a96102a43660046151fd565b61071e565b6040516101fe9190615464565b3480156102c257600080fd5b506102a96102d136600461513e565b610b09565b3480156102e257600080fd5b506000546102f6906001600160a01b031681565b6040516101fe91906153d7565b34801561030f57600080fd5b506101cd61031e366004614f98565b610b2c565b34801561032f57600080fd5b506102a961033e3660046151fd565b610bdb565b34801561034f57600080fd5b506102a961035e3660046151fd565b610db7565b34801561036f57600080fd5b506101cd61037e3660046151fd565b610f7d565b34801561038f57600080fd5b506101cd61039e366004614e23565b611306565b3480156103af57600080fd5b506001546102f6906001600160a01b031681565b3480156103cf57600080fd5b506101cd6113ed565b3480156103e457600080fd5b506101cd6103f33660046151fd565b611428565b6102a96104063660046150da565b6116ce565b34801561041757600080fd5b506101f461042636600461526d565b611a1d565b34801561043757600080fd5b506102a96104463660046151fd565b611a2a565b34801561045757600080fd5b506102f6611b18565b34801561046c57600080fd5b506102f6611b27565b34801561048157600080fd5b506101cd610490366004614deb565b611b36565b3480156104a157600080fd5b506101cd6104b0366004614e98565b611bbf565b3480156104c157600080fd5b506101cd6104d03660046150aa565b611c33565b3480156104e157600080fd5b506102f67f000000000000000000000000000000000000000000000000000000000000000081565b34801561051557600080fd5b506101f461052436600461526d565b611ccf565b34801561053557600080fd5b506101f460115481565b6101cd61054d3660046150da565b611cdc565b34801561055e57600080fd5b506101cd61056d366004614f01565b6120cf565b34801561057e57600080fd5b506101f461058d366004614db3565b61218f565b34801561059e57600080fd5b506105b26105ad3660046150aa565b61222a565b60405160039190910b81526020016101fe565b3480156105d157600080fd5b506102a96105e036600461513e565b612261565b3480156105f157600080fd5b5061064e610600366004614db3565b601360205260009081526040902080546001909101546001600160401b0380831692600160401b8104821692600160801b8204831692600160c01b909204909116906001600160a01b031685565b604080516001600160401b03968716815294861660208601529285169284019290925290921660608201526001600160a01b03909116608082015260a0016101fe565b34801561069d57600080fd5b506101cd6106ac366004614db3565b61227b565b3480156106bd57600080fd5b506015546016546017546018546106e4936001600160a01b03908116938116928116911684565b6040516101fe94939291906153eb565b6102a96107023660046150da565b61231b565b60006107148484846126b9565b90505b9392505050565b60608160204282101561074d5760405162461bcd60e51b81526004016107449190615599565b60405180910390fd5b506107586002612793565b6107988686600081811061077c57634e487b7160e01b600052603260045260246000fd5b90506020020160208101906107919190614db3565b338a61287c565b6107a29089615b5c565b97506001600160a01b037f00000000000000000000000000000000000000000000000000000000000000001686866107db600182615b5c565b8181106107f857634e487b7160e01b600052603260045260246000fd5b905060200201602081019061080d9190614db3565b6001600160a01b031614601b906108375760405162461bcd60e51b81526004016107449190615599565b506007546040805160208089028281018201909352888252610882936001600160a01b0316928c92918b918b9182919085019084908082843760009201919091525061295392505050565b91508682600184516108949190615b5c565b815181106108b257634e487b7160e01b600052603260045260246000fd5b60200260200101511015601c906108dc5760405162461bcd60e51b81526004016107449190615599565b506109c58686600081811061090157634e487b7160e01b600052603260045260246000fd5b90506020020160208101906109169190614db3565b6007543390610997906001600160a01b03168a8a60008161094757634e487b7160e01b600052603260045260246000fd5b905060200201602081019061095c9190614db3565b8b8b600181811061097d57634e487b7160e01b600052603260045260246000fd5b90506020020160208101906109929190614db3565b612b01565b856000815181106109b857634e487b7160e01b600052603260045260246000fd5b6020026020010151612bd0565b610a0482878780806020026020016040519081016040528093929190818152602001838360200280828437600092019190915250309250612d00915050565b7f00000000000000000000000000000000000000000000000000000000000000006001600160a01b0316632e1a7d4d8360018551610a429190615b5c565b81518110610a6057634e487b7160e01b600052603260045260246000fd5b60200260200101516040518263ffffffff1660e01b8152600401610a8691815260200190565b600060405180830381600087803b158015610aa057600080fd5b505af1158015610ab4573d6000803e3d6000fd5b50505050610af6848360018551610acb9190615b5c565b81518110610ae957634e487b7160e01b600052603260045260246000fd5b6020026020010151612f13565b610afe612fdc565b509695505050505050565b600754606090610b23906001600160a01b03168484613040565b90505b92915050565b610b3682826131e4565b604051633d8d54b760e11b815273__$88bebae22a3ad6e62b56c303176513ecf8$__90637b1aa96e90610b70906015908690600401615778565b60006040518083038186803b158015610b8857600080fd5b505af4158015610b9c573d6000803e3d6000fd5b505050507f119d2e55d36ac1023a728780d56fc7adb4fa783aa7d7972035442c6e7c9dbbba82604051610bcf9190615744565b60405180910390a15050565b606081602042821015610c015760405162461bcd60e51b81526004016107449190615599565b50610c0c6002612793565b610c308686600081811061077c57634e487b7160e01b600052603260045260246000fd5b610c3a9089615b5c565b600754604080516020808a028281018201909352898252939b50610c87936001600160a01b03909316928c928b918b91829185019084908082843760009201919091525061295392505050565b9150868260018451610c999190615b5c565b81518110610cb757634e487b7160e01b600052603260045260246000fd5b60200260200101511015601c90610ce15760405162461bcd60e51b81526004016107449190615599565b50610d068686600081811061090157634e487b7160e01b600052603260045260246000fd5b600a54610af69083908890889060199060009060ff166012811115610d3b57634e487b7160e01b600052602160045260246000fd5b6012811115610d5a57634e487b7160e01b600052602160045260246000fd5b815260208082019290925260409081016000208151608081018352905463ffffffff8082168352600160201b8204811694830194909452600160401b8104841692820192909252600160601b9091049091166060820152886132d8565b606081602042821015610ddd5760405162461bcd60e51b81526004016107449190615599565b50610de86002612793565b6001600160a01b037f0000000000000000000000000000000000000000000000000000000000000000168686610e1f600182615b5c565b818110610e3c57634e487b7160e01b600052603260045260246000fd5b9050602002016020810190610e519190614db3565b6001600160a01b031614601b90610e7b5760405162461bcd60e51b81526004016107449190615599565b506007546040805160208089028281018201909352888252610ec6936001600160a01b0316928c92918b918b9182919085019084908082843760009201919091525061304092505050565b91508682600081518110610eea57634e487b7160e01b600052603260045260246000fd5b60200260200101511115601f90610f145760405162461bcd60e51b81526004016107449190615599565b506108dc86866000818110610f3957634e487b7160e01b600052603260045260246000fd5b9050602002016020810190610f4e9190614db3565b3384600081518110610f7057634e487b7160e01b600052603260045260246000fd5b602002602001015161287c565b80602042821015610fa15760405162461bcd60e51b81526004016107449190615599565b50610fac6002612793565b610fec85856000818110610fd057634e487b7160e01b600052603260045260246000fd5b9050602002016020810190610fe59190614db3565b338961287c565b610ff69088615b5c565b965061109e8585600081811061101c57634e487b7160e01b600052603260045260246000fd5b90506020020160208101906110319190614db3565b6007543390611098906001600160a01b0316898960008161106257634e487b7160e01b600052603260045260246000fd5b90506020020160208101906110779190614db3565b8a8a600181811061097d57634e487b7160e01b600052603260045260246000fd5b8a612bd0565b600085856110ad600182615b5c565b8181106110ca57634e487b7160e01b600052603260045260246000fd5b90506020020160208101906110df9190614db3565b6001600160a01b03166370a08231856040518263ffffffff1660e01b815260040161110a91906153d7565b60206040518083038186803b15801561112257600080fd5b505afa158015611136573d6000803e3d6000fd5b505050506040513d601f19601f8201168201806040525081019061115a91906150c2565b600a5490915061120c908790879060199060009060ff16601281111561119057634e487b7160e01b600052602160045260246000fd5b60128111156111af57634e487b7160e01b600052602160045260246000fd5b815260208082019290925260409081016000208151608081018352905463ffffffff8082168352600160201b8204811694830194909452600160401b8104841692820192909252600160601b90910490911660608201528761352f565b866112d182888861121e600182615b5c565b81811061123b57634e487b7160e01b600052603260045260246000fd5b90506020020160208101906112509190614db3565b6001600160a01b03166370a08231886040518263ffffffff1660e01b815260040161127b91906153d7565b60206040518083038186803b15801561129357600080fd5b505afa1580156112a7573d6000803e3d6000fd5b505050506040513d601f19601f820116820180604052508101906112cb91906150c2565b9061377c565b1015601c906112f35760405162461bcd60e51b81526004016107449190615599565b506112fc612fdc565b5050505050505050565b6000546001600160a01b03163314806113375750611322611b18565b6001600160a01b0316336001600160a01b0316145b6113535760405162461bcd60e51b8152600401610744906156ec565b6001600160a01b03811630146113e75760006001600160a01b0382161561137a578161137c565b305b600154604051636161293960e01b81529192506001600160a01b0316906361612939906113b39088908890889087906004016153eb565b600060405180830381600087803b1580156113cd57600080fd5b505af11580156113e1573d6000803e3d6000fd5b50505050505b50505050565b336113f6611b27565b6001600160a01b03161461141c5760405162461bcd60e51b815260040161074490615673565b61142660006137be565b565b8060204282101561144c5760405162461bcd60e51b81526004016107449190615599565b506114576002612793565b6001600160a01b037f000000000000000000000000000000000000000000000000000000000000000016858561148e600182615b5c565b8181106114ab57634e487b7160e01b600052603260045260246000fd5b90506020020160208101906114c09190614db3565b6001600160a01b031614601b906114ea5760405162461bcd60e51b81526004016107449190615599565b5061150f85856000818110610fd057634e487b7160e01b600052603260045260246000fd5b6115199088615b5c565b965061153f8585600081811061101c57634e487b7160e01b600052603260045260246000fd5b61157d858580806020026020016040519081016040528093929190818152602001838360200280828437600092019190915250309250613810915050565b6040516370a0823160e01b81526000906001600160a01b037f000000000000000000000000000000000000000000000000000000000000000016906370a08231906115cc9030906004016153d7565b60206040518083038186803b1580156115e457600080fd5b505afa1580156115f8573d6000803e3d6000fd5b505050506040513d601f19601f8201168201806040525081019061161c91906150c2565b9050601c878210156116415760405162461bcd60e51b81526004016107449190615599565b50604051632e1a7d4d60e01b8152600481018290527f00000000000000000000000000000000000000000000000000000000000000006001600160a01b031690632e1a7d4d90602401600060405180830381600087803b1580156116a457600080fd5b505af11580156116b8573d6000803e3d6000fd5b505050506116c68482612f13565b6112fc612fdc565b6060816020428210156116f45760405162461bcd60e51b81526004016107449190615599565b506116ff6002612793565b7f00000000000000000000000000000000000000000000000000000000000000006001600160a01b03168686600081811061174a57634e487b7160e01b600052603260045260246000fd5b905060200201602081019061175f9190614db3565b6001600160a01b031614601b906117895760405162461bcd60e51b81526004016107449190615599565b5060075460408051602080890282810182019093528882526117d4936001600160a01b0316923492918b918b9182919085019084908082843760009201919091525061295392505050565b91508682600184516117e69190615b5c565b8151811061180457634e487b7160e01b600052603260045260246000fd5b60200260200101511015601c9061182e5760405162461bcd60e51b81526004016107449190615599565b507f00000000000000000000000000000000000000000000000000000000000000006001600160a01b031663d0e30db08360008151811061187f57634e487b7160e01b600052603260045260246000fd5b60200260200101516040518263ffffffff1660e01b81526004016000604051808303818588803b1580156118b257600080fd5b505af11580156118c6573d6000803e3d6000fd5b50506007546001600160a01b037f00000000000000000000000000000000000000000000000000000000000000008116945063a9059cbb9350611924925016898960008161106257634e487b7160e01b600052603260045260246000fd5b8460008151811061194557634e487b7160e01b600052603260045260246000fd5b60200260200101516040518363ffffffff1660e01b815260040161196a929190615416565b602060405180830381600087803b15801561198457600080fd5b505af1158015611998573d6000803e3d6000fd5b505050506040513d601f19601f820116820180604052508101906119bc9190614e7e565b6119d657634e487b7160e01b600052600160045260246000fd5b600a54611a0b9083908890889060199060009060ff166012811115610d3b57634e487b7160e01b600052602160045260246000fd5b611a13612fdc565b5095945050505050565b6000610714848484613a4b565b606081602042821015611a505760405162461bcd60e51b81526004016107449190615599565b50611a5b6002612793565b6007546040805160208089028281018201909352888252611aa5936001600160a01b0316928c92918b918b9182919085019084908082843760009201919091525061304092505050565b91508682600081518110611ac957634e487b7160e01b600052603260045260246000fd5b60200260200101511115601f90611af35760405162461bcd60e51b81526004016107449190615599565b50610ce186866000818110610f3957634e487b7160e01b600052603260045260246000fd5b6000611b22611b27565b905090565b6009546001600160a01b031690565b611b3e611b18565b6001600160a01b0316336001600160a01b031614611b915760405162461bcd60e51b815260206004820152601060248201526f496e76616c69642063616c6c6572203360801b6044820152606401610744565b600080546001600160a01b039384166001600160a01b03199182161790915560018054929093169116179055565b6001600160a01b0381163014611c2e576000836006811115611bf157634e487b7160e01b600052602160045260246000fd5b1415611c2357600e80546001600160a01b0384166001600160a01b03199182168117909255600f805490911690911790555b611c2e838383613b20565b505050565b611c3b611b27565b6001600160a01b0316336001600160a01b031614601a90611c6f5760405162461bcd60e51b81526004016107449190615599565b5080606411158015611c8357506113888111155b611cca5760405162461bcd60e51b81526020600482015260186024820152775072696365206c696d6974206f7574206f662072616e676560401b6044820152606401610744565b601155565b6000610714848484613cb3565b80602042821015611d005760405162461bcd60e51b81526004016107449190615599565b50611d0b6002612793565b7f00000000000000000000000000000000000000000000000000000000000000006001600160a01b031685856000818110611d5657634e487b7160e01b600052603260045260246000fd5b9050602002016020810190611d6b9190614db3565b6001600160a01b031614601b90611d955760405162461bcd60e51b81526004016107449190615599565b5060003490507f00000000000000000000000000000000000000000000000000000000000000006001600160a01b031663d0e30db0826040518263ffffffff1660e01b81526004016000604051808303818588803b158015611df657600080fd5b505af1158015611e0a573d6000803e3d6000fd5b50506007546001600160a01b037f00000000000000000000000000000000000000000000000000000000000000008116945063a9059cbb9350611e68925016898960008161106257634e487b7160e01b600052603260045260246000fd5b836040518363ffffffff1660e01b8152600401611e86929190615416565b602060405180830381600087803b158015611ea057600080fd5b505af1158015611eb4573d6000803e3d6000fd5b505050506040513d601f19601f82011682018060405250810190611ed89190614e7e565b611ef257634e487b7160e01b600052600160045260246000fd5b60008686611f01600182615b5c565b818110611f1e57634e487b7160e01b600052603260045260246000fd5b9050602002016020810190611f339190614db3565b6001600160a01b03166370a08231866040518263ffffffff1660e01b8152600401611f5e91906153d7565b60206040518083038186803b158015611f7657600080fd5b505afa158015611f8a573d6000803e3d6000fd5b505050506040513d601f19601f82011682018060405250810190611fae91906150c2565b600a54909150612060908890889060199060009060ff166012811115611fe457634e487b7160e01b600052602160045260246000fd5b601281111561200357634e487b7160e01b600052602160045260246000fd5b815260208082019290925260409081016000208151608081018352905463ffffffff8082168352600160201b8204811694830194909452600160401b8104841692820192909252600160601b90910490911660608201528861352f565b876112d1828989612072600182615b5c565b81811061208f57634e487b7160e01b600052603260045260246000fd5b90506020020160208101906120a49190614db3565b6001600160a01b03166370a08231896040518263ffffffff1660e01b815260040161127b91906153d7565b6001600160a01b0381163014611c2e5760405163b1f2df4360e01b815273__$88bebae22a3ad6e62b56c303176513ecf8$__9063b1f2df439061211b908690601990879060040161550e565b60006040518083038186803b15801561213357600080fd5b505af4158015612147573d6000803e3d6000fd5b505050507f029d9f0c8658b2b4deb9a71c950bd17f92125b77885562de42477ea2ea40b839838360405161217c929190615537565b60405180910390a1611c2e838383613d4f565b600754600090819081906121cd906001600160a01b0316857f0000000000000000000000000000000000000000000000000000000000000000613e0d565b9150915060006121fd857f0000000000000000000000000000000000000000000000000000000000000000613ef2565b509050846001600160a01b0316816001600160a01b03161461221f5781612221565b825b95945050505050565b6012818154811061223a57600080fd5b9060005260206000209060089182820401919006600402915054906101000a900460030b81565b600754606090610b23906001600160a01b03168484612953565b33612284611b27565b6001600160a01b0316146122aa5760405162461bcd60e51b815260040161074490615673565b6001600160a01b03811661230f5760405162461bcd60e51b815260206004820152602660248201527f4f776e61626c653a206e6577206f776e657220697320746865207a65726f206160448201526564647265737360d01b6064820152608401610744565b612318816137be565b50565b6060816020428210156123415760405162461bcd60e51b81526004016107449190615599565b5061234c6002612793565b7f00000000000000000000000000000000000000000000000000000000000000006001600160a01b03168686600081811061239757634e487b7160e01b600052603260045260246000fd5b90506020020160208101906123ac9190614db3565b6001600160a01b031614601b906123d65760405162461bcd60e51b81526004016107449190615599565b506007546040805160208089028281018201909352888252612421936001600160a01b0316928b92918b918b9182919085019084908082843760009201919091525061304092505050565b9150348260008151811061244557634e487b7160e01b600052603260045260246000fd5b60200260200101511115601f9061246f5760405162461bcd60e51b81526004016107449190615599565b507f00000000000000000000000000000000000000000000000000000000000000006001600160a01b031663d0e30db0836000815181106124c057634e487b7160e01b600052603260045260246000fd5b60200260200101516040518263ffffffff1660e01b81526004016000604051808303818588803b1580156124f357600080fd5b505af1158015612507573d6000803e3d6000fd5b50506007546001600160a01b037f00000000000000000000000000000000000000000000000000000000000000008116945063a9059cbb9350612565925016898960008161106257634e487b7160e01b600052603260045260246000fd5b8460008151811061258657634e487b7160e01b600052603260045260246000fd5b60200260200101516040518363ffffffff1660e01b81526004016125ab929190615416565b602060405180830381600087803b1580156125c557600080fd5b505af11580156125d9573d6000803e3d6000fd5b505050506040513d601f19601f820116820180604052508101906125fd9190614e7e565b61261757634e487b7160e01b600052600160045260246000fd5b600a5461264c9083908890889060199060009060ff166012811115610d3b57634e487b7160e01b600052602160045260246000fd5b8160008151811061266d57634e487b7160e01b600052603260045260246000fd5b6020026020010151341115611a0b57611a0b33836000815181106126a157634e487b7160e01b600052603260045260246000fd5b6020026020010151346126b49190615b5c565b612f13565b600080841161271a5760405162461bcd60e51b815260206004820152602760248201527f43726f73734c6962726172793a20494e53554646494349454e545f494e50555460448201526617d05353d5539560ca1b6064820152608401610744565b60008311801561272a5750600082115b6127465760405162461bcd60e51b8152600401610744906156a8565b6000612754856126ff613fe3565b905060006127628285613fe3565b9050600061277c8361277688612710613fe3565b90614062565b90506127888183615895565b979650505050505050565b600e54604051630ed4fac360e41b81526001600160a01b039091169063ed4fac30906127c3908490600401615500565b608060405180830381600087803b1580156127dd57600080fd5b505af11580156127f1573d6000803e3d6000fd5b505050506040513d601f19601f820116820180604052508101906128159190615019565b8051600a8054909190829060ff1916600183601281111561284657634e487b7160e01b600052602160045260246000fd5b021790555060208201516001820155604082015160028201556060909101516003909101805460ff191691151591909117905550565b600d5460009060ff16801561289e57506002546001600160a01b038581169116145b1561071757600a54610714908490849060199060009060ff1660128111156128d657634e487b7160e01b600052602160045260246000fd5b60128111156128f557634e487b7160e01b600052602160045260246000fd5b815260208082019290925260409081016000208151608081018352905463ffffffff8082168352600160201b8204811694830194909452600160401b8104841692820192909252600160601b909104909116606082015260016140bf565b60606002825110156129775760405162461bcd60e51b81526004016107449061563f565b81516001600160401b0381111561299e57634e487b7160e01b600052604160045260246000fd5b6040519080825280602002602001820160405280156129c7578160200160208202803683370190505b50905082816000815181106129ec57634e487b7160e01b600052603260045260246000fd5b60200260200101818152505060005b60018351612a099190615b5c565b811015612af957600080612a7887868581518110612a3757634e487b7160e01b600052603260045260246000fd5b602002602001015187866001612a4d919061582a565b81518110612a6b57634e487b7160e01b600052603260045260246000fd5b6020026020010151613e0d565b91509150612aae848481518110612a9f57634e487b7160e01b600052603260045260246000fd5b602002602001015183836126b9565b84612aba85600161582a565b81518110612ad857634e487b7160e01b600052603260045260246000fd5b60200260200101818152505050508080612af190615bd9565b9150506129fb565b509392505050565b6000806000612b108585613ef2565b6040516001600160601b0319606084811b8216602084015283901b1660348201529193509150869060480160405160208183030381529060405280519060200120604051602001612bae9291906001600160f81b0319815260609290921b6001600160601b031916600183015260158201527fed9f2bf75cf1db7ba6c4dff6186fc72df74674753ed3f693eb75153aa72314ab603582015260550190565b60408051601f1981840301815291905280516020909101209695505050505050565b604080516001600160a01b0385811660248301528481166044830152606480830185905283518084039091018152608490920183526020820180516001600160e01b03166323b872dd60e01b1790529151600092839290881691612c3491906153bb565b6000604051808303816000865af19150503d8060008114612c71576040519150601f19603f3d011682016040523d82523d6000602084013e612c76565b606091505b5091509150818015612ca0575080511580612ca0575080806020019051810190612ca09190614e7e565b612cf85760405162461bcd60e51b8152602060048201526024808201527f5472616e7366657248656c7065723a205452414e534645525f46524f4d5f46416044820152631253115160e21b6064820152608401610744565b505050505050565b60005b60018351612d119190615b5c565b8110156113e757600080848381518110612d3b57634e487b7160e01b600052603260045260246000fd5b602002602001015185846001612d51919061582a565b81518110612d6f57634e487b7160e01b600052603260045260246000fd5b602002602001015191509150600080612d888484614148565b81519193509150600089612d9d88600161582a565b81518110612dbb57634e487b7160e01b600052603260045260246000fd5b6020026020010151905060008085602001516001600160a01b0316886001600160a01b031614612ded57826000612df1565b6000835b91509150600060028c51612e059190615b5c565b8a10612e11578a612e59565b600754612e59906001600160a01b0316898e612e2e8e600261582a565b81518110612e4c57634e487b7160e01b600052603260045260246000fd5b6020026020010151612b01565b6040805160008152602081019182905263022c0d9f60e01b9091529091506001600160a01b0386169063022c0d9f90612e9b908690869086906024810161578c565b600060405180830381600087803b158015612eb557600080fd5b505af1158015612ec9573d6000803e3d6000fd5b50505050612ed5611b27565b6001600160a01b0316336001600160a01b031614612ef757612ef7868861448f565b5050505050505050508080612f0b90615bd9565b915050612d03565b604080516000808252602082019092526001600160a01b038416908390604051612f3d91906153bb565b60006040518083038185875af1925050503d8060008114612f7a576040519150601f19603f3d011682016040523d82523d6000602084013e612f7f565b606091505b5050905080611c2e5760405162461bcd60e51b815260206004820152602360248201527f5472616e7366657248656c7065723a204554485f5452414e534645525f46414960448201526213115160ea1b6064820152608401610744565b600e60009054906101000a90046001600160a01b03166001600160a01b031663b9d91aea6040518163ffffffff1660e01b8152600401600060405180830381600087803b15801561302c57600080fd5b505af11580156113e7573d6000803e3d6000fd5b60606002825110156130645760405162461bcd60e51b81526004016107449061563f565b81516001600160401b0381111561308b57634e487b7160e01b600052604160045260246000fd5b6040519080825280602002602001820160405280156130b4578160200160208202803683370190505b5090508281600183516130c79190615b5c565b815181106130e557634e487b7160e01b600052603260045260246000fd5b6020026020010181815250506000600183516131019190615b5c565b90505b8015612af957600080613163878661311d600187615b5c565b8151811061313b57634e487b7160e01b600052603260045260246000fd5b6020026020010151878681518110612a6b57634e487b7160e01b600052603260045260246000fd5b9150915061319984848151811061318a57634e487b7160e01b600052603260045260246000fd5b60200260200101518383613a4b565b846131a5600186615b5c565b815181106131c357634e487b7160e01b600052603260045260246000fd5b602002602001018181525050505080806131dc90615bc2565b915050613104565b6000546001600160a01b03163314806132155750613200611b18565b6001600160a01b0316336001600160a01b0316145b6132315760405162461bcd60e51b8152600401610744906156ec565b6001600160a01b03811630146132d45760006001600160a01b03821615613258578161325a565b305b6001549091506001600160a01b031615611c2e5760015460405163147ec66d60e11b81526001600160a01b03909116906328fd8cda906132a09086908590600401615752565b600060405180830381600087803b1580156132ba57600080fd5b505af11580156132ce573d6000803e3d6000fd5b50505050505b5050565b600d5460ff16801561333b57506002546001600160a01b031684846132fe600182615b5c565b81811061331b57634e487b7160e01b600052603260045260246000fd5b90506020020160208101906133309190614db3565b6001600160a01b0316145b156134e9576002546040516370a0823160e01b815230916000916001600160a01b03909116906370a08231906133759085906004016153d7565b60206040518083038186803b15801561338d57600080fd5b505afa1580156133a1573d6000803e3d6000fd5b505050506040513d601f19601f820116820180604052508101906133c591906150c2565b905061340687878780806020026020016040519081016040528093929190818152602001838360200280828437600092019190915250879250612d00915050565b6002546040516370a0823160e01b815260009183916001600160a01b03909116906370a082319061343b9087906004016153d7565b60206040518083038186803b15801561345357600080fd5b505afa158015613467573d6000803e3d6000fd5b505050506040513d601f19601f8201168201806040525081019061348b91906150c2565b6134959190615b5c565b90506134a483828760006140bf565b6134ae9082615b5c565b9050836001600160a01b0316836001600160a01b0316146134e1576002546134e1906001600160a01b0316848684612bd0565b505050613528565b61352885858580806020026020016040519081016040528093929190818152602001838360200280828437600092019190915250869250612d00915050565b5050505050565b600d5460ff16801561359257506002546001600160a01b03168484613555600182615b5c565b81811061357257634e487b7160e01b600052603260045260246000fd5b90506020020160208101906135879190614db3565b6001600160a01b0316145b1561373e576002546040516370a0823160e01b815230916000916001600160a01b03909116906370a08231906135cc9085906004016153d7565b60206040518083038186803b1580156135e457600080fd5b505afa1580156135f8573d6000803e3d6000fd5b505050506040513d601f19601f8201168201806040525081019061361c91906150c2565b905061365c868680806020026020016040519081016040528093929190818152602001838360200280828437600092019190915250869250613810915050565b6002546040516370a0823160e01b815260009183916001600160a01b03909116906370a08231906136919087906004016153d7565b60206040518083038186803b1580156136a957600080fd5b505afa1580156136bd573d6000803e3d6000fd5b505050506040513d601f19601f820116820180604052508101906136e191906150c2565b6136eb9190615b5c565b90506136fa83828760006140bf565b6137049082615b5c565b9050836001600160a01b0316836001600160a01b03161461373657600254613736906001600160a01b03168583614538565b5050506113e7565b6113e7848480806020026020016040519081016040528093929190818152602001838360200280828437600092019190915250859250613810915050565b6000610b2383836040518060400160405280601e81526020017f536166654d6174683a207375627472616374696f6e206f766572666c6f77000081525061464e565b600980546001600160a01b038381166001600160a01b0319831681179093556040519116919082907f8be0079c531659141344cd1fd0a4f28419497f9722a3daafe3b4186f6b6457e090600090a35050565b60005b600183516138219190615b5c565b811015611c2e5760008084838151811061384b57634e487b7160e01b600052603260045260246000fd5b602002602001015185846001613861919061582a565b8151811061387f57634e487b7160e01b600052603260045260246000fd5b6020026020010151915091506000806138988484614148565b9150915060008260000151905060008060008086602001516001600160a01b0316896001600160a01b0316146138d757866080015187606001516138e2565b866060015187608001515b91509150613916828a6001600160a01b03166370a08231886040518263ffffffff1660e01b815260040161127b91906153d7565b92506139238383836126b9565b935050505060008085602001516001600160a01b0316886001600160a01b03161461395057826000613954565b6000835b91509150600060028c516139689190615b5c565b8a10613974578a613991565b600754613991906001600160a01b0316898e612e2e8e600261582a565b6040805160008152602081019182905263022c0d9f60e01b9091529091506001600160a01b0386169063022c0d9f906139d3908690869086906024810161578c565b600060405180830381600087803b1580156139ed57600080fd5b505af1158015613a01573d6000803e3d6000fd5b50505050613a0d611b27565b6001600160a01b0316336001600160a01b031614613a2f57613a2f868861448f565b5050505050505050508080613a4390615bd9565b915050613813565b6000808411613aad5760405162461bcd60e51b815260206004820152602860248201527f43726f73734c6962726172793a20494e53554646494349454e545f4f555450556044820152671517d05353d5539560c21b6064820152608401610744565b600083118015613abd5750600082115b613ad95760405162461bcd60e51b8152600401610744906156a8565b6000613af1612710613aeb8688613fe3565b90613fe3565b90506000613b056126ff613aeb868961377c565b9050613b1660016127768385615895565b9695505050505050565b6000546001600160a01b0316331480613b515750613b3c611b18565b6001600160a01b0316336001600160a01b0316145b613b6d5760405162461bcd60e51b8152600401610744906156ec565b6001600160a01b0381163014611c2e5760405163085b199160e11b815273__$88bebae22a3ad6e62b56c303176513ecf8$__906310b6332290613bb990869086906002906004016154d8565b60006040518083038186803b158015613bd157600080fd5b505af4158015613be5573d6000803e3d6000fd5b505050507fb38e5ed9c964a80c4cf1080ee37772ec4a2552b0d5b9713873d3d6efb38e6fd8838333604051613c1c939291906154a8565b60405180910390a160006001600160a01b03821615613c3b5781613c3d565b305b6001549091506001600160a01b0316156113e7576001546040516349443ceb60e11b81526001600160a01b039091169063928879d690613c85908790879086906004016154a8565b600060405180830381600087803b158015613c9f57600080fd5b505af11580156112fc573d6000803e3d6000fd5b6000808411613d0e5760405162461bcd60e51b815260206004820152602160248201527f43726f73734c6962726172793a20494e53554646494349454e545f414d4f554e6044820152601560fa1b6064820152608401610744565b600083118015613d1e5750600082115b613d3a5760405162461bcd60e51b8152600401610744906156a8565b82613d458584613fe3565b6107149190615895565b6000546001600160a01b0316331480613d805750613d6b611b18565b6001600160a01b0316336001600160a01b0316145b613d9c5760405162461bcd60e51b8152600401610744906156ec565b6001600160a01b0381163014611c2e5760006001600160a01b03821615613dc35781613dc5565b305b6001549091506001600160a01b0316156113e75760015460405163b8d05b1160e01b81526001600160a01b039091169063b8d05b1190613c8590879087908690600401615552565b6000806000613e1c8585613ef2565b509050613e2a868686612b01565b50600080613e39888888612b01565b6001600160a01b0316630902f1ac6040518163ffffffff1660e01b815260040160606040518083038186803b158015613e7157600080fd5b505afa158015613e85573d6000803e3d6000fd5b505050506040513d601f19601f82011682018060405250810190613ea9919061506f565b506001600160701b031691506001600160701b03169150826001600160a01b0316876001600160a01b031614613ee0578082613ee3565b81815b90999098509650505050505050565b600080826001600160a01b0316846001600160a01b03161415613f615760405162461bcd60e51b815260206004820152602160248201527f43726f73734c6962726172793a204944454e544943414c5f41444452455353456044820152605360f81b6064820152608401610744565b826001600160a01b0316846001600160a01b031610613f81578284613f84565b83835b90925090506001600160a01b038216613fdc5760405162461bcd60e51b815260206004820152601a60248201527943726f73734c6962726172793a205a45524f5f4144445245535360301b6044820152606401610744565b9250929050565b600082613ff257506000610b26565b6000613ffe8385615b3d565b90508261400b8583615895565b14610b235760405162461bcd60e51b815260206004820152602160248201527f536166654d6174683a206d756c7469706c69636174696f6e206f766572666c6f6044820152607760f81b6064820152608401610744565b60008061406f838561582a565b905083811015610b235760405162461bcd60e51b815260206004820152601b60248201527a536166654d6174683a206164646974696f6e206f766572666c6f7760281b6044820152606401610744565b600f54604051632f12478f60e01b81526000916001600160a01b031690632f12478f906140f690889088908890889060040161542f565b602060405180830381600087803b15801561411057600080fd5b505af1158015614124573d6000803e3d6000fd5b505050506040513d601f19601f8201168201806040525081019061222191906150c2565b6040805160e081018252600080825260208201819052918101829052606081018290526080810182905260a0810182905260c081019190915260075460009061419b906001600160a01b03168585612b01565b6001600160a01b031680835260408051630dfe168160e01b81529051630dfe168191600480820192602092909190829003018186803b1580156141dd57600080fd5b505afa1580156141f1573d6000803e3d6000fd5b505050506040513d601f19601f820116820180604052508101906142159190614dcf565b82600001516001600160a01b031663d21220a76040518163ffffffff1660e01b815260040160206040518083038186803b15801561425257600080fd5b505afa158015614266573d6000803e3d6000fd5b505050506040513d601f19601f8201168201806040525081019061428a9190614dcf565b6001600160a01b03908116604080860191909152918116602080860182905260009182526013905291909120600101541615806142e857506040808301516001600160a01b0390811660009081526013602052919091206001015416155b9050801561438e5781600001516001600160a01b0316630902f1ac6040518163ffffffff1660e01b815260040160606040518083038186803b15801561432d57600080fd5b505afa158015614341573d6000803e3d6000fd5b505050506040513d601f19601f82011682018060405250810190614365919061506f565b506001600160701b039081166080850152166060830152600b54614389908361467f565b613fdc565b81602001516001600160a01b031663313ce5676040518163ffffffff1660e01b815260040160206040518083038186803b1580156143cb57600080fd5b505afa1580156143df573d6000803e3d6000fd5b505050506040513d601f19601f8201168201806040525081019061440391906152e7565b82604001516001600160a01b031663313ce5676040518163ffffffff1660e01b815260040160206040518083038186803b15801561444057600080fd5b505afa158015614454573d6000803e3d6000fd5b505050506040513d601f19601f8201168201806040525081019061447891906152e7565b60ff90811660c08501521660a08301529250929050565b80600001516001600160a01b0316630902f1ac6040518163ffffffff1660e01b815260040160606040518083038186803b1580156144cc57600080fd5b505afa1580156144e0573d6000803e3d6000fd5b505050506040513d601f19601f82011682018060405250810190614504919061506f565b506001600160701b039081166080840152166060820152811561452f5761452a816146e6565b6132d4565b6132d481614837565b600080846001600160a01b031663a9059cbb858560405160240161455d929190615416565b6040516020818303038152906040529060e01b6020820180516001600160e01b03838183161783525050505060405161459691906153bb565b6000604051808303816000865af19150503d80600081146145d3576040519150601f19603f3d011682016040523d82523d6000602084013e6145d8565b606091505b50915091508180156146025750805115806146025750808060200190518101906146029190614e7e565b6135285760405162461bcd60e51b815260206004820152601f60248201527f5472616e7366657248656c7065723a205452414e534645525f4641494c4544006044820152606401610744565b600081848411156146725760405162461bcd60e51b81526004016107449190615586565b5060006122218486615b5c565b80516001600160a01b031660009081526010602052604090206002015482146132d457606081015181516001600160a01b03908116600090815260106020526040808220939093556080840151845183168252838220600101559251168252902060020155565b600081608001516b204fce5e3e2502611000000083606001516147099190615b3d565b6147139190615895565b82516001600160a01b03908116600090815260106020526040808220600101548651909316825281205492935091614757906b204fce5e3e25026110000000615b3d565b6147619190615895565b905060006011546005600a61477691906159d9565b614780919061582a565b90506000816147916005600a6159d9565b61479b9085615b3d565b6147a59190615895565b905060006147b56005600a6159d9565b6147bf8486615b3d565b6147c99190615895565b90508482111580156147db5750808511155b612cf85760405162461bcd60e51b815260206004820152602760248201527f45786365737369766520646576696174696f6e2066726f6d2070726576696f756044820152667320707269636560c81b6064820152608401610744565b6000614842826148ca565b905060008061485984602001518560400151614915565b9150915082821315801561486d5750808313155b6113e75760405162461bcd60e51b815260206004820152602860248201527f45786365737369766520646576696174696f6e2066726f6d20436861696e4c696044820152676e6b20707269636560c01b6064820152608401610744565b600081608001518260a001518360c0015160176148e79190615842565b6148f19190615b73565b6148fc90600a6159e8565b836060015161490b9190615b3d565b610b269190615895565b6001600160a01b038083166000908152601360209081526040808320815160a08101835281546001600160401b038082168352600160401b8204811695830195909552600160801b8104851693820193909352600160c01b909204909216606082015260019091015490921660808301819052909182916149a85760405162461bcd60e51b815260040161074490615716565b600081608001516001600160a01b031663feaf968c6040518163ffffffff1660e01b815260040160a06040518083038186803b1580156149e757600080fd5b505afa1580156149fb573d6000803e3d6000fd5b505050506040513d601f19601f82011682018060405250810190614a1f9190615298565b5050506001600160a01b03808816600090815260136020908152604091829020825160a08101845281546001600160401b038082168352600160401b8204811694830194909452600160801b8104841694820194909452600160c01b909304909116606083015260010154909116608082018190529193509150614ab55760405162461bcd60e51b815260040161074490615716565b600081608001516001600160a01b031663feaf968c6040518163ffffffff1660e01b815260040160a06040518083038186803b158015614af457600080fd5b505afa158015614b08573d6000803e3d6000fd5b505050506040513d601f19601f82011682018060405250810190614b2c9190615298565b5050865185516014549395506001600160401b039182169450169160011180159150614b5c575060125460145411155b614ba65760405162461bcd60e51b815260206004820152601b60248201527a52756c654f757450657263656e74206f7574206f662072616e676560281b6044820152606401610744565b600060126001601454614bb99190615b5c565b81548110614bd757634e487b7160e01b600052603260045260246000fd5b60009182526020822060088204015460079091166004026101000a9004600390810b900b915081614c088486615aba565b614c129084615aba565b614c1e6005600461582a565b614c2990600a6159d9565b614c3386886157e9565b614c3d9190615aba565b614c4791906157e9565b614c519190615aba565b6002614c5f6005600461582a565b614c6a90600a6159d9565b614c7491906159bd565b614c7e91906157e9565b90508481614c8e60056002615b3d565b614c9990601761582a565b614ca490600861582a565b614caf90600a6159d9565b614cb9908a615aba565b614cc39190615867565b614ccd9190615867565b995084816008614cdf60056002615b3d565b614cea906017615b5c565b614cf49190615b5c565b614cff90600a6159d9565b614d09908a615aba565b614d139190615aba565b614d1d9190615867565b985050505050505050509250929050565b60008083601f840112614d3f578081fd5b5081356001600160401b03811115614d55578182fd5b6020830191508360208260051b8501011115613fdc57600080fd5b80518015158114614d8057600080fd5b919050565b80516001600160701b0381168114614d8057600080fd5b80516001600160501b0381168114614d8057600080fd5b600060208284031215614dc4578081fd5b8135610b2381615c4c565b600060208284031215614de0578081fd5b8151610b2381615c4c565b60008060408385031215614dfd578081fd5b8235614e0881615c4c565b91506020830135614e1881615c4c565b809150509250929050565b60008060008060808587031215614e38578182fd5b8435614e4381615c4c565b93506020850135614e5381615c4c565b92506040850135614e6381615c4c565b91506060850135614e7381615c4c565b939692955090935050565b600060208284031215614e8f578081fd5b610b2382614d70565b600080600060608486031215614eac578283fd5b833560078110614eba578384fd5b92506020840135614eca81615c4c565b91506040840135614eda81615c4c565b809150509250925092565b600060208284031215614ef6578081fd5b8135610b2381615c61565b600080600083850360c0811215614f16578182fd5b8435614f2181615c61565b93506080601f1982011215614f34578182fd5b50614f3f60806157b9565b6020850135614f4d81615c6e565b81526040850135614f5d81615c6e565b60208201526060850135614f7081615c6e565b60408201526080850135614f8381615c6e565b6060820152915060a0840135614eda81615c4c565b60008082840360a0811215614fab578283fd5b6080811215614fb8578283fd5b50614fc360806157b9565b8335614fce81615c4c565b81526020840135614fde81615c4c565b60208201526040840135614ff181615c4c565b6040820152606084013561500481615c4c565b606082015291506080830135614e1881615c4c565b60006080828403121561502a578081fd5b61503460806157b9565b825161503f81615c61565b80825250602083015160208201526040830151604082015261506360608401614d70565b60608201529392505050565b600080600060608486031215615083578081fd5b61508c84614d85565b925061509a60208501614d85565b91506040840151614eda81615c6e565b6000602082840312156150bb578081fd5b5035919050565b6000602082840312156150d3578081fd5b5051919050565b6000806000806000608086880312156150f1578283fd5b8535945060208601356001600160401b0381111561510d578384fd5b61511988828901614d2e565b909550935050604086013561512d81615c4c565b949793965091946060013592915050565b60008060408385031215615150578182fd5b823591506020808401356001600160401b038082111561516e578384fd5b818601915086601f830112615181578384fd5b81358181111561519357615193615c36565b8060051b91506151a48483016157b9565b8181528481019084860184860187018b10156151be578788fd5b8795505b838610156151ec57803594506151d785615c4c565b848352600195909501949186019186016151c2565b508096505050505050509250929050565b60008060008060008060a08789031215615215578384fd5b863595506020870135945060408701356001600160401b03811115615238578485fd5b61524489828a01614d2e565b909550935050606087013561525881615c4c565b80925050608087013590509295509295509295565b600080600060608486031215615281578081fd5b505081359360208301359350604090920135919050565b600080600080600060a086880312156152af578283fd5b6152b886614d9c565b94506020860151935060408601519250606086015191506152db60808701614d9c565b90509295509295909350565b6000602082840312156152f8578081fd5b815160ff81168114610b23578182fd5b60008151808452615320816020860160208601615b96565b601f01601f19169290920160200192915050565b6007811061534457615344615c20565b9052565b6013811061534457615344615c20565b805163ffffffff908116835260208083015182169084015260408083015182169084015260609182015116910152565b80516001600160a01b03908116835260208083015182169084015260408083015182169084015260609182015116910152565b600082516153cd818460208701615b96565b9190910192915050565b6001600160a01b0391909116815260200190565b6001600160a01b03948516815292841660208401529083166040830152909116606082015260800190565b6001600160a01b03929092168252602082015260400190565b6001600160a01b03851681526020810184905260e081016154536040830185615358565b82151560c083015295945050505050565b6020808252825182820181905260009190848201906040850190845b8181101561549c57835183529284019291840191600101615480565b50909695505050505050565b606081016154b68286615334565b6001600160a01b03938416602083015291909216604090920191909152919050565b606081016154e68286615334565b6001600160a01b0393909316602082015260400152919050565b60208101610b268284615348565b60c0810161551c8286615348565b83602083015261552f6040830184615358565b949350505050565b60a081016155458285615348565b6107176020830184615358565b60c081016155608286615348565b61556d6020830185615358565b6001600160a01b039290921660a0919091015292915050565b600060208252610b236020830184615308565b6000602080835281845483600182811c9150808316806155ba57607f831692505b8583108114156155d857634e487b7160e01b87526022600452602487fd5b8786018381526020018180156155f5576001811461560657615630565b60ff19861682528782019650615630565b60008b815260209020895b8681101561562a57815484820152908501908901615611565b83019750505b50949998505050505050505050565b6020808252601a9082015279086e4dee6e698d2c4e4c2e4f27440929cac82989288bea082a8960331b604082015260600190565b6020808252818101527f4f776e61626c653a2063616c6c6572206973206e6f7420746865206f776e6572604082015260600190565b60208082526024908201527f43726f73734c6962726172793a20494e53554646494349454e545f4c495155496040820152634449545960e01b606082015260800190565b60208082526010908201526f496e76616c69642063616c6c6572203160801b604082015260600190565b60208082526014908201527310da1a585b931a5b9ac81b9bdd08199b9bdd5b9960621b604082015260600190565b60808101610b268284615388565b60a081016157608285615388565b6001600160a01b039290921660809190910152919050565b82815260a081016107176020830184615388565b600085825284602083015260018060a01b038416604083015260806060830152613b166080830184615308565b604051601f8201601f191681016001600160401b03811182821017156157e1576157e1615c36565b604052919050565b600080821280156001600160ff1b038490038513161561580b5761580b615bf4565b600160ff1b839003841281161561582457615824615bf4565b50500190565b6000821982111561583d5761583d615bf4565b500190565b600060ff821660ff84168060ff0382111561585f5761585f615bf4565b019392505050565b60008261587657615876615c0a565b600160ff1b82146000198414161561589057615890615bf4565b500590565b6000826158a4576158a4615c0a565b500490565b80825b60018086116158bb57506158e6565b8187048211156158cd576158cd615bf4565b808616156158da57918102915b9490941c9380026158ac565b94509492505050565b6000828015615905576001811461590f57615918565b600191505061552f565b8291505061552f565b50816159265750600061552f565b5060016000821380821461593f57801561595657615968565b82860483111561595157615951615bf4565b615968565b82860583121561596857615968615bf4565b50808316156159745750805b615985858460011c848502846158a9565b808704821160008313161561599c5761599c615bf4565b80860582126000831216156159b3576159b3615bf4565b0295945050505050565b6000610b236001600160ff1b03600160ff1b60ff8616856158ef565b6000610b2360001984846159f6565b6000610b2360001960ff8516845b600082615a0557506001610717565b81615a1257506000610717565b8160018114615a285760028114615a3257615a5f565b6001915050610717565b60ff841115615a4357615a43615bf4565b6001841b915084821115615a5957615a59615bf4565b50610717565b5060208310610133831016604e8410600b8410161715615a92575081810a83811115615a8d57615a8d615bf4565b610717565b615a9f84848460016158a9565b808604821115615ab157615ab1615bf4565b02949350505050565b60006001600160ff1b0381841382841380821686840486111615615ae057615ae0615bf4565b600160ff1b84871282811687830589121615615afe57615afe615bf4565b858712925087820587128484161615615b1957615b19615bf4565b87850587128184161615615b2f57615b2f615bf4565b505050929093029392505050565b6000816000190483118215151615615b5757615b57615bf4565b500290565b600082821015615b6e57615b6e615bf4565b500390565b600060ff821660ff841680821015615b8d57615b8d615bf4565b90039392505050565b60005b83811015615bb1578181015183820152602001615b99565b838111156113e75750506000910152565b600081615bd157615bd1615bf4565b506000190190565b6000600019821415615bed57615bed615bf4565b5060010190565b634e487b7160e01b600052601160045260246000fd5b634e487b7160e01b600052601260045260246000fd5b634e487b7160e01b600052602160045260246000fd5b634e487b7160e01b600052604160045260246000fd5b6001600160a01b038116811461231857600080fd5b6013811061231857600080fd5b63ffffffff8116811461231857600080fdfea2646970667358221220c02851007e47dd93fb918c07a5d5f90b3691ce60d73dcc326bfaae49fc2d8c5d64736f6c6343000803003343726f737354616b65723a2045786365737369766520696e70757420616d6f756e7443726f737354616b65723a20496e73756666696369656e74204120616d6f756e7443726f737354616b65723a20496e73756666696369656e74206f757470757420616d6f756e7443726f737354616b65723a20496e73756666696369656e74204220616d6f756e74",
  "linkReferences": {
    "contracts/libraries/WireLibrary.sol": {
      "WireLibrary": [
        {
          "length": 20,
          "start": 30165
        },
        {
          "length": 20,
          "start": 35710
        },
        {
          "length": 20,
          "start": 42524
        }
      ]
    }
  },
  "deployedLinkReferences": {
    "contracts/libraries/WireLibrary.sol": {
      "WireLibrary": [
        {
          "length": 20,
          "start": 2885
        },
        {
          "length": 20,
          "start": 8430
        },
        {
          "length": 20,
          "start": 15244
        }
      ]
    }
  }
}