{
  "_format": "hh-sol-artifact-1",
  "contractName": "FarmLibrary",
  "sourceName": "contracts/libraries/FarmLibrary.sol",
  "abi": [
    {
      "anonymous": false,
      "inputs": [
        {
          "indexed": false,
          "internalType": "address",
          "name": "migrator",
          "type": "address"
        }
      ],
      "name": "SetMigrator",
      "type": "event"
    },
    {
      "inputs": [
        {
          "internalType": "address",
          "name": "lp",
          "type": "address"
        },
        {
          "internalType": "uint256",
          "name": "allocPoint",
          "type": "uint256"
        },
        {
          "internalType": "uint256",
          "name": "startBlock",
          "type": "uint256"
        },
        {
          "internalType": "uint256",
          "name": "depositFeeRate",
          "type": "uint256"
        }
      ],
      "name": "buildStandardPool",
      "outputs": [
        {
          "components": [
            {
              "internalType": "contract IERC20",
              "name": "lpToken",
              "type": "IERC20"
            },
            {
              "internalType": "uint256",
              "name": "allocPoint",
              "type": "uint256"
            },
            {
              "internalType": "uint256",
              "name": "lastRewardBlock",
              "type": "uint256"
            },
            {
              "internalType": "uint256",
              "name": "accCrssPerShare",
              "type": "uint256"
            },
            {
              "internalType": "uint256",
              "name": "depositFeeRate",
              "type": "uint256"
            },
            {
              "internalType": "uint256",
              "name": "reward",
              "type": "uint256"
            },
            {
              "components": [
                {
                  "internalType": "uint256",
                  "name": "sumAmount",
                  "type": "uint256"
                },
                {
                  "components": [
                    {
                      "internalType": "uint256",
                      "name": "bulk",
                      "type": "uint256"
                    },
                    {
                      "internalType": "uint256",
                      "name": "accPerShare",
                      "type": "uint256"
                    }
                  ],
                  "internalType": "struct SubPool",
                  "name": "Comp",
                  "type": "tuple"
                }
              ],
              "internalType": "struct Struct_OnOff",
              "name": "OnOff",
              "type": "tuple"
            },
            {
              "components": [
                {
                  "internalType": "uint256",
                  "name": "sumAmount",
                  "type": "uint256"
                },
                {
                  "components": [
                    {
                      "internalType": "uint256",
                      "name": "bulk",
                      "type": "uint256"
                    },
                    {
                      "internalType": "uint256",
                      "name": "accPerShare",
                      "type": "uint256"
                    }
                  ],
                  "internalType": "struct SubPool",
                  "name": "Comp",
                  "type": "tuple"
                },
                {
                  "components": [
                    {
                      "internalType": "uint256",
                      "name": "bulk",
                      "type": "uint256"
                    },
                    {
                      "internalType": "uint256",
                      "name": "accPerShare",
                      "type": "uint256"
                    }
                  ],
                  "internalType": "struct SubPool",
                  "name": "Vest",
                  "type": "tuple"
                }
              ],
              "internalType": "struct Struct_OnOn",
              "name": "OnOn",
              "type": "tuple"
            },
            {
              "components": [
                {
                  "internalType": "uint256",
                  "name": "sumAmount",
                  "type": "uint256"
                },
                {
                  "components": [
                    {
                      "internalType": "uint256",
                      "name": "bulk",
                      "type": "uint256"
                    },
                    {
                      "internalType": "uint256",
                      "name": "accPerShare",
                      "type": "uint256"
                    }
                  ],
                  "internalType": "struct SubPool",
                  "name": "Vest",
                  "type": "tuple"
                },
                {
                  "components": [
                    {
                      "internalType": "uint256",
                      "name": "bulk",
                      "type": "uint256"
                    },
                    {
                      "internalType": "uint256",
                      "name": "accPerShare",
                      "type": "uint256"
                    }
                  ],
                  "internalType": "struct SubPool",
                  "name": "Accum",
                  "type": "tuple"
                }
              ],
              "internalType": "struct Struct_OffOn",
              "name": "OffOn",
              "type": "tuple"
            },
            {
              "components": [
                {
                  "internalType": "uint256",
                  "name": "sumAmount",
                  "type": "uint256"
                },
                {
                  "components": [
                    {
                      "internalType": "uint256",
                      "name": "bulk",
                      "type": "uint256"
                    },
                    {
                      "internalType": "uint256",
                      "name": "accPerShare",
                      "type": "uint256"
                    }
                  ],
                  "internalType": "struct SubPool",
                  "name": "Accum",
                  "type": "tuple"
                }
              ],
              "internalType": "struct Struct_OffOff",
              "name": "OffOff",
              "type": "tuple"
            }
          ],
          "internalType": "struct PoolInfo",
          "name": "pool",
          "type": "tuple"
        }
      ],
      "stateMutability": "view",
      "type": "function"
    },
    {
      "inputs": [
        {
          "internalType": "uint256",
          "name": "_from",
          "type": "uint256"
        },
        {
          "internalType": "uint256",
          "name": "_to",
          "type": "uint256"
        },
        {
          "internalType": "uint256",
          "name": "bonusMultiplier",
          "type": "uint256"
        }
      ],
      "name": "getMultiplier",
      "outputs": [
        {
          "internalType": "uint256",
          "name": "",
          "type": "uint256"
        }
      ],
      "stateMutability": "pure",
      "type": "function"
    }
  ],
  "bytecode": "0x6158976200003b600b82828239805160001a60731461002e57634e487b7160e01b600052600060045260246000fd5b30600052607381538281f3fe73000000000000000000000000000000000000000030146080604052600436106101745760003560e01c80630dd042a81461017957806319f87afc146101af5780631d07fd00146101dd5780631e5c024d1461026957806328ca588b1461028b5780632beddeef1461029e5780633417d5a2146102be5780635963ae9c146102de5780635b2cc295146102fe5780635dfb14561461031e57806364d305b31461033e578063666e12711461035e5780636b535099146103715780637bafb029146103915780637e508f81146103a45780638c8add04146103c45780638ddcabe0146103e45780639539a4961461040457806398b6892e14610424578063a31cabf214610437578063a3641f0c14610457578063a53d12eb14610477578063ad366ed41461048a578063adf8be1f146104aa578063b9367a3c146104ca578063ba15e4f8146104fa578063d33caf751461051a578063d9df3bb51461052d578063dbbaa5f41461054d578063dd6ff48f1461056d575b600080fd5b81801561018557600080fd5b50610199610194366004614f23565b6105a2565b6040516101a69190615328565b60405180910390f35b8180156101bb57600080fd5b506101cf6101ca366004614bec565b61078d565b6040519081526020016101a6565b6101f06101eb366004614d72565b610855565b6040516101a69190600061014082019050825182526020830151602083015260408301516040830152606083015160608301526080830151608083015260a083015160a083015260c083015160c083015260e083015160e083015261010080840151818401525061012080840151818401525092915050565b81801561027557600080fd5b50610289610284366004614bac565b610b24565b005b6101cf610299366004614e6d565b610b89565b8180156102aa57600080fd5b506102896102b9366004615032565b610cd6565b6102d16102cc366004614e6d565b610d2c565b6040516101a69190615517565b8180156102ea57600080fd5b506101cf6102f9366004614dd9565b610f10565b81801561030a57600080fd5b50610289610319366004614e6d565b610fb6565b81801561032a57600080fd5b5061028961033936600461507a565b611556565b81801561034a57600080fd5b506101cf610359366004614d29565b6115a1565b6101cf61036c366004614e6d565b611c6f565b61038461037f366004614cef565b611d69565b6040516101a69190615483565b6101cf61039f366004615007565b611e80565b8180156103b057600080fd5b506102896103bf3660046151a4565b611e97565b8180156103d057600080fd5b506101cf6103df366004614eaa565b612022565b8180156103f057600080fd5b506101cf6103ff366004615007565b6122d8565b81801561041057600080fd5b506101cf61041f366004614ec1565b61236d565b6101cf6104323660046151a4565b6124a1565b81801561044357600080fd5b506101cf610452366004614ee7565b6125ef565b81801561046357600080fd5b506101cf610472366004614cef565b612668565b6101cf610485366004614e55565b61273f565b81801561049657600080fd5b506101cf6104a5366004614e0a565b6127a3565b8180156104b657600080fd5b506101cf6104c5366004614c8c565b612885565b8180156104d657600080fd5b506104ea6104e53660046150de565b612e7f565b60405190151581526020016101a6565b81801561050657600080fd5b506101cf6105153660046151f6565b612f45565b610289610528366004614f52565b6130b8565b81801561053957600080fd5b50610289610548366004615158565b613361565b81801561055957600080fd5b50610289610568366004615007565b61372b565b81801561057957600080fd5b5061058d610588366004614c49565b613d03565b604080519283526020830191909152016101a6565b81546040516370a0823160e01b81526000916001600160a01b031690829082906370a08231906105d6903090600401615328565b60206040518083038186803b1580156105ee57600080fd5b505afa158015610602573d6000803e3d6000fd5b505050506040513d601f19601f8201168201806040525081019061062691906151de565b905061063c6001600160a01b0383168583613ea0565b60405163ce5494bb60e01b81526001600160a01b0385169063ce5494bb90610668908590600401615328565b602060405180830381600087803b15801561068257600080fd5b505af1158015610696573d6000803e3d6000fd5b505050506040513d601f19601f820116820180604052508101906106ba9190614b90565b6040516370a0823160e01b81529093506001600160a01b038416906370a08231906106e9903090600401615328565b60206040518083038186803b15801561070157600080fd5b505afa158015610715573d6000803e3d6000fd5b505050506040513d601f19601f8201168201806040525081019061073991906151de565b81146107855760405162461bcd60e51b81526020600482015260166024820152751b5a59dc985d1a5bdb881a5b98dbdb9cda5cdd195b9d60521b60448201526064015b60405180910390fd5b505092915050565b8654600090815b818110156108475760008a82815481106107be57634e487b7160e01b600052603260045260246000fd5b9060005260206000209060160201905060008a600084815260200190815260200160002060008e6001600160a01b03166001600160a01b03168152602001908152602001600020905061081782828f8d8d8d8d8d611556565b6004810154610826908661559e565b9450600081600401819055505050808061083f9061574c565b915050610794565b505098975050505050505050565b6108ab604051806101400160405280600081526020016000815260200160008152602001600081526020016000815260200160008152602001600081526020016000815260200160008152602001600081525090565b6000888a815481106108cd57634e487b7160e01b600052603260045260246000fd5b9060005260206000209060160201905060008860008c815260200190815260200160002060008d6001600160a01b03166001600160a01b0316815260200190815260200160002090508060060160009054906101000a900460ff16600381111561094757634e487b7160e01b600052602160045260246000fd5b835280546020840152600481015460408401526109666005820161273f565b60608401526109786005820185610b89565b608084015261098a828287898b6124a1565b60a08401526109998282611c6f565b60c084015281546040516370a0823160e01b81526001600160a01b03909116906370a08231906109cd908f90600401615328565b60206040518083038186803b1580156109e557600080fd5b505afa1580156109f9573d6000803e3d6000fd5b505050506040513d601f19601f82011682018060405250810190610a1d91906151de565b60e084015287546040516370a0823160e01b81526001600160a01b03909116906370a0823190610a51908f90600401615328565b60206040518083038186803b158015610a6957600080fd5b505afa158015610a7d573d6000803e3d6000fd5b505050506040513d601f19601f82011682018060405250810190610aa191906151de565b61010084015260009a505b89548b1015610b15578860008c815260200190815260200160002060008d6001600160a01b03166001600160a01b03168152602001908152602001600020600401548361012001818151610b00919061559e565b9052508a610b0d8161574c565b9b5050610aac565b50509998505050505050505050565b6040516328b9b77360e21b81526001600160a01b0384169063a2e6ddcc90610b529085908590600401615356565b600060405180830381600087803b158015610b6c57600080fd5b505af1158015610b80573d6000803e3d6000fd5b50505050505050565b6000805b8354811015610ccf576000848281548110610bb857634e487b7160e01b600052603260045260246000fd5b90600052602060002090600302016002015442610bd59190615709565b610be1906102586156ea565b610bec9060186156ea565b610bf790601e6156ea565b9050600084610c0962278d00846155b6565b1015610c2157610c1c62278d00836155b6565b610c23565b845b90506000868481548110610c4757634e487b7160e01b600052603260045260246000fd5b9060005260206000209060030201600101548683898781548110610c7b57634e487b7160e01b600052603260045260246000fd5b906000526020600020906003020160000154610c9791906156ea565b610ca191906155b6565b610cab9190615709565b9050610cb7818661559e565b94505050508080610cc79061574c565b915050610b8d565b5092915050565b6000846001015464e8d4a510008760030154610cf28989611c6f565b610cfc91906156ea565b610d0691906155b6565b610d109190615709565b90508015610d2457610d2484828585613fee565b505050505050565b60408051808201909152600080825260208201526001600683015460ff166003811115610d6957634e487b7160e01b600052602160045260246000fd5b148015610d765750815415155b15610d8057610f0a565b6002600683015460ff166003811115610da957634e487b7160e01b600052602160045260246000fd5b148015610db65750815415155b15610df2576003820154600d840154835464e8d4a5100091610dd7916156ea565b610de191906155b6565b610deb9190615709565b8152610f0a565b6003600683015460ff166003811115610e1b57634e487b7160e01b600052602160045260246000fd5b148015610e285750815415155b15610e995760028201546010840154835464e8d4a5100091610e49916156ea565b610e5391906155b6565b610e5d9190615709565b815260038201546012840154835464e8d4a5100091610e7b916156ea565b610e8591906155b6565b610e8f9190615709565b6020820152610f0a565b6000600683015460ff166003811115610ec257634e487b7160e01b600052602160045260246000fd5b148015610ecf5750815415155b15610f0a5760028201546015840154835464e8d4a5100091610ef0916156ea565b610efa91906155b6565b610f049190615709565b60208201525b92915050565b600080858581548110610f3357634e487b7160e01b600052603260045260246000fd5b90600052602060002090601602019050838160010181905550828160040181905550610f5e8661418f565b86549092506001101580610f915750610f7960196064615709565b610f8390836156ea565b610f8e8560636156ea565b11155b610fad5760405162461bcd60e51b815260040161077c90615457565b50949350505050565b6001600682015460ff166003811115610fdf57634e487b7160e01b600052602160045260246000fd5b148015610fec5750805415155b156110bf576002810154600883015482546000929164e8d4a510009161101291906156ea565b61101c91906155b6565b6110269190615709565b905080156110b9576007830154811115611041575060078201545b600783018054829190600090611058908490615709565b909155505081548190839060009061107190849061559e565b909155505060068301805482919060009061108d90849061559e565b90915550506008830154825464e8d4a51000916110a9916156ea565b6110b391906155b6565b60028301555b50611524565b6002600682015460ff1660038111156110e857634e487b7160e01b600052602160045260246000fd5b1480156110f55750805415155b156112a85780546002820154600b8401546000919064e8d4a510009061111b90856156ea565b61112591906155b6565b61112f9190615709565b905080156111c257600a84015481111561114a5750600a8301545b600a84018054829190600090611161908490615709565b909155505082548190849060009061117a90849061559e565b909155505060098401805482919060009061119690849061559e565b9091555050600b840154835464e8d4a51000916111b2916156ea565b6111bc91906155b6565b60028401555b6003830154600d8501546000919064e8d4a51000906111e190866156ea565b6111eb91906155b6565b6111f59190615709565b905080156112a057600c8501548111156112105750600c8401545b600c85018054829190600090611227908490615709565b90915550506040805160608101825282815260006020808301828152429484019485526005890180546001818101835591855292909320935160039092029093019081559151908201559051600290910155600d850154845464e8d4a5100091611290916156ea565b61129a91906155b6565b60038501555b505050611524565b6003600682015460ff1660038111156112d157634e487b7160e01b600052602160045260246000fd5b1480156112de5750805415155b1561145f578054600282015460108401546000919064e8d4a510009061130490856156ea565b61130e91906155b6565b6113189190615709565b905080156113c357600f8401548111156113335750600f8301545b600f8401805482919060009061134a908490615709565b909155505060408051606081018252828152600060208083018281524294840194855260058801805460018181018355918552929093209351600390920290930190815591519082015590516002909101556010840154835464e8d4a51000916113b3916156ea565b6113bd91906155b6565b60028401555b600383015460128501546000919064e8d4a51000906113e290866156ea565b6113ec91906155b6565b6113f69190615709565b905080156112a0576011850154811115611411575060118401545b601185018054829190600090611428908490615709565b9250508190555080846004016000828254611443919061559e565b90915550506012850154845464e8d4a5100091611290916156ea565b6000600682015460ff16600381111561148857634e487b7160e01b600052602160045260246000fd5b1480156114955750805415155b15611524576002810154601583015482546000929164e8d4a51000916114bb91906156ea565b6114c591906155b6565b6114cf9190615709565b905080156115225760148301548111156114ea575060148201545b601483018054829190600090611501908490615709565b925050819055508082600401600082825461151c919061559e565b90915550505b505b64e8d4a5100082600301546115398484611c6f565b61154391906156ea565b61154d91906155b6565b60019091015550565b6115638884848488611e97565b6005880154156115975761157a8888888888610cd6565b61158588868661372b565b61158f8888610fb6565b600060058901555b5050505050505050565b60006001600160a01b038516158015906115bb5750600083115b15611c675783546040516370a0823160e01b81526000916001600160a01b0316906370a08231906115f0903090600401615328565b60206040518083038186803b15801561160857600080fd5b505afa15801561161c573d6000803e3d6000fd5b505050506040513d601f19601f8201168201806040525081019061164091906151de565b600686015490915061165c906001600160a01b03163086610b24565b84546040516370a0823160e01b81526000916001600160a01b0316906370a082319061168c903090600401615328565b60206040518083038186803b1580156116a457600080fd5b505afa1580156116b8573d6000803e3d6000fd5b505050506040513d601f19601f820116820180604052508101906116dc91906151de565b905060006116ea8383615709565b87549091506001600160a01b038981169116141561170a57809350611c63565b6000886001600160a01b0316630dfe16816040518163ffffffff1660e01b815260040160206040518083038186803b15801561174557600080fd5b505afa158015611759573d6000803e3d6000fd5b505050506040513d601f19601f8201168201806040525081019061177d9190614b90565b90506000896001600160a01b031663d21220a76040518163ffffffff1660e01b815260040160206040518083038186803b1580156117ba57600080fd5b505afa1580156117ce573d6000803e3d6000fd5b505050506040513d601f19601f820116820180604052508101906117f29190614b90565b60018a01548a5460405163e6a4390560e01b815292935060009283926001600160a01b039081169263e6a43905926118329290911690889060040161533c565b60206040518083038186803b15801561184a57600080fd5b505afa15801561185e573d6000803e3d6000fd5b505050506040513d601f19601f820116820180604052508101906118829190614b90565b60018c01548c5460405163e6a4390560e01b81529293506000926001600160a01b039283169263e6a43905926118bf92911690889060040161533c565b60206040518083038186803b1580156118d757600080fd5b505afa1580156118eb573d6000803e3d6000fd5b505050506040513d601f19601f8201168201806040525081019061190f9190614b90565b8c549091506001600160a01b038681169116148061193557506001600160a01b03821615155b801561195f57508b546001600160a01b038581169116148061195f57506001600160a01b03811615155b92505050806119805760405162461bcd60e51b815260040161077c9061542a565b600061198d6002866155b6565b9050600061199b8287615709565b60028d01548d549192506119be916001600160a01b0391821691168088866142c9565b60028d01548d549193506119e1916001600160a01b0391821691168087856142c9565b90506000821180156119f35750600081115b611a2d5760405162461bcd60e51b815260206004820152600b60248201526a14ddd85c0819985a5b195960aa1b604482015260640161077c565b6040516370a0823160e01b81526001600160a01b038e16906370a0823190611a59903090600401615328565b60206040518083038186803b158015611a7157600080fd5b505afa158015611a85573d6000803e3d6000fd5b505050506040513d601f19601f82011682018060405250810190611aa991906151de565b60018d0154909850611ac8906001600160a01b038781169116846143b5565b60018c0154611ae4906001600160a01b038681169116836143b5565b60018c015460405162e8e33760e81b81526001600160a01b0387811660048301528681166024830152604482018590526064820184905260006084830181905260a483018190523060c48401524260e484015292839291169063e8e337009061010401606060405180830381600087803b158015611b6157600080fd5b505af1158015611b75573d6000803e3d6000fd5b505050506040513d601f19601f82011682018060405250810190611b999190615260565b50915091508e6001600160a01b03166370a08231306040518263ffffffff1660e01b8152600401611bca9190615328565b60206040518083038186803b158015611be257600080fd5b505afa158015611bf6573d6000803e3d6000fd5b505050506040513d601f19601f82011682018060405250810190611c1a91906151de565b985083821015611c3857611c38878d611c338588615709565b614461565b82811015611c4f57611c4f868d611c338487615709565b611c598a8a615709565b9a50505050505050505b5050505b949350505050565b80546001600683015460ff166003811115611c9a57634e487b7160e01b600052602160045260246000fd5b148015611ca75750815415155b15611ced5760028201546008840154835464e8d4a5100091611cc8916156ea565b611cd291906155b6565b611cdc9190615709565b611ce6908261559e565b9050610f0a565b6002600683015460ff166003811115611d1657634e487b7160e01b600052602160045260246000fd5b148015611d235750815415155b15610f0a576002820154600b840154835464e8d4a5100091611d44916156ea565b611d4e91906155b6565b611d589190615709565b611d62908261559e565b9392505050565b611d71614ac6565b604051806101400160405280866001600160a01b03168152602001858152602001844311611d9f5784611da1565b435b81526000602080830182905260408084019690965260608084018390528651808801885283815287518089018952848152808401859052818401526080850152865180820188528381528751808901895284815280840185905281840152875180890189528481528084018590528189015260a0850152865190810187528281528651808801885283815280830184905281830152865180880188528381528083018490528188015260c08401528551808701875282815286518088019097528287528682019290925281019490945260e00192909252509392505050565b600081611e8d8585615709565b611c6791906156ea565b846002015443111561201b5784546040516370a0823160e01b81526000916001600160a01b0316906370a0823190611ed3903090600401615328565b60206040518083038186803b158015611eeb57600080fd5b505afa158015611eff573d6000803e3d6000fd5b505050506040513d601f19601f82011682018060405250810190611f2391906151de565b90508015612013576000611f3c87600201544386611e80565b905060008688600101548784611f5291906156ea565b611f5c91906156ea565b611f6691906155b6565b845460068601546040516340c10f1960e01b81529293506001600160a01b03918216926340c10f1992611f9f9216908590600401615356565b600060405180830381600087803b158015611fb957600080fd5b505af1158015611fcd573d6000803e3d6000fd5b505050506005880181905582611fe88264e8d4a510006156ea565b611ff291906155b6565b886003016000828254612005919061559e565b909155505043600289015550505b504360028601555b5050505050565b6000826001600160a01b0316846001600160a01b0316146122cc576040516370a0823160e01b81526000906001600160a01b038516906370a082319061206c903090600401615328565b60206040518083038186803b15801561208457600080fd5b505afa158015612098573d6000803e3d6000fd5b505050506040513d601f19601f820116820180604052508101906120bc91906151de565b60405163095ea7b360e01b81529091506001600160a01b0387169063095ea7b3906120ed908a908790600401615356565b602060405180830381600087803b15801561210757600080fd5b505af115801561211b573d6000803e3d6000fd5b505050506040513d601f19601f8201168201806040525081019061213f9190614e8e565b50604080516002808252606082018352600092602083019080368337019050509050858160008151811061218357634e487b7160e01b600052603260045260246000fd5b60200260200101906001600160a01b031690816001600160a01b03168152505084816001815181106121c557634e487b7160e01b600052603260045260246000fd5b6001600160a01b039283166020918202929092010152604051635c11d79560e01b815290891690635c11d7959061220990879060009086903090429060040161552e565b600060405180830381600087803b15801561222357600080fd5b505af1158015612237573d6000803e3d6000fd5b50506040516370a0823160e01b81528492506001600160a01b03881691506370a0823190612269903090600401615328565b60206040518083038186803b15801561228157600080fd5b505afa158015612295573d6000803e3d6000fd5b505050506040513d601f19601f820116820180604052508101906122b991906151de565b6122c39190615709565b925050506122cf565b50805b95945050505050565b600483015460009015611d62576122f16005600a61561c565b600485015461230090856156ea565b61230a91906155b6565b905060006123196002836155b6565b6003840154865491925061233a916001600160a01b03908116911683614577565b8254612365906001600160a01b03166123538385615709565b87546001600160a01b03169190614577565b509392505050565b82546040516370a0823160e01b815260009182916001600160a01b03909116906370a08231906123a1903090600401615328565b60206040518083038186803b1580156123b957600080fd5b505afa1580156123cd573d6000803e3d6000fd5b505050506040513d601f19601f820116820180604052508101906123f191906151de565b855490915061240b906001600160a01b0316853086614596565b84546040516370a0823160e01b81526000916001600160a01b0316906370a082319061243b903090600401615328565b60206040518083038186803b15801561245357600080fd5b505afa158015612467573d6000803e3d6000fd5b505050506040513d601f19601f8201168201806040525081019061248b91906151de565b90506124978282615709565b9695505050505050565b600385015485546040516370a0823160e01b81526000929183916001600160a01b03909116906370a08231906124db903090600401615328565b60206040518083038186803b1580156124f357600080fd5b505afa158015612507573d6000803e3d6000fd5b505050506040513d601f19601f8201168201806040525081019061252b91906151de565b905087600201544311801561253f57508015155b156125af57600061255589600201544389611e80565b905060006125848661257e8c600101546125788b876145ce90919063ffffffff16565b906145ce565b9061464d565b9050826125968264e8d4a510006156ea565b6125a091906155b6565b6125aa908561559e565b935050505b866001015464e8d4a51000836125c58b8b611c6f565b6125cf91906156ea565b6125d991906155b6565b6125e39190615709565b98975050505050505050565b600484015460009015611c67576126086005600a61561c565b600486015461261790856156ea565b61262191906155b6565b905060006126306002836155b6565b600384015490915061264d9086906001600160a01b031683610b24565b8254610fad9086906001600160a01b03166102848486615709565b60006126766005600a61561c565b600685015461268590856156ea565b61268f91906155b6565b90508015611c675760006126a46002836155b6565b83549091506001600160a01b038781169116141561270757600683015460058601546126dd916001600160a01b03908116911683610b24565b60068301546001860154612702916001600160a01b0390811691166102848486615709565b610fad565b60058501546127219087906001600160a01b031683614461565b6001850154610fad9087906001600160a01b0316611c338486615709565b6000805b825481101561279d5782818154811061276c57634e487b7160e01b600052603260045260246000fd5b90600052602060002090600302016000015482612789919061559e565b9150806127958161574c565b915050612743565b50919050565b6000806127b16078426155b6565b905080831015612879576127dc6040518060600160405280603781526020016157d76037913961468c565b60005b89548110156128455760008a828154811061280a57634e487b7160e01b600052603260045260246000fd5b90600052602060002090601602019050612827818b8b8b8a611e97565b61283281888861372b565b508061283d8161574c565b9150506127df565b506128756040518060400160405280600e81526020016d049515151515151515151515151560911b81525061468c565b8091505b50979650505050505050565b60006001600160a01b0386161580159061289f5750600082115b156122cf57826001600160a01b0316866001600160a01b031614156128c55750806122cf565b6000866001600160a01b0316630dfe16816040518163ffffffff1660e01b815260040160206040518083038186803b15801561290057600080fd5b505afa158015612914573d6000803e3d6000fd5b505050506040513d601f19601f820116820180604052508101906129389190614b90565b90506000876001600160a01b031663d21220a76040518163ffffffff1660e01b815260040160206040518083038186803b15801561297557600080fd5b505afa158015612989573d6000803e3d6000fd5b505050506040513d601f19601f820116820180604052508101906129ad9190614b90565b9050600080886001600160a01b031663e6a4390588866040518363ffffffff1660e01b81526004016129e092919061533c565b60206040518083038186803b1580156129f857600080fd5b505afa158015612a0c573d6000803e3d6000fd5b505050506040513d601f19601f82011682018060405250810190612a309190614b90565b90506000896001600160a01b031663e6a4390589866040518363ffffffff1660e01b8152600401612a6292919061533c565b60206040518083038186803b158015612a7a57600080fd5b505afa158015612a8e573d6000803e3d6000fd5b505050506040513d601f19601f82011682018060405250810190612ab29190614b90565b9050846001600160a01b0316886001600160a01b03161480612adc57506001600160a01b03821615155b8015612b0b5750836001600160a01b0316886001600160a01b03161480612b0b57506001600160a01b03811615155b9250505080612b2c5760405162461bcd60e51b815260040161077c9061542a565b6040516370a0823160e01b81526000906001600160a01b038516906370a0823190612b5b903090600401615328565b60206040518083038186803b158015612b7357600080fd5b505afa158015612b87573d6000803e3d6000fd5b505050506040513d601f19601f82011682018060405250810190612bab91906151de565b90506000836001600160a01b03166370a08231306040518263ffffffff1660e01b8152600401612bdb9190615328565b60206040518083038186803b158015612bf357600080fd5b505afa158015612c07573d6000803e3d6000fd5b505050506040513d601f19601f82011682018060405250810190612c2b91906151de565b604051635d5155ef60e11b81526001600160a01b0387811660048301528681166024830152604482018a905260006064830181905260848301523060a48301524260c4830152919250908b169063baa2abde9060e4016040805180830381600087803b158015612c9a57600080fd5b505af1158015612cae573d6000803e3d6000fd5b505050506040513d601f19601f82011682018060405250810190612cd2919061523d565b5050600082866001600160a01b03166370a08231306040518263ffffffff1660e01b8152600401612d039190615328565b60206040518083038186803b158015612d1b57600080fd5b505afa158015612d2f573d6000803e3d6000fd5b505050506040513d601f19601f82011682018060405250810190612d5391906151de565b612d5d9190615709565b9050600082866001600160a01b03166370a08231306040518263ffffffff1660e01b8152600401612d8e9190615328565b60206040518083038186803b158015612da657600080fd5b505afa158015612dba573d6000803e3d6000fd5b505050506040513d601f19601f82011682018060405250810190612dde91906151de565b612de89190615709565b9050600082118015612dfa5750600081115b612e3e5760405162461bcd60e51b815260206004820152601560248201527414995b5bdd99531a5c5d591a5d1e4819985a5b1959605a1b604482015260640161077c565b612e4b8b8b898d866146d2565b612e55908961559e565b9750612e648b8b888d856146d2565b612e6e908961559e565b9d9c50505050505050505050505050565b600688015460009060ff16886003811115612eaa57634e487b7160e01b600052602160045260246000fd5b816003811115612eca57634e487b7160e01b600052602160045260246000fd5b14612f3757612edf8b8b8a8a8a8a8a8a611556565b8954612eef8c8c838b6000613361565b60068b0180548b919060ff19166001836003811115612f1e57634e487b7160e01b600052602160045260246000fd5b0217905550612f318c8c838b6001613361565b60019250505b509998505050505050505050565b600081612f5486888688611d69565b8154600180820184556000938452602093849020835160169093020180546001600160a01b0319166001600160a01b0390931692909217825582840151908201556040808301516002830155606083015160038301556080830151600483015560a0830151600583015560c08301518051600684015584015180516007840155840151600883015560e083015180516009840155808501518051600a850155850151600b8401558101518051600c840155840151600d8301556101008301518051600e840155808501518051600f85015585015160108401550151805160118301558301516012820155610120909101518051601383015582015180516014830155909101516015909101556130698261418f565b8254909150600110158061309c575061308460196064615709565b61308e90826156ea565b6130998760636156ea565b11155b6122cf5760405162461bcd60e51b815260040161077c90615457565b81546040516370a0823160e01b81526000916001600160a01b0316906370a08231906130e8903090600401615328565b60206040518083038186803b15801561310057600080fd5b505afa158015613114573d6000803e3d6000fd5b505050506040513d601f19601f8201168201806040525081019061313891906151de565b6013840154600e850154600a860154600987015460078801546006890154959650600095613166919061559e565b613170919061559e565b61317a919061559e565b613184919061559e565b61318e919061559e565b905080821461335b57808210156131fe576131f9836040518060400160405280601281526020017162616c616e6365203c20636865636b73756d60701b8152508385856131db9190615709565b6131ea9064e8d4a510006156ea565b6131f491906155b6565b6146f5565b61323a565b61323a836040518060400160405280601281526020017162616c616e6365203e20636865636b73756d60701b8152508484866131db9190615709565b613272604051806040016040528060158152602001746c702042616c616e6163652c20636865636b53756d60581b815250838361473c565b60408051808201909152601f81526000805160206158428339815191526020820152600685015460078601546132a992919061473c565b60408051808201909152601e81526000805160206157b783398151915260208201526009850154600a8601546132e092919061473c565b61331d604051806040016040528060148152602001731c1bdbdb0b93d99993db8b9cdd5b505b5bdd5b9d60621b81525085600e0160000154614783565b61335b604051806040016040528060158152602001741c1bdbdb0b93d99993d9998b9cdd5b505b5bdd5b9d605a1b8152508560130160000154614783565b50505050565b80613378578354613373908490615709565b613385565b835461338590849061559e565b845584546040516370a0823160e01b81526000916001600160a01b0316906370a08231906133b7903090600401615328565b60206040518083038186803b1580156133cf57600080fd5b505afa1580156133e3573d6000803e3d6000fd5b505050506040513d601f19601f8201168201806040525081019061340791906151de565b90506001600686015460ff16600381111561343257634e487b7160e01b600052602160045260246000fd5b14156134d1578161345257600686015461344d908590615709565b613462565b600686015461346290859061559e565b60068701556008860154855464e8d4a510009161347e916156ea565b61348891906155b6565b600286015560068601546134cc576007860154156134cc576001830154600787015487546134c4926001600160a01b0391821692911690614577565b600060078701555b6136f2565b6002600686015460ff1660038111156134fa57634e487b7160e01b600052602160045260246000fd5b14156135be578161351a576009860154613515908590615709565b61352a565b600986015461352a90859061559e565b6009870155600b860154855464e8d4a5100091613546916156ea565b61355091906155b6565b6002860155600d860154855464e8d4a510009161356c916156ea565b61357691906155b6565b600386015560098601546134cc57600a860154156134cc576001830154600a87015487546135b2926001600160a01b0391821692911690614577565b6000600a8701556136f2565b6003600686015460ff1660038111156135e757634e487b7160e01b600052602160045260246000fd5b141561366d578161360757600e860154613602908590615709565b613617565b600e86015461361790859061559e565b600e8701556010860154855464e8d4a5100091613633916156ea565b61363d91906155b6565b60028601556012860154855464e8d4a5100091613659916156ea565b61366391906155b6565b60038601556136f2565b6000600686015460ff16600381111561369657634e487b7160e01b600052602160045260246000fd5b14156136f257816136b65760138601546136b1908590615709565b6136c6565b60138601546136c690859061559e565b60138701556015860154855464e8d4a51000916136e2916156ea565b6136ec91906155b6565b60028601555b64e8d4a5100086600301546137078888611c6f565b61371191906156ea565b61371b91906155b6565b8560010181905550505050505050565b82546040516370a0823160e01b8152600091829182916001600160a01b0316906370a082319061375f903090600401615328565b60206040518083038186803b15801561377757600080fd5b505afa15801561378b573d6000803e3d6000fd5b505050506040513d601f19601f820116820180604052508101906137af91906151de565b905080156137ed576005860154600787015460068801548392916137d29161559e565b6137dc91906156ea565b6137e691906155b6565b92506137f2565b600092505b6137fc838361559e565b915082156139075760006138126005600a61561c565b600487015461382190866156ea565b61382b91906155b6565b85546006870154604051632770a7eb60e21b81529293506001600160a01b0391821692639dc29fac926138649216908590600401615356565b600060405180830381600087803b15801561387e57600080fd5b505af1158015613892573d6000803e3d6000fd5b5050505080846138a29190615709565b85549094506138bc906001600160a01b0316878688612668565b6138c69085615709565b875460018801549195506000916138ed916001600160a01b039081169189918991166115a1565b60068901549091506139049060078a0190836147cc565b50505b8015613943576005860154600a87015460098801548392916139289161559e565b61393291906156ea565b61393c91906155b6565b9250613948565b600092505b613952838361559e565b915082156139ef5760006139676002856155b6565b905060006139758286615709565b865490915061398f906001600160a01b0316888489612668565b6139999083615709565b885460018901549193506000916139c0916001600160a01b03908116918a918791166115a1565b60098a01549091506139d790600a8b0190836147cc565b60098901546139eb90600c8b0190846147cc565b5050505b8015613a1b576005860154600e8701548291613a0a916156ea565b613a1491906155b6565b9250613a20565b600092505b613a2a838361559e565b91508215613a7b576000613a3f6002856155b6565b90506000613a4d8286615709565b600e890154909150613a6490600f8a0190846147cc565b600e880154613a789060118a0190836147cc565b50505b8015613aa757600586015460138701548291613a96916156ea565b613aa091906155b6565b9250613aac565b600092505b613ab6838361559e565b91508215613b75576000613acc6005600a61561c565b6004870154613adb90866156ea565b613ae591906155b6565b85546006870154604051632770a7eb60e21b81529293506001600160a01b0391821692639dc29fac92613b1e9216908590600401615356565b600060405180830381600087803b158015613b3857600080fd5b505af1158015613b4c573d6000803e3d6000fd5b505050508084613b5c9190615709565b6013880154909450613b73906014890190866147cc565b505b613ba7866040518060400160405280601081526020016f616674657220636f6c6c65637469766560801b8152506130b8565b8186600501541015610d2457613c1a604051806040016040528060038152602001622d2d2d60e81b815250876005015484613be29190615709565b6040518060400160405280601a815260200179706f6f6c2e726577617264203c20746f74616c5265776172647360301b81525061484a565b60408051808201909152601f8152600080516020615842833981519152602082015260068701546007880154613c5192919061473c565b60408051808201909152601e81526000805160206157b783398151915260208201526009870154600a880154613c8892919061473c565b613cc5604051806040016040528060148152602001731c1bdbdb0b93d99993db8b9cdd5b505b5bdd5b9d60621b81525087600e0160000154614783565b610d24604051806040016040528060158152602001741c1bdbdb0b93d99993d9998b9cdd5b505b5bdd5b9d605a1b8152508760130160000154614783565b83546000908190815b81811015613e36576000888281548110613d3657634e487b7160e01b600052603260045260246000fd5b90600052602060002090601602019050600088600084815260200190815260200160002060008c6001600160a01b03166001600160a01b031681526020019081526020016000209050600081600401549050600088600601541115613dd8576000613da36005600a61561c565b60068a0154613db290846156ea565b613dbc91906155b6565b9050613dc88183615709565b9150613dd4818861559e565b9650505b613de2818861559e565b835460018a0154919850600091613e09916001600160a01b03908116918d918691166115a1565b9050613e198484838c6001613361565b505060006004909101555080613e2e8161574c565b915050613d0c565b508115613e95576000613e4a6002846155b6565b60068701546005870154919250613e6e916001600160a01b03918216911683610b24565b60068601546001860154613e93916001600160a01b0390811691166102848487615709565b505b509550959350505050565b801580613f285750604051636eb1769f60e11b81526001600160a01b0384169063dd62ed3e90613ed6903090869060040161533c565b60206040518083038186803b158015613eee57600080fd5b505afa158015613f02573d6000803e3d6000fd5b505050506040513d601f19601f82011682018060405250810190613f2691906151de565b155b613f935760405162461bcd60e51b815260206004820152603660248201527f5361666545524332303a20617070726f76652066726f6d206e6f6e2d7a65726f60448201527520746f206e6f6e2d7a65726f20616c6c6f77616e636560501b606482015260840161077c565b613fe98363095ea7b360e01b8484604051602401613fb2929190615356565b60408051601f198184030181529190526020810180516001600160e01b03166001600160e01b031990931692909217909152614891565b505050565b600061400f613fff6005600a61561c565b600285015461257e9087906145ce565b83549091506001600160a01b03161580159061402b5750600081115b1561201b578254604051634a9fefc760e01b81526000916001600160a01b031690634a9fefc790614060908990600401615328565b60206040518083038186803b15801561407857600080fd5b505afa15801561408c573d6000803e3d6000fd5b505050506040513d601f19601f820116820180604052508101906140b09190614b90565b90506001600160a01b03811615610d245782546040516340c10f1960e01b81526001600160a01b03909116906340c10f19906140f29084908690600401615356565b600060405180830381600087803b15801561410c57600080fd5b505af1158015614120573d6000803e3d6000fd5b50508554604051631b82d29760e31b81526001600160a01b03909116925063dc1694b891506141559084908690600401615356565b600060405180830381600087803b15801561416f57600080fd5b505af1158015614183573d6000803e3d6000fd5b50505050505050505050565b80546000908160015b828110156141ef578481815481106141c057634e487b7160e01b600052603260045260246000fd5b906000526020600020906016020160010154826141dd919061559e565b91506141e88161574c565b9050614198565b5060008082156142815761420560196064615709565b61421284620186a06156ea565b61421c91906155b6565b9150620186a061422d6019846156ea565b61423791906155b6565b9050614243818461559e565b9450808660008154811061426757634e487b7160e01b600052603260045260246000fd5b9060005260206000209060160201600101819055506142c0565b6103e8866000815481106142a557634e487b7160e01b600052603260045260246000fd5b9060005260206000209060160201600101819055506103e894505b50505050919050565b6000846001600160a01b0316836001600160a01b031614156142ec5750806122cf565b826001600160a01b0316846001600160a01b0316146122cc576040516370a0823160e01b81526000906001600160a01b038516906370a0823190614334903090600401615328565b60206040518083038186803b15801561434c57600080fd5b505afa158015614360573d6000803e3d6000fd5b505050506040513d601f19601f8201168201806040525081019061438491906151de565b60405163095ea7b360e01b81529091506001600160a01b0386169063095ea7b3906120ed908a908790600401615356565b600081846001600160a01b031663dd62ed3e30866040518363ffffffff1660e01b81526004016143e692919061533c565b60206040518083038186803b1580156143fe57600080fd5b505afa158015614412573d6000803e3d6000fd5b505050506040513d601f19601f8201168201806040525081019061443691906151de565b614440919061559e565b905061335b8463095ea7b360e01b8584604051602401613fb2929190615356565b600080846001600160a01b031663a9059cbb8585604051602401614486929190615356565b6040516020818303038152906040529060e01b6020820180516001600160e01b0383818316178352505050506040516144bf919061530c565b6000604051808303816000865af19150503d80600081146144fc576040519150601f19603f3d011682016040523d82523d6000602084013e614501565b606091505b509150915081801561452b57508051158061452b57508080602001905181019061452b9190614e8e565b61201b5760405162461bcd60e51b815260206004820152601f60248201527f5472616e7366657248656c7065723a205452414e534645525f4641494c454400604482015260640161077c565b613fe98363a9059cbb60e01b8484604051602401613fb2929190615356565b6040516001600160a01b038085166024830152831660448201526064810182905261335b9085906323b872dd60e01b90608401613fb2565b6000826145dd57506000610f0a565b60006145e983856156ea565b9050826145f685836155b6565b14611d625760405162461bcd60e51b815260206004820152602160248201527f536166654d6174683a206d756c7469706c69636174696f6e206f766572666c6f6044820152607760f81b606482015260840161077c565b6000611d6283836040518060400160405280601a815260200179536166654d6174683a206469766973696f6e206279207a65726f60301b815250614963565b6146cf816040516024016146a0919061536f565b60408051601f198184030181529190526020810180516001600160e01b031663104c13eb60e21b179052614991565b50565b6000846001600160a01b0316846001600160a01b031614156142ec5750806122cf565b613fe983838360405160240161470d93929190615382565b60408051601f198184030181529190526020810180516001600160e01b031663f362ca5960e01b179052614991565b613fe983838360405160240161475493929190615405565b60408051601f198184030181529190526020810180516001600160e01b031663969cdd0360e01b179052614991565b6147c882826040516024016147999291906153b8565b60408051601f198184030181529190526020810180516001600160e01b03166309710a9d60e41b179052614991565b5050565b808360000160008282546147e0919061559e565b9091555050811561482357816147fb8264e8d4a510006156ea565b61480591906155b6565b836001016000828254614818919061559e565b90915550613fe99050565b613fe960405180606001604052806034815260200161580e6034913982856001015461473c565b613fe9838383604051602401614862939291906153da565b60408051601f198184030181529190526020810180516001600160e01b031663a3f5c73960e01b179052614991565b60006148e6826040518060400160405280602081526020017f5361666545524332303a206c6f772d6c6576656c2063616c6c206661696c6564815250856001600160a01b03166149b29092919063ffffffff16565b805190915015613fe957808060200190518101906149049190614e8e565b613fe95760405162461bcd60e51b815260206004820152602a60248201527f5361666545524332303a204552433230206f7065726174696f6e20646964206e6044820152691bdd081cdd58d8d9595960b21b606482015260840161077c565b600081836149845760405162461bcd60e51b815260040161077c919061536f565b5060006122cf84866155b6565b80516a636f6e736f6c652e6c6f67602083016000808483855afa5050505050565b6060611c678484600085856001600160a01b0385163b614a145760405162461bcd60e51b815260206004820152601d60248201527f416464726573733a2063616c6c20746f206e6f6e2d636f6e7472616374000000604482015260640161077c565b600080866001600160a01b03168587604051614a30919061530c565b60006040518083038185875af1925050503d8060008114614a6d576040519150601f19603f3d011682016040523d82523d6000602084013e614a72565b606091505b5091509150614a82828286614a8d565b979650505050505050565b60608315614a9c575081611d62565b825115614aac5782518084602001fd5b8160405162461bcd60e51b815260040161077c919061536f565b60405180610140016040528060006001600160a01b031681526020016000815260200160008152602001600081526020016000815260200160008152602001614b0d614b39565b8152602001614b1a614b53565b8152602001614b27614b53565b8152602001614b34614b39565b905290565b604051806040016040528060008152602001614b34614b76565b604051806060016040528060008152602001614b6d614b76565b8152602001614b345b604051806040016040528060008152602001600081525090565b600060208284031215614ba1578081fd5b8151611d6281615793565b600080600060608486031215614bc0578182fd5b8335614bcb81615793565b92506020840135614bdb81615793565b929592945050506040919091013590565b600080600080600080600080610100898b031215614c08578384fd5b8835614c1381615793565b9a60208a01359a5060408a013599606081013599506080810135985060a0810135975060c0810135965060e00135945092505050565b600080600080600060a08688031215614c60578081fd5b8535614c6b81615793565b97602087013597506040870135966060810135965060800135945092505050565b600080600080600060a08688031215614ca3578081fd5b8535614cae81615793565b94506020860135614cbe81615793565b93506040860135614cce81615793565b92506060860135614cde81615793565b949793965091946080013592915050565b60008060008060808587031215614d04578182fd5b8435614d0f81615793565b966020860135965060408601359560600135945092505050565b60008060008060808587031215614d3e578182fd5b8435614d4981615793565b935060208501359250604085013591506060850135614d6781615793565b939692955090935050565b60008060008060008060008060006101208a8c031215614d90578283fd5b8935614d9b81615793565b9b60208b01359b5060408b01359a60608101359a506080810135995060a0810135985060c0810135975060e081013596506101000135945092505050565b60008060008060808587031215614dee578182fd5b5050823594602084013594506040840135936060013592509050565b600080600080600080600060e0888a031215614e24578081fd5b505085359760208701359750604087013596606081013596506080810135955060a0810135945060c0013592509050565b600060208284031215614e66578081fd5b5035919050565b60008060408385031215614e7f578182fd5b50508035926020909101359150565b600060208284031215614e9f578081fd5b8151611d62816157a8565b600080600080600060a08688031215614ca3578283fd5b600080600060608486031215614ed5578081fd5b833592506020840135614bdb81615793565b60008060008060808587031215614efc578182fd5b843593506020850135614f0e81615793565b93969395505050506040820135916060013590565b60008060408385031215614f35578182fd5b823591506020830135614f4781615793565b809150509250929050565b60008060408385031215614f64578182fd5b8235915060208301356001600160401b0380821115614f81578283fd5b818501915085601f830112614f94578283fd5b813581811115614fa657614fa661577d565b604051601f8201601f19908116603f01168101908382118183101715614fce57614fce61577d565b81604052828152886020848701011115614fe6578586fd5b82602086016020830137856020848301015280955050505050509250929050565b60008060006060848603121561501b578081fd5b505081359360208301359350604090920135919050565b600080600080600060a08688031215615049578283fd5b8535945060208601359350604086013561506281615793565b94979396509394606081013594506080013592915050565b600080600080600080600080610100898b031215615096578182fd5b883597506020890135965060408901356150af81615793565b979a96995096976060810135975060808101359660a0820135965060c0820135955060e0909101359350915050565b60008060008060008060008060006101208a8c0312156150fc578283fd5b8935985060208a0135975060408a013560048110615118578384fd5b965060608a013561512881615793565b989b979a50959860808101359760a0820135975060c0820135965060e08201359550610100909101359350915050565b600080600080600060a0868803121561516f578283fd5b853594506020860135935060408601359250606086013591506080860135615196816157a8565b809150509295509295909350565b600080600080600060a086880312156151bb578283fd5b505083359560208501359550604085013594606081013594506080013592509050565b6000602082840312156151ef578081fd5b5051919050565b600080600080600060a0868803121561520d578283fd5b85359450602086013561521f81615793565b94979496505050506040830135926060810135926080909101359150565b6000806040838503121561524f578182fd5b505080516020909101519092909150565b600080600060608486031215615274578081fd5b8351925060208401519150604084015190509250925092565b600081518084526152a5816020860160208601615720565b601f01601f19169290920160200192915050565b80518252602080820151805182850152908101516040840152613fe9565b805182526020808201518051828501529081015160408401525060408101518051606084015260208101516080840152613fe9565b6000825161531e818460208701615720565b9190910192915050565b6001600160a01b0391909116815260200190565b6001600160a01b0392831681529116602082015260400190565b6001600160a01b03929092168252602082015260400190565b600060208252611d62602083018461528d565b600060608252615395606083018661528d565b82810360208401526153a7818661528d565b915050826040830152949350505050565b6000604082526153cb604083018561528d565b90508260208301529392505050565b6000606082526153ed606083018661528d565b8460208401528281036040840152612497818561528d565b600060608252615418606083018661528d565b60208301949094525060400152919050565b60208082526013908201527214ddd85c081c185d1a081b9bdd08199bdd5b99606a1b604082015260600190565b602080825260129082015271125b9d985b1a5908185b1b1bd8d41bda5b9d60721b604082015260600190565b81516001600160a01b031681526102c081016020830151602083015260408301516040830152606083015160608301526080830151608083015260a083015160a083015260c08301516154d960c08401826152b9565b5060e08301516101206154ee818501836152d7565b61010085015191506155046101c08501836152d7565b8401519050610ccf6102608401826152b9565b815181526020808301519082015260408101610f0a565b600060a082018783526020878185015260a0604085015281875180845260c0860191508289019350845b8181101561557d5784516001600160a01b031683529383019391830191600101615558565b50506001600160a01b03969096166060850152505050608001529392505050565b600082198211156155b1576155b1615767565b500190565b6000826155d157634e487b7160e01b81526012600452602481fd5b500490565b80825b60018086116155e85750615613565b8187048211156155fa576155fa615767565b8086161561560757918102915b9490941c9380026155d9565b94509492505050565b6000611d62600019848460008261563557506001611d62565b8161564257506000611d62565b816001811461565857600281146156625761568f565b6001915050611d62565b60ff84111561567357615673615767565b6001841b91508482111561568957615689615767565b50611d62565b5060208310610133831016604e8410600b84101617156156c2575081810a838111156156bd576156bd615767565b611d62565b6156cf84848460016155d6565b8086048211156156e1576156e1615767565b02949350505050565b600081600019048311821515161561570457615704615767565b500290565b60008282101561571b5761571b615767565b500390565b60005b8381101561573b578181015183820152602001615723565b8381111561335b5750506000910152565b600060001982141561576057615760615767565b5060010190565b634e487b7160e01b600052601160045260246000fd5b634e487b7160e01b600052604160045260246000fd5b6001600160a01b03811681146146cf57600080fd5b80151581146146cf57600080fdfe706f6f6c2e4f6e4f6e2e73756d416d6f756e742c20436f6d702e62756c6b0000092a2a2a2a2a2a2a2a2a2a2a2a2a20506174726f6c6c696e672e2e2e206576657279203630207365636f6e64732c20666f72207465737409202d2d2d2d2d2d2d2d2d2d2d2d2d2d2d20746f74616c5368617265203d20302c20636f6d706f756e6420647573742c20616363706f6f6c2e4f6e4f66662e73756d416d6f756e742c20436f6d702e62756c6b00a2646970667358221220567ae7b9760bdbd9440c4aafaa86888db3ba0bd55741bb6b74584165ac9b139864736f6c63430008030033",
  "linkReferences": {},
  "deployedLinkReferences": {}
}