{
  "_format": "hh-sol-artifact-1",
  "contractName": "TGRToken",
  "sourceName": "contracts/farm/TGRToken.sol",
  "abi": [
    {
      "inputs": [
        {
          "internalType": "address",
          "name": "_analyticMath",
          "type": "address"
        }
      ],
      "stateMutability": "nonpayable",
      "type": "constructor"
    },
    {
      "anonymous": false,
      "inputs": [
        {
          "indexed": true,
          "internalType": "address",
          "name": "owner",
          "type": "address"
        },
        {
          "indexed": true,
          "internalType": "address",
          "name": "spender",
          "type": "address"
        },
        {
          "indexed": false,
          "internalType": "uint256",
          "name": "value",
          "type": "uint256"
        }
      ],
      "name": "Approval",
      "type": "event"
    },
    {
      "anonymous": false,
      "inputs": [],
      "name": "Begin",
      "type": "event"
    },
    {
      "anonymous": false,
      "inputs": [
        {
          "indexed": false,
          "internalType": "address",
          "name": "pair",
          "type": "address"
        },
        {
          "indexed": false,
          "internalType": "address",
          "name": "tokenA",
          "type": "address"
        },
        {
          "indexed": false,
          "internalType": "address",
          "name": "tokenB",
          "type": "address"
        },
        {
          "indexed": false,
          "internalType": "enum ListStatus",
          "name": "status",
          "type": "uint8"
        }
      ],
      "name": "ChangePairStatus",
      "type": "event"
    },
    {
      "anonymous": false,
      "inputs": [
        {
          "indexed": false,
          "internalType": "address",
          "name": "token",
          "type": "address"
        },
        {
          "indexed": false,
          "internalType": "address",
          "name": "msgSender",
          "type": "address"
        }
      ],
      "name": "DeenlistToken",
      "type": "event"
    },
    {
      "anonymous": false,
      "inputs": [
        {
          "indexed": true,
          "internalType": "address",
          "name": "previousOwner",
          "type": "address"
        },
        {
          "indexed": true,
          "internalType": "address",
          "name": "newOwner",
          "type": "address"
        }
      ],
      "name": "OwnershipTransferred",
      "type": "event"
    },
    {
      "anonymous": false,
      "inputs": [
        {
          "indexed": false,
          "internalType": "enum ActionType",
          "name": "_sessionType",
          "type": "uint8"
        },
        {
          "components": [
            {
              "internalType": "uint32",
              "name": "accountant",
              "type": "uint32"
            }
          ],
          "indexed": false,
          "internalType": "struct FeeRates",
          "name": "_feeRates",
          "type": "tuple"
        }
      ],
      "name": "SetFeeRates",
      "type": "event"
    },
    {
      "anonymous": false,
      "inputs": [
        {
          "components": [
            {
              "internalType": "address",
              "name": "accountant",
              "type": "address"
            }
          ],
          "indexed": false,
          "internalType": "struct FeeStores",
          "name": "_feeStores",
          "type": "tuple"
        }
      ],
      "name": "SetFeeStores",
      "type": "event"
    },
    {
      "anonymous": false,
      "inputs": [
        {
          "indexed": false,
          "internalType": "enum NodeType",
          "name": "nodeType",
          "type": "uint8"
        },
        {
          "indexed": false,
          "internalType": "address",
          "name": "node",
          "type": "address"
        }
      ],
      "name": "SetNode",
      "type": "event"
    },
    {
      "anonymous": false,
      "inputs": [
        {
          "indexed": true,
          "internalType": "address",
          "name": "from",
          "type": "address"
        },
        {
          "indexed": true,
          "internalType": "address",
          "name": "to",
          "type": "address"
        },
        {
          "indexed": false,
          "internalType": "uint256",
          "name": "value",
          "type": "uint256"
        }
      ],
      "name": "Transfer",
      "type": "event"
    },
    {
      "inputs": [
        {
          "internalType": "address",
          "name": "_owner",
          "type": "address"
        },
        {
          "internalType": "address",
          "name": "_spender",
          "type": "address"
        },
        {
          "internalType": "uint256",
          "name": "subtractedValue",
          "type": "uint256"
        }
      ],
      "name": "_decreaseAllowance",
      "outputs": [
        {
          "internalType": "bool",
          "name": "",
          "type": "bool"
        }
      ],
      "stateMutability": "nonpayable",
      "type": "function"
    },
    {
      "inputs": [
        {
          "internalType": "address",
          "name": "_owner",
          "type": "address"
        },
        {
          "internalType": "address",
          "name": "_spender",
          "type": "address"
        }
      ],
      "name": "allowance",
      "outputs": [
        {
          "internalType": "uint256",
          "name": "",
          "type": "uint256"
        }
      ],
      "stateMutability": "view",
      "type": "function"
    },
    {
      "inputs": [
        {
          "internalType": "address",
          "name": "spender",
          "type": "address"
        },
        {
          "internalType": "uint256",
          "name": "amount",
          "type": "uint256"
        }
      ],
      "name": "approve",
      "outputs": [
        {
          "internalType": "bool",
          "name": "",
          "type": "bool"
        }
      ],
      "stateMutability": "nonpayable",
      "type": "function"
    },
    {
      "inputs": [
        {
          "internalType": "address",
          "name": "account",
          "type": "address"
        }
      ],
      "name": "balanceOf",
      "outputs": [
        {
          "internalType": "uint256",
          "name": "",
          "type": "uint256"
        }
      ],
      "stateMutability": "view",
      "type": "function"
    },
    {
      "inputs": [
        {
          "internalType": "address",
          "name": "caller",
          "type": "address"
        }
      ],
      "name": "begin",
      "outputs": [],
      "stateMutability": "nonpayable",
      "type": "function"
    },
    {
      "inputs": [
        {
          "internalType": "address",
          "name": "from",
          "type": "address"
        },
        {
          "internalType": "uint256",
          "name": "amount",
          "type": "uint256"
        }
      ],
      "name": "burn",
      "outputs": [],
      "stateMutability": "nonpayable",
      "type": "function"
    },
    {
      "inputs": [
        {
          "internalType": "address",
          "name": "from",
          "type": "address"
        },
        {
          "internalType": "uint256",
          "name": "amount",
          "type": "uint256"
        }
      ],
      "name": "bury",
      "outputs": [],
      "stateMutability": "nonpayable",
      "type": "function"
    },
    {
      "inputs": [
        {
          "internalType": "address",
          "name": "pair",
          "type": "address"
        },
        {
          "internalType": "address",
          "name": "token0",
          "type": "address"
        },
        {
          "internalType": "address",
          "name": "token1",
          "type": "address"
        },
        {
          "internalType": "enum ListStatus",
          "name": "status",
          "type": "uint8"
        },
        {
          "internalType": "address",
          "name": "caller",
          "type": "address"
        }
      ],
      "name": "changePairStatus",
      "outputs": [],
      "stateMutability": "nonpayable",
      "type": "function"
    },
    {
      "inputs": [],
      "name": "checkForConsistency",
      "outputs": [],
      "stateMutability": "view",
      "type": "function"
    },
    {
      "inputs": [],
      "name": "decimals",
      "outputs": [
        {
          "internalType": "uint8",
          "name": "",
          "type": "uint8"
        }
      ],
      "stateMutability": "view",
      "type": "function"
    },
    {
      "inputs": [
        {
          "internalType": "address",
          "name": "spender",
          "type": "address"
        },
        {
          "internalType": "uint256",
          "name": "subtractedValue",
          "type": "uint256"
        }
      ],
      "name": "decreaseAllowance",
      "outputs": [
        {
          "internalType": "bool",
          "name": "",
          "type": "bool"
        }
      ],
      "stateMutability": "nonpayable",
      "type": "function"
    },
    {
      "inputs": [
        {
          "internalType": "enum ActionType",
          "name": "",
          "type": "uint8"
        }
      ],
      "name": "feeRates",
      "outputs": [
        {
          "internalType": "uint32",
          "name": "accountant",
          "type": "uint32"
        }
      ],
      "stateMutability": "view",
      "type": "function"
    },
    {
      "inputs": [],
      "name": "feeStores",
      "outputs": [
        {
          "internalType": "address",
          "name": "accountant",
          "type": "address"
        }
      ],
      "stateMutability": "view",
      "type": "function"
    },
    {
      "inputs": [],
      "name": "getOwner",
      "outputs": [
        {
          "internalType": "address",
          "name": "",
          "type": "address"
        }
      ],
      "stateMutability": "view",
      "type": "function"
    },
    {
      "inputs": [
        {
          "internalType": "address",
          "name": "spender",
          "type": "address"
        },
        {
          "internalType": "uint256",
          "name": "addedValue",
          "type": "uint256"
        }
      ],
      "name": "increaseAllowance",
      "outputs": [
        {
          "internalType": "bool",
          "name": "",
          "type": "bool"
        }
      ],
      "stateMutability": "nonpayable",
      "type": "function"
    },
    {
      "inputs": [],
      "name": "lastSession",
      "outputs": [
        {
          "internalType": "uint256",
          "name": "",
          "type": "uint256"
        }
      ],
      "stateMutability": "view",
      "type": "function"
    },
    {
      "inputs": [],
      "name": "lp_reward",
      "outputs": [
        {
          "internalType": "uint256",
          "name": "latestTime",
          "type": "uint256"
        },
        {
          "internalType": "uint256",
          "name": "cycle",
          "type": "uint256"
        },
        {
          "internalType": "uint256",
          "name": "decayRate",
          "type": "uint256"
        },
        {
          "internalType": "address",
          "name": "account",
          "type": "address"
        },
        {
          "internalType": "uint256",
          "name": "accDecayPerShare",
          "type": "uint256"
        },
        {
          "internalType": "uint256",
          "name": "sum_balances",
          "type": "uint256"
        },
        {
          "internalType": "uint256",
          "name": "pending_burn",
          "type": "uint256"
        },
        {
          "internalType": "uint256",
          "name": "latestRound",
          "type": "uint256"
        }
      ],
      "stateMutability": "view",
      "type": "function"
    },
    {
      "inputs": [],
      "name": "maxSupply",
      "outputs": [
        {
          "internalType": "uint256",
          "name": "",
          "type": "uint256"
        }
      ],
      "stateMutability": "view",
      "type": "function"
    },
    {
      "inputs": [
        {
          "internalType": "address",
          "name": "to",
          "type": "address"
        },
        {
          "internalType": "uint256",
          "name": "amount",
          "type": "uint256"
        }
      ],
      "name": "mint",
      "outputs": [],
      "stateMutability": "nonpayable",
      "type": "function"
    },
    {
      "inputs": [],
      "name": "name",
      "outputs": [
        {
          "internalType": "string",
          "name": "",
          "type": "string"
        }
      ],
      "stateMutability": "view",
      "type": "function"
    },
    {
      "inputs": [],
      "name": "nextNode",
      "outputs": [
        {
          "internalType": "address",
          "name": "",
          "type": "address"
        }
      ],
      "stateMutability": "view",
      "type": "function"
    },
    {
      "inputs": [],
      "name": "owner",
      "outputs": [
        {
          "internalType": "address",
          "name": "",
          "type": "address"
        }
      ],
      "stateMutability": "view",
      "type": "function"
    },
    {
      "inputs": [
        {
          "internalType": "address",
          "name": "",
          "type": "address"
        },
        {
          "internalType": "address",
          "name": "",
          "type": "address"
        }
      ],
      "name": "pairFor",
      "outputs": [
        {
          "internalType": "address",
          "name": "",
          "type": "address"
        }
      ],
      "stateMutability": "view",
      "type": "function"
    },
    {
      "inputs": [
        {
          "internalType": "address",
          "name": "",
          "type": "address"
        }
      ],
      "name": "pairs",
      "outputs": [
        {
          "internalType": "address",
          "name": "token0",
          "type": "address"
        },
        {
          "internalType": "address",
          "name": "token1",
          "type": "address"
        },
        {
          "internalType": "enum ListStatus",
          "name": "status",
          "type": "uint8"
        }
      ],
      "stateMutability": "view",
      "type": "function"
    },
    {
      "inputs": [],
      "name": "pause",
      "outputs": [],
      "stateMutability": "nonpayable",
      "type": "function"
    },
    {
      "inputs": [],
      "name": "paused",
      "outputs": [
        {
          "internalType": "bool",
          "name": "",
          "type": "bool"
        }
      ],
      "stateMutability": "view",
      "type": "function"
    },
    {
      "inputs": [
        {
          "internalType": "address",
          "name": "account",
          "type": "address"
        },
        {
          "internalType": "uint256",
          "name": "principal",
          "type": "uint256"
        },
        {
          "components": [
            {
              "internalType": "uint32",
              "name": "accountant",
              "type": "uint32"
            }
          ],
          "internalType": "struct FeeRates",
          "name": "rates",
          "type": "tuple"
        },
        {
          "internalType": "bool",
          "name": "fromAllowance",
          "type": "bool"
        }
      ],
      "name": "payFeeCrssLogic",
      "outputs": [
        {
          "internalType": "uint256",
          "name": "feesPaid",
          "type": "uint256"
        }
      ],
      "stateMutability": "nonpayable",
      "type": "function"
    },
    {
      "inputs": [],
      "name": "prevNode",
      "outputs": [
        {
          "internalType": "address",
          "name": "",
          "type": "address"
        }
      ],
      "stateMutability": "view",
      "type": "function"
    },
    {
      "inputs": [],
      "name": "pulse_lp_reward",
      "outputs": [],
      "stateMutability": "nonpayable",
      "type": "function"
    },
    {
      "inputs": [],
      "name": "pulse_user_burn",
      "outputs": [],
      "stateMutability": "nonpayable",
      "type": "function"
    },
    {
      "inputs": [],
      "name": "pulse_vote_burn",
      "outputs": [],
      "stateMutability": "nonpayable",
      "type": "function"
    },
    {
      "inputs": [
        {
          "internalType": "enum ActionType",
          "name": "actionType",
          "type": "uint8"
        },
        {
          "internalType": "bool",
          "name": "blockReentry",
          "type": "bool"
        }
      ],
      "name": "registerAction",
      "outputs": [
        {
          "components": [
            {
              "internalType": "enum ActionType",
              "name": "actionType",
              "type": "uint8"
            },
            {
              "internalType": "uint256",
              "name": "session",
              "type": "uint256"
            },
            {
              "internalType": "uint256",
              "name": "lastSession",
              "type": "uint256"
            },
            {
              "internalType": "bool",
              "name": "isUserAction",
              "type": "bool"
            }
          ],
          "internalType": "struct ActionParams",
          "name": "actionParams",
          "type": "tuple"
        }
      ],
      "stateMutability": "nonpayable",
      "type": "function"
    },
    {
      "inputs": [],
      "name": "renounceOwnership",
      "outputs": [],
      "stateMutability": "nonpayable",
      "type": "function"
    },
    {
      "inputs": [],
      "name": "resume",
      "outputs": [],
      "stateMutability": "nonpayable",
      "type": "function"
    },
    {
      "inputs": [],
      "name": "session",
      "outputs": [
        {
          "internalType": "uint256",
          "name": "",
          "type": "uint256"
        }
      ],
      "stateMutability": "view",
      "type": "function"
    },
    {
      "inputs": [
        {
          "internalType": "enum ActionType",
          "name": "",
          "type": "uint8"
        }
      ],
      "name": "sessionsLastSeenBySType",
      "outputs": [
        {
          "internalType": "uint256",
          "name": "",
          "type": "uint256"
        }
      ],
      "stateMutability": "view",
      "type": "function"
    },
    {
      "inputs": [
        {
          "internalType": "enum ActionType",
          "name": "_sessionType",
          "type": "uint8"
        },
        {
          "components": [
            {
              "internalType": "uint32",
              "name": "accountant",
              "type": "uint32"
            }
          ],
          "internalType": "struct FeeRates",
          "name": "_feeRates",
          "type": "tuple"
        },
        {
          "internalType": "address",
          "name": "caller",
          "type": "address"
        }
      ],
      "name": "setFeeRates",
      "outputs": [],
      "stateMutability": "nonpayable",
      "type": "function"
    },
    {
      "inputs": [
        {
          "components": [
            {
              "internalType": "address",
              "name": "accountant",
              "type": "address"
            }
          ],
          "internalType": "struct FeeStores",
          "name": "_feeStores",
          "type": "tuple"
        },
        {
          "internalType": "address",
          "name": "caller",
          "type": "address"
        }
      ],
      "name": "setFeeStores",
      "outputs": [],
      "stateMutability": "nonpayable",
      "type": "function"
    },
    {
      "inputs": [
        {
          "internalType": "enum NodeType",
          "name": "nodeType",
          "type": "uint8"
        },
        {
          "internalType": "address",
          "name": "node",
          "type": "address"
        },
        {
          "internalType": "address",
          "name": "caller",
          "type": "address"
        }
      ],
      "name": "setNode",
      "outputs": [],
      "stateMutability": "nonpayable",
      "type": "function"
    },
    {
      "inputs": [],
      "name": "symbol",
      "outputs": [
        {
          "internalType": "string",
          "name": "",
          "type": "string"
        }
      ],
      "stateMutability": "view",
      "type": "function"
    },
    {
      "inputs": [],
      "name": "totalSupply",
      "outputs": [
        {
          "internalType": "uint256",
          "name": "",
          "type": "uint256"
        }
      ],
      "stateMutability": "view",
      "type": "function"
    },
    {
      "inputs": [
        {
          "internalType": "address",
          "name": "recipient",
          "type": "address"
        },
        {
          "internalType": "uint256",
          "name": "amount",
          "type": "uint256"
        }
      ],
      "name": "transfer",
      "outputs": [
        {
          "internalType": "bool",
          "name": "",
          "type": "bool"
        }
      ],
      "stateMutability": "nonpayable",
      "type": "function"
    },
    {
      "inputs": [
        {
          "internalType": "address",
          "name": "sender",
          "type": "address"
        },
        {
          "internalType": "address",
          "name": "recipient",
          "type": "address"
        },
        {
          "internalType": "uint256",
          "name": "amount",
          "type": "uint256"
        }
      ],
      "name": "transferDirectSafe",
      "outputs": [],
      "stateMutability": "nonpayable",
      "type": "function"
    },
    {
      "inputs": [
        {
          "internalType": "address",
          "name": "sender",
          "type": "address"
        },
        {
          "internalType": "address",
          "name": "recipient",
          "type": "address"
        },
        {
          "internalType": "uint256",
          "name": "amount",
          "type": "uint256"
        }
      ],
      "name": "transferFrom",
      "outputs": [
        {
          "internalType": "bool",
          "name": "",
          "type": "bool"
        }
      ],
      "stateMutability": "nonpayable",
      "type": "function"
    },
    {
      "inputs": [
        {
          "internalType": "address",
          "name": "newOwner",
          "type": "address"
        }
      ],
      "name": "transferOwnership",
      "outputs": [],
      "stateMutability": "nonpayable",
      "type": "function"
    },
    {
      "inputs": [],
      "name": "unregisterAction",
      "outputs": [],
      "stateMutability": "nonpayable",
      "type": "function"
    },
    {
      "inputs": [],
      "name": "user_burn",
      "outputs": [
        {
          "internalType": "uint256",
          "name": "latestTime",
          "type": "uint256"
        },
        {
          "internalType": "uint256",
          "name": "cycle",
          "type": "uint256"
        },
        {
          "internalType": "uint256",
          "name": "decayRate",
          "type": "uint256"
        },
        {
          "internalType": "address",
          "name": "account",
          "type": "address"
        },
        {
          "internalType": "uint256",
          "name": "accDecayPerShare",
          "type": "uint256"
        },
        {
          "internalType": "uint256",
          "name": "sum_balances",
          "type": "uint256"
        },
        {
          "internalType": "uint256",
          "name": "pending_burn",
          "type": "uint256"
        },
        {
          "internalType": "uint256",
          "name": "latestRound",
          "type": "uint256"
        }
      ],
      "stateMutability": "view",
      "type": "function"
    },
    {
      "inputs": [],
      "name": "vote_burn",
      "outputs": [
        {
          "internalType": "uint256",
          "name": "latestTime",
          "type": "uint256"
        },
        {
          "internalType": "uint256",
          "name": "cycle",
          "type": "uint256"
        },
        {
          "internalType": "uint256",
          "name": "decayRate",
          "type": "uint256"
        },
        {
          "internalType": "address",
          "name": "account",
          "type": "address"
        },
        {
          "internalType": "uint256",
          "name": "accDecayPerShare",
          "type": "uint256"
        },
        {
          "internalType": "uint256",
          "name": "sum_balances",
          "type": "uint256"
        },
        {
          "internalType": "uint256",
          "name": "pending_burn",
          "type": "uint256"
        },
        {
          "internalType": "uint256",
          "name": "latestRound",
          "type": "uint256"
        }
      ],
      "stateMutability": "view",
      "type": "function"
    },
    {
      "inputs": [
        {
          "internalType": "address",
          "name": "_prevNode",
          "type": "address"
        },
        {
          "internalType": "address",
          "name": "_nextNode",
          "type": "address"
        }
      ],
      "name": "wire",
      "outputs": [],
      "stateMutability": "nonpayable",
      "type": "function"
    },
    {
      "stateMutability": "payable",
      "type": "receive"
    }
  ],
  "bytecode": "0x60806040523480156200001157600080fd5b50604051620040a3380380620040a38339810160408190526200003491620008cc565b6000805460ff1916905562000049336200037a565b603b80546001600160a01b0319166001600160a01b0383161790556200006c3390565b603780546001600160a01b03929092166001600160a01b03199283161790556038805482167370997970c51812dc3a010c7d01b50e0d17dc79c8179055603980548216733c44cdddb6a900fa2b585dd299e03d12fa4293bc179055603a805482167390f79bf6eb2c4f870365e785982e1f101e93b906179055601b805482167315d34aaf54267db7d7c367839aaf71a00a2c6a65908117909155601c80548316739965507d1a55bcc2695c58ba16fb37d819b0a4dc179055601d805490921673976ea74026e726554db657fa54763abd0c3a0aa9179091556040805161010081018252428082526002602083018190526102b293830193909352606082019390935260006080820181905260a0820181905260c08201529160e0830191620001949162000914565b90528051601e55602080820151601f556040808301518255606080840151602180546001600160a01b0319166001600160a01b0392831617905560808086015160225560a08087015160235560c08088015160245560e097880151602555855161010081018752428082526002988201899052604697820197909752601d5490941694840194909452600091830182905282018190529181019190915292830191620002409162000914565b90528051602655602080820151602755604080830151602855606080840151602980546001600160a01b0319166001600160a01b03909216919091179055608080850151602a5560a080860151602b5560c080870151602c5560e096870151602d5584516101008101865242808252600497820188905261030996820196909652600094810185905292830184905290820183905281019190915292830191620002ea9162000914565b90528051602e556020810151602f5560408101516030556060810151603180546001600160a01b0319166001600160a01b03909216919091179055608081015160325560a081015160335560c081015160345560e0015160355562000373620003503390565b6200035e6012600a62000a34565b6200036d90620f424062000a45565b620003d8565b5062000b28565b600b80546001600160a01b0383811663010000008181026301000000600160b81b031985161790945560405193909204169182907f8be0079c531659141344cd1fd0a4f28419497f9722a3daafe3b4186f6b6457e090600090a35050565b60408051808201909152600c81526b5a65726f206164647265737360a01b60208201526001600160a01b0383166200042e5760405162461bcd60e51b815260040162000425919062000ab7565b60405180910390fd5b50806019600082825462000443919062000acc565b9091555062000457905082826001620004a1565b6040518181526001600160a01b038316906000907fddf252ad1be2c89b69c2b068fc378daa952ba7f163c4a11628f55a4df523b3ef9060200160405180910390a35050565b505050565b620004ac836200062b565b15620005b557620004bd836200067c565b80620004ef576001600160a01b0383166000908152601a6020526040902054620004e990839062000ae7565b62000515565b6001600160a01b0383166000908152601a60205260409020546200051590839062000acc565b6001600160a01b0384166000908152601a6020526040902055806200054a576033546200054490839062000ae7565b6200055a565b6033546200055a90839062000acc565b6033556032546001600160a01b0384166000908152601a602052604090205464e8d4a51000916200058b9162000a45565b62000597919062000914565b6001600160a01b038416600090815260366020526040902055505050565b80620005e7576001600160a01b0383166000908152601a6020526040902054620005e190839062000ae7565b6200060d565b6001600160a01b0383166000908152601a60205260409020546200060d90839062000acc565b6001600160a01b0384166000908152601a6020526040902055505050565b601b546000906001600160a01b038381169116148015906200065b5750601c546001600160a01b03838116911614155b8015620006765750601d546001600160a01b03838116911614155b92915050565b600062000689826200076c565b9050801562000768576001600160a01b0382166000908152601a602052604081208054839290620006bc90849062000ae7565b925050819055508060196000828254620006d7919062000ae7565b909155505060338054829190600090620006f390849062000ae7565b9091555050603480548291906000906200070f90849062000ae7565b90915550506032546001600160a01b0383166000908152601a602052604090205464e8d4a5100091620007429162000a45565b6200074e919062000914565b6001600160a01b0383166000908152603660205260409020555b5050565b6001600160a01b038116600090815260366020908152604080832054603254601a90935290832054909164e8d4a5100091620007a9919062000a45565b620007b5919062000914565b620007c1919062000ae7565b6001600160a01b0383166000908152601a60205260409020549091508111156200085757620008576040518060400160405280601d81526020017f70656e64696e674275726e2065786365656473205f62616c616e63657300000081525082601a6000866001600160a01b03166001600160a01b03168152602001908152602001600020546200085c60201b620020f71760201c565b919050565b6200049c838383604051602401620008779392919062000b01565b60408051601f198184030181529190526020810180516001600160e01b0390811663969cdd0360e01b17909152620008ab16565b80516a636f6e736f6c652e6c6f67602083016000808483855afa5050505050565b600060208284031215620008df57600080fd5b81516001600160a01b0381168114620008f757600080fd5b9392505050565b634e487b7160e01b600052601160045260246000fd5b6000826200093257634e487b7160e01b600052601260045260246000fd5b500490565b600181815b80851115620009785781600019048211156200095c576200095c620008fe565b808516156200096a57918102915b93841c93908002906200093c565b509250929050565b600082620009915750600162000676565b81620009a05750600062000676565b8160018114620009b95760028114620009c457620009e4565b600191505062000676565b60ff841115620009d857620009d8620008fe565b50506001821b62000676565b5060208310610133831016604e8410600b841016171562000a09575081810a62000676565b62000a15838362000937565b806000190482111562000a2c5762000a2c620008fe565b029392505050565b6000620008f760ff84168362000980565b600081600019048311821515161562000a625762000a62620008fe565b500290565b6000815180845260005b8181101562000a8f5760208185018101518683018201520162000a71565b8181111562000aa2576000602083870101525b50601f01601f19169290920160200192915050565b602081526000620008f7602083018462000a67565b6000821982111562000ae25762000ae2620008fe565b500190565b60008282101562000afc5762000afc620008fe565b500390565b60608152600062000b16606083018662000a67565b60208301949094525060400152919050565b61356b8062000b386000396000f3fe6080604052600436106102b25760003560e01c80638da5cb5b11610175578063cd193c43116100dc578063eca4c46611610095578063f2fde38b1161006f578063f2fde38b14610944578063f9a21e8a14610964578063fc58ee8b14610984578063fe33b302146109a457600080fd5b8063eca4c466146108ec578063ecd6f46a14610902578063ed2deb8b1461092f57600080fd5b8063cd193c431461081c578063cd537aa11461083c578063cdd9224c1461085c578063d5abeb011461087c578063dd62ed3e14610891578063e729a455146108d757600080fd5b80639dc29fac1161012e5780639dc29fac14610740578063a13c1f6714610760578063a150da2a1461079c578063a457c2d7146107bc578063a55a89f4146107dc578063a9059cbb146107fc57600080fd5b80638da5cb5b1461064e57806390e3677f1461067357806391fd0db714610693578063928879d6146106b357806395d89b41146106d357806396ed28f9146106ff57600080fd5b8063431b3c30116102195780636c93564f116101d25780636c93564f146105b357806370a08231146105ef578063715018a61461060f57806373957289146106245780638456cb5914610639578063893d20e81461064e57600080fd5b8063431b3c30146105015780634be548271461051657806354abe9d0146105435780635c975abb146105635780635e3568b81461057d57806365715c561461059357600080fd5b806323b872dd1161026b57806323b872dd146103c9578063249dfad7146103e9578063313ce567146104265780633660777d1461044257806339509351146104c157806340c10f19146104e157600080fd5b8063046f7da2146102be57806306fdde03146102d5578063086a606c14610319578063095ea7b31461032e578063102247111461035e57806318160ddd146103a657600080fd5b366102b957005b600080fd5b3480156102ca57600080fd5b506102d3610a00565b005b3480156102e157600080fd5b506040805180820190915260098152682a23a9102a37b5b2b760b91b60208201525b6040516103109190612d3b565b60405180910390f35b34801561032557600080fd5b506102d3610a70565b34801561033a57600080fd5b5061034e610349366004612d65565b610abc565b6040519015158152602001610310565b34801561036a57600080fd5b50610391610379366004612d9c565b600a6020526000908152604090205463ffffffff1681565b60405163ffffffff9091168152602001610310565b3480156103b257600080fd5b506103bb610ad3565b604051908152602001610310565b3480156103d557600080fd5b5061034e6103e4366004612db9565b610ae2565b3480156103f557600080fd5b5060005461040e9061010090046001600160a01b031681565b6040516001600160a01b039091168152602001610310565b34801561043257600080fd5b5060405160128152602001610310565b34801561044e57600080fd5b50602654602754602854602954602a54602b54602c54602d5461047e979695946001600160a01b03169392919088565b604080519889526020890197909752958701949094526001600160a01b039092166060860152608085015260a084015260c083015260e082015261010001610310565b3480156104cd57600080fd5b5061034e6104dc366004612d65565b610b93565b3480156104ed57600080fd5b506102d36104fc366004612d65565b610ba7565b34801561050d57600080fd5b506102d3610c56565b34801561052257600080fd5b50610536610531366004612e05565b610d17565b6040516103109190612e60565b34801561054f57600080fd5b506102d361055e366004612e9a565b61105a565b34801561056f57600080fd5b5060115461034e9060ff1681565b34801561058957600080fd5b506103bb600c5481565b34801561059f57600080fd5b5060015461040e906001600160a01b031681565b3480156105bf57600080fd5b50602e54602f5460305460315460325460335460345460355461047e979695946001600160a01b03169392919088565b3480156105fb57600080fd5b506103bb61060a366004612e9a565b61117d565b34801561061b57600080fd5b506102d3611188565b34801561063057600080fd5b506102d36111c6565b34801561064557600080fd5b506102d361149c565b34801561065a57600080fd5b50600b54630100000090046001600160a01b031661040e565b34801561067f57600080fd5b506102d361068e366004612eb5565b61150a565b34801561069f57600080fd5b506102d36106ae366004612edf565b6115a8565b3480156106bf57600080fd5b506102d36106ce366004612f79565b611761565b3480156106df57600080fd5b506040805180820190915260038152622a23a960e91b6020820152610303565b34801561070b57600080fd5b5061040e61071a366004612eb5565b60086020908152600092835260408084209091529082529020546001600160a01b031681565b34801561074c57600080fd5b506102d361075b366004612d65565b6118c4565b34801561076c57600080fd5b50601e54601f5460205460215460225460235460245460255461047e979695946001600160a01b03169392919088565b3480156107a857600080fd5b5061034e6107b7366004612db9565b611900565b3480156107c857600080fd5b5061034e6107d7366004612d65565b611987565b3480156107e857600080fd5b506103bb6107f7366004612fb5565b611994565b34801561080857600080fd5b5061034e610817366004612d65565b6119fc565b34801561082857600080fd5b506102d361083736600461300d565b611a09565b34801561084857600080fd5b506102d3610857366004612db9565b611c67565b34801561086857600080fd5b506102d3610877366004613078565b611d47565b34801561088857600080fd5b506103bb611f0c565b34801561089d57600080fd5b506103bb6108ac366004612eb5565b6001600160a01b03918216600090815260186020908152604080832093909416825291909152205490565b3480156108e357600080fd5b506102d3611f29565b3480156108f857600080fd5b506103bb600d5481565b34801561090e57600080fd5b506103bb61091d366004612d9c565b600e6020526000908152604090205481565b34801561093b57600080fd5b506102d3611f7f565b34801561095057600080fd5b506102d361095f366004612e9a565b61201b565b34801561097057600080fd5b5060095461040e906001600160a01b031681565b34801561099057600080fd5b506102d361099f366004612d65565b6120bb565b3480156109b057600080fd5b506109f16109bf366004612e9a565b600760205260009081526040902080546001909101546001600160a01b0391821691811690600160a01b900460ff1683565b604051610310939291906130fc565b600b54630100000090046001600160a01b03166001600160a01b0316336001600160a01b031614610a645760405162461bcd60e51b81526020600482015260096024820152682737ba1037bbb732b960b91b60448201526064015b60405180910390fd5b6011805460ff19169055565b601f54600090610a80904261313f565b602554909150811115610ab957602554600090610a9e908390613161565b602583905590506000610ab1601e61213e565b505042601e55505b50565b6000610ac933848461232e565b5060015b92915050565b6000610add612426565b905090565b60006001600160a01b0384163314610b7e576001600160a01b038416600090815260186020908152604080832033845290915290205482811015610b685760405162461bcd60e51b815260206004820152601a60248201527f5472616e73666572206578636565647320616c6c6f77616e63650000000000006044820152606401610a5b565b610b7c8533610b778685613161565b61232e565b505b610b89848484612438565b5060019392505050565b6000610ba0338484612449565b9392505050565b600b546001600160a01b036301000000909104163314610bd95760405162461bcd60e51b8152600401610a5b90613178565b610be56012600a613291565b610bf3906302faf0806132a0565b81610bfc612426565b610c0691906132bf565b1115610c485760405162461bcd60e51b8152602060048201526011602482015270457863656564204d617820537570706c7960781b6044820152606401610a5b565b610c5282826124d0565b5050565b60025433906001600160a01b0316811480610c7e57506004546001600160a01b038281169116145b80610c9657506005546001600160a01b038281169116145b610cb25760405162461bcd60e51b8152600401610a5b906132d7565b6000600f60105460148110610cc957610cc9613306565b602091828204019190066101000a81548160ff02191690836004811115610cf257610cf2612e3a565b021790555060105415610ab95760108054906000610d0f8361331c565b919050555050565b60408051608081018252600080825260208201819052918101829052606081019190915260025433906001600160a01b0316811480610d6357506004546001600160a01b038281169116145b80610d7b57506005546001600160a01b038281169116145b610d975760405162461bcd60e51b8152600401610a5b906132d7565b60115460ff1615610dda5760405162461bcd60e51b815260206004820152600d60248201526c14de5cdd195b481c185d5cd959609a1b6044820152606401610a5b565b6000846004811115610dee57610dee612e3a565b03610e3b5760405162461bcd60e51b815260206004820152601760248201527f496e76616c696420416374696f6e5479706520547970650000000000000000006044820152606401610a5b565b8215610eea5760005b6010548111610ee857846004811115610e5f57610e5f612e3a565b600f8260148110610e7257610e72613306565b602081049091015460ff601f9092166101000a9004166004811115610e9957610e99612e3a565b03610ed65760405162461bcd60e51b815260206004820152600d60248201526c1499595b9d1c9e48199bdd5b99609a1b6044820152606401610a5b565b80610ee081613333565b915050610e44565b505b601054158015610f115750600f5460009060ff166004811115610f0f57610f0f612e3a565b145b610f2b5760108054906000610f2583613333565b91905055505b601460105410610f755760405162461bcd60e51b8152602060048201526015602482015274416374696f6e20737461636b206f766572666c6f7760581b6044820152606401610a5b565b83600f60105460148110610f8b57610f8b613306565b602091828204019190066101000a81548160ff02191690836004811115610fb457610fb4612e3a565b021790555081846004811115610fcc57610fcc612e3a565b90816004811115610fdf57610fdf612e3a565b90525060105415606083015260405160009061101390439032906020019182526001600160a01b0316602082015260400190565b6040516020818303038152906040528051906020012060001c905080600c541461104257600c8054600d558190555b5050600c546020820152600d54604082015292915050565b60005461010090046001600160a01b031633148061107757503330145b806110a55750600b54630100000090046001600160a01b03166001600160a01b0316336001600160a01b0316145b6110c15760405162461bcd60e51b8152600401610a5b9061334c565b6001600160a01b0381163014611151576001546001600160a01b03908116906354abe9d0908316156110f357826110f5565b305b6040516001600160e01b031960e084901b1681526001600160a01b039091166004820152602401600060405180830381600087803b15801561113657600080fd5b505af115801561114a573d6000803e3d6000fd5b5050505050565b6040517ffd3415c24b2b4519f08b7935c13f86ea010c77b3ff9bf448a474ae3b2414fce090600090a150565b6000610acd82612584565b600b546001600160a01b0363010000009091041633146111ba5760405162461bcd60e51b8152600401610a5b90613178565b6111c460006125e6565b565b601954601d546001600160a01b039081166000908152601a602052604080822054601c548416835281832054601b54909416835291205460335491929161120d91906132bf565b61121791906132bf565b61122191906132bf565b146112a35760405162461bcd60e51b815260206004820152604660248201527f73756d5f62616c616e636573202b205f62616c5b74677266746d5d202b205f6260448201527f616c5b74677268747a202b205f62616c5b766f74657320213d205f746f74616c606482015265537570706c7960d01b608482015260a401610a5b565b603354603a546001600160a01b039081166000908152601a6020526040808220546039548416835281832054603854851684528284205460375490951684529190922054919290916112f591906132bf565b6112ff91906132bf565b61130991906132bf565b146113885760405162461bcd60e51b815260206004820152604360248201527f5f62616c5b61646d696e5d202b205f62616c5b616c6963655d202b205f62616c60448201527f5b626f625d202b205f62616c5b6361726f6c5d20213d2073756d5f62616c616e60648201526263657360e81b608482015260a401610a5b565b60345460335460009161139a91613161565b603a549091506000906113b5906001600160a01b031661117d565b6039546113ca906001600160a01b031661117d565b6038546113df906001600160a01b031661117d565b6037546113f4906001600160a01b031661117d565b6113fe91906132bf565b61140891906132bf565b61141291906132bf565b905060008183101561142f576114288383613161565b905061143c565b6114398284613161565b90505b8261144a82620f42406132a0565b106114975760405162461bcd60e51b815260206004820152601a60248201527f4572726f7220657863656564732061206d696c6c696f6e2d74680000000000006044820152606401610a5b565b505050565b600b54630100000090046001600160a01b03166001600160a01b0316336001600160a01b0316146114fb5760405162461bcd60e51b81526020600482015260096024820152682737ba1037bbb732b960b91b6044820152606401610a5b565b6011805460ff19166001179055565b600b54630100000090046001600160a01b03166001600160a01b0316336001600160a01b0316146115705760405162461bcd60e51b815260206004820152601060248201526f496e76616c69642063616c6c6572203360801b6044820152606401610a5b565b60008054610100600160a81b0319166101006001600160a01b0394851602179055600180546001600160a01b03191691909216179055565b60005461010090046001600160a01b03163314806115c557503330145b806115f35750600b54630100000090046001600160a01b03166001600160a01b0316336001600160a01b0316145b61160f5760405162461bcd60e51b8152600401610a5b9061334c565b6001600160a01b038116301461172357600b5462010000900460ff161561169d57604051634f18125b60e01b815273__$88bebae22a3ad6e62b56c303176513ecf8$__90634f18125b9061166c908690600a908790600401613376565b60006040518083038186803b15801561168457600080fd5b505af4158015611698573d6000803e3d6000fd5b505050505b60006001600160a01b038216156116b457816116b6565b305b6001546040516391fd0db760e01b81529192506001600160a01b0316906391fd0db7906116eb9087908790869060040161339e565b600060405180830381600087803b15801561170557600080fd5b505af1158015611719573d6000803e3d6000fd5b5050505050505050565b7fb4040436d4754da72f29d5b97fe68448f30d44ac0e08b33545cbf6f28b7641d983836040516117549291906133cd565b60405180910390a1505050565b60005461010090046001600160a01b031633148061177e57503330145b806117ac5750600b54630100000090046001600160a01b03166001600160a01b0316336001600160a01b0316145b6117c85760405162461bcd60e51b8152600401610a5b9061334c565b6001600160a01b03811630146118935760405163085b199160e11b815273__$88bebae22a3ad6e62b56c303176513ecf8$__906310b633229061181490869086906002906004016133ee565b60006040518083038186803b15801561182c57600080fd5b505af4158015611840573d6000803e3d6000fd5b506000925050506001600160a01b0382161561185c578161185e565b305b6001546040516349443ceb60e11b81529192506001600160a01b03169063928879d6906116eb90879087908690600401613418565b7fb45c42dda0a5ab1d1078e0afeda2976363eff9496a93644e726862f1f06186b88383604051611754929190613443565b600b546001600160a01b0363010000009091041633146118f65760405162461bcd60e51b8152600401610a5b90613178565b610c528282612644565b60408051808201909152600c81526b5a65726f206164647265737360a01b60208201526000906001600160a01b03851661194d5760405162461bcd60e51b8152600401610a5b9190612d3b565b506001600160a01b03808516600090815260186020908152604080832093871683529290522054610b899085908590610b77908690613161565b6000610ba0338484611900565b60025460009033906001600160a01b03168114806119bf57506004546001600160a01b038281169116145b806119d757506005546001600160a01b038281169116145b6119f35760405162461bcd60e51b8152600401610a5b906132d7565b50949350505050565b6000610ac9338484612438565b60005461010090046001600160a01b0316331480611a2657503330145b80611a545750600b54630100000090046001600160a01b03166001600160a01b0316336001600160a01b0316145b611a705760405162461bcd60e51b8152600401610a5b9061334c565b6001600160a01b0381163014611c2357600b5460ff1615611b99576040518060600160405280856001600160a01b03168152602001846001600160a01b03168152602001836003811115611ac657611ac6612e3a565b90526001600160a01b03808716600090815260076020908152604091829020845181549085166001600160a01b0319918216178255918501516001820180549190951692811683178555928501519093909290916001600160a81b031990911617600160a01b836003811115611b3e57611b3e612e3a565b021790555050506001600160a01b038085166000818152600860208181526040808420898716855282528084208054968c166001600160a01b0319978816811790915592825280842094845293905291902080549092161790555b60006001600160a01b03821615611bb05781611bb2565b305b60015460405163cd193c4360e01b81529192506001600160a01b03169063cd193c4390611beb9089908990899089908890600401613468565b600060405180830381600087803b158015611c0557600080fd5b505af1158015611c19573d6000803e3d6000fd5b505050505061114a565b7f7af36d96fdc569564b9fadb22716716fe33463cb7fc8dca4fbd79d40448acdf285858585604051611c5894939291906134aa565b60405180910390a15050505050565b60055433906001600160a01b0316811480611c8f57506004546001600160a01b038281169116145b80611cb357506001600160a01b038181166000908152600760205260409020541615155b604051806040016040528060098152602001682337b93134b23232b760b91b81525090611cf35760405162461bcd60e51b8152600401610a5b9190612d3b565b506001600160a01b0384166000908152601a6020526040902054821115611d30576001600160a01b0384166000908152601a602052604090205491505b8115611d4157611d4184848461274e565b50505050565b60005461010090046001600160a01b0316331480611d6457503330145b80611d925750600b54630100000090046001600160a01b03166001600160a01b0316336001600160a01b0316145b611dae5760405162461bcd60e51b8152600401610a5b9061334c565b6001600160a01b0381163014611ecb57600b54610100900460ff1615611e4257604051633d8d54b760e11b81526009600482015282516001600160a01b0316602482015273__$88bebae22a3ad6e62b56c303176513ecf8$__90637b1aa96e9060440160006040518083038186803b158015611e2957600080fd5b505af4158015611e3d573d6000803e3d6000fd5b505050505b60006001600160a01b03821615611e595781611e5b565b305b600154604051633376489360e21b815285516001600160a01b039081166004830152808416602483015292935091169063cdd9224c90604401600060405180830381600087803b158015611eae57600080fd5b505af1158015611ec2573d6000803e3d6000fd5b50505050505050565b60405182516001600160a01b031681527f275664547227ddbc7a8a732c07c9346f2f4520de70c2088665cc6809534212c09060200160405180910390a15050565b611f186012600a613291565b611f26906302faf0806132a0565b81565b6000611f35602661213e565b6029546001600160a01b03166000818152601a6020526040902054919250611f789164e8d4a5100090611f699085906132a0565b611f73919061313f565b612644565b5042602655565b6000611f8b602e61213e565b90508015610ab957603454603354600091611fa591613161565b9050600064e8d4a51000611fb984846132a0565b611fc3919061313f565b905080602e6006016000828254611fda91906132bf565b9091555050603354611ff18264e8d4a510006132a0565b611ffb919061313f565b6032805460009061200d9084906132bf565b909155505042602e55505050565b600b546001600160a01b03630100000090910416331461204d5760405162461bcd60e51b8152600401610a5b90613178565b6001600160a01b0381166120b25760405162461bcd60e51b815260206004820152602660248201527f4f776e61626c653a206e6577206f776e657220697320746865207a65726f206160448201526564647265737360d01b6064820152608401610a5b565b610ab9816125e6565b600b546001600160a01b0363010000009091041633146120ed5760405162461bcd60e51b8152600401610a5b90613178565b610c5282826128a7565b61149783838360405160240161210f939291906134e0565b60408051601f198184030181529190526020810180516001600160e01b031663969cdd0360e01b17905261295b565b600080826001015442612151919061313f565b905082600701548111156123285760008360070154826121719190613161565b600785018390554285559050601e81111561218a5750601e5b64e8d4a510009250600581116122405760028401546000906121ae6005600a613505565b6121b89190613161565b90508060006121c96005600a613505565b905060015b8481101561220c576121e084846132a0565b92506121ee6005600a613505565b6121f890836132a0565b91508061220481613333565b9150506121ce565b508061221d8364e8d4a510006132a0565b612227919061313f565b6122369064e8d4a51000613161565b9550505050612326565b603b54600285015460009182916001600160a01b0390911690635aff34dc9061226b6005600a613505565b6122759190613161565b6122816005600a613505565b6040516001600160e01b031960e085901b1681526004810192909252602482015260448101869052600160648201526084016040805180830381865afa1580156122cf573d6000803e3d6000fd5b505050506040513d601f19601f820116820180604052508101906122f39190613511565b9092509050806123088364e8d4a510006132a0565b612312919061313f565b6123219064e8d4a51000613161565b945050505b505b50919050565b60408051808201909152600c81526b5a65726f206164647265737360a01b60208201526001600160a01b0384166123785760405162461bcd60e51b8152600401610a5b9190612d3b565b5060408051808201909152600c81526b5a65726f206164647265737360a01b60208201526001600160a01b0383166123c35760405162461bcd60e51b8152600401610a5b9190612d3b565b506001600160a01b0383811660008181526018602090815260408083209487168084529482529182902085905590518481527f8c5be1e5ebec7d5bd14f71427d1e84f3dd0314c0f7b2291e5b200ac8c7c3b92591015b60405180910390a3505050565b603454601954600091610add91613161565b80156114975761149783838361274e565b60408051808201909152600c81526b5a65726f206164647265737360a01b60208201526000906001600160a01b0385166124965760405162461bcd60e51b8152600401610a5b9190612d3b565b506001600160a01b03808516600090815260186020908152604080832093871683529290522054610b899085908590610b779086906132bf565b60408051808201909152600c81526b5a65726f206164647265737360a01b60208201526001600160a01b03831661251a5760405162461bcd60e51b8152600401610a5b9190612d3b565b50806019600082825461252d91906132bf565b9091555061253f90508282600161297c565b6040518181526001600160a01b038316906000907fddf252ad1be2c89b69c2b068fc378daa952ba7f163c4a11628f55a4df523b3ef9060200160405180910390a35050565b600061258f82612aeb565b156125c657600061259f83612b37565b6001600160a01b0384166000908152601a6020526040902054909150610ba0908290613161565b506001600160a01b0381166000908152601a60205260409020545b919050565b600b80546001600160a01b0383811663010000008181026301000000600160b81b031985161790945560405193909204169182907f8be0079c531659141344cd1fd0a4f28419497f9722a3daafe3b4186f6b6457e090600090a35050565b60408051808201909152600c81526b5a65726f206164647265737360a01b60208201526001600160a01b03831661268e5760405162461bcd60e51b8152600401610a5b9190612d3b565b50600061269a83612584565b9050818110156040518060400160405280600f81526020016e457863656564732062616c616e636560881b815250906126e65760405162461bcd60e51b8152600401610a5b9190612d3b565b506126f38383600061297c565b81601960008282546127059190613161565b909155506127109050565b6040518281526000906001600160a01b038516907fddf252ad1be2c89b69c2b068fc378daa952ba7f163c4a11628f55a4df523b3ef90602001612419565b60408051808201909152600c81526b5a65726f206164647265737360a01b60208201526001600160a01b0384166127985760405162461bcd60e51b8152600401610a5b9190612d3b565b5060408051808201909152600c81526b5a65726f206164647265737360a01b60208201526001600160a01b0383166127e35760405162461bcd60e51b8152600401610a5b9190612d3b565b5060006127ef84612584565b9050818110156040518060400160405280600f81526020016e457863656564732062616c616e636560881b8152509061283b5760405162461bcd60e51b8152600401610a5b9190612d3b565b506128488483600061297c565b6128548383600161297c565b826001600160a01b0316846001600160a01b03167fddf252ad1be2c89b69c2b068fc378daa952ba7f163c4a11628f55a4df523b3ef8460405161289991815260200190565b60405180910390a350505050565b60408051808201909152600c81526b5a65726f206164647265737360a01b60208201526001600160a01b0383166128f15760405162461bcd60e51b8152600401610a5b9190612d3b565b5060006128fd83612584565b9050818110156040518060400160405280600f81526020016e457863656564732062616c616e636560881b815250906129495760405162461bcd60e51b8152600401610a5b9190612d3b565b506129568383600061297c565b612710565b80516a636f6e736f6c652e6c6f67602083016000808483855afa5050505050565b61298583612aeb565b15612a7b5761299383612c0e565b806129c1576001600160a01b0383166000908152601a60205260409020546129bc908390613161565b6129e5565b6001600160a01b0383166000908152601a60205260409020546129e59083906132bf565b6001600160a01b0384166000908152601a602052604090205580612a1657603354612a11908390613161565b612a24565b603354612a249083906132bf565b6033556032546001600160a01b0384166000908152601a602052604090205464e8d4a5100091612a53916132a0565b612a5d919061313f565b6001600160a01b038416600090815260366020526040902055505050565b80612aa9576001600160a01b0383166000908152601a6020526040902054612aa4908390613161565b612acd565b6001600160a01b0383166000908152601a6020526040902054612acd9083906132bf565b6001600160a01b0384166000908152601a6020526040902055505050565b601b546000906001600160a01b03838116911614801590612b1a5750601c546001600160a01b03838116911614155b8015610acd575050601d546001600160a01b039081169116141590565b6001600160a01b038116600090815260366020908152604080832054603254601a90935290832054909164e8d4a5100091612b7291906132a0565b612b7c919061313f565b612b869190613161565b6001600160a01b0383166000908152601a60205260409020549091508111156125e1576125e16040518060400160405280601d81526020017f70656e64696e674275726e2065786365656473205f62616c616e63657300000081525082601a6000866001600160a01b03166001600160a01b03168152602001908152602001600020546120f7565b6000612c1982612b37565b90508015610c52576001600160a01b0382166000908152601a602052604081208054839290612c49908490613161565b925050819055508060196000828254612c629190613161565b909155505060338054829190600090612c7c908490613161565b909155505060348054829190600090612c96908490613161565b90915550506032546001600160a01b0383166000908152601a602052604090205464e8d4a5100091612cc7916132a0565b612cd1919061313f565b6001600160a01b0383166000908152603660205260409020555050565b6000815180845260005b81811015612d1457602081850181015186830182015201612cf8565b81811115612d26576000602083870101525b50601f01601f19169290920160200192915050565b602081526000610ba06020830184612cee565b80356001600160a01b03811681146125e157600080fd5b60008060408385031215612d7857600080fd5b612d8183612d4e565b946020939093013593505050565b60058110610ab957600080fd5b600060208284031215612dae57600080fd5b8135610ba081612d8f565b600080600060608486031215612dce57600080fd5b612dd784612d4e565b9250612de560208501612d4e565b9150604084013590509250925092565b803580151581146125e157600080fd5b60008060408385031215612e1857600080fd5b8235612e2381612d8f565b9150612e3160208401612df5565b90509250929050565b634e487b7160e01b600052602160045260246000fd5b60058110610ab957610ab9612e3a565b81516080820190612e7081612e50565b80835250602083015160208301526040830151604083015260608301511515606083015292915050565b600060208284031215612eac57600080fd5b610ba082612d4e565b60008060408385031215612ec857600080fd5b612ed183612d4e565b9150612e3160208401612d4e565b60008060008385036060811215612ef557600080fd5b8435612f0081612d8f565b93506020601f1982011215612f1457600080fd5b506040516020810181811067ffffffffffffffff82111715612f4657634e487b7160e01b600052604160045260246000fd5b604052602085013563ffffffff81168114612f6057600080fd5b81529150612f7060408501612d4e565b90509250925092565b600080600060608486031215612f8e57600080fd5b8335612f9981612d8f565b9250612fa760208501612d4e565b9150612f7060408501612d4e565b6000806000808486036080811215612fcc57600080fd5b612fd586612d4e565b94506020868101359450603f1982011215612fef57600080fd5b5060408501915061300260608601612df5565b905092959194509250565b600080600080600060a0868803121561302557600080fd5b61302e86612d4e565b945061303c60208701612d4e565b935061304a60408701612d4e565b925060608601356004811061305e57600080fd5b915061306c60808701612d4e565b90509295509295909350565b600080828403604081121561308c57600080fd5b602081121561309a57600080fd5b506040516020810181811067ffffffffffffffff821117156130cc57634e487b7160e01b600052604160045260246000fd5b6040526130d884612d4e565b81529150612e3160208401612d4e565b600481106130f8576130f8612e3a565b9052565b6001600160a01b038481168252831660208201526060810161312160408301846130e8565b949350505050565b634e487b7160e01b600052601160045260246000fd5b60008261315c57634e487b7160e01b600052601260045260246000fd5b500490565b60008282101561317357613173613129565b500390565b6020808252818101527f4f776e61626c653a2063616c6c6572206973206e6f7420746865206f776e6572604082015260600190565b600181815b808511156131e85781600019048211156131ce576131ce613129565b808516156131db57918102915b93841c93908002906131b2565b509250929050565b6000826131ff57506001610acd565b8161320c57506000610acd565b8160018114613222576002811461322c57613248565b6001915050610acd565b60ff84111561323d5761323d613129565b50506001821b610acd565b5060208310610133831016604e8410600b841016171561326b575081810a610acd565b61327583836131ad565b806000190482111561328957613289613129565b029392505050565b6000610ba060ff8416836131f0565b60008160001904831182151516156132ba576132ba613129565b500290565b600082198211156132d2576132d2613129565b500190565b6020808252601590820152742737ba10309039b2b9b9b4b7b71036b0b730b3b2b960591b604082015260600190565b634e487b7160e01b600052603260045260246000fd5b60008161332b5761332b613129565b506000190190565b60006001820161334557613345613129565b5060010190565b60208082526010908201526f496e76616c69642063616c6c6572203160801b604082015260600190565b6060810161338385612e50565b93815260208101929092525163ffffffff1660409091015290565b606081016133ab85612e50565b938152915163ffffffff1660208301526001600160a01b031660409091015290565b604081016133da84612e50565b928152905163ffffffff1660209091015290565b606081016133fb85612e50565b9381526001600160a01b0392909216602083015260409091015290565b6060810161342585612e50565b9381526001600160a01b039283166020820152911660409091015290565b6040810161345084612e50565b9281526001600160a01b039190911660209091015290565b6001600160a01b0386811682528581166020830152848116604083015260a082019061349760608401866130e8565b8084166080840152509695505050505050565b6001600160a01b038581168252848116602083015283166040820152608081016134d760608301846130e8565b95945050505050565b6060815260006134f36060830186612cee565b60208301949094525060400152919050565b6000610ba083836131f0565b6000806040838503121561352457600080fd5b50508051602090910151909290915056fea26469706673582212204a5ab6692419bfdeb25c087c0942ad795f5d625e4b8bde6ff1e2531a5265b4a164736f6c634300080e0033",
  "linkReferences": {
    "contracts/libraries/WireLibrary.sol": {
      "WireLibrary": [
        {
          "length": 20,
          "start": 8567
        },
        {
          "length": 20,
          "start": 8991
        },
        {
          "length": 20,
          "start": 10540
        }
      ]
    }
  },
  "deployedLinkReferences": {
    "contracts/libraries/WireLibrary.sol": {
      "WireLibrary": [
        {
          "length": 20,
          "start": 5695
        },
        {
          "length": 20,
          "start": 6119
        },
        {
          "length": 20,
          "start": 7668
        }
      ]
    }
  }
}