{
  "_format": "hh-sol-artifact-1",
  "contractName": "TGRToken",
  "sourceName": "contracts/farm/TGRToken.sol",
  "abi": [
    {
      "inputs": [
        {
          "internalType": "address",
          "name": "_analyticMath",
          "type": "address"
        }
      ],
      "stateMutability": "nonpayable",
      "type": "constructor"
    },
    {
      "anonymous": false,
      "inputs": [
        {
          "indexed": true,
          "internalType": "address",
          "name": "owner",
          "type": "address"
        },
        {
          "indexed": true,
          "internalType": "address",
          "name": "spender",
          "type": "address"
        },
        {
          "indexed": false,
          "internalType": "uint256",
          "name": "value",
          "type": "uint256"
        }
      ],
      "name": "Approval",
      "type": "event"
    },
    {
      "anonymous": false,
      "inputs": [
        {
          "indexed": true,
          "internalType": "address",
          "name": "previousOwner",
          "type": "address"
        },
        {
          "indexed": true,
          "internalType": "address",
          "name": "newOwner",
          "type": "address"
        }
      ],
      "name": "OwnershipTransferred",
      "type": "event"
    },
    {
      "anonymous": false,
      "inputs": [
        {
          "indexed": true,
          "internalType": "address",
          "name": "from",
          "type": "address"
        },
        {
          "indexed": true,
          "internalType": "address",
          "name": "to",
          "type": "address"
        },
        {
          "indexed": false,
          "internalType": "uint256",
          "name": "value",
          "type": "uint256"
        }
      ],
      "name": "Transfer",
      "type": "event"
    },
    {
      "inputs": [
        {
          "internalType": "address",
          "name": "_owner",
          "type": "address"
        },
        {
          "internalType": "address",
          "name": "_spender",
          "type": "address"
        },
        {
          "internalType": "uint256",
          "name": "subtractedValue",
          "type": "uint256"
        }
      ],
      "name": "_decreaseAllowance",
      "outputs": [
        {
          "internalType": "bool",
          "name": "",
          "type": "bool"
        }
      ],
      "stateMutability": "nonpayable",
      "type": "function"
    },
    {
      "inputs": [
        {
          "internalType": "address",
          "name": "_owner",
          "type": "address"
        },
        {
          "internalType": "address",
          "name": "_spender",
          "type": "address"
        }
      ],
      "name": "allowance",
      "outputs": [
        {
          "internalType": "uint256",
          "name": "",
          "type": "uint256"
        }
      ],
      "stateMutability": "view",
      "type": "function"
    },
    {
      "inputs": [
        {
          "internalType": "address",
          "name": "spender",
          "type": "address"
        },
        {
          "internalType": "uint256",
          "name": "amount",
          "type": "uint256"
        }
      ],
      "name": "approve",
      "outputs": [
        {
          "internalType": "bool",
          "name": "",
          "type": "bool"
        }
      ],
      "stateMutability": "nonpayable",
      "type": "function"
    },
    {
      "inputs": [
        {
          "internalType": "address",
          "name": "account",
          "type": "address"
        }
      ],
      "name": "balanceOf",
      "outputs": [
        {
          "internalType": "uint256",
          "name": "",
          "type": "uint256"
        }
      ],
      "stateMutability": "view",
      "type": "function"
    },
    {
      "inputs": [
        {
          "internalType": "address",
          "name": "from",
          "type": "address"
        },
        {
          "internalType": "uint256",
          "name": "amount",
          "type": "uint256"
        }
      ],
      "name": "burn",
      "outputs": [],
      "stateMutability": "nonpayable",
      "type": "function"
    },
    {
      "inputs": [
        {
          "internalType": "address",
          "name": "from",
          "type": "address"
        },
        {
          "internalType": "uint256",
          "name": "amount",
          "type": "uint256"
        }
      ],
      "name": "bury",
      "outputs": [],
      "stateMutability": "nonpayable",
      "type": "function"
    },
    {
      "inputs": [],
      "name": "checkForConsistency",
      "outputs": [],
      "stateMutability": "view",
      "type": "function"
    },
    {
      "inputs": [],
      "name": "decimals",
      "outputs": [
        {
          "internalType": "uint8",
          "name": "",
          "type": "uint8"
        }
      ],
      "stateMutability": "view",
      "type": "function"
    },
    {
      "inputs": [
        {
          "internalType": "address",
          "name": "spender",
          "type": "address"
        },
        {
          "internalType": "uint256",
          "name": "subtractedValue",
          "type": "uint256"
        }
      ],
      "name": "decreaseAllowance",
      "outputs": [
        {
          "internalType": "bool",
          "name": "",
          "type": "bool"
        }
      ],
      "stateMutability": "nonpayable",
      "type": "function"
    },
    {
      "inputs": [
        {
          "internalType": "address",
          "name": "spender",
          "type": "address"
        },
        {
          "internalType": "uint256",
          "name": "addedValue",
          "type": "uint256"
        }
      ],
      "name": "increaseAllowance",
      "outputs": [
        {
          "internalType": "bool",
          "name": "",
          "type": "bool"
        }
      ],
      "stateMutability": "nonpayable",
      "type": "function"
    },
    {
      "inputs": [],
      "name": "lp_reward",
      "outputs": [
        {
          "internalType": "uint256",
          "name": "latestTime",
          "type": "uint256"
        },
        {
          "internalType": "uint256",
          "name": "cycle",
          "type": "uint256"
        },
        {
          "internalType": "uint256",
          "name": "decayRate",
          "type": "uint256"
        },
        {
          "internalType": "address",
          "name": "account",
          "type": "address"
        },
        {
          "internalType": "uint256",
          "name": "accDecayPerShare",
          "type": "uint256"
        },
        {
          "internalType": "uint256",
          "name": "sum_balances",
          "type": "uint256"
        },
        {
          "internalType": "uint256",
          "name": "pending_burn",
          "type": "uint256"
        },
        {
          "internalType": "uint256",
          "name": "latestRound",
          "type": "uint256"
        }
      ],
      "stateMutability": "view",
      "type": "function"
    },
    {
      "inputs": [],
      "name": "maxSupply",
      "outputs": [
        {
          "internalType": "uint256",
          "name": "",
          "type": "uint256"
        }
      ],
      "stateMutability": "view",
      "type": "function"
    },
    {
      "inputs": [
        {
          "internalType": "address",
          "name": "to",
          "type": "address"
        },
        {
          "internalType": "uint256",
          "name": "amount",
          "type": "uint256"
        }
      ],
      "name": "mint",
      "outputs": [],
      "stateMutability": "nonpayable",
      "type": "function"
    },
    {
      "inputs": [],
      "name": "name",
      "outputs": [
        {
          "internalType": "string",
          "name": "",
          "type": "string"
        }
      ],
      "stateMutability": "view",
      "type": "function"
    },
    {
      "inputs": [],
      "name": "owner",
      "outputs": [
        {
          "internalType": "address",
          "name": "",
          "type": "address"
        }
      ],
      "stateMutability": "view",
      "type": "function"
    },
    {
      "inputs": [],
      "name": "pulse_lp_reward",
      "outputs": [],
      "stateMutability": "nonpayable",
      "type": "function"
    },
    {
      "inputs": [],
      "name": "pulse_user_burn",
      "outputs": [],
      "stateMutability": "nonpayable",
      "type": "function"
    },
    {
      "inputs": [],
      "name": "pulse_vote_burn",
      "outputs": [],
      "stateMutability": "nonpayable",
      "type": "function"
    },
    {
      "inputs": [],
      "name": "renounceOwnership",
      "outputs": [],
      "stateMutability": "nonpayable",
      "type": "function"
    },
    {
      "inputs": [],
      "name": "symbol",
      "outputs": [
        {
          "internalType": "string",
          "name": "",
          "type": "string"
        }
      ],
      "stateMutability": "view",
      "type": "function"
    },
    {
      "inputs": [],
      "name": "totalSupply",
      "outputs": [
        {
          "internalType": "uint256",
          "name": "",
          "type": "uint256"
        }
      ],
      "stateMutability": "view",
      "type": "function"
    },
    {
      "inputs": [
        {
          "internalType": "address",
          "name": "recipient",
          "type": "address"
        },
        {
          "internalType": "uint256",
          "name": "amount",
          "type": "uint256"
        }
      ],
      "name": "transfer",
      "outputs": [
        {
          "internalType": "bool",
          "name": "",
          "type": "bool"
        }
      ],
      "stateMutability": "nonpayable",
      "type": "function"
    },
    {
      "inputs": [
        {
          "internalType": "address",
          "name": "sender",
          "type": "address"
        },
        {
          "internalType": "address",
          "name": "recipient",
          "type": "address"
        },
        {
          "internalType": "uint256",
          "name": "amount",
          "type": "uint256"
        }
      ],
      "name": "transferFrom",
      "outputs": [
        {
          "internalType": "bool",
          "name": "",
          "type": "bool"
        }
      ],
      "stateMutability": "nonpayable",
      "type": "function"
    },
    {
      "inputs": [
        {
          "internalType": "address",
          "name": "newOwner",
          "type": "address"
        }
      ],
      "name": "transferOwnership",
      "outputs": [],
      "stateMutability": "nonpayable",
      "type": "function"
    },
    {
      "inputs": [],
      "name": "user_burn",
      "outputs": [
        {
          "internalType": "uint256",
          "name": "latestTime",
          "type": "uint256"
        },
        {
          "internalType": "uint256",
          "name": "cycle",
          "type": "uint256"
        },
        {
          "internalType": "uint256",
          "name": "decayRate",
          "type": "uint256"
        },
        {
          "internalType": "address",
          "name": "account",
          "type": "address"
        },
        {
          "internalType": "uint256",
          "name": "accDecayPerShare",
          "type": "uint256"
        },
        {
          "internalType": "uint256",
          "name": "sum_balances",
          "type": "uint256"
        },
        {
          "internalType": "uint256",
          "name": "pending_burn",
          "type": "uint256"
        },
        {
          "internalType": "uint256",
          "name": "latestRound",
          "type": "uint256"
        }
      ],
      "stateMutability": "view",
      "type": "function"
    },
    {
      "inputs": [],
      "name": "vote_burn",
      "outputs": [
        {
          "internalType": "uint256",
          "name": "latestTime",
          "type": "uint256"
        },
        {
          "internalType": "uint256",
          "name": "cycle",
          "type": "uint256"
        },
        {
          "internalType": "uint256",
          "name": "decayRate",
          "type": "uint256"
        },
        {
          "internalType": "address",
          "name": "account",
          "type": "address"
        },
        {
          "internalType": "uint256",
          "name": "accDecayPerShare",
          "type": "uint256"
        },
        {
          "internalType": "uint256",
          "name": "sum_balances",
          "type": "uint256"
        },
        {
          "internalType": "uint256",
          "name": "pending_burn",
          "type": "uint256"
        },
        {
          "internalType": "uint256",
          "name": "latestRound",
          "type": "uint256"
        }
      ],
      "stateMutability": "view",
      "type": "function"
    },
    {
      "stateMutability": "payable",
      "type": "receive"
    }
  ],
  "bytecode": "0x60806040523480156200001157600080fd5b506040516200257538038062002575833981016040819052620000349162000795565b6200003f336200036e565b602480546001600160a01b0319166001600160a01b038316179055620000623390565b602080546001600160a01b03929092166001600160a01b03199283161781556021805483167370997970c51812dc3a010c7d01b50e0d17dc79c8179055602280548316733c44cdddb6a900fa2b585dd299e03d12fa4293bc1790556023805483167390f79bf6eb2c4f870365e785982e1f101e93b9061790556004805483167397713c3c752f3bb80cbfaacc6830a36a72eb6e97908117909155600580548416733924a2cf72d190023667609dd91e70ed11127d78179055600680549093167302eed5ac83f1c3d1624c0437c9e682e83e95bcff179092556040805161010081018252600080825260029382018490526102b29282019290925260608101939093526080830181905260a0830181905260c083015260e0820190620001889042620007dd565b90528051600755602080820151600855604080830151600955606080840151600a80546001600160a01b0319166001600160a01b03928316179055608080860151600b5560a080870151600c5560c080880151600d5560e097880151600e55855161010081018752600080825260029882018990526046978201979097526006549094169484019490945290820184905281018390529081019190915291820190620002359042620007dd565b90528051600f55602080820151601055604080830151601155606080840151601280546001600160a01b0319166001600160a01b0390921691909117905560808085015160135560a08086015160145560c08087015160155560e0968701516016558451610100810186526000808252600497820188905261030996820196909652938401859052918301849052820183905281019190915291820190620002de9042620007dd565b90528051601755602081015160185560408101516019556060810151601a80546001600160a01b0319166001600160a01b039092169190911790556080810151601b5560a0810151601c5560c0810151601d5560e00151601e5562000367620003443390565b620003526012600a620008fd565b6200036190620f42406200090e565b620003be565b50620009bd565b600080546001600160a01b038381166001600160a01b0319831681178455604051919092169283917f8be0079c531659141344cd1fd0a4f28419497f9722a3daafe3b4186f6b6457e09190a35050565b60408051808201909152600c81526b5a65726f206164647265737360a01b60208201526001600160a01b038316620004145760405162461bcd60e51b81526004016200040b919062000930565b60405180910390fd5b50806002600082825462000429919062000988565b909155506200043d90508282600162000482565b6040518181526001600160a01b038316906000907fddf252ad1be2c89b69c2b068fc378daa952ba7f163c4a11628f55a4df523b3ef9060200160405180910390a35050565b6200048d836200060c565b1562000596576200049e836200065d565b80620004d0576001600160a01b038316600090815260036020526040902054620004ca908390620009a3565b620004f6565b6001600160a01b038316600090815260036020526040902054620004f690839062000988565b6001600160a01b038416600090815260036020526040902055806200052b57601c5462000525908390620009a3565b6200053b565b601c546200053b90839062000988565b601c55601b546001600160a01b03841660009081526003602052604090205464e8d4a51000916200056c916200090e565b620005789190620007dd565b6001600160a01b0384166000908152601f6020526040902055505050565b80620005c8576001600160a01b038316600090815260036020526040902054620005c2908390620009a3565b620005ee565b6001600160a01b038316600090815260036020526040902054620005ee90839062000988565b6001600160a01b038416600090815260036020526040902055505050565b6004546000906001600160a01b038381169116148015906200063c57506005546001600160a01b03838116911614155b80156200065757506006546001600160a01b03838116911614155b92915050565b6001600160a01b0381166000908152601f6020908152604080832054601b54600390935290832054909164e8d4a51000916200069a91906200090e565b620006a69190620007dd565b620006b29190620009a3565b9050801562000791576001600160a01b03821660009081526003602052604081208054839290620006e5908490620009a3565b925050819055508060026000828254620007009190620009a3565b9091555050601c80548291906000906200071c908490620009a3565b9091555050601d805482919060009062000738908490620009a3565b9091555050601b546001600160a01b03831660009081526003602052604090205464e8d4a51000916200076b916200090e565b620007779190620007dd565b6001600160a01b0383166000908152601f60205260409020555b5050565b600060208284031215620007a857600080fd5b81516001600160a01b0381168114620007c057600080fd5b9392505050565b634e487b7160e01b600052601160045260246000fd5b600082620007fb57634e487b7160e01b600052601260045260246000fd5b500490565b600181815b8085111562000841578160001904821115620008255762000825620007c7565b808516156200083357918102915b93841c939080029062000805565b509250929050565b6000826200085a5750600162000657565b81620008695750600062000657565b81600181146200088257600281146200088d57620008ad565b600191505062000657565b60ff841115620008a157620008a1620007c7565b50506001821b62000657565b5060208310610133831016604e8410600b8410161715620008d2575081810a62000657565b620008de838362000800565b8060001904821115620008f557620008f5620007c7565b029392505050565b6000620007c060ff84168362000849565b60008160001904831182151516156200092b576200092b620007c7565b500290565b600060208083528351808285015260005b818110156200095f5785810183015185820160400152820162000941565b8181111562000972576000604083870101525b50601f01601f1916929092016040019392505050565b600082198211156200099e576200099e620007c7565b500190565b600082821015620009b857620009b8620007c7565b500390565b611ba880620009cd6000396000f3fe6080604052600436106101855760003560e01c80638da5cb5b116100d1578063a9059cbb1161008a578063e729a45511610064578063e729a4551461052b578063ed2deb8b14610540578063f2fde38b14610555578063fc58ee8b1461057557600080fd5b8063a9059cbb146104b0578063d5abeb01146104d0578063dd62ed3e146104e557600080fd5b80638da5cb5b146103c057806395d89b41146103e85780639dc29fac14610414578063a13c1f6714610434578063a150da2a14610470578063a457c2d71461049057600080fd5b80633660777d1161013e5780636c93564f116101185780636c93564f1461033a57806370a0823114610376578063715018a61461039657806373957289146103ab57600080fd5b80633660777d1461027b57806339509351146102fa57806340c10f191461031a57600080fd5b806306fdde0314610191578063086a606c146101d5578063095ea7b3146101ec57806318160ddd1461021c57806323b872dd1461023f578063313ce5671461025f57600080fd5b3661018c57005b600080fd5b34801561019d57600080fd5b506040805180820190915260098152682a23a9102a37b5b2b760b91b60208201525b6040516101cc919061185b565b60405180910390f35b3480156101e157600080fd5b506101ea610595565b005b3480156101f857600080fd5b5061020c6102073660046118c7565b6105e1565b60405190151581526020016101cc565b34801561022857600080fd5b506102316105f8565b6040519081526020016101cc565b34801561024b57600080fd5b5061020c61025a3660046118f1565b610607565b34801561026b57600080fd5b50604051601281526020016101cc565b34801561028757600080fd5b50600f546010546011546012546013546014546015546016546102b7979695946001600160a01b03169392919088565b604080519889526020890197909752958701949094526001600160a01b039092166060860152608085015260a084015260c083015260e0820152610100016101cc565b34801561030657600080fd5b5061020c6103153660046118c7565b6106bd565b34801561032657600080fd5b506101ea6103353660046118c7565b6106d1565b34801561034657600080fd5b50601754601854601954601a54601b54601c54601d54601e546102b7979695946001600160a01b03169392919088565b34801561038257600080fd5b5061023161039136600461192d565b610778565b3480156103a257600080fd5b506101ea610783565b3480156103b757600080fd5b506101ea6107b9565b3480156103cc57600080fd5b506000546040516001600160a01b0390911681526020016101cc565b3480156103f457600080fd5b506040805180820190915260038152622a23a960e91b60208201526101bf565b34801561042057600080fd5b506101ea61042f3660046118c7565b6108c6565b34801561044057600080fd5b50600754600854600954600a54600b54600c54600d54600e546102b7979695946001600160a01b03169392919088565b34801561047c57600080fd5b5061020c61048b3660046118f1565b6108fa565b34801561049c57600080fd5b5061020c6104ab3660046118c7565b610981565b3480156104bc57600080fd5b5061020c6104cb3660046118c7565b61098e565b3480156104dc57600080fd5b5061023161099b565b3480156104f157600080fd5b50610231610500366004611948565b6001600160a01b03918216600090815260016020908152604080832093909416825291909152205490565b34801561053757600080fd5b506101ea6109b8565b34801561054c57600080fd5b506101ea610a0e565b34801561056157600080fd5b506101ea61057036600461192d565b610aaa565b34801561058157600080fd5b506101ea6105903660046118c7565b610b42565b6008546000906105a59042611991565b600e549091508111156105de57600e546000906105c39083906119b3565b600e839055905060006105d66007610b76565b505042600755505b50565b60006105ee338484610d59565b5060015b92915050565b6000610602610e51565b905090565b60006001600160a01b03841633146106a8576001600160a01b0384166000908152600160209081526040808320338452909152902054828110156106925760405162461bcd60e51b815260206004820152601a60248201527f5472616e73666572206578636565647320616c6c6f77616e636500000000000060448201526064015b60405180910390fd5b6106a685336106a186856119b3565b610d59565b505b6106b3848484610e63565b5060019392505050565b60006106ca338484610e74565b9392505050565b6000546001600160a01b031633146106fb5760405162461bcd60e51b8152600401610689906119ca565b6107076012600a611ae3565b610715906302faf080611af2565b8161071e610e51565b6107289190611b11565b111561076a5760405162461bcd60e51b8152602060048201526011602482015270457863656564204d617820537570706c7960781b6044820152606401610689565b6107748282610efb565b5050565b60006105f282610faf565b6000546001600160a01b031633146107ad5760405162461bcd60e51b8152600401610689906119ca565b6107b76000611055565b565b6107c16110a5565b601d54601c546000916107d3916119b3565b6023549091506000906107ee906001600160a01b0316610778565b602254610803906001600160a01b0316610778565b602154610818906001600160a01b0316610778565b60205461082d906001600160a01b0316610778565b6108379190611b11565b6108419190611b11565b61084b9190611b11565b90506000818310156108685761086183836119b3565b9050610875565b61087282846119b3565b90505b82610881826064611af2565b106108c15760405162461bcd60e51b815260206004820152601060248201526f6572726f72206578636565647320312560801b6044820152606401610689565b505050565b6000546001600160a01b031633146108f05760405162461bcd60e51b8152600401610689906119ca565b6107748282611265565b60408051808201909152600c81526b5a65726f206164647265737360a01b60208201526000906001600160a01b0385166109475760405162461bcd60e51b8152600401610689919061185b565b506001600160a01b038085166000908152600160209081526040808320938716835292905220546106b390859085906106a19086906119b3565b60006106ca3384846108fa565b60006105ee338484610e63565b6109a76012600a611ae3565b6109b5906302faf080611af2565b81565b60006109c4600f610b76565b6012546001600160a01b0316600081815260036020526040902054919250610a079164e8d4a51000906109f8908590611af2565b610a029190611991565b611265565b5042600f55565b6000610a1a6017610b76565b905080156105de57601d54601c54600091610a34916119b3565b9050600064e8d4a51000610a488484611af2565b610a529190611991565b90508060176006016000828254610a699190611b11565b9091555050601c54610a808264e8d4a51000611af2565b610a8a9190611991565b601b8054600090610a9c908490611b11565b909155505042601755505050565b6000546001600160a01b03163314610ad45760405162461bcd60e51b8152600401610689906119ca565b6001600160a01b038116610b395760405162461bcd60e51b815260206004820152602660248201527f4f776e61626c653a206e6577206f776e657220697320746865207a65726f206160448201526564647265737360d01b6064820152608401610689565b6105de81611055565b6000546001600160a01b03163314610b6c5760405162461bcd60e51b8152600401610689906119ca565b610774828261136f565b600080826001015442610b899190611991565b90508260070154811115610d53576000836007015482610ba991906119b3565b6007850183905542855564e8d4a510009350905060058111610c6b576002840154600090610bd96005600a611b29565b610be391906119b3565b9050806000610bf46005600a611b29565b905060015b84811015610c3757610c0b8484611af2565b9250610c196005600a611b29565b610c239083611af2565b915080610c2f81611b35565b915050610bf9565b5080610c488364e8d4a51000611af2565b610c529190611991565b610c619064e8d4a510006119b3565b9550505050610d51565b602454600285015460009182916001600160a01b0390911690635aff34dc90610c966005600a611b29565b610ca091906119b3565b610cac6005600a611b29565b6040516001600160e01b031960e085901b1681526004810192909252602482015260448101869052600160648201526084016040805180830381865afa158015610cfa573d6000803e3d6000fd5b505050506040513d601f19601f82011682018060405250810190610d1e9190611b4e565b909250905080610d338364e8d4a51000611af2565b610d3d9190611991565b610d4c9064e8d4a510006119b3565b945050505b505b50919050565b60408051808201909152600c81526b5a65726f206164647265737360a01b60208201526001600160a01b038416610da35760405162461bcd60e51b8152600401610689919061185b565b5060408051808201909152600c81526b5a65726f206164647265737360a01b60208201526001600160a01b038316610dee5760405162461bcd60e51b8152600401610689919061185b565b506001600160a01b0383811660008181526001602090815260408083209487168084529482529182902085905590518481527f8c5be1e5ebec7d5bd14f71427d1e84f3dd0314c0f7b2291e5b200ac8c7c3b92591015b60405180910390a3505050565b601d54600254600091610602916119b3565b80156108c1576108c1838383611423565b60408051808201909152600c81526b5a65726f206164647265737360a01b60208201526000906001600160a01b038516610ec15760405162461bcd60e51b8152600401610689919061185b565b506001600160a01b038085166000908152600160209081526040808320938716835292905220546106b390859085906106a1908690611b11565b60408051808201909152600c81526b5a65726f206164647265737360a01b60208201526001600160a01b038316610f455760405162461bcd60e51b8152600401610689919061185b565b508060026000828254610f589190611b11565b90915550610f6a90508282600161157c565b6040518181526001600160a01b038316906000907fddf252ad1be2c89b69c2b068fc378daa952ba7f163c4a11628f55a4df523b3ef9060200160405180910390a35050565b6000610fba826116eb565b15611035576001600160a01b0382166000908152601f6020908152604080832054601b54600390935290832054909164e8d4a5100091610ffa9190611af2565b6110049190611991565b61100e91906119b3565b6001600160a01b0384166000908152600360205260409020549091506106ca9082906119b3565b506001600160a01b0381166000908152600360205260409020545b919050565b600080546001600160a01b038381166001600160a01b0319831681178455604051919092169283917f8be0079c531659141344cd1fd0a4f28419497f9722a3daafe3b4186f6b6457e09190a35050565b6002546006546001600160a01b039081166000908152600360205260408082205460055484168352818320546004549094168352912054601c549192916110ec9190611b11565b6110f69190611b11565b6111009190611b11565b146111825760405162461bcd60e51b815260206004820152604660248201527f73756d5f62616c616e636573202b205f62616c5b74677266746d5d202b205f6260448201527f616c5b74677268747a202b205f62616c5b766f74657320213d205f746f74616c606482015265537570706c7960d01b608482015260a401610689565b601c546023546001600160a01b0390811660009081526003602090815260408083205460225485168452818420546021548616855282852054935490951684529220549192916111d29190611b11565b6111dc9190611b11565b6111e69190611b11565b146107b75760405162461bcd60e51b815260206004820152604360248201527f5f62616c5b61646d696e5d202b205f62616c5b616c6963655d202b205f62616c60448201527f5b626f625d202b205f62616c5b6361726f6c5d20213d2073756d5f62616c616e60648201526263657360e81b608482015260a401610689565b60408051808201909152600c81526b5a65726f206164647265737360a01b60208201526001600160a01b0383166112af5760405162461bcd60e51b8152600401610689919061185b565b5060006112bb83610faf565b9050818110156040518060400160405280600f81526020016e457863656564732062616c616e636560881b815250906113075760405162461bcd60e51b8152600401610689919061185b565b506113148383600061157c565b816002600082825461132691906119b3565b909155506113319050565b6040518281526000906001600160a01b038516907fddf252ad1be2c89b69c2b068fc378daa952ba7f163c4a11628f55a4df523b3ef90602001610e44565b60408051808201909152600c81526b5a65726f206164647265737360a01b60208201526001600160a01b0383166113b95760405162461bcd60e51b8152600401610689919061185b565b5060006113c583610faf565b9050818110156040518060400160405280600f81526020016e457863656564732062616c616e636560881b815250906114115760405162461bcd60e51b8152600401610689919061185b565b5061141e8383600061157c565b611331565b60408051808201909152600c81526b5a65726f206164647265737360a01b60208201526001600160a01b03841661146d5760405162461bcd60e51b8152600401610689919061185b565b5060408051808201909152600c81526b5a65726f206164647265737360a01b60208201526001600160a01b0383166114b85760405162461bcd60e51b8152600401610689919061185b565b5060006114c484610faf565b9050818110156040518060400160405280600f81526020016e457863656564732062616c616e636560881b815250906115105760405162461bcd60e51b8152600401610689919061185b565b5061151d8483600061157c565b6115298383600161157c565b826001600160a01b0316846001600160a01b03167fddf252ad1be2c89b69c2b068fc378daa952ba7f163c4a11628f55a4df523b3ef8460405161156e91815260200190565b60405180910390a350505050565b611585836116eb565b1561167b5761159383611737565b806115c1576001600160a01b0383166000908152600360205260409020546115bc9083906119b3565b6115e5565b6001600160a01b0383166000908152600360205260409020546115e5908390611b11565b6001600160a01b0384166000908152600360205260409020558061161657601c546116119083906119b3565b611624565b601c54611624908390611b11565b601c55601b546001600160a01b03841660009081526003602052604090205464e8d4a510009161165391611af2565b61165d9190611991565b6001600160a01b0384166000908152601f6020526040902055505050565b806116a9576001600160a01b0383166000908152600360205260409020546116a49083906119b3565b6116cd565b6001600160a01b0383166000908152600360205260409020546116cd908390611b11565b6001600160a01b038416600090815260036020526040902055505050565b6004546000906001600160a01b0383811691161480159061171a57506005546001600160a01b03838116911614155b80156105f25750506006546001600160a01b039081169116141590565b6001600160a01b0381166000908152601f6020908152604080832054601b54600390935290832054909164e8d4a51000916117729190611af2565b61177c9190611991565b61178691906119b3565b90508015610774576001600160a01b038216600090815260036020526040812080548392906117b69084906119b3565b9250508190555080600260008282546117cf91906119b3565b9091555050601c80548291906000906117e99084906119b3565b9091555050601d80548291906000906118039084906119b3565b9091555050601b546001600160a01b03831660009081526003602052604090205464e8d4a510009161183491611af2565b61183e9190611991565b6001600160a01b0383166000908152601f60205260409020555050565b600060208083528351808285015260005b818110156118885785810183015185820160400152820161186c565b8181111561189a576000604083870101525b50601f01601f1916929092016040019392505050565b80356001600160a01b038116811461105057600080fd5b600080604083850312156118da57600080fd5b6118e3836118b0565b946020939093013593505050565b60008060006060848603121561190657600080fd5b61190f846118b0565b925061191d602085016118b0565b9150604084013590509250925092565b60006020828403121561193f57600080fd5b6106ca826118b0565b6000806040838503121561195b57600080fd5b611964836118b0565b9150611972602084016118b0565b90509250929050565b634e487b7160e01b600052601160045260246000fd5b6000826119ae57634e487b7160e01b600052601260045260246000fd5b500490565b6000828210156119c5576119c561197b565b500390565b6020808252818101527f4f776e61626c653a2063616c6c6572206973206e6f7420746865206f776e6572604082015260600190565b600181815b80851115611a3a578160001904821115611a2057611a2061197b565b80851615611a2d57918102915b93841c9390800290611a04565b509250929050565b600082611a51575060016105f2565b81611a5e575060006105f2565b8160018114611a745760028114611a7e57611a9a565b60019150506105f2565b60ff841115611a8f57611a8f61197b565b50506001821b6105f2565b5060208310610133831016604e8410600b8410161715611abd575081810a6105f2565b611ac783836119ff565b8060001904821115611adb57611adb61197b565b029392505050565b60006106ca60ff841683611a42565b6000816000190483118215151615611b0c57611b0c61197b565b500290565b60008219821115611b2457611b2461197b565b500190565b60006106ca8383611a42565b600060018201611b4757611b4761197b565b5060010190565b60008060408385031215611b6157600080fd5b50508051602090910151909290915056fea2646970667358221220f75ac15f9715c06eb57b063866ebc2364b453b08315d14eb7075a5a7058c7aa964736f6c634300080e0033",
  "linkReferences": {},
  "deployedLinkReferences": {}
}