{
  "_format": "hh-sol-artifact-1",
  "contractName": "TGRToken",
  "sourceName": "contracts/farm/TGRToken.sol",
  "abi": [
    {
      "inputs": [
        {
          "internalType": "address",
          "name": "_analyticMath",
          "type": "address"
        }
      ],
      "stateMutability": "nonpayable",
      "type": "constructor"
    },
    {
      "anonymous": false,
      "inputs": [
        {
          "indexed": true,
          "internalType": "address",
          "name": "owner",
          "type": "address"
        },
        {
          "indexed": true,
          "internalType": "address",
          "name": "spender",
          "type": "address"
        },
        {
          "indexed": false,
          "internalType": "uint256",
          "name": "value",
          "type": "uint256"
        }
      ],
      "name": "Approval",
      "type": "event"
    },
    {
      "anonymous": false,
      "inputs": [
        {
          "indexed": true,
          "internalType": "address",
          "name": "previousOwner",
          "type": "address"
        },
        {
          "indexed": true,
          "internalType": "address",
          "name": "newOwner",
          "type": "address"
        }
      ],
      "name": "OwnershipTransferred",
      "type": "event"
    },
    {
      "anonymous": false,
      "inputs": [
        {
          "indexed": true,
          "internalType": "address",
          "name": "from",
          "type": "address"
        },
        {
          "indexed": true,
          "internalType": "address",
          "name": "to",
          "type": "address"
        },
        {
          "indexed": false,
          "internalType": "uint256",
          "name": "value",
          "type": "uint256"
        }
      ],
      "name": "Transfer",
      "type": "event"
    },
    {
      "inputs": [
        {
          "internalType": "address",
          "name": "_owner",
          "type": "address"
        },
        {
          "internalType": "address",
          "name": "_spender",
          "type": "address"
        },
        {
          "internalType": "uint256",
          "name": "subtractedValue",
          "type": "uint256"
        }
      ],
      "name": "_decreaseAllowance",
      "outputs": [
        {
          "internalType": "bool",
          "name": "",
          "type": "bool"
        }
      ],
      "stateMutability": "nonpayable",
      "type": "function"
    },
    {
      "inputs": [
        {
          "internalType": "address",
          "name": "_owner",
          "type": "address"
        },
        {
          "internalType": "address",
          "name": "_spender",
          "type": "address"
        }
      ],
      "name": "allowance",
      "outputs": [
        {
          "internalType": "uint256",
          "name": "",
          "type": "uint256"
        }
      ],
      "stateMutability": "view",
      "type": "function"
    },
    {
      "inputs": [
        {
          "internalType": "address",
          "name": "spender",
          "type": "address"
        },
        {
          "internalType": "uint256",
          "name": "amount",
          "type": "uint256"
        }
      ],
      "name": "approve",
      "outputs": [
        {
          "internalType": "bool",
          "name": "",
          "type": "bool"
        }
      ],
      "stateMutability": "nonpayable",
      "type": "function"
    },
    {
      "inputs": [
        {
          "internalType": "address",
          "name": "account",
          "type": "address"
        }
      ],
      "name": "balanceOf",
      "outputs": [
        {
          "internalType": "uint256",
          "name": "",
          "type": "uint256"
        }
      ],
      "stateMutability": "view",
      "type": "function"
    },
    {
      "inputs": [
        {
          "internalType": "address",
          "name": "from",
          "type": "address"
        },
        {
          "internalType": "uint256",
          "name": "amount",
          "type": "uint256"
        }
      ],
      "name": "burn",
      "outputs": [],
      "stateMutability": "nonpayable",
      "type": "function"
    },
    {
      "inputs": [
        {
          "internalType": "address",
          "name": "from",
          "type": "address"
        },
        {
          "internalType": "uint256",
          "name": "amount",
          "type": "uint256"
        }
      ],
      "name": "bury",
      "outputs": [],
      "stateMutability": "nonpayable",
      "type": "function"
    },
    {
      "inputs": [],
      "name": "checkForConsistency",
      "outputs": [],
      "stateMutability": "view",
      "type": "function"
    },
    {
      "inputs": [],
      "name": "decimals",
      "outputs": [
        {
          "internalType": "uint8",
          "name": "",
          "type": "uint8"
        }
      ],
      "stateMutability": "view",
      "type": "function"
    },
    {
      "inputs": [
        {
          "internalType": "address",
          "name": "spender",
          "type": "address"
        },
        {
          "internalType": "uint256",
          "name": "subtractedValue",
          "type": "uint256"
        }
      ],
      "name": "decreaseAllowance",
      "outputs": [
        {
          "internalType": "bool",
          "name": "",
          "type": "bool"
        }
      ],
      "stateMutability": "nonpayable",
      "type": "function"
    },
    {
      "inputs": [
        {
          "internalType": "address",
          "name": "spender",
          "type": "address"
        },
        {
          "internalType": "uint256",
          "name": "addedValue",
          "type": "uint256"
        }
      ],
      "name": "increaseAllowance",
      "outputs": [
        {
          "internalType": "bool",
          "name": "",
          "type": "bool"
        }
      ],
      "stateMutability": "nonpayable",
      "type": "function"
    },
    {
      "inputs": [],
      "name": "lp_reward",
      "outputs": [
        {
          "internalType": "uint256",
          "name": "latestTime",
          "type": "uint256"
        },
        {
          "internalType": "uint256",
          "name": "cycle",
          "type": "uint256"
        },
        {
          "internalType": "uint256",
          "name": "decayRate",
          "type": "uint256"
        },
        {
          "internalType": "address",
          "name": "account",
          "type": "address"
        },
        {
          "internalType": "uint256",
          "name": "accDecayPerShare",
          "type": "uint256"
        },
        {
          "internalType": "uint256",
          "name": "sum_balances",
          "type": "uint256"
        },
        {
          "internalType": "uint256",
          "name": "pending_burn",
          "type": "uint256"
        },
        {
          "internalType": "uint256",
          "name": "latestRound",
          "type": "uint256"
        }
      ],
      "stateMutability": "view",
      "type": "function"
    },
    {
      "inputs": [],
      "name": "maxSupply",
      "outputs": [
        {
          "internalType": "uint256",
          "name": "",
          "type": "uint256"
        }
      ],
      "stateMutability": "view",
      "type": "function"
    },
    {
      "inputs": [
        {
          "internalType": "address",
          "name": "to",
          "type": "address"
        },
        {
          "internalType": "uint256",
          "name": "amount",
          "type": "uint256"
        }
      ],
      "name": "mint",
      "outputs": [],
      "stateMutability": "nonpayable",
      "type": "function"
    },
    {
      "inputs": [],
      "name": "name",
      "outputs": [
        {
          "internalType": "string",
          "name": "",
          "type": "string"
        }
      ],
      "stateMutability": "view",
      "type": "function"
    },
    {
      "inputs": [],
      "name": "owner",
      "outputs": [
        {
          "internalType": "address",
          "name": "",
          "type": "address"
        }
      ],
      "stateMutability": "view",
      "type": "function"
    },
    {
      "inputs": [],
      "name": "pulse_lp_reward",
      "outputs": [],
      "stateMutability": "nonpayable",
      "type": "function"
    },
    {
      "inputs": [],
      "name": "pulse_user_burn",
      "outputs": [],
      "stateMutability": "nonpayable",
      "type": "function"
    },
    {
      "inputs": [],
      "name": "pulse_vote_burn",
      "outputs": [],
      "stateMutability": "nonpayable",
      "type": "function"
    },
    {
      "inputs": [],
      "name": "renounceOwnership",
      "outputs": [],
      "stateMutability": "nonpayable",
      "type": "function"
    },
    {
      "inputs": [],
      "name": "symbol",
      "outputs": [
        {
          "internalType": "string",
          "name": "",
          "type": "string"
        }
      ],
      "stateMutability": "view",
      "type": "function"
    },
    {
      "inputs": [],
      "name": "totalSupply",
      "outputs": [
        {
          "internalType": "uint256",
          "name": "",
          "type": "uint256"
        }
      ],
      "stateMutability": "view",
      "type": "function"
    },
    {
      "inputs": [
        {
          "internalType": "address",
          "name": "recipient",
          "type": "address"
        },
        {
          "internalType": "uint256",
          "name": "amount",
          "type": "uint256"
        }
      ],
      "name": "transfer",
      "outputs": [
        {
          "internalType": "bool",
          "name": "",
          "type": "bool"
        }
      ],
      "stateMutability": "nonpayable",
      "type": "function"
    },
    {
      "inputs": [
        {
          "internalType": "address",
          "name": "sender",
          "type": "address"
        },
        {
          "internalType": "address",
          "name": "recipient",
          "type": "address"
        },
        {
          "internalType": "uint256",
          "name": "amount",
          "type": "uint256"
        }
      ],
      "name": "transferFrom",
      "outputs": [
        {
          "internalType": "bool",
          "name": "",
          "type": "bool"
        }
      ],
      "stateMutability": "nonpayable",
      "type": "function"
    },
    {
      "inputs": [
        {
          "internalType": "address",
          "name": "newOwner",
          "type": "address"
        }
      ],
      "name": "transferOwnership",
      "outputs": [],
      "stateMutability": "nonpayable",
      "type": "function"
    },
    {
      "inputs": [],
      "name": "user_burn",
      "outputs": [
        {
          "internalType": "uint256",
          "name": "latestTime",
          "type": "uint256"
        },
        {
          "internalType": "uint256",
          "name": "cycle",
          "type": "uint256"
        },
        {
          "internalType": "uint256",
          "name": "decayRate",
          "type": "uint256"
        },
        {
          "internalType": "address",
          "name": "account",
          "type": "address"
        },
        {
          "internalType": "uint256",
          "name": "accDecayPerShare",
          "type": "uint256"
        },
        {
          "internalType": "uint256",
          "name": "sum_balances",
          "type": "uint256"
        },
        {
          "internalType": "uint256",
          "name": "pending_burn",
          "type": "uint256"
        },
        {
          "internalType": "uint256",
          "name": "latestRound",
          "type": "uint256"
        }
      ],
      "stateMutability": "view",
      "type": "function"
    },
    {
      "inputs": [],
      "name": "vote_burn",
      "outputs": [
        {
          "internalType": "uint256",
          "name": "latestTime",
          "type": "uint256"
        },
        {
          "internalType": "uint256",
          "name": "cycle",
          "type": "uint256"
        },
        {
          "internalType": "uint256",
          "name": "decayRate",
          "type": "uint256"
        },
        {
          "internalType": "address",
          "name": "account",
          "type": "address"
        },
        {
          "internalType": "uint256",
          "name": "accDecayPerShare",
          "type": "uint256"
        },
        {
          "internalType": "uint256",
          "name": "sum_balances",
          "type": "uint256"
        },
        {
          "internalType": "uint256",
          "name": "pending_burn",
          "type": "uint256"
        },
        {
          "internalType": "uint256",
          "name": "latestRound",
          "type": "uint256"
        }
      ],
      "stateMutability": "view",
      "type": "function"
    },
    {
      "stateMutability": "payable",
      "type": "receive"
    }
  ],
  "bytecode": "0x60806040523480156200001157600080fd5b50604051620027c2380380620027c28339810160408190526200003491620008b3565b6200003f336200036f565b602480546001600160a01b0319166001600160a01b038316179055620000623390565b602080546001600160a01b03929092166001600160a01b03199283161781556021805483167370997970c51812dc3a010c7d01b50e0d17dc79c8179055602280548316733c44cdddb6a900fa2b585dd299e03d12fa4293bc1790556023805483167390f79bf6eb2c4f870365e785982e1f101e93b9061790556004805483167315d34aaf54267db7d7c367839aaf71a00a2c6a65908117909155600580548416739965507d1a55bcc2695c58ba16fb37d819b0a4dc1790556006805490931673976ea74026e726554db657fa54763abd0c3a0aa91790925560408051610100810182524280825260029382018490526102b292820192909252606081019390935260006080840181905260a0840181905260c084015260e08301916200018891620008fb565b90528051600755602080820151600855604080830151600955606080840151600a80546001600160a01b0319166001600160a01b03928316179055608080860151600b5560a080870151600c5560c080880151600d5560e097880151600e55855161010081018752428082526002988201899052604697820197909752600654909416948401949094526000918301829052820181905291810191909152928301916200023591620008fb565b90528051600f55602080820151601055604080830151601155606080840151601280546001600160a01b0319166001600160a01b0390921691909117905560808085015160135560a08086015160145560c08087015160155560e09687015160165584516101008101865242808252600497820188905261030996820196909652600094810185905292830184905290820183905281019190915292830191620002df91620008fb565b90528051601755602081015160185560408101516019556060810151601a80546001600160a01b0319166001600160a01b039092169190911790556080810151601b5560a0810151601c5560c0810151601d5560e00151601e5562000368620003453390565b620003536012600a62000a1b565b6200036290620f424062000a2c565b620003bf565b5062000b0f565b600080546001600160a01b038381166001600160a01b0319831681178455604051919092169283917f8be0079c531659141344cd1fd0a4f28419497f9722a3daafe3b4186f6b6457e09190a35050565b60408051808201909152600c81526b5a65726f206164647265737360a01b60208201526001600160a01b038316620004155760405162461bcd60e51b81526004016200040c919062000a9e565b60405180910390fd5b5080600260008282546200042a919062000ab3565b909155506200043e90508282600162000488565b6040518181526001600160a01b038316906000907fddf252ad1be2c89b69c2b068fc378daa952ba7f163c4a11628f55a4df523b3ef9060200160405180910390a35050565b505050565b620004938362000612565b156200059c57620004a48362000663565b80620004d6576001600160a01b038316600090815260036020526040902054620004d090839062000ace565b620004fc565b6001600160a01b038316600090815260036020526040902054620004fc90839062000ab3565b6001600160a01b038416600090815260036020526040902055806200053157601c546200052b90839062000ace565b62000541565b601c546200054190839062000ab3565b601c55601b546001600160a01b03841660009081526003602052604090205464e8d4a5100091620005729162000a2c565b6200057e9190620008fb565b6001600160a01b0384166000908152601f6020526040902055505050565b80620005ce576001600160a01b038316600090815260036020526040902054620005c890839062000ace565b620005f4565b6001600160a01b038316600090815260036020526040902054620005f490839062000ab3565b6001600160a01b038416600090815260036020526040902055505050565b6004546000906001600160a01b038381169116148015906200064257506005546001600160a01b03838116911614155b80156200065d57506006546001600160a01b03838116911614155b92915050565b6000620006708262000753565b905080156200074f576001600160a01b03821660009081526003602052604081208054839290620006a390849062000ace565b925050819055508060026000828254620006be919062000ace565b9091555050601c8054829190600090620006da90849062000ace565b9091555050601d8054829190600090620006f690849062000ace565b9091555050601b546001600160a01b03831660009081526003602052604090205464e8d4a5100091620007299162000a2c565b620007359190620008fb565b6001600160a01b0383166000908152601f60205260409020555b5050565b6001600160a01b0381166000908152601f6020908152604080832054601b54600390935290832054909164e8d4a510009162000790919062000a2c565b6200079c9190620008fb565b620007a8919062000ace565b6001600160a01b0383166000908152600360205260409020549091508111156200083e576200083e6040518060400160405280601d81526020017f70656e64696e674275726e2065786365656473205f62616c616e6365730000008152508260036000866001600160a01b03166001600160a01b03168152602001908152602001600020546200084360201b62000d3d1760201c565b919050565b620004838383836040516024016200085e9392919062000ae8565b60408051601f198184030181529190526020810180516001600160e01b0390811663969cdd0360e01b179091526200089216565b80516a636f6e736f6c652e6c6f67602083016000808483855afa5050505050565b600060208284031215620008c657600080fd5b81516001600160a01b0381168114620008de57600080fd5b9392505050565b634e487b7160e01b600052601160045260246000fd5b6000826200091957634e487b7160e01b600052601260045260246000fd5b500490565b600181815b808511156200095f578160001904821115620009435762000943620008e5565b808516156200095157918102915b93841c939080029062000923565b509250929050565b60008262000978575060016200065d565b8162000987575060006200065d565b8160018114620009a05760028114620009ab57620009cb565b60019150506200065d565b60ff841115620009bf57620009bf620008e5565b50506001821b6200065d565b5060208310610133831016604e8410600b8410161715620009f0575081810a6200065d565b620009fc83836200091e565b806000190482111562000a135762000a13620008e5565b029392505050565b6000620008de60ff84168362000967565b600081600019048311821515161562000a495762000a49620008e5565b500290565b6000815180845260005b8181101562000a765760208185018101518683018201520162000a58565b8181111562000a89576000602083870101525b50601f01601f19169290920160200192915050565b602081526000620008de602083018462000a4e565b6000821982111562000ac95762000ac9620008e5565b500190565b60008282101562000ae35762000ae3620008e5565b500390565b60608152600062000afd606083018662000a4e565b60208301949094525060400152919050565b611ca38062000b1f6000396000f3fe6080604052600436106101855760003560e01c80638da5cb5b116100d1578063a9059cbb1161008a578063e729a45511610064578063e729a4551461052b578063ed2deb8b14610540578063f2fde38b14610555578063fc58ee8b1461057557600080fd5b8063a9059cbb146104b0578063d5abeb01146104d0578063dd62ed3e146104e557600080fd5b80638da5cb5b146103c057806395d89b41146103e85780639dc29fac14610414578063a13c1f6714610434578063a150da2a14610470578063a457c2d71461049057600080fd5b80633660777d1161013e5780636c93564f116101185780636c93564f1461033a57806370a0823114610376578063715018a61461039657806373957289146103ab57600080fd5b80633660777d1461027b57806339509351146102fa57806340c10f191461031a57600080fd5b806306fdde0314610191578063086a606c146101d5578063095ea7b3146101ec57806318160ddd1461021c57806323b872dd1461023f578063313ce5671461025f57600080fd5b3661018c57005b600080fd5b34801561019d57600080fd5b506040805180820190915260098152682a23a9102a37b5b2b760b91b60208201525b6040516101cc9190611973565b60405180910390f35b3480156101e157600080fd5b506101ea610595565b005b3480156101f857600080fd5b5061020c61020736600461199d565b6105e1565b60405190151581526020016101cc565b34801561022857600080fd5b506102316105f8565b6040519081526020016101cc565b34801561024b57600080fd5b5061020c61025a3660046119c7565b610607565b34801561026b57600080fd5b50604051601281526020016101cc565b34801561028757600080fd5b50600f546010546011546012546013546014546015546016546102b7979695946001600160a01b03169392919088565b604080519889526020890197909752958701949094526001600160a01b039092166060860152608085015260a084015260c083015260e0820152610100016101cc565b34801561030657600080fd5b5061020c61031536600461199d565b6106bd565b34801561032657600080fd5b506101ea61033536600461199d565b6106d1565b34801561034657600080fd5b50601754601854601954601a54601b54601c54601d54601e546102b7979695946001600160a01b03169392919088565b34801561038257600080fd5b50610231610391366004611a03565b610778565b3480156103a257600080fd5b506101ea610783565b3480156103b757600080fd5b506101ea6107b9565b3480156103cc57600080fd5b506000546040516001600160a01b0390911681526020016101cc565b3480156103f457600080fd5b506040805180820190915260038152622a23a960e91b60208201526101bf565b34801561042057600080fd5b506101ea61042f36600461199d565b610a8d565b34801561044057600080fd5b50600754600854600954600a54600b54600c54600d54600e546102b7979695946001600160a01b03169392919088565b34801561047c57600080fd5b5061020c61048b3660046119c7565b610ac1565b34801561049c57600080fd5b5061020c6104ab36600461199d565b610b48565b3480156104bc57600080fd5b5061020c6104cb36600461199d565b610b55565b3480156104dc57600080fd5b50610231610b62565b3480156104f157600080fd5b50610231610500366004611a1e565b6001600160a01b03918216600090815260016020908152604080832093909416825291909152205490565b34801561053757600080fd5b506101ea610b7f565b34801561054c57600080fd5b506101ea610bd5565b34801561056157600080fd5b506101ea610570366004611a03565b610c71565b34801561058157600080fd5b506101ea61059036600461199d565b610d09565b6008546000906105a59042611a67565b600e549091508111156105de57600e546000906105c3908390611a89565b600e839055905060006105d66007610d84565b505042600755505b50565b60006105ee338484610f74565b5060015b92915050565b600061060261106c565b905090565b60006001600160a01b03841633146106a8576001600160a01b0384166000908152600160209081526040808320338452909152902054828110156106925760405162461bcd60e51b815260206004820152601a60248201527f5472616e73666572206578636565647320616c6c6f77616e636500000000000060448201526064015b60405180910390fd5b6106a685336106a18685611a89565b610f74565b505b6106b384848461107e565b5060019392505050565b60006106ca33848461108f565b9392505050565b6000546001600160a01b031633146106fb5760405162461bcd60e51b815260040161068990611aa0565b6107076012600a611bb9565b610715906302faf080611bc8565b8161071e61106c565b6107289190611be7565b111561076a5760405162461bcd60e51b8152602060048201526011602482015270457863656564204d617820537570706c7960781b6044820152606401610689565b6107748282611116565b5050565b60006105f2826111ca565b6000546001600160a01b031633146107ad5760405162461bcd60e51b815260040161068990611aa0565b6107b7600061122c565b565b6002546006546001600160a01b039081166000908152600360205260408082205460055484168352818320546004549094168352912054601c549192916108009190611be7565b61080a9190611be7565b6108149190611be7565b146108965760405162461bcd60e51b815260206004820152604660248201527f73756d5f62616c616e636573202b205f62616c5b74677266746d5d202b205f6260448201527f616c5b74677268747a202b205f62616c5b766f74657320213d205f746f74616c606482015265537570706c7960d01b608482015260a401610689565b601c546023546001600160a01b0390811660009081526003602090815260408083205460225485168452818420546021548616855282852054935490951684529220549192916108e69190611be7565b6108f09190611be7565b6108fa9190611be7565b146109795760405162461bcd60e51b815260206004820152604360248201527f5f62616c5b61646d696e5d202b205f62616c5b616c6963655d202b205f62616c60448201527f5b626f625d202b205f62616c5b6361726f6c5d20213d2073756d5f62616c616e60648201526263657360e81b608482015260a401610689565b601d54601c5460009161098b91611a89565b6023549091506000906109a6906001600160a01b0316610778565b6022546109bb906001600160a01b0316610778565b6021546109d0906001600160a01b0316610778565b6020546109e5906001600160a01b0316610778565b6109ef9190611be7565b6109f99190611be7565b610a039190611be7565b9050600081831015610a2057610a198383611a89565b9050610a2d565b610a2a8284611a89565b90505b82610a3b82620f4240611bc8565b10610a885760405162461bcd60e51b815260206004820152601a60248201527f4572726f7220657863656564732061206d696c6c696f6e2d74680000000000006044820152606401610689565b505050565b6000546001600160a01b03163314610ab75760405162461bcd60e51b815260040161068990611aa0565b610774828261127c565b60408051808201909152600c81526b5a65726f206164647265737360a01b60208201526000906001600160a01b038516610b0e5760405162461bcd60e51b81526004016106899190611973565b506001600160a01b038085166000908152600160209081526040808320938716835292905220546106b390859085906106a1908690611a89565b60006106ca338484610ac1565b60006105ee33848461107e565b610b6e6012600a611bb9565b610b7c906302faf080611bc8565b81565b6000610b8b600f610d84565b6012546001600160a01b0316600081815260036020526040902054919250610bce9164e8d4a5100090610bbf908590611bc8565b610bc99190611a67565b61127c565b5042600f55565b6000610be16017610d84565b905080156105de57601d54601c54600091610bfb91611a89565b9050600064e8d4a51000610c0f8484611bc8565b610c199190611a67565b90508060176006016000828254610c309190611be7565b9091555050601c54610c478264e8d4a51000611bc8565b610c519190611a67565b601b8054600090610c63908490611be7565b909155505042601755505050565b6000546001600160a01b03163314610c9b5760405162461bcd60e51b815260040161068990611aa0565b6001600160a01b038116610d005760405162461bcd60e51b815260206004820152602660248201527f4f776e61626c653a206e6577206f776e657220697320746865207a65726f206160448201526564647265737360d01b6064820152608401610689565b6105de8161122c565b6000546001600160a01b03163314610d335760405162461bcd60e51b815260040161068990611aa0565b6107748282611386565b610a88838383604051602401610d5593929190611bff565b60408051601f198184030181529190526020810180516001600160e01b031663969cdd0360e01b17905261143a565b600080826001015442610d979190611a67565b90508260070154811115610f6e576000836007015482610db79190611a89565b600785018390554285559050601e811115610dd05750601e5b64e8d4a51000925060058111610e86576002840154600090610df46005600a611c24565b610dfe9190611a89565b9050806000610e0f6005600a611c24565b905060015b84811015610e5257610e268484611bc8565b9250610e346005600a611c24565b610e3e9083611bc8565b915080610e4a81611c30565b915050610e14565b5080610e638364e8d4a51000611bc8565b610e6d9190611a67565b610e7c9064e8d4a51000611a89565b9550505050610f6c565b602454600285015460009182916001600160a01b0390911690635aff34dc90610eb16005600a611c24565b610ebb9190611a89565b610ec76005600a611c24565b6040516001600160e01b031960e085901b1681526004810192909252602482015260448101869052600160648201526084016040805180830381865afa158015610f15573d6000803e3d6000fd5b505050506040513d601f19601f82011682018060405250810190610f399190611c49565b909250905080610f4e8364e8d4a51000611bc8565b610f589190611a67565b610f679064e8d4a51000611a89565b945050505b505b50919050565b60408051808201909152600c81526b5a65726f206164647265737360a01b60208201526001600160a01b038416610fbe5760405162461bcd60e51b81526004016106899190611973565b5060408051808201909152600c81526b5a65726f206164647265737360a01b60208201526001600160a01b0383166110095760405162461bcd60e51b81526004016106899190611973565b506001600160a01b0383811660008181526001602090815260408083209487168084529482529182902085905590518481527f8c5be1e5ebec7d5bd14f71427d1e84f3dd0314c0f7b2291e5b200ac8c7c3b92591015b60405180910390a3505050565b601d5460025460009161060291611a89565b8015610a8857610a8883838361145b565b60408051808201909152600c81526b5a65726f206164647265737360a01b60208201526000906001600160a01b0385166110dc5760405162461bcd60e51b81526004016106899190611973565b506001600160a01b038085166000908152600160209081526040808320938716835292905220546106b390859085906106a1908690611be7565b60408051808201909152600c81526b5a65726f206164647265737360a01b60208201526001600160a01b0383166111605760405162461bcd60e51b81526004016106899190611973565b5080600260008282546111739190611be7565b909155506111859050828260016115b4565b6040518181526001600160a01b038316906000907fddf252ad1be2c89b69c2b068fc378daa952ba7f163c4a11628f55a4df523b3ef9060200160405180910390a35050565b60006111d582611723565b1561120c5760006111e58361176f565b6001600160a01b0384166000908152600360205260409020549091506106ca908290611a89565b506001600160a01b0381166000908152600360205260409020545b919050565b600080546001600160a01b038381166001600160a01b0319831681178455604051919092169283917f8be0079c531659141344cd1fd0a4f28419497f9722a3daafe3b4186f6b6457e09190a35050565b60408051808201909152600c81526b5a65726f206164647265737360a01b60208201526001600160a01b0383166112c65760405162461bcd60e51b81526004016106899190611973565b5060006112d2836111ca565b9050818110156040518060400160405280600f81526020016e457863656564732062616c616e636560881b8152509061131e5760405162461bcd60e51b81526004016106899190611973565b5061132b838360006115b4565b816002600082825461133d9190611a89565b909155506113489050565b6040518281526000906001600160a01b038516907fddf252ad1be2c89b69c2b068fc378daa952ba7f163c4a11628f55a4df523b3ef9060200161105f565b60408051808201909152600c81526b5a65726f206164647265737360a01b60208201526001600160a01b0383166113d05760405162461bcd60e51b81526004016106899190611973565b5060006113dc836111ca565b9050818110156040518060400160405280600f81526020016e457863656564732062616c616e636560881b815250906114285760405162461bcd60e51b81526004016106899190611973565b50611435838360006115b4565b611348565b80516a636f6e736f6c652e6c6f67602083016000808483855afa5050505050565b60408051808201909152600c81526b5a65726f206164647265737360a01b60208201526001600160a01b0384166114a55760405162461bcd60e51b81526004016106899190611973565b5060408051808201909152600c81526b5a65726f206164647265737360a01b60208201526001600160a01b0383166114f05760405162461bcd60e51b81526004016106899190611973565b5060006114fc846111ca565b9050818110156040518060400160405280600f81526020016e457863656564732062616c616e636560881b815250906115485760405162461bcd60e51b81526004016106899190611973565b50611555848360006115b4565b611561838360016115b4565b826001600160a01b0316846001600160a01b03167fddf252ad1be2c89b69c2b068fc378daa952ba7f163c4a11628f55a4df523b3ef846040516115a691815260200190565b60405180910390a350505050565b6115bd83611723565b156116b3576115cb83611846565b806115f9576001600160a01b0383166000908152600360205260409020546115f4908390611a89565b61161d565b6001600160a01b03831660009081526003602052604090205461161d908390611be7565b6001600160a01b0384166000908152600360205260409020558061164e57601c54611649908390611a89565b61165c565b601c5461165c908390611be7565b601c55601b546001600160a01b03841660009081526003602052604090205464e8d4a510009161168b91611bc8565b6116959190611a67565b6001600160a01b0384166000908152601f6020526040902055505050565b806116e1576001600160a01b0383166000908152600360205260409020546116dc908390611a89565b611705565b6001600160a01b038316600090815260036020526040902054611705908390611be7565b6001600160a01b038416600090815260036020526040902055505050565b6004546000906001600160a01b0383811691161480159061175257506005546001600160a01b03838116911614155b80156105f25750506006546001600160a01b039081169116141590565b6001600160a01b0381166000908152601f6020908152604080832054601b54600390935290832054909164e8d4a51000916117aa9190611bc8565b6117b49190611a67565b6117be9190611a89565b6001600160a01b038316600090815260036020526040902054909150811115611227576112276040518060400160405280601d81526020017f70656e64696e674275726e2065786365656473205f62616c616e6365730000008152508260036000866001600160a01b03166001600160a01b0316815260200190815260200160002054610d3d565b60006118518261176f565b90508015610774576001600160a01b03821660009081526003602052604081208054839290611881908490611a89565b92505081905550806002600082825461189a9190611a89565b9091555050601c80548291906000906118b4908490611a89565b9091555050601d80548291906000906118ce908490611a89565b9091555050601b546001600160a01b03831660009081526003602052604090205464e8d4a51000916118ff91611bc8565b6119099190611a67565b6001600160a01b0383166000908152601f60205260409020555050565b6000815180845260005b8181101561194c57602081850181015186830182015201611930565b8181111561195e576000602083870101525b50601f01601f19169290920160200192915050565b6020815260006106ca6020830184611926565b80356001600160a01b038116811461122757600080fd5b600080604083850312156119b057600080fd5b6119b983611986565b946020939093013593505050565b6000806000606084860312156119dc57600080fd5b6119e584611986565b92506119f360208501611986565b9150604084013590509250925092565b600060208284031215611a1557600080fd5b6106ca82611986565b60008060408385031215611a3157600080fd5b611a3a83611986565b9150611a4860208401611986565b90509250929050565b634e487b7160e01b600052601160045260246000fd5b600082611a8457634e487b7160e01b600052601260045260246000fd5b500490565b600082821015611a9b57611a9b611a51565b500390565b6020808252818101527f4f776e61626c653a2063616c6c6572206973206e6f7420746865206f776e6572604082015260600190565b600181815b80851115611b10578160001904821115611af657611af6611a51565b80851615611b0357918102915b93841c9390800290611ada565b509250929050565b600082611b27575060016105f2565b81611b34575060006105f2565b8160018114611b4a5760028114611b5457611b70565b60019150506105f2565b60ff841115611b6557611b65611a51565b50506001821b6105f2565b5060208310610133831016604e8410600b8410161715611b93575081810a6105f2565b611b9d8383611ad5565b8060001904821115611bb157611bb1611a51565b029392505050565b60006106ca60ff841683611b18565b6000816000190483118215151615611be257611be2611a51565b500290565b60008219821115611bfa57611bfa611a51565b500190565b606081526000611c126060830186611926565b60208301949094525060400152919050565b60006106ca8383611b18565b600060018201611c4257611c42611a51565b5060010190565b60008060408385031215611c5c57600080fd5b50508051602090910151909290915056fea26469706673582212208ae0a737fb8e38beb6f7cc22dff796662a7f3437392b71b7e44a8b8abc45249564736f6c634300080e0033",
  "linkReferences": {},
  "deployedLinkReferences": {}
}