{
  "_format": "hh-sol-artifact-1",
  "contractName": "MockTransfer",
  "sourceName": "contracts/mock/MockTransfer.sol",
  "abi": [
    {
      "inputs": [
        {
          "internalType": "contract ITGRToken",
          "name": "_token",
          "type": "address"
        }
      ],
      "stateMutability": "nonpayable",
      "type": "constructor"
    },
    {
      "anonymous": false,
      "inputs": [
        {
          "indexed": true,
          "internalType": "address",
          "name": "previousOwner",
          "type": "address"
        },
        {
          "indexed": true,
          "internalType": "address",
          "name": "newOwner",
          "type": "address"
        }
      ],
      "name": "OwnershipTransferred",
      "type": "event"
    },
    {
      "stateMutability": "payable",
      "type": "fallback"
    },
    {
      "inputs": [],
      "name": "owner",
      "outputs": [
        {
          "internalType": "address",
          "name": "",
          "type": "address"
        }
      ],
      "stateMutability": "view",
      "type": "function"
    },
    {
      "inputs": [],
      "name": "renounceOwnership",
      "outputs": [],
      "stateMutability": "nonpayable",
      "type": "function"
    },
    {
      "inputs": [
        {
          "internalType": "address",
          "name": "_from",
          "type": "address"
        },
        {
          "internalType": "address",
          "name": "_to",
          "type": "address"
        },
        {
          "internalType": "uint256",
          "name": "_amount",
          "type": "uint256"
        }
      ],
      "name": "transferFrom",
      "outputs": [],
      "stateMutability": "nonpayable",
      "type": "function"
    },
    {
      "inputs": [
        {
          "internalType": "address",
          "name": "newOwner",
          "type": "address"
        }
      ],
      "name": "transferOwnership",
      "outputs": [],
      "stateMutability": "nonpayable",
      "type": "function"
    },
    {
      "inputs": [
        {
          "internalType": "address",
          "name": "_to",
          "type": "address"
        },
        {
          "internalType": "uint256",
          "name": "_amount",
          "type": "uint256"
        }
      ],
      "name": "transferTo",
      "outputs": [],
      "stateMutability": "nonpayable",
      "type": "function"
    },
    {
      "inputs": [
        {
          "internalType": "address",
          "name": "_userA",
          "type": "address"
        },
        {
          "internalType": "address",
          "name": "_userB",
          "type": "address"
        },
        {
          "internalType": "address",
          "name": "_userC",
          "type": "address"
        },
        {
          "internalType": "uint256",
          "name": "_amountB",
          "type": "uint256"
        },
        {
          "internalType": "uint256",
          "name": "_amountC",
          "type": "uint256"
        }
      ],
      "name": "transferXDAO",
      "outputs": [],
      "stateMutability": "nonpayable",
      "type": "function"
    },
    {
      "inputs": [
        {
          "internalType": "contract IXDAOFarm",
          "name": "_farm",
          "type": "address"
        },
        {
          "internalType": "uint256",
          "name": "_pid",
          "type": "uint256"
        },
        {
          "internalType": "uint256",
          "name": "_amount",
          "type": "uint256"
        }
      ],
      "name": "withdrawVest",
      "outputs": [],
      "stateMutability": "nonpayable",
      "type": "function"
    },
    {
      "stateMutability": "payable",
      "type": "receive"
    }
  ],
  "bytecode": "0x608060405234801561001057600080fd5b5060405161082538038061082583398101604081905261002f916100ad565b6100383361005d565b600180546001600160a01b0319166001600160a01b03929092169190911790556100db565b600080546001600160a01b038381166001600160a01b0319831681178455604051919092169283917f8be0079c531659141344cd1fd0a4f28419497f9722a3daafe3b4186f6b6457e09190a35050565b6000602082840312156100be578081fd5b81516001600160a01b03811681146100d4578182fd5b9392505050565b61073b806100ea6000396000f3fe6080604052600436106100645760003560e01c806323b872dd1461006d5780632ccb1b301461008d578063684312fe146100ad578063715018a6146100cd5780637610536d146100e25780638da5cb5b14610102578063f2fde38b146101335761006b565b3661006b57005b005b34801561007957600080fd5b5061006b6100883660046105c0565b610153565b34801561009957600080fd5b5061006b6100a8366004610600565b6101df565b3480156100b957600080fd5b5061006b6100c8366004610566565b61026a565b3480156100d957600080fd5b5061006b61037f565b3480156100ee57600080fd5b5061006b6100fd36600461064b565b6103c3565b34801561010e57600080fd5b50610117610444565b6040516001600160a01b03909116815260200160405180910390f35b34801561013f57600080fd5b5061006b61014e366004610543565b610453565b6001546040516323b872dd60e01b81526001600160a01b03909116906323b872dd9061018790869086908690600401610697565b602060405180830381600087803b1580156101a157600080fd5b505af11580156101b5573d6000803e3d6000fd5b505050506040513d601f19601f820116820180604052508101906101d9919061062b565b50505050565b60015460405163a9059cbb60e01b81526001600160a01b038481166004830152602482018490529091169063a9059cbb90604401602060405180830381600087803b15801561022d57600080fd5b505af1158015610241573d6000803e3d6000fd5b505050506040513d601f19601f82011682018060405250810190610265919061062b565b505050565b6001546040516323b872dd60e01b81526001600160a01b03909116906323b872dd9061029e90889088908790600401610697565b602060405180830381600087803b1580156102b857600080fd5b505af11580156102cc573d6000803e3d6000fd5b505050506040513d601f19601f820116820180604052508101906102f0919061062b565b506001546040516323b872dd60e01b81526001600160a01b03909116906323b872dd9061032590889087908690600401610697565b602060405180830381600087803b15801561033f57600080fd5b505af1158015610353573d6000803e3d6000fd5b505050506040513d601f19601f82011682018060405250810190610377919061062b565b505050505050565b33610388610444565b6001600160a01b0316146103b75760405162461bcd60e51b81526004016103ae906106bb565b60405180910390fd5b6103c160006104f3565b565b60405163324ad05360e11b815260048101839052602481018290526001600160a01b03841690636495a0a690604401602060405180830381600087803b15801561040c57600080fd5b505af1158015610420573d6000803e3d6000fd5b505050506040513d601f19601f820116820180604052508101906101d9919061067f565b6000546001600160a01b031690565b3361045c610444565b6001600160a01b0316146104825760405162461bcd60e51b81526004016103ae906106bb565b6001600160a01b0381166104e75760405162461bcd60e51b815260206004820152602660248201527f4f776e61626c653a206e6577206f776e657220697320746865207a65726f206160448201526564647265737360d01b60648201526084016103ae565b6104f0816104f3565b50565b600080546001600160a01b038381166001600160a01b0319831681178455604051919092169283917f8be0079c531659141344cd1fd0a4f28419497f9722a3daafe3b4186f6b6457e09190a35050565b600060208284031215610554578081fd5b813561055f816106f0565b9392505050565b600080600080600060a0868803121561057d578081fd5b8535610588816106f0565b94506020860135610598816106f0565b935060408601356105a8816106f0565b94979396509394606081013594506080013592915050565b6000806000606084860312156105d4578283fd5b83356105df816106f0565b925060208401356105ef816106f0565b929592945050506040919091013590565b60008060408385031215610612578182fd5b823561061d816106f0565b946020939093013593505050565b60006020828403121561063c578081fd5b8151801515811461055f578182fd5b60008060006060848603121561065f578283fd5b833561066a816106f0565b95602085013595506040909401359392505050565b600060208284031215610690578081fd5b5051919050565b6001600160a01b039384168152919092166020820152604081019190915260600190565b6020808252818101527f4f776e61626c653a2063616c6c6572206973206e6f7420746865206f776e6572604082015260600190565b6001600160a01b03811681146104f057600080fdfea2646970667358221220664a0081748d74c5af485d629e07d881003edccaba23e7776f55f1b2ebef75eb64736f6c63430008030033",
  "linkReferences": {},
  "deployedLinkReferences": {}
}