{
  "_format": "hh-sol-artifact-1",
  "contractName": "FarmLib",
  "sourceName": "contracts/libraries/FarmLib.sol",
  "abi": [
    {
      "anonymous": false,
      "inputs": [
        {
          "indexed": false,
          "internalType": "address",
          "name": "migrator",
          "type": "address"
        }
      ],
      "name": "SetMigrator",
      "type": "event"
    },
    {
      "inputs": [
        {
          "internalType": "address",
          "name": "lp",
          "type": "address"
        },
        {
          "internalType": "uint256",
          "name": "allocPoint",
          "type": "uint256"
        },
        {
          "internalType": "uint256",
          "name": "startBlock",
          "type": "uint256"
        },
        {
          "internalType": "uint256",
          "name": "depositFeeRate",
          "type": "uint256"
        }
      ],
      "name": "buildStandardPool",
      "outputs": [
        {
          "components": [
            {
              "internalType": "contract IERC20",
              "name": "lpToken",
              "type": "IERC20"
            },
            {
              "internalType": "uint256",
              "name": "allocPoint",
              "type": "uint256"
            },
            {
              "internalType": "uint256",
              "name": "lastRewardBlock",
              "type": "uint256"
            },
            {
              "internalType": "uint256",
              "name": "accTGRPerShare",
              "type": "uint256"
            },
            {
              "internalType": "uint256",
              "name": "depositFeeRate",
              "type": "uint256"
            },
            {
              "internalType": "uint256",
              "name": "reward",
              "type": "uint256"
            },
            {
              "components": [
                {
                  "internalType": "uint256",
                  "name": "sumAmount",
                  "type": "uint256"
                },
                {
                  "components": [
                    {
                      "internalType": "uint256",
                      "name": "bulk",
                      "type": "uint256"
                    },
                    {
                      "internalType": "uint256",
                      "name": "accPerShare",
                      "type": "uint256"
                    }
                  ],
                  "internalType": "struct SubPool",
                  "name": "Comp",
                  "type": "tuple"
                }
              ],
              "internalType": "struct Struct_OnOff",
              "name": "OnOff",
              "type": "tuple"
            },
            {
              "components": [
                {
                  "internalType": "uint256",
                  "name": "sumAmount",
                  "type": "uint256"
                },
                {
                  "components": [
                    {
                      "internalType": "uint256",
                      "name": "bulk",
                      "type": "uint256"
                    },
                    {
                      "internalType": "uint256",
                      "name": "accPerShare",
                      "type": "uint256"
                    }
                  ],
                  "internalType": "struct SubPool",
                  "name": "Comp",
                  "type": "tuple"
                },
                {
                  "components": [
                    {
                      "internalType": "uint256",
                      "name": "bulk",
                      "type": "uint256"
                    },
                    {
                      "internalType": "uint256",
                      "name": "accPerShare",
                      "type": "uint256"
                    }
                  ],
                  "internalType": "struct SubPool",
                  "name": "Vest",
                  "type": "tuple"
                }
              ],
              "internalType": "struct Struct_OnOn",
              "name": "OnOn",
              "type": "tuple"
            },
            {
              "components": [
                {
                  "internalType": "uint256",
                  "name": "sumAmount",
                  "type": "uint256"
                },
                {
                  "components": [
                    {
                      "internalType": "uint256",
                      "name": "bulk",
                      "type": "uint256"
                    },
                    {
                      "internalType": "uint256",
                      "name": "accPerShare",
                      "type": "uint256"
                    }
                  ],
                  "internalType": "struct SubPool",
                  "name": "Vest",
                  "type": "tuple"
                },
                {
                  "components": [
                    {
                      "internalType": "uint256",
                      "name": "bulk",
                      "type": "uint256"
                    },
                    {
                      "internalType": "uint256",
                      "name": "accPerShare",
                      "type": "uint256"
                    }
                  ],
                  "internalType": "struct SubPool",
                  "name": "Accum",
                  "type": "tuple"
                }
              ],
              "internalType": "struct Struct_OffOn",
              "name": "OffOn",
              "type": "tuple"
            },
            {
              "components": [
                {
                  "internalType": "uint256",
                  "name": "sumAmount",
                  "type": "uint256"
                },
                {
                  "components": [
                    {
                      "internalType": "uint256",
                      "name": "bulk",
                      "type": "uint256"
                    },
                    {
                      "internalType": "uint256",
                      "name": "accPerShare",
                      "type": "uint256"
                    }
                  ],
                  "internalType": "struct SubPool",
                  "name": "Accum",
                  "type": "tuple"
                }
              ],
              "internalType": "struct Struct_OffOff",
              "name": "OffOff",
              "type": "tuple"
            }
          ],
          "internalType": "struct PoolInfo",
          "name": "pool",
          "type": "tuple"
        }
      ],
      "stateMutability": "view",
      "type": "function"
    },
    {
      "inputs": [
        {
          "internalType": "uint256",
          "name": "_from",
          "type": "uint256"
        },
        {
          "internalType": "uint256",
          "name": "_to",
          "type": "uint256"
        },
        {
          "internalType": "uint256",
          "name": "bonusMultiplier",
          "type": "uint256"
        }
      ],
      "name": "getMultiplier",
      "outputs": [
        {
          "internalType": "uint256",
          "name": "",
          "type": "uint256"
        }
      ],
      "stateMutability": "pure",
      "type": "function"
    }
  ],
  "bytecode": "0x61580d6200003b600b82828239805160001a60731461002e57634e487b7160e01b600052600060045260246000fd5b30600052607381538281f3fe73000000000000000000000000000000000000000030146080604052600436106101745760003560e01c8063089c813e146101795780630dd042a81461019f57806319f87afc146101cc5780631d07fd00146101ec5780632894a4af1461027857806328ca588b146102985780632beddeef146102ab57806342e75f2d146102cd57806357077b27146102ed578063571fa4e21461030d5780635963ae9c1461032d5780635b2cc2951461034d5780635dfb14561461036d578063666e12711461038d5780636b535099146103a05780637bafb029146103c05780637e508f81146103d35780638c8add04146103f35780638ddcabe0146104135780639539a496146104335780639b5728b214610453578063a3641f0c14610473578063a53d12eb14610493578063ad366ed4146104a6578063b9367a3c146104c6578063ba15e4f8146104f6578063d33caf7514610516578063d9df3bb514610529578063dbbaa5f414610549578063dd6ff48f14610569575b600080fd5b61018c61018736600461511a565b61059e565b6040519081526020015b60405180910390f35b8180156101ab57600080fd5b506101bf6101ba366004614e99565b6106ee565b604051610196919061529e565b8180156101d857600080fd5b5061018c6101e7366004614b62565b6108d9565b6101ff6101fa366004614ce8565b6109a1565b6040516101969190600061014082019050825182526020830151602083015260408301516040830152606083015160608301526080830151608083015260a083015160a083015260c083015160c083015260e083015160e083015261010080840151818401525061012080840151818401525092915050565b81801561028457600080fd5b5061018c610293366004614e5d565b610c70565b61018c6102a6366004614de3565b610cf3565b8180156102b757600080fd5b506102cb6102c6366004614fa8565b610e40565b005b6102e06102db366004614de3565b610e96565b604051610196919061548d565b8180156102f957600080fd5b5061018c610308366004614c9f565b61107a565b81801561031957600080fd5b506102cb610328366004614b22565b611747565b81801561033957600080fd5b5061018c610348366004614d4f565b6117ac565b81801561035957600080fd5b506102cb610368366004614de3565b611849565b81801561037957600080fd5b506102cb610388366004614ff0565b611de9565b61018c61039b366004614de3565b611e34565b6103b36103ae366004614c65565b611f2e565b60405161019691906153f9565b61018c6103ce366004614f7d565b612045565b8180156103df57600080fd5b506102cb6103ee36600461511a565b61205c565b8180156103ff57600080fd5b5061018c61040e366004614e20565b6121e7565b81801561041f57600080fd5b5061018c61042e366004614f7d565b612498565b81801561043f57600080fd5b5061018c61044e366004614e37565b61252d565b81801561045f57600080fd5b5061018c61046e366004614c02565b612661565b81801561047f57600080fd5b5061018c61048e366004614c65565b612c5b565b61018c6104a1366004614dcb565b612d32565b8180156104b257600080fd5b5061018c6104c1366004614d80565b612d96565b8180156104d257600080fd5b506104e66104e1366004615054565b612e78565b6040519015158152602001610196565b81801561050257600080fd5b5061018c61051136600461516c565b612f3e565b6102cb610524366004614ec8565b6130b1565b81801561053557600080fd5b506102cb6105443660046150ce565b61335a565b81801561055557600080fd5b506102cb610564366004614f7d565b6136a1565b81801561057557600080fd5b50610589610584366004614bbf565b613c79565b60408051928352602083019190915201610196565b600385015485546040516370a0823160e01b81526000929183916001600160a01b03909116906370a08231906105d890309060040161529e565b60206040518083038186803b1580156105f057600080fd5b505afa158015610604573d6000803e3d6000fd5b505050506040513d601f19601f820116820180604052508101906106289190615154565b905087600201544311801561063c57508015155b156106ac57600061065289600201544389612045565b905060006106818661067b8c600101546106758b87613e1690919063ffffffff16565b90613e16565b90613e95565b9050826106938264e8d4a51000615660565b61069d919061552c565b6106a79085615514565b935050505b866001015464e8d4a51000836106c28b8b611e34565b6106cc9190615660565b6106d6919061552c565b6106e0919061567f565b925050505b95945050505050565b81546040516370a0823160e01b81526000916001600160a01b031690829082906370a082319061072290309060040161529e565b60206040518083038186803b15801561073a57600080fd5b505afa15801561074e573d6000803e3d6000fd5b505050506040513d601f19601f820116820180604052508101906107729190615154565b90506107886001600160a01b0383168583613ed4565b60405163ce5494bb60e01b81526001600160a01b0385169063ce5494bb906107b490859060040161529e565b602060405180830381600087803b1580156107ce57600080fd5b505af11580156107e2573d6000803e3d6000fd5b505050506040513d601f19601f820116820180604052508101906108069190614b06565b6040516370a0823160e01b81529093506001600160a01b038416906370a082319061083590309060040161529e565b60206040518083038186803b15801561084d57600080fd5b505afa158015610861573d6000803e3d6000fd5b505050506040513d601f19601f820116820180604052508101906108859190615154565b81146108d15760405162461bcd60e51b81526020600482015260166024820152751b5a59dc985d1a5bdb881a5b98dbdb9cda5cdd195b9d60521b60448201526064015b60405180910390fd5b505092915050565b8654600090815b818110156109935760008a828154811061090a57634e487b7160e01b600052603260045260246000fd5b9060005260206000209060160201905060008a600084815260200190815260200160002060008e6001600160a01b03166001600160a01b03168152602001908152602001600020905061096382828f8d8d8d8d8d611de9565b60048101546109729086615514565b9450600081600401819055505050808061098b906156c2565b9150506108e0565b505098975050505050505050565b6109f7604051806101400160405280600081526020016000815260200160008152602001600081526020016000815260200160008152602001600081526020016000815260200160008152602001600081525090565b6000888a81548110610a1957634e487b7160e01b600052603260045260246000fd5b9060005260206000209060160201905060008860008c815260200190815260200160002060008d6001600160a01b03166001600160a01b0316815260200190815260200160002090508060060160009054906101000a900460ff166003811115610a9357634e487b7160e01b600052602160045260246000fd5b83528054602084015260048101546040840152610ab260058201612d32565b6060840152610ac46005820185610cf3565b6080840152610ad6828287898b61059e565b60a0840152610ae58282611e34565b60c084015281546040516370a0823160e01b81526001600160a01b03909116906370a0823190610b19908f9060040161529e565b60206040518083038186803b158015610b3157600080fd5b505afa158015610b45573d6000803e3d6000fd5b505050506040513d601f19601f82011682018060405250810190610b699190615154565b60e084015287546040516370a0823160e01b81526001600160a01b03909116906370a0823190610b9d908f9060040161529e565b60206040518083038186803b158015610bb557600080fd5b505afa158015610bc9573d6000803e3d6000fd5b505050506040513d601f19601f82011682018060405250810190610bed9190615154565b61010084015260009a505b89548b1015610c61578860008c815260200190815260200160002060008d6001600160a01b03166001600160a01b03168152602001908152602001600020600401548361012001818151610c4c9190615514565b9052508a610c59816156c2565b9b5050610bf8565b50509998505050505050505050565b600484015460009015610ceb57610c896005600a615592565b6004860154610c989085615660565b610ca2919061552c565b90506000610cb160028361552c565b6003840154909150610cce9086906001600160a01b031683611747565b8254610ce99086906001600160a01b0316610328848661567f565b505b949350505050565b6000805b8354811015610e39576000848281548110610d2257634e487b7160e01b600052603260045260246000fd5b90600052602060002090600302016002015442610d3f919061567f565b610d4b90610258615660565b610d56906018615660565b610d6190601e615660565b9050600084610d7362278d008461552c565b1015610d8b57610d8662278d008361552c565b610d8d565b845b90506000868481548110610db157634e487b7160e01b600052603260045260246000fd5b9060005260206000209060030201600101548683898781548110610de557634e487b7160e01b600052603260045260246000fd5b906000526020600020906003020160000154610e019190615660565b610e0b919061552c565b610e15919061567f565b9050610e218186615514565b94505050508080610e31906156c2565b915050610cf7565b5092915050565b6000846001015464e8d4a510008760030154610e5c8989611e34565b610e669190615660565b610e70919061552c565b610e7a919061567f565b90508015610e8e57610e8e84828585614022565b505050505050565b60408051808201909152600080825260208201526001600683015460ff166003811115610ed357634e487b7160e01b600052602160045260246000fd5b148015610ee05750815415155b15610eea57611074565b6002600683015460ff166003811115610f1357634e487b7160e01b600052602160045260246000fd5b148015610f205750815415155b15610f5c576003820154600d840154835464e8d4a5100091610f4191615660565b610f4b919061552c565b610f55919061567f565b8152611074565b6003600683015460ff166003811115610f8557634e487b7160e01b600052602160045260246000fd5b148015610f925750815415155b156110035760028201546010840154835464e8d4a5100091610fb391615660565b610fbd919061552c565b610fc7919061567f565b815260038201546012840154835464e8d4a5100091610fe591615660565b610fef919061552c565b610ff9919061567f565b6020820152611074565b6000600683015460ff16600381111561102c57634e487b7160e01b600052602160045260246000fd5b1480156110395750815415155b156110745760028201546015840154835464e8d4a510009161105a91615660565b611064919061552c565b61106e919061567f565b60208201525b92915050565b60006001600160a01b038516158015906110945750600083115b15610ceb5783546040516370a0823160e01b81526000916001600160a01b0316906370a08231906110c990309060040161529e565b60206040518083038186803b1580156110e157600080fd5b505afa1580156110f5573d6000803e3d6000fd5b505050506040513d601f19601f820116820180604052508101906111199190615154565b6006860154909150611135906001600160a01b03163086611747565b84546040516370a0823160e01b81526000916001600160a01b0316906370a082319061116590309060040161529e565b60206040518083038186803b15801561117d57600080fd5b505afa158015611191573d6000803e3d6000fd5b505050506040513d601f19601f820116820180604052508101906111b59190615154565b905060006111c3838361567f565b87549091506001600160a01b03898116911614156111e35780935061173c565b6000886001600160a01b0316630dfe16816040518163ffffffff1660e01b815260040160206040518083038186803b15801561121e57600080fd5b505afa158015611232573d6000803e3d6000fd5b505050506040513d601f19601f820116820180604052508101906112569190614b06565b90506000896001600160a01b031663d21220a76040518163ffffffff1660e01b815260040160206040518083038186803b15801561129357600080fd5b505afa1580156112a7573d6000803e3d6000fd5b505050506040513d601f19601f820116820180604052508101906112cb9190614b06565b60018a01548a5460405163e6a4390560e01b815292935060009283926001600160a01b039081169263e6a439059261130b929091169088906004016152b2565b60206040518083038186803b15801561132357600080fd5b505afa158015611337573d6000803e3d6000fd5b505050506040513d601f19601f8201168201806040525081019061135b9190614b06565b60018c01548c5460405163e6a4390560e01b81529293506000926001600160a01b039283169263e6a43905926113989291169088906004016152b2565b60206040518083038186803b1580156113b057600080fd5b505afa1580156113c4573d6000803e3d6000fd5b505050506040513d601f19601f820116820180604052508101906113e89190614b06565b8c549091506001600160a01b038681169116148061140e57506001600160a01b03821615155b801561143857508b546001600160a01b038581169116148061143857506001600160a01b03811615155b92505050806114595760405162461bcd60e51b81526004016108c8906153a0565b600061146660028661552c565b90506000611474828761567f565b60028d01548d54919250611497916001600160a01b0391821691168088866141c3565b60028d01548d549193506114ba916001600160a01b0391821691168087856141c3565b90506000821180156114cc5750600081115b6115065760405162461bcd60e51b815260206004820152600b60248201526a14ddd85c0819985a5b195960aa1b60448201526064016108c8565b6040516370a0823160e01b81526001600160a01b038e16906370a082319061153290309060040161529e565b60206040518083038186803b15801561154a57600080fd5b505afa15801561155e573d6000803e3d6000fd5b505050506040513d601f19601f820116820180604052508101906115829190615154565b60018d01549098506115a1906001600160a01b038781169116846142af565b60018c01546115bd906001600160a01b038681169116836142af565b60018c015460405162e8e33760e81b81526001600160a01b0387811660048301528681166024830152604482018590526064820184905260006084830181905260a483018190523060c48401524260e484015292839291169063e8e337009061010401606060405180830381600087803b15801561163a57600080fd5b505af115801561164e573d6000803e3d6000fd5b505050506040513d601f19601f8201168201806040525081019061167291906151d6565b50915091508e6001600160a01b03166370a08231306040518263ffffffff1660e01b81526004016116a3919061529e565b60206040518083038186803b1580156116bb57600080fd5b505afa1580156116cf573d6000803e3d6000fd5b505050506040513d601f19601f820116820180604052508101906116f39190615154565b98508382101561171157611711878d61170c858861567f565b61435b565b8281101561172857611728868d61170c848761567f565b6117328a8a61567f565b9a50505050505050505b505050949350505050565b604051637bb258bb60e01b81526001600160a01b03841690637bb258bb9061177590859085906004016152cc565b600060405180830381600087803b15801561178f57600080fd5b505af11580156117a3573d6000803e3d6000fd5b50505050505050565b6000808585815481106117cf57634e487b7160e01b600052603260045260246000fd5b906000526020600020906016020190508381600101819055508281600401819055506117fa86614471565b8654909250600110158061182d57506118156019606461567f565b61181f9083615660565b61182a856063615660565b11155b610ce95760405162461bcd60e51b81526004016108c8906153cd565b6001600682015460ff16600381111561187257634e487b7160e01b600052602160045260246000fd5b14801561187f5750805415155b15611952576002810154600883015482546000929164e8d4a51000916118a59190615660565b6118af919061552c565b6118b9919061567f565b9050801561194c5760078301548111156118d4575060078201545b6007830180548291906000906118eb90849061567f565b9091555050815481908390600090611904908490615514565b9091555050600683018054829190600090611920908490615514565b90915550506008830154825464e8d4a510009161193c91615660565b611946919061552c565b60028301555b50611db7565b6002600682015460ff16600381111561197b57634e487b7160e01b600052602160045260246000fd5b1480156119885750805415155b15611b3b5780546002820154600b8401546000919064e8d4a51000906119ae9085615660565b6119b8919061552c565b6119c2919061567f565b90508015611a5557600a8401548111156119dd5750600a8301545b600a840180548291906000906119f490849061567f565b9091555050825481908490600090611a0d908490615514565b9091555050600984018054829190600090611a29908490615514565b9091555050600b840154835464e8d4a5100091611a4591615660565b611a4f919061552c565b60028401555b6003830154600d8501546000919064e8d4a5100090611a749086615660565b611a7e919061552c565b611a88919061567f565b90508015611b3357600c850154811115611aa35750600c8401545b600c85018054829190600090611aba90849061567f565b90915550506040805160608101825282815260006020808301828152429484019485526005890180546001818101835591855292909320935160039092029093019081559151908201559051600290910155600d850154845464e8d4a5100091611b2391615660565b611b2d919061552c565b60038501555b505050611db7565b6003600682015460ff166003811115611b6457634e487b7160e01b600052602160045260246000fd5b148015611b715750805415155b15611cf2578054600282015460108401546000919064e8d4a5100090611b979085615660565b611ba1919061552c565b611bab919061567f565b90508015611c5657600f840154811115611bc65750600f8301545b600f84018054829190600090611bdd90849061567f565b909155505060408051606081018252828152600060208083018281524294840194855260058801805460018181018355918552929093209351600390920290930190815591519082015590516002909101556010840154835464e8d4a5100091611c4691615660565b611c50919061552c565b60028401555b600383015460128501546000919064e8d4a5100090611c759086615660565b611c7f919061552c565b611c89919061567f565b90508015611b33576011850154811115611ca4575060118401545b601185018054829190600090611cbb90849061567f565b9250508190555080846004016000828254611cd69190615514565b90915550506012850154845464e8d4a5100091611b2391615660565b6000600682015460ff166003811115611d1b57634e487b7160e01b600052602160045260246000fd5b148015611d285750805415155b15611db7576002810154601583015482546000929164e8d4a5100091611d4e9190615660565b611d58919061552c565b611d62919061567f565b90508015611db5576014830154811115611d7d575060148201545b601483018054829190600090611d9490849061567f565b9250508190555080826004016000828254611daf9190615514565b90915550505b505b64e8d4a510008260030154611dcc8484611e34565b611dd69190615660565b611de0919061552c565b60019091015550565b611df6888484848861205c565b600588015415611e2a57611e0d8888888888610e40565b611e188886866136a1565b611e228888611849565b600060058901555b5050505050505050565b80546001600683015460ff166003811115611e5f57634e487b7160e01b600052602160045260246000fd5b148015611e6c5750815415155b15611eb25760028201546008840154835464e8d4a5100091611e8d91615660565b611e97919061552c565b611ea1919061567f565b611eab9082615514565b9050611074565b6002600683015460ff166003811115611edb57634e487b7160e01b600052602160045260246000fd5b148015611ee85750815415155b15611074576002820154600b840154835464e8d4a5100091611f0991615660565b611f13919061552c565b611f1d919061567f565b611f279082615514565b9392505050565b611f36614a3c565b604051806101400160405280866001600160a01b03168152602001858152602001844311611f645784611f66565b435b81526000602080830182905260408084019690965260608084018390528651808801885283815287518089018952848152808401859052818401526080850152865180820188528381528751808901895284815280840185905281840152875180890189528481528084018590528189015260a0850152865190810187528281528651808801885283815280830184905281830152865180880188528381528083018490528188015260c08401528551808701875282815286518088019097528287528682019290925281019490945260e00192909252509392505050565b600081612052858561567f565b610ceb9190615660565b84600201544311156121e05784546040516370a0823160e01b81526000916001600160a01b0316906370a082319061209890309060040161529e565b60206040518083038186803b1580156120b057600080fd5b505afa1580156120c4573d6000803e3d6000fd5b505050506040513d601f19601f820116820180604052508101906120e89190615154565b905080156121d857600061210187600201544386612045565b9050600086886001015487846121179190615660565b6121219190615660565b61212b919061552c565b845460068601546040516340c10f1960e01b81529293506001600160a01b03918216926340c10f199261216492169085906004016152cc565b600060405180830381600087803b15801561217e57600080fd5b505af1158015612192573d6000803e3d6000fd5b5050505060058801819055826121ad8264e8d4a51000615660565b6121b7919061552c565b8860030160008282546121ca9190615514565b909155505043600289015550505b504360028601555b5050505050565b6000826001600160a01b0316846001600160a01b031614612491576040516370a0823160e01b81526000906001600160a01b038516906370a082319061223190309060040161529e565b60206040518083038186803b15801561224957600080fd5b505afa15801561225d573d6000803e3d6000fd5b505050506040513d601f19601f820116820180604052508101906122819190615154565b60405163095ea7b360e01b81529091506001600160a01b0387169063095ea7b3906122b2908a9087906004016152cc565b602060405180830381600087803b1580156122cc57600080fd5b505af11580156122e0573d6000803e3d6000fd5b505050506040513d601f19601f820116820180604052508101906123049190614e04565b50604080516002808252606082018352600092602083019080368337019050509050858160008151811061234857634e487b7160e01b600052603260045260246000fd5b60200260200101906001600160a01b031690816001600160a01b031681525050848160018151811061238a57634e487b7160e01b600052603260045260246000fd5b6001600160a01b039283166020918202929092010152604051635c11d79560e01b815290891690635c11d795906123ce9087906000908690309042906004016154a4565b600060405180830381600087803b1580156123e857600080fd5b505af11580156123fc573d6000803e3d6000fd5b50506040516370a0823160e01b81528492506001600160a01b03881691506370a082319061242e90309060040161529e565b60206040518083038186803b15801561244657600080fd5b505afa15801561245a573d6000803e3d6000fd5b505050506040513d601f19601f8201168201806040525081019061247e9190615154565b612488919061567f565b925050506106e5565b50806106e5565b600483015460009015611f27576124b16005600a615592565b60048501546124c09085615660565b6124ca919061552c565b905060006124d960028361552c565b600384015486549192506124fa916001600160a01b039081169116836145ab565b8254612525906001600160a01b0316612513838561567f565b87546001600160a01b031691906145ab565b509392505050565b82546040516370a0823160e01b815260009182916001600160a01b03909116906370a082319061256190309060040161529e565b60206040518083038186803b15801561257957600080fd5b505afa15801561258d573d6000803e3d6000fd5b505050506040513d601f19601f820116820180604052508101906125b19190615154565b85549091506125cb906001600160a01b03168530866145ca565b84546040516370a0823160e01b81526000916001600160a01b0316906370a08231906125fb90309060040161529e565b60206040518083038186803b15801561261357600080fd5b505afa158015612627573d6000803e3d6000fd5b505050506040513d601f19601f8201168201806040525081019061264b9190615154565b9050612657828261567f565b9695505050505050565b60006001600160a01b0386161580159061267b5750600082115b156106e557826001600160a01b0316866001600160a01b031614156126a15750806106e5565b6000866001600160a01b0316630dfe16816040518163ffffffff1660e01b815260040160206040518083038186803b1580156126dc57600080fd5b505afa1580156126f0573d6000803e3d6000fd5b505050506040513d601f19601f820116820180604052508101906127149190614b06565b90506000876001600160a01b031663d21220a76040518163ffffffff1660e01b815260040160206040518083038186803b15801561275157600080fd5b505afa158015612765573d6000803e3d6000fd5b505050506040513d601f19601f820116820180604052508101906127899190614b06565b9050600080886001600160a01b031663e6a4390588866040518363ffffffff1660e01b81526004016127bc9291906152b2565b60206040518083038186803b1580156127d457600080fd5b505afa1580156127e8573d6000803e3d6000fd5b505050506040513d601f19601f8201168201806040525081019061280c9190614b06565b90506000896001600160a01b031663e6a4390589866040518363ffffffff1660e01b815260040161283e9291906152b2565b60206040518083038186803b15801561285657600080fd5b505afa15801561286a573d6000803e3d6000fd5b505050506040513d601f19601f8201168201806040525081019061288e9190614b06565b9050846001600160a01b0316886001600160a01b031614806128b857506001600160a01b03821615155b80156128e75750836001600160a01b0316886001600160a01b031614806128e757506001600160a01b03811615155b92505050806129085760405162461bcd60e51b81526004016108c8906153a0565b6040516370a0823160e01b81526000906001600160a01b038516906370a082319061293790309060040161529e565b60206040518083038186803b15801561294f57600080fd5b505afa158015612963573d6000803e3d6000fd5b505050506040513d601f19601f820116820180604052508101906129879190615154565b90506000836001600160a01b03166370a08231306040518263ffffffff1660e01b81526004016129b7919061529e565b60206040518083038186803b1580156129cf57600080fd5b505afa1580156129e3573d6000803e3d6000fd5b505050506040513d601f19601f82011682018060405250810190612a079190615154565b604051635d5155ef60e11b81526001600160a01b0387811660048301528681166024830152604482018a905260006064830181905260848301523060a48301524260c4830152919250908b169063baa2abde9060e4016040805180830381600087803b158015612a7657600080fd5b505af1158015612a8a573d6000803e3d6000fd5b505050506040513d601f19601f82011682018060405250810190612aae91906151b3565b5050600082866001600160a01b03166370a08231306040518263ffffffff1660e01b8152600401612adf919061529e565b60206040518083038186803b158015612af757600080fd5b505afa158015612b0b573d6000803e3d6000fd5b505050506040513d601f19601f82011682018060405250810190612b2f9190615154565b612b39919061567f565b9050600082866001600160a01b03166370a08231306040518263ffffffff1660e01b8152600401612b6a919061529e565b60206040518083038186803b158015612b8257600080fd5b505afa158015612b96573d6000803e3d6000fd5b505050506040513d601f19601f82011682018060405250810190612bba9190615154565b612bc4919061567f565b9050600082118015612bd65750600081115b612c1a5760405162461bcd60e51b815260206004820152601560248201527414995b5bdd99531a5c5d591a5d1e4819985a5b1959605a1b60448201526064016108c8565b612c278b8b898d86614602565b612c319089615514565b9750612c408b8b888d85614602565b612c4a9089615514565b9d9c50505050505050505050505050565b6000612c696005600a615592565b6006850154612c789085615660565b612c82919061552c565b90508015610ceb576000612c9760028361552c565b83549091506001600160a01b0387811691161415612cfa5760068301546005860154612cd0916001600160a01b03908116911683611747565b60068301546001860154612cf5916001600160a01b039081169116610328848661567f565b610ce9565b6005850154612d149087906001600160a01b03168361435b565b6001850154610ce99087906001600160a01b031661170c848661567f565b6000805b8254811015612d9057828181548110612d5f57634e487b7160e01b600052603260045260246000fd5b90600052602060002090600302016000015482612d7c9190615514565b915080612d88816156c2565b915050612d36565b50919050565b600080612da460784261552c565b905080831015612e6c57612dcf60405180606001604052806037815260200161574d60379139614625565b60005b8954811015612e385760008a8281548110612dfd57634e487b7160e01b600052603260045260246000fd5b90600052602060002090601602019050612e1a818b8b8b8a61205c565b612e258188886136a1565b5080612e30816156c2565b915050612dd2565b50612e686040518060400160405280600e81526020016d049515151515151515151515151560911b815250614625565b8091505b50979650505050505050565b600688015460009060ff16886003811115612ea357634e487b7160e01b600052602160045260246000fd5b816003811115612ec357634e487b7160e01b600052602160045260246000fd5b14612f3057612ed88b8b8a8a8a8a8a8a611de9565b8954612ee88c8c838b600061335a565b60068b0180548b919060ff19166001836003811115612f1757634e487b7160e01b600052602160045260246000fd5b0217905550612f2a8c8c838b600161335a565b60019250505b509998505050505050505050565b600081612f4d86888688611f2e565b8154600180820184556000938452602093849020835160169093020180546001600160a01b0319166001600160a01b0390931692909217825582840151908201556040808301516002830155606083015160038301556080830151600483015560a0830151600583015560c08301518051600684015584015180516007840155840151600883015560e083015180516009840155808501518051600a850155850151600b8401558101518051600c840155840151600d8301556101008301518051600e840155808501518051600f850155850151601084015501518051601183015583015160128201556101209091015180516013830155820151805160148301559091015160159091015561306282614471565b82549091506001101580613095575061307d6019606461567f565b6130879082615660565b613092876063615660565b11155b6106e55760405162461bcd60e51b81526004016108c8906153cd565b81546040516370a0823160e01b81526000916001600160a01b0316906370a08231906130e190309060040161529e565b60206040518083038186803b1580156130f957600080fd5b505afa15801561310d573d6000803e3d6000fd5b505050506040513d601f19601f820116820180604052508101906131319190615154565b6013840154600e850154600a86015460098701546007880154600689015495965060009561315f9190615514565b6131699190615514565b6131739190615514565b61317d9190615514565b6131879190615514565b905080821461335457808210156131f7576131f2836040518060400160405280601281526020017162616c616e6365203c20636865636b73756d60701b8152508385856131d4919061567f565b6131e39064e8d4a51000615660565b6131ed919061552c565b61466b565b613233565b613233836040518060400160405280601281526020017162616c616e6365203e20636865636b73756d60701b8152508484866131d4919061567f565b61326b604051806040016040528060158152602001746c702042616c616e6163652c20636865636b53756d60581b81525083836146b2565b60408051808201909152601f81526000805160206157b88339815191526020820152600685015460078601546132a29291906146b2565b60408051808201909152601e815260008051602061572d83398151915260208201526009850154600a8601546132d99291906146b2565b613316604051806040016040528060148152602001731c1bdbdb0b93d99993db8b9cdd5b505b5bdd5b9d60621b81525085600e01600001546146f9565b613354604051806040016040528060158152602001741c1bdbdb0b93d99993d9998b9cdd5b505b5bdd5b9d605a1b81525085601301600001546146f9565b50505050565b8061337157835461336c90849061567f565b61337e565b835461337e908490615514565b84556001600685015460ff1660038111156133a957634e487b7160e01b600052602160045260246000fd5b141561344857806133c95760068501546133c490849061567f565b6133d9565b60068501546133d9908490615514565b60068601556008850154845464e8d4a51000916133f591615660565b6133ff919061552c565b60028501556006850154613443576007850154156134435760018201546007860154865461343b926001600160a01b03918216929116906145ab565b600060078601555b613669565b6002600685015460ff16600381111561347157634e487b7160e01b600052602160045260246000fd5b1415613535578061349157600985015461348c90849061567f565b6134a1565b60098501546134a1908490615514565b6009860155600b850154845464e8d4a51000916134bd91615660565b6134c7919061552c565b6002850155600d850154845464e8d4a51000916134e391615660565b6134ed919061552c565b6003850155600985015461344357600a85015415613443576001820154600a8601548654613529926001600160a01b03918216929116906145ab565b6000600a860155613669565b6003600685015460ff16600381111561355e57634e487b7160e01b600052602160045260246000fd5b14156135e4578061357e57600e85015461357990849061567f565b61358e565b600e85015461358e908490615514565b600e8601556010850154845464e8d4a51000916135aa91615660565b6135b4919061552c565b60028501556012850154845464e8d4a51000916135d091615660565b6135da919061552c565b6003850155613669565b6000600685015460ff16600381111561360d57634e487b7160e01b600052602160045260246000fd5b1415613669578061362d57601385015461362890849061567f565b61363d565b601385015461363d908490615514565b60138601556015850154845464e8d4a510009161365991615660565b613663919061552c565b60028501555b64e8d4a51000856003015461367e8787611e34565b6136889190615660565b613692919061552c565b84600101819055505050505050565b82546040516370a0823160e01b8152600091829182916001600160a01b0316906370a08231906136d590309060040161529e565b60206040518083038186803b1580156136ed57600080fd5b505afa158015613701573d6000803e3d6000fd5b505050506040513d601f19601f820116820180604052508101906137259190615154565b905080156137635760058601546007870154600688015483929161374891615514565b6137529190615660565b61375c919061552c565b9250613768565b600092505b6137728383615514565b9150821561387d5760006137886005600a615592565b60048701546137979086615660565b6137a1919061552c565b85546006870154604051632770a7eb60e21b81529293506001600160a01b0391821692639dc29fac926137da92169085906004016152cc565b600060405180830381600087803b1580156137f457600080fd5b505af1158015613808573d6000803e3d6000fd5b505050508084613818919061567f565b8554909450613832906001600160a01b0316878688612c5b565b61383c908561567f565b87546001880154919550600091613863916001600160a01b0390811691899189911661107a565b600689015490915061387a9060078a019083614742565b50505b80156138b9576005860154600a870154600988015483929161389e91615514565b6138a89190615660565b6138b2919061552c565b92506138be565b600092505b6138c88383615514565b915082156139655760006138dd60028561552c565b905060006138eb828661567f565b8654909150613905906001600160a01b0316888489612c5b565b61390f908361567f565b88546001890154919350600091613936916001600160a01b03908116918a9187911661107a565b60098a015490915061394d90600a8b019083614742565b600989015461396190600c8b019084614742565b5050505b8015613991576005860154600e870154829161398091615660565b61398a919061552c565b9250613996565b600092505b6139a08383615514565b915082156139f15760006139b560028561552c565b905060006139c3828661567f565b600e8901549091506139da90600f8a019084614742565b600e8801546139ee9060118a019083614742565b50505b8015613a1d57600586015460138701548291613a0c91615660565b613a16919061552c565b9250613a22565b600092505b613a2c8383615514565b91508215613aeb576000613a426005600a615592565b6004870154613a519086615660565b613a5b919061552c565b85546006870154604051632770a7eb60e21b81529293506001600160a01b0391821692639dc29fac92613a9492169085906004016152cc565b600060405180830381600087803b158015613aae57600080fd5b505af1158015613ac2573d6000803e3d6000fd5b505050508084613ad2919061567f565b6013880154909450613ae990601489019086614742565b505b613b1d866040518060400160405280601081526020016f616674657220636f6c6c65637469766560801b8152506130b1565b8186600501541015610e8e57613b90604051806040016040528060038152602001622d2d2d60e81b815250876005015484613b58919061567f565b6040518060400160405280601a815260200179706f6f6c2e726577617264203c20746f74616c5265776172647360301b8152506147c0565b60408051808201909152601f81526000805160206157b8833981519152602082015260068701546007880154613bc79291906146b2565b60408051808201909152601e815260008051602061572d83398151915260208201526009870154600a880154613bfe9291906146b2565b613c3b604051806040016040528060148152602001731c1bdbdb0b93d99993db8b9cdd5b505b5bdd5b9d60621b81525087600e01600001546146f9565b610e8e604051806040016040528060158152602001741c1bdbdb0b93d99993d9998b9cdd5b505b5bdd5b9d605a1b81525087601301600001546146f9565b83546000908190815b81811015613dac576000888281548110613cac57634e487b7160e01b600052603260045260246000fd5b90600052602060002090601602019050600088600084815260200190815260200160002060008c6001600160a01b03166001600160a01b031681526020019081526020016000209050600081600401549050600088600601541115613d4e576000613d196005600a615592565b60068a0154613d289084615660565b613d32919061552c565b9050613d3e818361567f565b9150613d4a8188615514565b9650505b613d588188615514565b835460018a0154919850600091613d7f916001600160a01b03908116918d9186911661107a565b9050613d8f8484838c600161335a565b505060006004909101555080613da4816156c2565b915050613c82565b508115613e0b576000613dc060028461552c565b60068701546005870154919250613de4916001600160a01b03918216911683611747565b60068601546001860154613e09916001600160a01b039081169116610328848761567f565b505b509550959350505050565b600082613e2557506000611074565b6000613e318385615660565b905082613e3e858361552c565b14611f275760405162461bcd60e51b815260206004820152602160248201527f536166654d6174683a206d756c7469706c69636174696f6e206f766572666c6f6044820152607760f81b60648201526084016108c8565b6000611f2783836040518060400160405280601a815260200179536166654d6174683a206469766973696f6e206279207a65726f60301b815250614807565b801580613f5c5750604051636eb1769f60e11b81526001600160a01b0384169063dd62ed3e90613f0a90309086906004016152b2565b60206040518083038186803b158015613f2257600080fd5b505afa158015613f36573d6000803e3d6000fd5b505050506040513d601f19601f82011682018060405250810190613f5a9190615154565b155b613fc75760405162461bcd60e51b815260206004820152603660248201527f5361666545524332303a20617070726f76652066726f6d206e6f6e2d7a65726f60448201527520746f206e6f6e2d7a65726f20616c6c6f77616e636560501b60648201526084016108c8565b61401d8363095ea7b360e01b8484604051602401613fe69291906152cc565b60408051601f198184030181529190526020810180516001600160e01b03166001600160e01b031990931692909217909152614835565b505050565b60006140436140336005600a615592565b600285015461067b908790613e16565b83549091506001600160a01b03161580159061405f5750600081115b156121e0578254604051634a9fefc760e01b81526000916001600160a01b031690634a9fefc79061409490899060040161529e565b60206040518083038186803b1580156140ac57600080fd5b505afa1580156140c0573d6000803e3d6000fd5b505050506040513d601f19601f820116820180604052508101906140e49190614b06565b90506001600160a01b03811615610e8e5782546040516340c10f1960e01b81526001600160a01b03909116906340c10f199061412690849086906004016152cc565b600060405180830381600087803b15801561414057600080fd5b505af1158015614154573d6000803e3d6000fd5b50508554604051631b82d29760e31b81526001600160a01b03909116925063dc1694b8915061418990849086906004016152cc565b600060405180830381600087803b1580156141a357600080fd5b505af11580156141b7573d6000803e3d6000fd5b50505050505050505050565b6000846001600160a01b0316836001600160a01b031614156141e65750806106e5565b826001600160a01b0316846001600160a01b031614610ce9576040516370a0823160e01b81526000906001600160a01b038516906370a082319061422e90309060040161529e565b60206040518083038186803b15801561424657600080fd5b505afa15801561425a573d6000803e3d6000fd5b505050506040513d601f19601f8201168201806040525081019061427e9190615154565b60405163095ea7b360e01b81529091506001600160a01b0386169063095ea7b3906122b2908a9087906004016152cc565b600081846001600160a01b031663dd62ed3e30866040518363ffffffff1660e01b81526004016142e09291906152b2565b60206040518083038186803b1580156142f857600080fd5b505afa15801561430c573d6000803e3d6000fd5b505050506040513d601f19601f820116820180604052508101906143309190615154565b61433a9190615514565b90506133548463095ea7b360e01b8584604051602401613fe69291906152cc565b600080846001600160a01b031663a9059cbb85856040516024016143809291906152cc565b6040516020818303038152906040529060e01b6020820180516001600160e01b0383818316178352505050506040516143b99190615282565b6000604051808303816000865af19150503d80600081146143f6576040519150601f19603f3d011682016040523d82523d6000602084013e6143fb565b606091505b50915091508180156144255750805115806144255750808060200190518101906144259190614e04565b6121e05760405162461bcd60e51b815260206004820152601f60248201527f5472616e7366657248656c7065723a205452414e534645525f4641494c45440060448201526064016108c8565b80546000908160015b828110156144d1578481815481106144a257634e487b7160e01b600052603260045260246000fd5b906000526020600020906016020160010154826144bf9190615514565b91506144ca816156c2565b905061447a565b506000808215614563576144e76019606461567f565b6144f484620186a0615660565b6144fe919061552c565b9150620186a061450f601984615660565b614519919061552c565b90506145258184615514565b9450808660008154811061454957634e487b7160e01b600052603260045260246000fd5b9060005260206000209060160201600101819055506145a2565b6103e88660008154811061458757634e487b7160e01b600052603260045260246000fd5b9060005260206000209060160201600101819055506103e894505b50505050919050565b61401d8363a9059cbb60e01b8484604051602401613fe69291906152cc565b6040516001600160a01b03808516602483015283166044820152606481018290526133549085906323b872dd60e01b90608401613fe6565b6000846001600160a01b0316846001600160a01b031614156141e65750806106e5565b6146688160405160240161463991906152e5565b60408051601f198184030181529190526020810180516001600160e01b031663104c13eb60e21b179052614907565b50565b61401d838383604051602401614683939291906152f8565b60408051601f198184030181529190526020810180516001600160e01b031663f362ca5960e01b179052614907565b61401d8383836040516024016146ca9392919061537b565b60408051601f198184030181529190526020810180516001600160e01b031663969cdd0360e01b179052614907565b61473e828260405160240161470f92919061532e565b60408051601f198184030181529190526020810180516001600160e01b03166309710a9d60e41b179052614907565b5050565b808360000160008282546147569190615514565b9091555050811561479957816147718264e8d4a51000615660565b61477b919061552c565b83600101600082825461478e9190615514565b9091555061401d9050565b61401d604051806060016040528060348152602001615784603491398285600101546146b2565b61401d8383836040516024016147d893929190615350565b60408051601f198184030181529190526020810180516001600160e01b031663a3f5c73960e01b179052614907565b600081836148285760405162461bcd60e51b81526004016108c891906152e5565b5060006106e5848661552c565b600061488a826040518060400160405280602081526020017f5361666545524332303a206c6f772d6c6576656c2063616c6c206661696c6564815250856001600160a01b03166149289092919063ffffffff16565b80519091501561401d57808060200190518101906148a89190614e04565b61401d5760405162461bcd60e51b815260206004820152602a60248201527f5361666545524332303a204552433230206f7065726174696f6e20646964206e6044820152691bdd081cdd58d8d9595960b21b60648201526084016108c8565b80516a636f6e736f6c652e6c6f67602083016000808483855afa5050505050565b6060610ceb8484600085856001600160a01b0385163b61498a5760405162461bcd60e51b815260206004820152601d60248201527f416464726573733a2063616c6c20746f206e6f6e2d636f6e747261637400000060448201526064016108c8565b600080866001600160a01b031685876040516149a69190615282565b60006040518083038185875af1925050503d80600081146149e3576040519150601f19603f3d011682016040523d82523d6000602084013e6149e8565b606091505b50915091506149f8828286614a03565b979650505050505050565b60608315614a12575081611f27565b825115614a225782518084602001fd5b8160405162461bcd60e51b81526004016108c891906152e5565b60405180610140016040528060006001600160a01b031681526020016000815260200160008152602001600081526020016000815260200160008152602001614a83614aaf565b8152602001614a90614ac9565b8152602001614a9d614ac9565b8152602001614aaa614aaf565b905290565b604051806040016040528060008152602001614aaa614aec565b604051806060016040528060008152602001614ae3614aec565b8152602001614aaa5b604051806040016040528060008152602001600081525090565b600060208284031215614b17578081fd5b8151611f2781615709565b600080600060608486031215614b36578182fd5b8335614b4181615709565b92506020840135614b5181615709565b929592945050506040919091013590565b600080600080600080600080610100898b031215614b7e578384fd5b8835614b8981615709565b9a60208a01359a5060408a013599606081013599506080810135985060a0810135975060c0810135965060e00135945092505050565b600080600080600060a08688031215614bd6578081fd5b8535614be181615709565b97602087013597506040870135966060810135965060800135945092505050565b600080600080600060a08688031215614c19578081fd5b8535614c2481615709565b94506020860135614c3481615709565b93506040860135614c4481615709565b92506060860135614c5481615709565b949793965091946080013592915050565b60008060008060808587031215614c7a578182fd5b8435614c8581615709565b966020860135965060408601359560600135945092505050565b60008060008060808587031215614cb4578182fd5b8435614cbf81615709565b935060208501359250604085013591506060850135614cdd81615709565b939692955090935050565b60008060008060008060008060006101208a8c031215614d06578283fd5b8935614d1181615709565b9b60208b01359b5060408b01359a60608101359a506080810135995060a0810135985060c0810135975060e081013596506101000135945092505050565b60008060008060808587031215614d64578182fd5b5050823594602084013594506040840135936060013592509050565b600080600080600080600060e0888a031215614d9a578081fd5b505085359760208701359750604087013596606081013596506080810135955060a0810135945060c0013592509050565b600060208284031215614ddc578081fd5b5035919050565b60008060408385031215614df5578182fd5b50508035926020909101359150565b600060208284031215614e15578081fd5b8151611f278161571e565b600080600080600060a08688031215614c19578283fd5b600080600060608486031215614e4b578081fd5b833592506020840135614b5181615709565b60008060008060808587031215614e72578182fd5b843593506020850135614e8481615709565b93969395505050506040820135916060013590565b60008060408385031215614eab578182fd5b823591506020830135614ebd81615709565b809150509250929050565b60008060408385031215614eda578182fd5b8235915060208301356001600160401b0380821115614ef7578283fd5b818501915085601f830112614f0a578283fd5b813581811115614f1c57614f1c6156f3565b604051601f8201601f19908116603f01168101908382118183101715614f4457614f446156f3565b81604052828152886020848701011115614f5c578586fd5b82602086016020830137856020848301015280955050505050509250929050565b600080600060608486031215614f91578081fd5b505081359360208301359350604090920135919050565b600080600080600060a08688031215614fbf578283fd5b85359450602086013593506040860135614fd881615709565b94979396509394606081013594506080013592915050565b600080600080600080600080610100898b03121561500c578182fd5b8835975060208901359650604089013561502581615709565b979a96995096976060810135975060808101359660a0820135965060c0820135955060e0909101359350915050565b60008060008060008060008060006101208a8c031215615072578283fd5b8935985060208a0135975060408a01356004811061508e578384fd5b965060608a013561509e81615709565b989b979a50959860808101359760a0820135975060c0820135965060e08201359550610100909101359350915050565b600080600080600060a086880312156150e5578283fd5b85359450602086013593506040860135925060608601359150608086013561510c8161571e565b809150509295509295909350565b600080600080600060a08688031215615131578283fd5b505083359560208501359550604085013594606081013594506080013592509050565b600060208284031215615165578081fd5b5051919050565b600080600080600060a08688031215615183578283fd5b85359450602086013561519581615709565b94979496505050506040830135926060810135926080909101359150565b600080604083850312156151c5578182fd5b505080516020909101519092909150565b6000806000606084860312156151ea578081fd5b8351925060208401519150604084015190509250925092565b6000815180845261521b816020860160208601615696565b601f01601f19169290920160200192915050565b8051825260208082015180518285015290810151604084015261401d565b80518252602080820151805182850152908101516040840152506040810151805160608401526020810151608084015261401d565b60008251615294818460208701615696565b9190910192915050565b6001600160a01b0391909116815260200190565b6001600160a01b0392831681529116602082015260400190565b6001600160a01b03929092168252602082015260400190565b600060208252611f276020830184615203565b60006060825261530b6060830186615203565b828103602084015261531d8186615203565b915050826040830152949350505050565b6000604082526153416040830185615203565b90508260208301529392505050565b6000606082526153636060830186615203565b84602084015282810360408401526126578185615203565b60006060825261538e6060830186615203565b60208301949094525060400152919050565b60208082526013908201527214ddd85c081c185d1a081b9bdd08199bdd5b99606a1b604082015260600190565b602080825260129082015271125b9d985b1a5908185b1b1bd8d41bda5b9d60721b604082015260600190565b81516001600160a01b031681526102c081016020830151602083015260408301516040830152606083015160608301526080830151608083015260a083015160a083015260c083015161544f60c084018261522f565b5060e08301516101206154648185018361524d565b610100850151915061547a6101c085018361524d565b8401519050610e3961026084018261522f565b815181526020808301519082015260408101611074565b600060a082018783526020878185015260a0604085015281875180845260c0860191508289019350845b818110156154f35784516001600160a01b0316835293830193918301916001016154ce565b50506001600160a01b03969096166060850152505050608001529392505050565b60008219821115615527576155276156dd565b500190565b60008261554757634e487b7160e01b81526012600452602481fd5b500490565b80825b600180861161555e5750615589565b818704821115615570576155706156dd565b8086161561557d57918102915b9490941c93800261554f565b94509492505050565b6000611f2760001984846000826155ab57506001611f27565b816155b857506000611f27565b81600181146155ce57600281146155d857615605565b6001915050611f27565b60ff8411156155e9576155e96156dd565b6001841b9150848211156155ff576155ff6156dd565b50611f27565b5060208310610133831016604e8410600b8410161715615638575081810a83811115615633576156336156dd565b611f27565b615645848484600161554c565b808604821115615657576156576156dd565b02949350505050565b600081600019048311821515161561567a5761567a6156dd565b500290565b600082821015615691576156916156dd565b500390565b60005b838110156156b1578181015183820152602001615699565b838111156133545750506000910152565b60006000198214156156d6576156d66156dd565b5060010190565b634e487b7160e01b600052601160045260246000fd5b634e487b7160e01b600052604160045260246000fd5b6001600160a01b038116811461466857600080fd5b801515811461466857600080fdfe706f6f6c2e4f6e4f6e2e73756d416d6f756e742c20436f6d702e62756c6b0000092a2a2a2a2a2a2a2a2a2a2a2a2a20506174726f6c6c696e672e2e2e206576657279203630207365636f6e64732c20666f72207465737409202d2d2d2d2d2d2d2d2d2d2d2d2d2d2d20746f74616c5368617265203d20302c20636f6d706f756e6420647573742c20616363706f6f6c2e4f6e4f66662e73756d416d6f756e742c20436f6d702e62756c6b00a264697066735822122071187fd1b2ba1c02c0da79fbe640e1d71e5d17430d31ff9f7e2c84cf7afbcfdc64736f6c63430008030033",
  "linkReferences": {},
  "deployedLinkReferences": {}
}