{
  "_format": "hh-sol-artifact-1",
  "contractName": "XDAOTaker",
  "sourceName": "contracts/periphery/XDAOTaker.sol",
  "abi": [
    {
      "inputs": [
        {
          "internalType": "address",
          "name": "_WETH",
          "type": "address"
        }
      ],
      "stateMutability": "nonpayable",
      "type": "constructor"
    },
    {
      "anonymous": false,
      "inputs": [
        {
          "indexed": true,
          "internalType": "address",
          "name": "previousOwner",
          "type": "address"
        },
        {
          "indexed": true,
          "internalType": "address",
          "name": "newOwner",
          "type": "address"
        }
      ],
      "name": "OwnershipTransferred",
      "type": "event"
    },
    {
      "anonymous": false,
      "inputs": [
        {
          "indexed": false,
          "internalType": "enum SessionType",
          "name": "_sessionType",
          "type": "uint8"
        },
        {
          "components": [
            {
              "internalType": "uint32",
              "name": "develop",
              "type": "uint32"
            },
            {
              "internalType": "uint32",
              "name": "buyback",
              "type": "uint32"
            },
            {
              "internalType": "uint32",
              "name": "liquidity",
              "type": "uint32"
            },
            {
              "internalType": "uint32",
              "name": "treasury",
              "type": "uint32"
            }
          ],
          "indexed": false,
          "internalType": "struct FeeRates",
          "name": "_feeRates",
          "type": "tuple"
        }
      ],
      "name": "SetFeeRates",
      "type": "event"
    },
    {
      "anonymous": false,
      "inputs": [
        {
          "components": [
            {
              "internalType": "address",
              "name": "develop",
              "type": "address"
            },
            {
              "internalType": "address",
              "name": "buyback",
              "type": "address"
            },
            {
              "internalType": "address",
              "name": "liquidity",
              "type": "address"
            },
            {
              "internalType": "address",
              "name": "treasury",
              "type": "address"
            }
          ],
          "indexed": false,
          "internalType": "struct FeeStores",
          "name": "_feeStores",
          "type": "tuple"
        }
      ],
      "name": "SetFeeStores",
      "type": "event"
    },
    {
      "anonymous": false,
      "inputs": [
        {
          "indexed": false,
          "internalType": "enum NodeType",
          "name": "nodeType",
          "type": "uint8"
        },
        {
          "indexed": false,
          "internalType": "address",
          "name": "node",
          "type": "address"
        },
        {
          "indexed": false,
          "internalType": "address",
          "name": "msgSender",
          "type": "address"
        }
      ],
      "name": "SetNode",
      "type": "event"
    },
    {
      "inputs": [],
      "name": "WETH",
      "outputs": [
        {
          "internalType": "address",
          "name": "",
          "type": "address"
        }
      ],
      "stateMutability": "view",
      "type": "function"
    },
    {
      "inputs": [
        {
          "internalType": "address",
          "name": "",
          "type": "address"
        }
      ],
      "name": "chainlinkFeeds",
      "outputs": [
        {
          "internalType": "uint64",
          "name": "deviation",
          "type": "uint64"
        },
        {
          "internalType": "uint64",
          "name": "heartbeat",
          "type": "uint64"
        },
        {
          "internalType": "uint64",
          "name": "decimal",
          "type": "uint64"
        },
        {
          "internalType": "uint64",
          "name": "gap",
          "type": "uint64"
        },
        {
          "internalType": "address",
          "name": "proxy",
          "type": "address"
        }
      ],
      "stateMutability": "view",
      "type": "function"
    },
    {
      "inputs": [
        {
          "internalType": "enum SessionType",
          "name": "",
          "type": "uint8"
        }
      ],
      "name": "feeRates",
      "outputs": [
        {
          "internalType": "uint32",
          "name": "develop",
          "type": "uint32"
        },
        {
          "internalType": "uint32",
          "name": "buyback",
          "type": "uint32"
        },
        {
          "internalType": "uint32",
          "name": "liquidity",
          "type": "uint32"
        },
        {
          "internalType": "uint32",
          "name": "treasury",
          "type": "uint32"
        }
      ],
      "stateMutability": "view",
      "type": "function"
    },
    {
      "inputs": [],
      "name": "feeStores",
      "outputs": [
        {
          "internalType": "address",
          "name": "develop",
          "type": "address"
        },
        {
          "internalType": "address",
          "name": "buyback",
          "type": "address"
        },
        {
          "internalType": "address",
          "name": "liquidity",
          "type": "address"
        },
        {
          "internalType": "address",
          "name": "treasury",
          "type": "address"
        }
      ],
      "stateMutability": "view",
      "type": "function"
    },
    {
      "inputs": [
        {
          "internalType": "uint256",
          "name": "amountOut",
          "type": "uint256"
        },
        {
          "internalType": "uint256",
          "name": "reserveIn",
          "type": "uint256"
        },
        {
          "internalType": "uint256",
          "name": "reserveOut",
          "type": "uint256"
        }
      ],
      "name": "getAmountIn",
      "outputs": [
        {
          "internalType": "uint256",
          "name": "amountIn",
          "type": "uint256"
        }
      ],
      "stateMutability": "pure",
      "type": "function"
    },
    {
      "inputs": [
        {
          "internalType": "uint256",
          "name": "amountIn",
          "type": "uint256"
        },
        {
          "internalType": "uint256",
          "name": "reserveIn",
          "type": "uint256"
        },
        {
          "internalType": "uint256",
          "name": "reserveOut",
          "type": "uint256"
        }
      ],
      "name": "getAmountOut",
      "outputs": [
        {
          "internalType": "uint256",
          "name": "amountOut",
          "type": "uint256"
        }
      ],
      "stateMutability": "pure",
      "type": "function"
    },
    {
      "inputs": [
        {
          "internalType": "uint256",
          "name": "amountOut",
          "type": "uint256"
        },
        {
          "internalType": "address[]",
          "name": "path",
          "type": "address[]"
        }
      ],
      "name": "getAmountsIn",
      "outputs": [
        {
          "internalType": "uint256[]",
          "name": "amounts",
          "type": "uint256[]"
        }
      ],
      "stateMutability": "view",
      "type": "function"
    },
    {
      "inputs": [
        {
          "internalType": "uint256",
          "name": "amountIn",
          "type": "uint256"
        },
        {
          "internalType": "address[]",
          "name": "path",
          "type": "address[]"
        }
      ],
      "name": "getAmountsOut",
      "outputs": [
        {
          "internalType": "uint256[]",
          "name": "amounts",
          "type": "uint256[]"
        }
      ],
      "stateMutability": "view",
      "type": "function"
    },
    {
      "inputs": [],
      "name": "getOwner",
      "outputs": [
        {
          "internalType": "address",
          "name": "",
          "type": "address"
        }
      ],
      "stateMutability": "view",
      "type": "function"
    },
    {
      "inputs": [
        {
          "internalType": "address",
          "name": "_token",
          "type": "address"
        }
      ],
      "name": "getReserveOnETHPair",
      "outputs": [
        {
          "internalType": "uint256",
          "name": "reserve",
          "type": "uint256"
        }
      ],
      "stateMutability": "view",
      "type": "function"
    },
    {
      "inputs": [
        {
          "internalType": "address",
          "name": "pair",
          "type": "address"
        },
        {
          "internalType": "address",
          "name": "token0",
          "type": "address"
        },
        {
          "internalType": "address",
          "name": "token1",
          "type": "address"
        },
        {
          "internalType": "address",
          "name": "caller",
          "type": "address"
        }
      ],
      "name": "informOfPair",
      "outputs": [],
      "stateMutability": "nonpayable",
      "type": "function"
    },
    {
      "inputs": [],
      "name": "nextNode",
      "outputs": [
        {
          "internalType": "address",
          "name": "",
          "type": "address"
        }
      ],
      "stateMutability": "view",
      "type": "function"
    },
    {
      "inputs": [],
      "name": "owner",
      "outputs": [
        {
          "internalType": "address",
          "name": "",
          "type": "address"
        }
      ],
      "stateMutability": "view",
      "type": "function"
    },
    {
      "inputs": [],
      "name": "prevNode",
      "outputs": [
        {
          "internalType": "address",
          "name": "",
          "type": "address"
        }
      ],
      "stateMutability": "view",
      "type": "function"
    },
    {
      "inputs": [
        {
          "internalType": "uint256",
          "name": "amountA",
          "type": "uint256"
        },
        {
          "internalType": "uint256",
          "name": "reserveA",
          "type": "uint256"
        },
        {
          "internalType": "uint256",
          "name": "reserveB",
          "type": "uint256"
        }
      ],
      "name": "quote",
      "outputs": [
        {
          "internalType": "uint256",
          "name": "amountB",
          "type": "uint256"
        }
      ],
      "stateMutability": "pure",
      "type": "function"
    },
    {
      "inputs": [],
      "name": "renounceOwnership",
      "outputs": [],
      "stateMutability": "nonpayable",
      "type": "function"
    },
    {
      "inputs": [],
      "name": "sessionPriceChangeLimit",
      "outputs": [
        {
          "internalType": "uint256",
          "name": "",
          "type": "uint256"
        }
      ],
      "stateMutability": "view",
      "type": "function"
    },
    {
      "inputs": [
        {
          "internalType": "enum SessionType",
          "name": "_sessionType",
          "type": "uint8"
        },
        {
          "components": [
            {
              "internalType": "uint32",
              "name": "develop",
              "type": "uint32"
            },
            {
              "internalType": "uint32",
              "name": "buyback",
              "type": "uint32"
            },
            {
              "internalType": "uint32",
              "name": "liquidity",
              "type": "uint32"
            },
            {
              "internalType": "uint32",
              "name": "treasury",
              "type": "uint32"
            }
          ],
          "internalType": "struct FeeRates",
          "name": "_feeRates",
          "type": "tuple"
        },
        {
          "internalType": "address",
          "name": "caller",
          "type": "address"
        }
      ],
      "name": "setFeeRates",
      "outputs": [],
      "stateMutability": "nonpayable",
      "type": "function"
    },
    {
      "inputs": [
        {
          "components": [
            {
              "internalType": "address",
              "name": "develop",
              "type": "address"
            },
            {
              "internalType": "address",
              "name": "buyback",
              "type": "address"
            },
            {
              "internalType": "address",
              "name": "liquidity",
              "type": "address"
            },
            {
              "internalType": "address",
              "name": "treasury",
              "type": "address"
            }
          ],
          "internalType": "struct FeeStores",
          "name": "_feeStores",
          "type": "tuple"
        },
        {
          "internalType": "address",
          "name": "caller",
          "type": "address"
        }
      ],
      "name": "setFeeStores",
      "outputs": [],
      "stateMutability": "nonpayable",
      "type": "function"
    },
    {
      "inputs": [
        {
          "internalType": "enum NodeType",
          "name": "nodeType",
          "type": "uint8"
        },
        {
          "internalType": "address",
          "name": "node",
          "type": "address"
        },
        {
          "internalType": "address",
          "name": "caller",
          "type": "address"
        }
      ],
      "name": "setNode",
      "outputs": [],
      "stateMutability": "nonpayable",
      "type": "function"
    },
    {
      "inputs": [
        {
          "internalType": "uint256",
          "name": "newLimit",
          "type": "uint256"
        }
      ],
      "name": "setPriceChangeLimit",
      "outputs": [],
      "stateMutability": "nonpayable",
      "type": "function"
    },
    {
      "inputs": [
        {
          "internalType": "uint256",
          "name": "amountOut",
          "type": "uint256"
        },
        {
          "internalType": "address[]",
          "name": "path",
          "type": "address[]"
        },
        {
          "internalType": "address",
          "name": "to",
          "type": "address"
        },
        {
          "internalType": "uint256",
          "name": "deadline",
          "type": "uint256"
        }
      ],
      "name": "swapETHForExactTokens",
      "outputs": [
        {
          "internalType": "uint256[]",
          "name": "amounts",
          "type": "uint256[]"
        }
      ],
      "stateMutability": "payable",
      "type": "function"
    },
    {
      "inputs": [
        {
          "internalType": "uint256",
          "name": "amountOutMin",
          "type": "uint256"
        },
        {
          "internalType": "address[]",
          "name": "path",
          "type": "address[]"
        },
        {
          "internalType": "address",
          "name": "to",
          "type": "address"
        },
        {
          "internalType": "uint256",
          "name": "deadline",
          "type": "uint256"
        }
      ],
      "name": "swapExactETHForTokens",
      "outputs": [
        {
          "internalType": "uint256[]",
          "name": "amounts",
          "type": "uint256[]"
        }
      ],
      "stateMutability": "payable",
      "type": "function"
    },
    {
      "inputs": [
        {
          "internalType": "uint256",
          "name": "amountOutMin",
          "type": "uint256"
        },
        {
          "internalType": "address[]",
          "name": "path",
          "type": "address[]"
        },
        {
          "internalType": "address",
          "name": "to",
          "type": "address"
        },
        {
          "internalType": "uint256",
          "name": "deadline",
          "type": "uint256"
        }
      ],
      "name": "swapExactETHForTokensSupportingFeeOnTransferTokens",
      "outputs": [],
      "stateMutability": "payable",
      "type": "function"
    },
    {
      "inputs": [
        {
          "internalType": "uint256",
          "name": "amountIn",
          "type": "uint256"
        },
        {
          "internalType": "uint256",
          "name": "amountOutMin",
          "type": "uint256"
        },
        {
          "internalType": "address[]",
          "name": "path",
          "type": "address[]"
        },
        {
          "internalType": "address",
          "name": "to",
          "type": "address"
        },
        {
          "internalType": "uint256",
          "name": "deadline",
          "type": "uint256"
        }
      ],
      "name": "swapExactTokensForETH",
      "outputs": [
        {
          "internalType": "uint256[]",
          "name": "amounts",
          "type": "uint256[]"
        }
      ],
      "stateMutability": "nonpayable",
      "type": "function"
    },
    {
      "inputs": [
        {
          "internalType": "uint256",
          "name": "amountIn",
          "type": "uint256"
        },
        {
          "internalType": "uint256",
          "name": "amountOutMin",
          "type": "uint256"
        },
        {
          "internalType": "address[]",
          "name": "path",
          "type": "address[]"
        },
        {
          "internalType": "address",
          "name": "to",
          "type": "address"
        },
        {
          "internalType": "uint256",
          "name": "deadline",
          "type": "uint256"
        }
      ],
      "name": "swapExactTokensForETHSupportingFeeOnTransferTokens",
      "outputs": [],
      "stateMutability": "nonpayable",
      "type": "function"
    },
    {
      "inputs": [
        {
          "internalType": "uint256",
          "name": "amountIn",
          "type": "uint256"
        },
        {
          "internalType": "uint256",
          "name": "amountOutMin",
          "type": "uint256"
        },
        {
          "internalType": "address[]",
          "name": "path",
          "type": "address[]"
        },
        {
          "internalType": "address",
          "name": "to",
          "type": "address"
        },
        {
          "internalType": "uint256",
          "name": "deadline",
          "type": "uint256"
        }
      ],
      "name": "swapExactTokensForTokens",
      "outputs": [
        {
          "internalType": "uint256[]",
          "name": "amounts",
          "type": "uint256[]"
        }
      ],
      "stateMutability": "nonpayable",
      "type": "function"
    },
    {
      "inputs": [
        {
          "internalType": "uint256",
          "name": "amountIn",
          "type": "uint256"
        },
        {
          "internalType": "uint256",
          "name": "amountOutMin",
          "type": "uint256"
        },
        {
          "internalType": "address[]",
          "name": "path",
          "type": "address[]"
        },
        {
          "internalType": "address",
          "name": "to",
          "type": "address"
        },
        {
          "internalType": "uint256",
          "name": "deadline",
          "type": "uint256"
        }
      ],
      "name": "swapExactTokensForTokensSupportingFeeOnTransferTokens",
      "outputs": [],
      "stateMutability": "nonpayable",
      "type": "function"
    },
    {
      "inputs": [
        {
          "internalType": "uint256",
          "name": "amountOut",
          "type": "uint256"
        },
        {
          "internalType": "uint256",
          "name": "amountInMax",
          "type": "uint256"
        },
        {
          "internalType": "address[]",
          "name": "path",
          "type": "address[]"
        },
        {
          "internalType": "address",
          "name": "to",
          "type": "address"
        },
        {
          "internalType": "uint256",
          "name": "deadline",
          "type": "uint256"
        }
      ],
      "name": "swapTokensForExactETH",
      "outputs": [
        {
          "internalType": "uint256[]",
          "name": "amounts",
          "type": "uint256[]"
        }
      ],
      "stateMutability": "nonpayable",
      "type": "function"
    },
    {
      "inputs": [
        {
          "internalType": "uint256",
          "name": "amountOut",
          "type": "uint256"
        },
        {
          "internalType": "uint256",
          "name": "amountInMax",
          "type": "uint256"
        },
        {
          "internalType": "address[]",
          "name": "path",
          "type": "address[]"
        },
        {
          "internalType": "address",
          "name": "to",
          "type": "address"
        },
        {
          "internalType": "uint256",
          "name": "deadline",
          "type": "uint256"
        }
      ],
      "name": "swapTokensForExactTokens",
      "outputs": [
        {
          "internalType": "uint256[]",
          "name": "amounts",
          "type": "uint256[]"
        }
      ],
      "stateMutability": "nonpayable",
      "type": "function"
    },
    {
      "inputs": [
        {
          "internalType": "address",
          "name": "newOwner",
          "type": "address"
        }
      ],
      "name": "transferOwnership",
      "outputs": [],
      "stateMutability": "nonpayable",
      "type": "function"
    },
    {
      "inputs": [
        {
          "internalType": "address",
          "name": "_prevNode",
          "type": "address"
        },
        {
          "internalType": "address",
          "name": "_nextNode",
          "type": "address"
        }
      ],
      "name": "wire",
      "outputs": [],
      "stateMutability": "nonpayable",
      "type": "function"
    },
    {
      "inputs": [
        {
          "internalType": "uint256",
          "name": "",
          "type": "uint256"
        }
      ],
      "name": "zValuePerRuleOutPercent",
      "outputs": [
        {
          "internalType": "int32",
          "name": "",
          "type": "int32"
        }
      ],
      "stateMutability": "view",
      "type": "function"
    },
    {
      "stateMutability": "payable",
      "type": "receive"
    }
  ],
  "bytecode": "0x6113886011556101e06040526204481860a09081526203ed7860c0526203b4d460e05262038aa461010052620369d46101205262034cec61014052620334b46101605262031ed46101805262030b4c6101a0526202f8f06101c0526200006a90601290600a62006857565b5060056014908155604080518082019091528181527f5844414f54616b65723a20466f7262696464656e0000000000000000000000006020909101908152620000b791601a919062006910565b506040805180820190915260178082527f5844414f54616b65723a20496e76616c696420706174680000000000000000006020909201918252620000fe91601b9162006910565b506040518060600160405280602581526020016200c76c6025913980516200012f91601c9160209091019062006910565b506040805180820190915260208082527f5844414f54616b65723a20496e73756666696369656e74204120616d6f756e749181019182526200017491601d9162006910565b506040805180820190915260208082527f5844414f54616b65723a20496e73756666696369656e74204220616d6f756e74918101918252620001b991601e9162006910565b506040518060600160405280602181526020016200c74b602191398051620001ea91601f9160209091019062006910565b506040805180820190915260128082527116111053d5185ad95c8e88115e1c1a5c995960721b602092830190815262000224929162006910565b503480156200023257600080fd5b506040516200c7913803806200c7918339810160408190526200025591620069a4565b620002603362006805565b6001600160601b0319606082901b16608052620067fe6040518060a0016040528060146001600160401b03168152602001600a6001600160401b0316815260200160086001600160401b0316815260200160006001600160401b0316815260200173a8357bf572460fc40f4b0acacbb2a6a61c89f4756001600160a01b03168152506013600073fb6115445bff7b52feb98650c87f44907e58f8026001600160a01b03166001600160a01b0316815260200190815260200160002060008201518160000160006101000a8154816001600160401b0302191690836001600160401b0316021790555060208201518160000160086101000a8154816001600160401b0302191690836001600160401b0316021790555060408201518160000160106101000a8154816001600160401b0302191690836001600160401b0316021790555060608201518160000160186101000a8154816001600160401b0302191690836001600160401b0316021790555060808201518160010160006101000a8154816001600160a01b0302191690836001600160a01b031602179055509050506040518060a0016040528060146001600160401b03168152602001600a6001600160401b0316815260200160086001600160401b0316815260200160006001600160401b0316815260200173a767f745331d267c7751297d982b050c939856276001600160a01b031681525060136000733ee2200efb3400fabb9aacf31297cbdd1d435d476001600160a01b03166001600160a01b0316815260200190815260200160002060008201518160000160006101000a8154816001600160401b0302191690836001600160401b0316021790555060208201518160000160086101000a8154816001600160401b0302191690836001600160401b0316021790555060408201518160000160106101000a8154816001600160401b0302191690836001600160401b0316021790555060608201518160000160186101000a8154816001600160401b0302191690836001600160401b0316021790555060808201518160010160006101000a8154816001600160a01b0302191690836001600160a01b031602179055509050506040518060a0016040528060326001600160401b031681526020016105a06001600160401b0316815260200160086001600160401b0316815260200160006001600160401b0316815260200173e0073b60833249ffd1bb2af809112c2fbf221df66001600160a01b031681525060136000738f0528ce5ef7b51152a59745befdd91d97091d2f6001600160a01b03166001600160a01b0316815260200190815260200160002060008201518160000160006101000a8154816001600160401b0302191690836001600160401b0316021790555060208201518160000160086101000a8154816001600160401b0302191690836001600160401b0316021790555060408201518160000160106101000a8154816001600160401b0302191690836001600160401b0316021790555060608201518160000160186101000a8154816001600160401b0302191690836001600160401b0316021790555060808201518160010160006101000a8154816001600160a01b0302191690836001600160a01b031602179055509050506040518060a0016040528060326001600160401b031681526020016105a06001600160401b0316815260200160086001600160401b0316815260200160006001600160401b031681526020017331e0110f8c1376a699c8e3e65b5110e0525a811d6001600160a01b031681525060136000736f769e65c14ebd1f68817f5f1dcdb61cfa2d6f7e6001600160a01b03166001600160a01b0316815260200190815260200160002060008201518160000160006101000a8154816001600160401b0302191690836001600160401b0316021790555060208201518160000160086101000a8154816001600160401b0302191690836001600160401b0316021790555060408201518160000160106101000a8154816001600160401b0302191690836001600160401b0316021790555060608201518160000160186101000a8154816001600160401b0302191690836001600160401b0316021790555060808201518160010160006101000a8154816001600160a01b0302191690836001600160a01b031602179055509050506040518060a0016040528060326001600160401b031681526020016105a06001600160401b0316815260200160086001600160401b0316815260200160006001600160401b0316815260200173b056b7c804297279a9a673289264c17e6dc6055d6001600160a01b031681525060136000730eb3a705fc54725037cc9e008bdede697f62f3356001600160a01b03166001600160a01b0316815260200190815260200160002060008201518160000160006101000a8154816001600160401b0302191690836001600160401b0316021790555060208201518160000160086101000a8154816001600160401b0302191690836001600160401b0316021790555060408201518160000160106101000a8154816001600160401b0302191690836001600160401b0316021790555060608201518160000160186101000a8154816001600160401b0302191690836001600160401b0316021790555060808201518160010160006101000a8154816001600160a01b0302191690836001600160a01b031602179055509050506040518060a0016040528060326001600160401b031681526020016105a06001600160401b0316815260200160086001600160401b0316815260200160006001600160401b031681526020017388e71e6520e5ac75f5338f5f0c9ded9d4f692cda6001600160a01b03168152506013600073a184088a740c695e156f91f5cc086a06bb78b8276001600160a01b03166001600160a01b0316815260200190815260200160002060008201518160000160006101000a8154816001600160401b0302191690836001600160401b0316021790555060208201518160000160086101000a8154816001600160401b0302191690836001600160401b0316021790555060408201518160000160106101000a8154816001600160401b0302191690836001600160401b0316021790555060608201518160000160186101000a8154816001600160401b0302191690836001600160401b0316021790555060808201518160010160006101000a8154816001600160a01b0302191690836001600160a01b031602179055509050506040518060a0016040528060326001600160401b031681526020016105a06001600160401b0316815260200160086001600160401b0316815260200160006001600160401b03168152602001735974855ce31ee8e1fff2e76591cbf83d7110f1516001600160a01b031681525060136000731ce0c2827e2ef14d5c4f29a091d735a2047940416001600160a01b03166001600160a01b0316815260200190815260200160002060008201518160000160006101000a8154816001600160401b0302191690836001600160401b0316021790555060208201518160000160086101000a8154816001600160401b0302191690836001600160401b0316021790555060408201518160000160106101000a8154816001600160401b0302191690836001600160401b0316021790555060608201518160000160186101000a8154816001600160401b0302191690836001600160401b0316021790555060808201518160010160006101000a8154816001600160a01b0302191690836001600160a01b031602179055509050506040518060a0016040528060326001600160401b031681526020016105a06001600160401b0316815260200160086001600160401b0316815260200160006001600160401b03168152602001737b49524ee5740c99435f52d731dfc94082fe61ab6001600160a01b03168152506013600073715d400f88c167884bbcc41c5fea407ed4d2f8a06001600160a01b03166001600160a01b0316815260200190815260200160002060008201518160000160006101000a8154816001600160401b0302191690836001600160401b0316021790555060208201518160000160086101000a8154816001600160401b0302191690836001600160401b0316021790555060408201518160000160106101000a8154816001600160401b0302191690836001600160401b0316021790555060608201518160000160186101000a8154816001600160401b0302191690836001600160401b0316021790555060808201518160010160006101000a8154816001600160a01b0302191690836001600160a01b031602179055509050506040518060a0016040528060326001600160401b031681526020016105a06001600160401b0316815260200160086001600160401b0316815260200160006001600160401b0316815260200173c78b99ae87ff43535b0c782128db3cb49c74a4d36001600160a01b03168152506013600073ad6caeb32cd2c308980a548bd0bc5aa4306c6c186001600160a01b03166001600160a01b0316815260200190815260200160002060008201518160000160006101000a8154816001600160401b0302191690836001600160401b0316021790555060208201518160000160086101000a8154816001600160401b0302191690836001600160401b0316021790555060408201518160000160106101000a8154816001600160401b0302191690836001600160401b0316021790555060608201518160000160186101000a8154816001600160401b0302191690836001600160401b0316021790555060808201518160010160006101000a8154816001600160a01b0302191690836001600160a01b031602179055509050506040518060a00160405280601e6001600160401b031681526020016105a06001600160401b0316815260200160086001600160401b0316815260200160006001600160401b031681526020017343d80f616daf0b0b42a928eed32147dc59027d416001600160a01b031681525060136000738ff795a6f4d97e7887c79bea79aba5cc76444adf6001600160a01b03166001600160a01b0316815260200190815260200160002060008201518160000160006101000a8154816001600160401b0302191690836001600160401b0316021790555060208201518160000160086101000a8154816001600160401b0302191690836001600160401b0316021790555060408201518160000160106101000a8154816001600160401b0302191690836001600160401b0316021790555060608201518160000160186101000a8154816001600160401b0302191690836001600160401b0316021790555060808201518160010160006101000a8154816001600160a01b0302191690836001600160a01b031602179055509050506040518060a00160405280601e6001600160401b031681526020016105a06001600160401b0316815260200160086001600160401b0316815260200160006001600160401b03168152602001732a3796273d47c4ed363b361d3aefb7f7e2a137826001600160a01b03168152506013600073250632378e573c6be1ac2f97fcdf00515d0aa91b6001600160a01b03166001600160a01b0316815260200190815260200160002060008201518160000160006101000a8154816001600160401b0302191690836001600160401b0316021790555060208201518160000160086101000a8154816001600160401b0302191690836001600160401b0316021790555060408201518160000160106101000a8154816001600160401b0302191690836001600160401b0316021790555060608201518160000160186101000a8154816001600160401b0302191690836001600160401b0316021790555060808201518160010160006101000a8154816001600160a01b0302191690836001600160a01b031602179055509050506040518060a0016040528060326001600160401b031681526020016105a06001600160401b0316815260200160086001600160401b0316815260200160006001600160401b0316815260200173ab827b69dacd586a37e80a7d552a4395d576e6456001600160a01b03168152506013600073ca3f508b8e4dd382ee878a314789373d80a5190a6001600160a01b03166001600160a01b0316815260200190815260200160002060008201518160000160006101000a8154816001600160401b0302191690836001600160401b0316021790555060208201518160000160086101000a8154816001600160401b0302191690836001600160401b0316021790555060408201518160000160106101000a8154816001600160401b0302191690836001600160401b0316021790555060608201518160000160186101000a8154816001600160401b0302191690836001600160401b0316021790555060808201518160010160006101000a8154816001600160a01b0302191690836001600160a01b031602179055509050506040518060a0016040528060646001600160401b0316815260200160016001600160401b0316815260200160086001600160401b0316815260200160006001600160401b03168152602001730567f2323251f0aab15c8dfb1967e4e8a7d42aee6001600160a01b03168152506013600073bb4cdb9cbd36b01bd1cbaebf2de08d9173bc095c6001600160a01b03166001600160a01b0316815260200190815260200160002060008201518160000160006101000a8154816001600160401b0302191690836001600160401b0316021790555060208201518160000160086101000a8154816001600160401b0302191690836001600160401b0316021790555060408201518160000160106101000a8154816001600160401b0302191690836001600160401b0316021790555060608201518160000160186101000a8154816001600160401b0302191690836001600160401b0316021790555060808201518160010160006101000a8154816001600160a01b0302191690836001600160a01b031602179055509050506040518060a0016040528060326001600160401b031681526020016105a06001600160401b0316815260200160086001600160401b0316815260200160006001600160401b03168152602001735289a08b6d5d2f8fad4cc169c65177f68c0f0a996001600160a01b03168152506013600073d045d776d894ec6e8b685dbef196527ea8720bab6001600160a01b03166001600160a01b0316815260200190815260200160002060008201518160000160006101000a8154816001600160401b0302191690836001600160401b0316021790555060208201518160000160086101000a8154816001600160401b0302191690836001600160401b0316021790555060408201518160000160106101000a8154816001600160401b0302191690836001600160401b0316021790555060608201518160000160186101000a8154816001600160401b0302191690836001600160401b0316021790555060808201518160010160006101000a8154816001600160a01b0302191690836001600160a01b031602179055509050506040518060a00160405280601e6001600160401b031681526020016105a06001600160401b0316815260200160086001600160401b0316815260200160006001600160401b03168152602001735cb1cb3ea5fb46de1ce1d0f3badb3212e8d8ef486001600160a01b0316815250601360007312c87331f086c3c926248f964f8702c0842fd77f6001600160a01b03166001600160a01b0316815260200190815260200160002060008201518160000160006101000a8154816001600160401b0302191690836001600160401b0316021790555060208201518160000160086101000a8154816001600160401b0302191690836001600160401b0316021790555060408201518160000160106101000a8154816001600160401b0302191690836001600160401b0316021790555060608201518160000160186101000a8154816001600160401b0302191690836001600160401b0316021790555060808201518160010160006101000a8154816001600160a01b0302191690836001600160a01b031602179055509050506040518060a00160405280600a6001600160401b0316815260200160016001600160401b0316815260200160086001600160401b0316815260200160006001600160401b0316815260200173264990fbd0a4796a3e3d8e37c4d5f87a3aca5ebf6001600160a01b031681525060136000737130d2a12b9bcbfae4f2634d864a1ee1ce3ead9c6001600160a01b03166001600160a01b0316815260200190815260200160002060008201518160000160006101000a8154816001600160401b0302191690836001600160401b0316021790555060208201518160000160086101000a8154816001600160401b0302191690836001600160401b0316021790555060408201518160000160106101000a8154816001600160401b0302191690836001600160401b0316021790555060608201518160000160186101000a8154816001600160401b0302191690836001600160401b0316021790555060808201518160010160006101000a8154816001600160a01b0302191690836001600160a01b031602179055509050506040518060a0016040528060326001600160401b031681526020016105a06001600160401b0316815260200160086001600160401b0316815260200160006001600160401b0316815260200173cbb98864ef56e9042e7d2efef76141f15731b82f6001600160a01b03168152506013600073e9e7cea3dedca5984780bafc599bd69add087d566001600160a01b03166001600160a01b0316815260200190815260200160002060008201518160000160006101000a8154816001600160401b0302191690836001600160401b0316021790555060208201518160000160086101000a8154816001600160401b0302191690836001600160401b0316021790555060408201518160000160106101000a8154816001600160401b0302191690836001600160401b0316021790555060608201518160000160186101000a8154816001600160401b0302191690836001600160401b0316021790555060808201518160010160006101000a8154816001600160a01b0302191690836001600160a01b031602179055509050506040518060a0016040528060326001600160401b031681526020016105a06001600160401b0316815260200160086001600160401b0316815260200160006001600160401b0316815260200173889158e39628c0397dc54b84f6b1cbe0aaeb7ffc6001600160a01b03168152506013600073aec945e04baf28b135fa7c640f624f8d90f1c3a66001600160a01b03166001600160a01b0316815260200190815260200160002060008201518160000160006101000a8154816001600160401b0302191690836001600160401b0316021790555060208201518160000160086101000a8154816001600160401b0302191690836001600160401b0316021790555060408201518160000160106101000a8154816001600160401b0302191690836001600160401b0316021790555060608201518160000160186101000a8154816001600160401b0302191690836001600160401b0316021790555060808201518160010160006101000a8154816001600160a01b0302191690836001600160a01b031602179055509050506040518060a0016040528060146001600160401b0316815260200160016001600160401b0316815260200160086001600160401b0316815260200160006001600160401b0316815260200173b6064ed41d4f67e353768aa239ca86f4f73665a16001600160a01b031681525060136000730e09fabb73bd3ade0a17ecc321fd13a19e81ce826001600160a01b03166001600160a01b0316815260200190815260200160002060008201518160000160006101000a8154816001600160401b0302191690836001600160401b0316021790555060208201518160000160086101000a8154816001600160401b0302191690836001600160401b0316021790555060408201518160000160106101000a8154816001600160401b0302191690836001600160401b0316021790555060608201518160000160186101000a8154816001600160401b0302191690836001600160401b0316021790555060808201518160010160006101000a8154816001600160a01b0302191690836001600160a01b031602179055509050506040518060a0016040528060326001600160401b031681526020016105a06001600160401b0316815260200160086001600160401b0316815260200160006001600160401b03168152602001731f771b2b1f3c3db6c7a1d5f38961a49cecd116da6001600160a01b03168152506013600073f9cec8d50f6c8ad3fb6dccec577e05aa32b224fe6001600160a01b03166001600160a01b0316815260200190815260200160002060008201518160000160006101000a8154816001600160401b0302191690836001600160401b0316021790555060208201518160000160086101000a8154816001600160401b0302191690836001600160401b0316021790555060408201518160000160106101000a8154816001600160401b0302191690836001600160401b0316021790555060608201518160000160186101000a8154816001600160401b0302191690836001600160401b0316021790555060808201518160010160006101000a8154816001600160a01b0302191690836001600160a01b031602179055509050506040518060a0016040528060326001600160401b031681526020016105a06001600160401b0316815260200160086001600160401b0316815260200160006001600160401b03168152602001730db8945f9aef5651fa5bd52314c5aae78dfde5406001600160a01b0316815250601360007352ce071bd9b1c4b00a0b92d298c512478cad67e86001600160a01b03166001600160a01b0316815260200190815260200160002060008201518160000160006101000a8154816001600160401b0302191690836001600160401b0316021790555060208201518160000160086101000a8154816001600160401b0302191690836001600160401b0316021790555060408201518160000160106101000a8154816001600160401b0302191690836001600160401b0316021790555060608201518160000160186101000a8154816001600160401b0302191690836001600160401b0316021790555060808201518160010160006101000a8154816001600160a01b0302191690836001600160a01b031602179055509050506040518060a0016040528060326001600160401b031681526020016105a06001600160401b0316815260200160086001600160401b0316815260200160006001600160401b0316815260200173a12fc27a873cf114e6d8bbaf8bd9b8ac56110b396001600160a01b03168152506013600073d4cb328a82bdf5f03eb737f37fa6b370aef3e8886001600160a01b03166001600160a01b0316815260200190815260200160002060008201518160000160006101000a8154816001600160401b0302191690836001600160401b0316021790555060208201518160000160086101000a8154816001600160401b0302191690836001600160401b0316021790555060408201518160000160106101000a8154816001600160401b0302191690836001600160401b0316021790555060608201518160000160186101000a8154816001600160401b0302191690836001600160401b0316021790555060808201518160010160006101000a8154816001600160a01b0302191690836001600160a01b031602179055509050506040518060a00160405280600a6001600160401b031681526020016105a06001600160401b0316815260200160086001600160401b0316815260200160006001600160401b0316815260200173132d3c0b1d2cea0bc552588063bdbb210fdeecfa6001600160a01b031681525060136000731af3f329e8be154074d8769d1ffa4ee058b1dbc36001600160a01b03166001600160a01b0316815260200190815260200160002060008201518160000160006101000a8154816001600160401b0302191690836001600160401b0316021790555060208201518160000160086101000a8154816001600160401b0302191690836001600160401b0316021790555060408201518160000160106101000a8154816001600160401b0302191690836001600160401b0316021790555060608201518160000160186101000a8154816001600160401b0302191690836001600160401b0316021790555060808201518160010160006101000a8154816001600160a01b0302191690836001600160a01b031602179055509050506040518060a0016040528060326001600160401b031681526020016105a06001600160401b0316815260200160086001600160401b0316815260200160006001600160401b031681526020017339f1275366d130eb677d4f47d40f9296b62d877a6001600160a01b031681525060136000733fda9383a84c05ec8f7630fe10adf1fac13241cc6001600160a01b03166001600160a01b0316815260200190815260200160002060008201518160000160006101000a8154816001600160401b0302191690836001600160401b0316021790555060208201518160000160086101000a8154816001600160401b0302191690836001600160401b0316021790555060408201518160000160106101000a8154816001600160401b0302191690836001600160401b0316021790555060608201518160000160186101000a8154816001600160401b0302191690836001600160401b0316021790555060808201518160010160006101000a8154816001600160a01b0302191690836001600160a01b031602179055509050506040518060a0016040528060326001600160401b031681526020016105a06001600160401b0316815260200160086001600160401b0316815260200160006001600160401b03168152602001731b816f5e122efa230300126f97c018716c4e47f56001600160a01b031681525060136000734a9a2b2b04549c3927dd2c9668a5ef3fca4736236001600160a01b03166001600160a01b0316815260200190815260200160002060008201518160000160006101000a8154816001600160401b0302191690836001600160401b0316021790555060208201518160000160086101000a8154816001600160401b0302191690836001600160401b0316021790555060408201518160000160106101000a8154816001600160401b0302191690836001600160401b0316021790555060608201518160000160186101000a8154816001600160401b0302191690836001600160401b0316021790555060808201518160010160006101000a8154816001600160a01b0302191690836001600160a01b031602179055509050506040518060a0016040528060326001600160401b031681526020016105a06001600160401b0316815260200160086001600160401b0316815260200160006001600160401b031681526020017387701b15c08687341c2a847ca44ecfbc8d7873e16001600160a01b0316815250601360007367ee3cb086f8a16f34bee3ca72fad36f7db929e26001600160a01b03166001600160a01b0316815260200190815260200160002060008201518160000160006101000a8154816001600160401b0302191690836001600160401b0316021790555060208201518160000160086101000a8154816001600160401b0302191690836001600160401b0316021790555060408201518160000160106101000a8154816001600160401b0302191690836001600160401b0316021790555060608201518160000160186101000a8154816001600160401b0302191690836001600160401b0316021790555060808201518160010160006101000a8154816001600160a01b0302191690836001600160a01b031602179055509050506040518060a0016040528060146001600160401b03168152602001610b046001600160401b0316815260200160086001600160401b0316815260200160006001600160401b03168152602001733ab0a0d137d4f946fbb19eecc6e92e64660231c86001600160a01b03168152506013600073ba2ae424d960c26247dd6c32edc70b295c744c436001600160a01b03166001600160a01b0316815260200190815260200160002060008201518160000160006101000a8154816001600160401b0302191690836001600160401b0316021790555060208201518160000160086101000a8154816001600160401b0302191690836001600160401b0316021790555060408201518160000160106101000a8154816001600160401b0302191690836001600160401b0316021790555060608201518160000160186101000a8154816001600160401b0302191690836001600160401b0316021790555060808201518160010160006101000a8154816001600160a01b0302191690836001600160a01b031602179055509050506040518060a0016040528060146001600160401b03168152602001600a6001600160401b0316815260200160086001600160401b0316815260200160006001600160401b0316815260200173c333eb0086309a16aa7c8308dfd32c8bba0a25926001600160a01b031681525060136000737083609fce4d1d8dc0c979aab8c869ea2c8734026001600160a01b03166001600160a01b0316815260200190815260200160002060008201518160000160006101000a8154816001600160401b0302191690836001600160401b0316021790555060208201518160000160086101000a8154816001600160401b0302191690836001600160401b0316021790555060408201518160000160106101000a8154816001600160401b0302191690836001600160401b0316021790555060608201518160000160186101000a8154816001600160401b0302191690836001600160401b0316021790555060808201518160010160006101000a8154816001600160a01b0302191690836001600160a01b031602179055509050506040518060a0016040528060326001600160401b031681526020016105a06001600160401b0316815260200160086001600160401b0316815260200160006001600160401b0316815260200173d5508c8ffdb8f15ce336e629fd4ca9adb48f50f06001600160a01b0316815250601360007356b6fb708fc5732dec1afc8d8556423a2edccbd66001600160a01b03166001600160a01b0316815260200190815260200160002060008201518160000160006101000a8154816001600160401b0302191690836001600160401b0316021790555060208201518160000160086101000a8154816001600160401b0302191690836001600160401b0316021790555060408201518160000160106101000a8154816001600160401b0302191690836001600160401b0316021790555060608201518160000160186101000a8154816001600160401b0302191690836001600160401b0316021790555060808201518160010160006101000a8154816001600160a01b0302191690836001600160a01b031602179055509050506040518060a00160405280600a6001600160401b0316815260200160016001600160401b0316815260200160086001600160401b0316815260200160006001600160401b03168152602001739ef1b8c0e4f7dc8bf5719ea496883dc6401d5b2e6001600160a01b031681525060136000732170ed0880ac9a755fd29b2688956bd959f933f86001600160a01b03166001600160a01b0316815260200190815260200160002060008201518160000160006101000a8154816001600160401b0302191690836001600160401b0316021790555060208201518160000160086101000a8154816001600160401b0302191690836001600160401b0316021790555060408201518160000160106101000a8154816001600160401b0302191690836001600160401b0316021790555060608201518160000160186101000a8154816001600160401b0302191690836001600160401b0316021790555060808201518160010160006101000a8154816001600160a01b0302191690836001600160a01b031602179055509050506040518060a0016040528060326001600160401b031681526020016105a06001600160401b0316815260200160086001600160401b0316815260200160006001600160401b0316815260200173657e700c66c48c135c4a29c4292908dbda7aa2806001600160a01b03168152506013600073031b41e504677879370e9dbcf937283a8691fa7f6001600160a01b03166001600160a01b0316815260200190815260200160002060008201518160000160006101000a8154816001600160401b0302191690836001600160401b0316021790555060208201518160000160086101000a8154816001600160401b0302191690836001600160401b0316021790555060408201518160000160106101000a8154816001600160401b0302191690836001600160401b0316021790555060608201518160000160186101000a8154816001600160401b0302191690836001600160401b0316021790555060808201518160010160006101000a8154816001600160a01b0302191690836001600160a01b031602179055509050506040518060a00160405280601e6001600160401b031681526020016105a06001600160401b0316815260200160086001600160401b0316815260200160006001600160401b0316815260200173e5dbfd9003bff9df5feb2f4f445ca00fb121fb836001600160a01b031681525060136000730d8ce2a99bb6e3b7db580ed848240e4a0f9ae1536001600160a01b03166001600160a01b0316815260200190815260200160002060008201518160000160006101000a8154816001600160401b0302191690836001600160401b0316021790555060208201518160000160086101000a8154816001600160401b0302191690836001600160401b0316021790555060408201518160000160106101000a8154816001600160401b0302191690836001600160401b0316021790555060608201518160000160186101000a8154816001600160401b0302191690836001600160401b0316021790555060808201518160010160006101000a8154816001600160a01b0302191690836001600160a01b031602179055509050506040518060a00160405280601e6001600160401b031681526020016105a06001600160401b0316815260200160086001600160401b0316815260200160006001600160401b031681526020017313a9c98b07f098c5319f4ff786eb16e22dc738e16001600160a01b0316815250601360007390c97f71e18723b0cf0dfa30ee176ab653e89f406001600160a01b03166001600160a01b0316815260200190815260200160002060008201518160000160006101000a8154816001600160401b0302191690836001600160401b0316021790555060208201518160000160086101000a8154816001600160401b0302191690836001600160401b0316021790555060408201518160000160106101000a8154816001600160401b0302191690836001600160401b0316021790555060608201518160000160186101000a8154816001600160401b0302191690836001600160401b0316021790555060808201518160010160006101000a8154816001600160a01b0302191690836001600160a01b031602179055509050506040518060a0016040528060326001600160401b031681526020016105a06001600160401b0316815260200160086001600160401b0316815260200160006001600160401b0316815260200173e2a47e87c0f4134c8d06a41975f6860468b2f9256001600160a01b03168152506013600073a4b6e76bba7413b9b4bd83f4e3aa63cc181d869f6001600160a01b03166001600160a01b0316815260200190815260200160002060008201518160000160006101000a8154816001600160401b0302191690836001600160401b0316021790555060208201518160000160086101000a8154816001600160401b0302191690836001600160401b0316021790555060408201518160000160106101000a8154816001600160401b0302191690836001600160401b0316021790555060608201518160000160186101000a8154816001600160401b0302191690836001600160401b0316021790555060808201518160010160006101000a8154816001600160a01b0302191690836001600160a01b031602179055509050506040518060a0016040528060326001600160401b031681526020016105a06001600160401b0316815260200160086001600160401b0316815260200160006001600160401b031681526020017366cd2975d02f5f5cdef2e05cbca12549b1a5022d6001600160a01b0316815250601360007384e9a6f9d240fdd33801f7135908bfa16866939a6001600160a01b03166001600160a01b0316815260200190815260200160002060008201518160000160006101000a8154816001600160401b0302191690836001600160401b0316021790555060208201518160000160086101000a8154816001600160401b0302191690836001600160401b0316021790555060408201518160000160106101000a8154816001600160401b0302191690836001600160401b0316021790555060608201518160000160186101000a8154816001600160401b0302191690836001600160401b0316021790555060808201518160010160006101000a8154816001600160a01b0302191690836001600160a01b031602179055509050506040518060a0016040528060326001600160401b031681526020016105a06001600160401b0316815260200160086001600160401b0316815260200160006001600160401b031681526020017363a9133cd7c611d6049761038c16f238fdda71d76001600160a01b03168152506013600073a2b726b1145a4773f68593cf171187d8ebe4d4956001600160a01b03166001600160a01b0316815260200190815260200160002060008201518160000160006101000a8154816001600160401b0302191690836001600160401b0316021790555060208201518160000160086101000a8154816001600160401b0302191690836001600160401b0316021790555060408201518160000160106101000a8154816001600160401b0302191690836001600160401b0316021790555060608201518160000160186101000a8154816001600160401b0302191690836001600160401b0316021790555060808201518160010160006101000a8154816001600160a01b0302191690836001600160a01b031602179055509050506040518060a0016040528060146001600160401b03168152602001600a6001600160401b0316815260200160086001600160401b0316815260200160006001600160401b031681526020017338393201952f2764e04b290af9df427217d56b416001600160a01b03168152506013600073762539b45a1dcce3d36d080f74d1aed37844b8786001600160a01b03166001600160a01b0316815260200190815260200160002060008201518160000160006101000a8154816001600160401b0302191690836001600160401b0316021790555060208201518160000160086101000a8154816001600160401b0302191690836001600160401b0316021790555060408201518160000160106101000a8154816001600160401b0302191690836001600160401b0316021790555060608201518160000160186101000a8154816001600160401b0302191690836001600160401b0316021790555060808201518160010160006101000a8154816001600160a01b0302191690836001600160a01b031602179055509050506040518060a0016040528060146001600160401b03168152602001600a6001600160401b0316815260200160086001600160401b0316815260200160006001600160401b0316815260200173ca236e327f629f9fc2c30a4e95775ebf0b89fac86001600160a01b03168152506013600073f8a0bf9cf54bb92f17374d9e9a321e6a111a51bd6001600160a01b03166001600160a01b0316815260200190815260200160002060008201518160000160006101000a8154816001600160401b0302191690836001600160401b0316021790555060208201518160000160086101000a8154816001600160401b0302191690836001600160401b0316021790555060408201518160000160106101000a8154816001600160401b0302191690836001600160401b0316021790555060608201518160000160186101000a8154816001600160401b0302191690836001600160401b0316021790555060808201518160010160006101000a8154816001600160a01b0302191690836001600160a01b031602179055509050506040518060a00160405280601e6001600160401b031681526020016105a06001600160401b0316815260200160086001600160401b0316815260200160006001600160401b031681526020017374e72f37a8c415c8f1a98ed42e78ff997435791d6001600160a01b031681525060136000734338665cbb7b2485a8855a139b75d5e34ab0db946001600160a01b03166001600160a01b0316815260200190815260200160002060008201518160000160006101000a8154816001600160401b0302191690836001600160401b0316021790555060208201518160000160086101000a8154816001600160401b0302191690836001600160401b0316021790555060408201518160000160106101000a8154816001600160401b0302191690836001600160401b0316021790555060608201518160000160186101000a8154816001600160401b0302191690836001600160401b0316021790555060808201518160010160006101000a8154816001600160a01b0302191690836001600160a01b031602179055509050506040518060a0016040528060326001600160401b031681526020016105a06001600160401b0316815260200160086001600160401b0316815260200160006001600160401b03168152602001734978c0abe6899178c1a74838ee0062280888e2cf6001600160a01b031681525060136000732ed9a5c8c13b93955103b9a7c167b67ef4d568a36001600160a01b03166001600160a01b0316815260200190815260200160002060008201518160000160006101000a8154816001600160401b0302191690836001600160401b0316021790555060208201518160000160086101000a8154816001600160401b0302191690836001600160401b0316021790555060408201518160000160106101000a8154816001600160401b0302191690836001600160401b0316021790555060608201518160000160186101000a8154816001600160401b0302191690836001600160401b0316021790555060808201518160010160006101000a8154816001600160a01b0302191690836001600160a01b031602179055509050506040518060a0016040528060326001600160401b031681526020016105a06001600160401b0316815260200160086001600160401b0316815260200160006001600160401b0316815260200173c9d267542b23b41fb93397a93e5a1d7b80ea5a016001600160a01b03168152506013600073fe19f0b51438fd612f6fd59c1dbb3ea319f433ba6001600160a01b03166001600160a01b0316815260200190815260200160002060008201518160000160006101000a8154816001600160401b0302191690836001600160401b0316021790555060208201518160000160086101000a8154816001600160401b0302191690836001600160401b0316021790555060408201518160000160106101000a8154816001600160401b0302191690836001600160401b0316021790555060608201518160000160186101000a8154816001600160401b0302191690836001600160401b0316021790555060808201518160010160006101000a8154816001600160a01b0302191690836001600160a01b031602179055509050506040518060a0016040528060326001600160401b031681526020016105a06001600160401b0316815260200160086001600160401b0316815260200160006001600160401b0316815260200173291b2983b995870779c36a102da101f8765244d66001600160a01b031681525060136000735b6dcf557e2abe2323c48445e8cc948910d8c2c96001600160a01b03166001600160a01b0316815260200190815260200160002060008201518160000160006101000a8154816001600160401b0302191690836001600160401b0316021790555060208201518160000160086101000a8154816001600160401b0302191690836001600160401b0316021790555060408201518160000160106101000a8154816001600160401b0302191690836001600160401b0316021790555060608201518160000160186101000a8154816001600160401b0302191690836001600160401b0316021790555060808201518160010160006101000a8154816001600160a01b0302191690836001600160a01b031602179055509050506040518060a0016040528060326001600160401b031681526020016105a06001600160401b0316815260200160086001600160401b0316815260200160006001600160401b03168152602001736b25f7f189c3f26d3cac43b754578b67fc8d952a6001600160a01b0316815250601360007316a7fa783378da47a4f09613296b0b2dd2b08d066001600160a01b03166001600160a01b0316815260200190815260200160002060008201518160000160006101000a8154816001600160401b0302191690836001600160401b0316021790555060208201518160000160086101000a8154816001600160401b0302191690836001600160401b0316021790555060408201518160000160106101000a8154816001600160401b0302191690836001600160401b0316021790555060608201518160000160186101000a8154816001600160401b0302191690836001600160401b0316021790555060808201518160010160006101000a8154816001600160a01b0302191690836001600160a01b031602179055509050506040518060a0016040528060326001600160401b031681526020016105a06001600160401b0316815260200160086001600160401b0316815260200160006001600160401b0316815260200173acfbe73231d312ac6954496b3f786e892bf0f7e56001600160a01b031681525060136000738cd6e29d3686d24d3c2018cee54621ea0f89313b6001600160a01b03166001600160a01b0316815260200190815260200160002060008201518160000160006101000a8154816001600160401b0302191690836001600160401b0316021790555060208201518160000160086101000a8154816001600160401b0302191690836001600160401b0316021790555060408201518160000160106101000a8154816001600160401b0302191690836001600160401b0316021790555060608201518160000160186101000a8154816001600160401b0302191690836001600160401b0316021790555060808201518160010160006101000a8154816001600160a01b0302191690836001600160a01b031602179055509050506040518060a0016040528060326001600160401b031681526020016105a06001600160401b0316815260200160086001600160401b0316815260200160006001600160401b0316815260200173887f177cbed2cf555a64e7bf125e1825eb69db826001600160a01b03168152506013600073fd7b3a77848f1c2d67e05e54d78d174a0c8503356001600160a01b03166001600160a01b0316815260200190815260200160002060008201518160000160006101000a8154816001600160401b0302191690836001600160401b0316021790555060208201518160000160086101000a8154816001600160401b0302191690836001600160401b0316021790555060408201518160000160106101000a8154816001600160401b0302191690836001600160401b0316021790555060608201518160000160186101000a8154816001600160401b0302191690836001600160401b0316021790555060808201518160010160006101000a8154816001600160a01b0302191690836001600160a01b031602179055509050506040518060a0016040528060326001600160401b031681526020016105a06001600160401b0316815260200160086001600160401b0316815260200160006001600160401b0316815260200173d1225da5fc21d17cae526ee4b6464787c6a71b4c6001600160a01b031681525060136000738519ea49c997f50ceffa444d240fb655e89248aa6001600160a01b03166001600160a01b0316815260200190815260200160002060008201518160000160006101000a8154816001600160401b0302191690836001600160401b0316021790555060208201518160000160086101000a8154816001600160401b0302191690836001600160401b0316021790555060408201518160000160106101000a8154816001600160401b0302191690836001600160401b0316021790555060608201518160000160186101000a8154816001600160401b0302191690836001600160401b0316021790555060808201518160010160006101000a8154816001600160a01b0302191690836001600160a01b031602179055509050506040518060a0016040528060326001600160401b031681526020016105a06001600160401b0316815260200160086001600160401b0316815260200160006001600160401b0316815260200173a615be6cb0f3f36a641858db6f30b9242d0abed86001600160a01b03168152506013600073b1547683da678f2e1f003a780143ec10af8a832b6001600160a01b03166001600160a01b0316815260200190815260200160002060008201518160000160006101000a8154816001600160401b0302191690836001600160401b0316021790555060208201518160000160086101000a8154816001600160401b0302191690836001600160401b0316021790555060408201518160000160106101000a8154816001600160401b0302191690836001600160401b0316021790555060608201518160000160186101000a8154816001600160401b0302191690836001600160401b0316021790555060808201518160010160006101000a8154816001600160a01b0302191690836001600160a01b031602179055509050506040518060a0016040528060326001600160401b031681526020016105a06001600160401b0316815260200160086001600160401b0316815260200160006001600160401b0316815260200173b24d1dee5f9a3f761d286b56d2bc44ce1d02df7e6001600160a01b0316815250601360007317fd3caa66502c6f1cbd5600d8448f3af8f2aba16001600160a01b03166001600160a01b0316815260200190815260200160002060008201518160000160006101000a8154816001600160401b0302191690836001600160401b0316021790555060208201518160000160086101000a8154816001600160401b0302191690836001600160401b0316021790555060408201518160000160106101000a8154816001600160401b0302191690836001600160401b0316021790555060608201518160000160186101000a8154816001600160401b0302191690836001600160401b0316021790555060808201518160010160006101000a8154816001600160a01b0302191690836001600160a01b031602179055509050506040518060a0016040528060326001600160401b031681526020016105a06001600160401b0316815260200160086001600160401b0316815260200160006001600160401b0316815260200173a679c72a97b654cfff58ab704de3ba15cde89b076001600160a01b03168152506013600073947950bcc74888a40ffa2593c5798f11fc9124c46001600160a01b03166001600160a01b0316815260200190815260200160002060008201518160000160006101000a8154816001600160401b0302191690836001600160401b0316021790555060208201518160000160086101000a8154816001600160401b0302191690836001600160401b0316021790555060408201518160000160106101000a8154816001600160401b0302191690836001600160401b0316021790555060608201518160000160186101000a8154816001600160401b0302191690836001600160401b0316021790555060808201518160010160006101000a8154816001600160a01b0302191690836001600160a01b031602179055509050506040518060a00160405280601e6001600160401b031681526020016105a06001600160401b0316815260200160086001600160401b0316815260200160006001600160401b0316815260200173e188a9875af525d25334d75f3327863b2b8cd0f16001600160a01b0316815250601360007347bead2563dcbf3bf2c9407fea4dc236faba485a6001600160a01b03166001600160a01b0316815260200190815260200160002060008201518160000160006101000a8154816001600160401b0302191690836001600160401b0316021790555060208201518160000160086101000a8154816001600160401b0302191690836001600160401b0316021790555060408201518160000160106101000a8154816001600160401b0302191690836001600160401b0316021790555060608201518160000160186101000a8154816001600160401b0302191690836001600160401b0316021790555060808201518160010160006101000a8154816001600160a01b0302191690836001600160a01b031602179055509050506040518060a0016040528060146001600160401b03168152602001600a6001600160401b0316815260200160086001600160401b0316815260200160006001600160401b0316815260200173f4c5e535756d11994fcbb12ba8add0192d9b88be6001600160a01b0316815250601360007385eac5ac2f758618dfa09bdbe0cf174e7d574d5b6001600160a01b03166001600160a01b0316815260200190815260200160002060008201518160000160006101000a8154816001600160401b0302191690836001600160401b0316021790555060208201518160000160086101000a8154816001600160401b0302191690836001600160401b0316021790555060408201518160000160106101000a8154816001600160401b0302191690836001600160401b0316021790555060608201518160000160186101000a8154816001600160401b0302191690836001600160401b0316021790555060808201518160010160006101000a8154816001600160a01b0302191690836001600160a01b031602179055509050506040518060a00160405280601e6001600160401b031681526020016105a06001600160401b0316815260200160086001600160401b0316815260200160006001600160401b0316815260200173a3334a9762090e827413a7495afece76f41dfc066001600160a01b0316815250601360007314016e85a25aeb13065688cafb43044c2ef867846001600160a01b03166001600160a01b0316815260200190815260200160002060008201518160000160006101000a8154816001600160401b0302191690836001600160401b0316021790555060208201518160000160086101000a8154816001600160401b0302191690836001600160401b0316021790555060408201518160000160106101000a8154816001600160401b0302191690836001600160401b0316021790555060608201518160000160186101000a8154816001600160401b0302191690836001600160401b0316021790555060808201518160010160006101000a8154816001600160a01b0302191690836001600160a01b031602179055509050506040518060a0016040528060146001600160401b03168152602001600a6001600160401b0316815260200160086001600160401b0316815260200160006001600160401b0316815260200173b57f259e7c24e56a1da00f66b55a5640d9f9e7e46001600160a01b03168152506013600073bf5140a22578168fd562dccf235e5d43a02ce9b16001600160a01b03166001600160a01b0316815260200190815260200160002060008201518160000160006101000a8154816001600160401b0302191690836001600160401b0316021790555060208201518160000160086101000a8154816001600160401b0302191690836001600160401b0316021790555060408201518160000160106101000a8154816001600160401b0302191690836001600160401b0316021790555060608201518160000160186101000a8154816001600160401b0302191690836001600160401b0316021790555060808201518160010160006101000a8154816001600160a01b0302191690836001600160a01b031602179055509050506040518060a00160405280600a6001600160401b031681526020016105a06001600160401b0316815260200160086001600160401b0316815260200160006001600160401b031681526020017351597f405303c4377e36123cbc172b13269ea1636001600160a01b031681525060136000738ac76a51cc950d9822d68b83fe1ad97b32cd580d6001600160a01b03166001600160a01b0316815260200190815260200160002060008201518160000160006101000a8154816001600160401b0302191690836001600160401b0316021790555060208201518160000160086101000a8154816001600160401b0302191690836001600160401b0316021790555060408201518160000160106101000a8154816001600160401b0302191690836001600160401b0316021790555060608201518160000160186101000a8154816001600160401b0302191690836001600160401b0316021790555060808201518160010160006101000a8154816001600160a01b0302191690836001600160a01b031602179055509050506040518060a00160405280601e6001600160401b031681526020016105a06001600160401b0316815260200160086001600160401b0316815260200160006001600160401b03168152602001737c0bc703dc56645203cfebe1928e34b8e885ae376001600160a01b0316815250601360007303ab98f5dc94996f8c33e15cd4468794d12d41f96001600160a01b03166001600160a01b0316815260200190815260200160002060008201518160000160006101000a8154816001600160401b0302191690836001600160401b0316021790555060208201518160000160086101000a8154816001600160401b0302191690836001600160401b0316021790555060408201518160000160106101000a8154816001600160401b0302191690836001600160401b0316021790555060608201518160000160186101000a8154816001600160401b0302191690836001600160401b0316021790555060808201518160010160006101000a8154816001600160a01b0302191690836001600160a01b031602179055509050506040518060a00160405280600a6001600160401b031681526020016105a06001600160401b0316815260200160086001600160401b0316815260200160006001600160401b0316815260200173b97ad0e74fa7d920791e90258a6e2085088b43206001600160a01b0316815250601360007355d398326f99059ff775485246999027b31979556001600160a01b03166001600160a01b0316815260200190815260200160002060008201518160000160006101000a8154816001600160401b0302191690836001600160401b0316021790555060208201518160000160086101000a8154816001600160401b0302191690836001600160401b0316021790555060408201518160000160106101000a8154816001600160401b0302191690836001600160401b0316021790555060608201518160000160186101000a8154816001600160401b0302191690836001600160401b0316021790555060808201518160010160006101000a8154816001600160a01b0302191690836001600160a01b031602179055509050506040518060a0016040528060326001600160401b031681526020016105a06001600160401b0316815260200160086001600160401b0316815260200160006001600160401b0316815260200173cbf8518f8727b8582b22837403cdabc53463d4626001600160a01b0316815250601360007323396cf899ca06c4472205fc903bdb4de249d6fc6001600160a01b03166001600160a01b0316815260200190815260200160002060008201518160000160006101000a8154816001600160401b0302191690836001600160401b0316021790555060208201518160000160086101000a8154816001600160401b0302191690836001600160401b0316021790555060408201518160000160106101000a8154816001600160401b0302191690836001600160401b0316021790555060608201518160000160186101000a8154816001600160401b0302191690836001600160401b0316021790555060808201518160010160006101000a8154816001600160a01b0302191690836001600160a01b031602179055509050506040518060a00160405280601e6001600160401b031681526020016105a06001600160401b0316815260200160086001600160401b0316815260200160006001600160401b0316815260200173058316f8bb13acd442ee7a216c7b60cfb4ea1b536001600160a01b031681525060136000734bd17003473389a42daf6a0a729f6fdb328bbbd76001600160a01b03166001600160a01b0316815260200190815260200160002060008201518160000160006101000a8154816001600160401b0302191690836001600160401b0316021790555060208201518160000160086101000a8154816001600160401b0302191690836001600160401b0316021790555060408201518160000160106101000a8154816001600160401b0302191690836001600160401b0316021790555060608201518160000160186101000a8154816001600160401b0302191690836001600160401b0316021790555060808201518160010160006101000a8154816001600160a01b0302191690836001600160a01b031602179055509050506040518060a0016040528060326001600160401b031681526020016105a06001600160401b0316815260200160086001600160401b0316815260200160006001600160401b0316815260200173f7e7c0ffcb11dac6eca1434c67fab9ae000e10a76001600160a01b031681525060136000733cb7378565718c64ab86970802140cc48ef1f9696001600160a01b03166001600160a01b0316815260200190815260200160002060008201518160000160006101000a8154816001600160401b0302191690836001600160401b0316021790555060208201518160000160086101000a8154816001600160401b0302191690836001600160401b0316021790555060408201518160000160106101000a8154816001600160401b0302191690836001600160401b0316021790555060608201518160000160186101000a8154816001600160401b0302191690836001600160401b0316021790555060808201518160010160006101000a8154816001600160a01b0302191690836001600160a01b031602179055509050506040518060a0016040528060326001600160401b031681526020016105a06001600160401b0316815260200160086001600160401b0316815260200160006001600160401b031681526020017302bfe714e78e2ad1bb1c2bee93ec8dc5423b66d46001600160a01b031681525060136000734691937a7508860f876c9c0a2a617e7d9e945d4b6001600160a01b03166001600160a01b0316815260200190815260200160002060008201518160000160006101000a8154816001600160401b0302191690836001600160401b0316021790555060208201518160000160086101000a8154816001600160401b0302191690836001600160401b0316021790555060408201518160000160106101000a8154816001600160401b0302191690836001600160401b0316021790555060608201518160000160186101000a8154816001600160401b0302191690836001600160401b0316021790555060808201518160010160006101000a8154816001600160a01b0302191690836001600160a01b031602179055509050506040518060a0016040528060146001600160401b03168152602001600a6001600160401b0316815260200160086001600160401b0316815260200160006001600160401b031681526020017393a67d414896a280bf8ffb3b389fe3686e014fda6001600160a01b031681525060136000731d2f0da169ceb9fc7b3144628db156f3f6c60dbe6001600160a01b03166001600160a01b0316815260200190815260200160002060008201518160000160006101000a8154816001600160401b0302191690836001600160401b0316021790555060208201518160000160086101000a8154816001600160401b0302191690836001600160401b0316021790555060408201518160000160106101000a8154816001600160401b0302191690836001600160401b0316021790555060608201518160000160186101000a8154816001600160401b0302191690836001600160401b0316021790555060808201518160010160006101000a8154816001600160a01b0302191690836001600160a01b031602179055509050506040518060a0016040528060326001600160401b031681526020016105a06001600160401b0316815260200160086001600160401b0316815260200160006001600160401b03168152602001739a18137adcf7b05f033ad26968ed5a9cf0bf8e6b6001600160a01b0316815250601360007316939ef78684453bfdfb47825f8a5f714f12623a6001600160a01b03166001600160a01b0316815260200190815260200160002060008201518160000160006101000a8154816001600160401b0302191690836001600160401b0316021790555060208201518160000160086101000a8154816001600160401b0302191690836001600160401b0316021790555060408201518160000160106101000a8154816001600160401b0302191690836001600160401b0316021790555060608201518160000160186101000a8154816001600160401b0302191690836001600160401b0316021790555060808201518160010160006101000a8154816001600160a01b0302191690836001600160a01b031602179055509050506040518060a00160405280601e6001600160401b031681526020016105a06001600160401b0316815260200160086001600160401b0316815260200160006001600160401b0316815260200173bf63f430a79d4036a5900c19818aff1fa710f2066001600160a01b03168152506013600073cf6bb5389c92bdda8a3747ddb454cb7a64626c636001600160a01b03166001600160a01b0316815260200190815260200160002060008201518160000160006101000a8154816001600160401b0302191690836001600160401b0316021790555060208201518160000160086101000a8154816001600160401b0302191690836001600160401b0316021790555060408201518160000160106101000a8154816001600160401b0302191690836001600160401b0316021790555060608201518160000160186101000a8154816001600160401b0302191690836001600160401b0316021790555060808201518160010160006101000a8154816001600160a01b0302191690836001600160a01b031602179055509050506040518060a0016040528060c86001600160401b03168152602001600a6001600160401b0316815260200160086001600160401b0316815260200160006001600160401b0316815260200173d7eaa5bf3013a96e3d515c055dbd98dbdc8c620d6001600160a01b0316815250601360007388f1a5ae2a3bf98aeaf342d26b30a79438c9142e6001600160a01b03166001600160a01b0316815260200190815260200160002060008201518160000160006101000a8154816001600160401b0302191690836001600160401b0316021790555060208201518160000160086101000a8154816001600160401b0302191690836001600160401b0316021790555060408201518160000160106101000a8154816001600160401b0302191690836001600160401b0316021790555060608201518160000160186101000a8154816001600160401b0302191690836001600160401b0316021790555060808201518160010160006101000a8154816001600160a01b0302191690836001600160a01b031602179055509050506040518060a0016040528060326001600160401b031681526020016105a06001600160401b0316815260200160086001600160401b0316815260200160006001600160401b0316815260200173c94580faaf145b2fd0ab5215031833c98d3b77e46001600160a01b031681525060136000737f70642d88cf1c4a3a7abb072b53b929b653eda56001600160a01b03166001600160a01b0316815260200190815260200160002060008201518160000160006101000a8154816001600160401b0302191690836001600160401b0316021790555060208201518160000160086101000a8154816001600160401b0302191690836001600160401b0316021790555060408201518160000160106101000a8154816001600160401b0302191690836001600160401b0316021790555060608201518160000160186101000a8154816001600160401b0302191690836001600160401b0316021790555060808201518160010160006101000a8154816001600160a01b0302191690836001600160a01b031602179055509050506040518060a0016040528060146001600160401b03168152602001600a6001600160401b0316815260200160086001600160401b0316815260200160006001600160401b03168152602001733e3aa4fc329529c8ab921c810850626021dba7e66001600160a01b03168152506013600073b86abcb37c3a4b64f74f59301aff131a1becc7876001600160a01b03166001600160a01b0316815260200190815260200160002060008201518160000160006101000a8154816001600160401b0302191690836001600160401b0316021790555060208201518160000160086101000a8154816001600160401b0302191690836001600160401b0316021790555060408201518160000160106101000a8154816001600160401b0302191690836001600160401b0316021790555060608201518160000160186101000a8154816001600160401b0302191690836001600160401b0316021790555060808201518160010160006101000a8154816001600160a01b0302191690836001600160a01b03160217905550905050565b5062006a11565b600980546001600160a01b038381166001600160a01b0319831681179093556040519116919082907f8be0079c531659141344cd1fd0a4f28419497f9722a3daafe3b4186f6b6457e090600090a35050565b82805482825590600052602060002090600701600890048101928215620068fe5791602002820160005b83821115620068ca57835183826101000a81548163ffffffff021916908360030b63ffffffff160217905550926020019260040160208160030104928301926001030262006881565b8015620068fc5782816101000a81549063ffffffff0219169055600401602081600301049283019260010302620068ca565b505b506200690c9291506200698d565b5090565b8280546200691e90620069d4565b90600052602060002090601f016020900481019282620069425760008555620068fe565b82601f106200695d57805160ff1916838001178555620068fe565b82800160010185558215620068fe579182015b82811115620068fe57825182559160200191906001019062006970565b5b808211156200690c57600081556001016200698e565b600060208284031215620069b6578081fd5b81516001600160a01b0381168114620069cd578182fd5b9392505050565b600181811c90821680620069e957607f821691505b6020821081141562006a0b57634e487b7160e01b600052602260045260246000fd5b50919050565b60805160601c615c9d62006aae60003960008181610192015281816104e7015281816107ae01528181610a0601528181610df20152818161146101528181611597015281816116580152818161170101528181611831015281816118d501528181611d0d01528181611d9d01528181611e19015281816121a9015281816121d90152818161234e0152818161247201526125160152615c9d6000f3fe6080604052600436106101825760003560e01c8063054d50d4146101d4578063102247111461020757806318cbafe5146102895780631f00ca74146102b6578063249dfad7146102d657806328fd8cda1461030357806338ed1739146103235780634a25d94a146103435780635c11d79514610363578063616129391461038357806365715c56146103a3578063715018a6146103c3578063791ac947146103d85780637ff36ab5146103f857806385f8c2591461040b5780638803dbee1461042b578063893d20e81461044b5780638da5cb5b1461046057806390e3677f14610475578063928879d61461049557806394f376f6146104b5578063ad5c4648146104d5578063ad615dec14610509578063affc8dd714610529578063b6f9de951461053f578063b8d05b1114610552578063bb04a5e614610572578063c23b078314610592578063d06ca61f146105c5578063e8c16500146105e5578063f2fde38b14610691578063f9a21e8a146106b1578063fb3bdb41146106f4576101cf565b366101cf57336001600160a01b037f000000000000000000000000000000000000000000000000000000000000000016146101cd57634e487b7160e01b600052600160045260246000fd5b005b600080fd5b3480156101e057600080fd5b506101f46101ef366004615256565b610707565b6040519081526020015b60405180910390f35b34801561021357600080fd5b50610259610222366004614ece565b60196020526000908152604090205463ffffffff80821691600160201b8104821691600160401b8204811691600160601b90041684565b6040805163ffffffff958616815293851660208501529184169183019190915290911660608201526080016101fe565b34801561029557600080fd5b506102a96102a43660046151e6565b61071e565b6040516101fe919061544d565b3480156102c257600080fd5b506102a96102d1366004615127565b610b09565b3480156102e257600080fd5b506000546102f6906001600160a01b031681565b6040516101fe91906153c0565b34801561030f57600080fd5b506101cd61031e366004614f81565b610b2c565b34801561032f57600080fd5b506102a961033e3660046151e6565b610bdb565b34801561034f57600080fd5b506102a961035e3660046151e6565b610db7565b34801561036f57600080fd5b506101cd61037e3660046151e6565b610f7d565b34801561038f57600080fd5b506101cd61039e366004614e0c565b611306565b3480156103af57600080fd5b506001546102f6906001600160a01b031681565b3480156103cf57600080fd5b506101cd6113ed565b3480156103e457600080fd5b506101cd6103f33660046151e6565b611428565b6102a96104063660046150c3565b6116ce565b34801561041757600080fd5b506101f4610426366004615256565b611a1d565b34801561043757600080fd5b506102a96104463660046151e6565b611a2a565b34801561045757600080fd5b506102f6611b18565b34801561046c57600080fd5b506102f6611b27565b34801561048157600080fd5b506101cd610490366004614dd4565b611b36565b3480156104a157600080fd5b506101cd6104b0366004614e81565b611bbf565b3480156104c157600080fd5b506101cd6104d0366004615093565b611c33565b3480156104e157600080fd5b506102f67f000000000000000000000000000000000000000000000000000000000000000081565b34801561051557600080fd5b506101f4610524366004615256565b611ccf565b34801561053557600080fd5b506101f460115481565b6101cd61054d3660046150c3565b611cdc565b34801561055e57600080fd5b506101cd61056d366004614eea565b6120cf565b34801561057e57600080fd5b506101f461058d366004614d9c565b61218f565b34801561059e57600080fd5b506105b26105ad366004615093565b61222a565b60405160039190910b81526020016101fe565b3480156105d157600080fd5b506102a96105e0366004615127565b612261565b3480156105f157600080fd5b5061064e610600366004614d9c565b601360205260009081526040902080546001909101546001600160401b0380831692600160401b8104821692600160801b8204831692600160c01b909204909116906001600160a01b031685565b604080516001600160401b03968716815294861660208601529285169284019290925290921660608201526001600160a01b03909116608082015260a0016101fe565b34801561069d57600080fd5b506101cd6106ac366004614d9c565b61227b565b3480156106bd57600080fd5b506015546016546017546018546106e4936001600160a01b03908116938116928116911684565b6040516101fe94939291906153d4565b6102a96107023660046150c3565b61231b565b60006107148484846126b9565b90505b9392505050565b60608160204282101561074d5760405162461bcd60e51b81526004016107449190615582565b60405180910390fd5b506107586002612792565b6107988686600081811061077c57634e487b7160e01b600052603260045260246000fd5b90506020020160208101906107919190614d9c565b338a61287b565b6107a29089615b43565b97506001600160a01b037f00000000000000000000000000000000000000000000000000000000000000001686866107db600182615b43565b8181106107f857634e487b7160e01b600052603260045260246000fd5b905060200201602081019061080d9190614d9c565b6001600160a01b031614601b906108375760405162461bcd60e51b81526004016107449190615582565b506007546040805160208089028281018201909352888252610882936001600160a01b0316928c92918b918b9182919085019084908082843760009201919091525061295292505050565b91508682600184516108949190615b43565b815181106108b257634e487b7160e01b600052603260045260246000fd5b60200260200101511015601c906108dc5760405162461bcd60e51b81526004016107449190615582565b506109c58686600081811061090157634e487b7160e01b600052603260045260246000fd5b90506020020160208101906109169190614d9c565b6007543390610997906001600160a01b03168a8a60008161094757634e487b7160e01b600052603260045260246000fd5b905060200201602081019061095c9190614d9c565b8b8b600181811061097d57634e487b7160e01b600052603260045260246000fd5b90506020020160208101906109929190614d9c565b612b00565b856000815181106109b857634e487b7160e01b600052603260045260246000fd5b6020026020010151612bcf565b610a0482878780806020026020016040519081016040528093929190818152602001838360200280828437600092019190915250309250612cff915050565b7f00000000000000000000000000000000000000000000000000000000000000006001600160a01b0316632e1a7d4d8360018551610a429190615b43565b81518110610a6057634e487b7160e01b600052603260045260246000fd5b60200260200101516040518263ffffffff1660e01b8152600401610a8691815260200190565b600060405180830381600087803b158015610aa057600080fd5b505af1158015610ab4573d6000803e3d6000fd5b50505050610af6848360018551610acb9190615b43565b81518110610ae957634e487b7160e01b600052603260045260246000fd5b6020026020010151612f12565b610afe612fdb565b509695505050505050565b600754606090610b23906001600160a01b0316848461303f565b90505b92915050565b610b3682826131e3565b604051633d8d54b760e11b815273__$88bebae22a3ad6e62b56c303176513ecf8$__90637b1aa96e90610b7090601590869060040161575f565b60006040518083038186803b158015610b8857600080fd5b505af4158015610b9c573d6000803e3d6000fd5b505050507f119d2e55d36ac1023a728780d56fc7adb4fa783aa7d7972035442c6e7c9dbbba82604051610bcf919061572b565b60405180910390a15050565b606081602042821015610c015760405162461bcd60e51b81526004016107449190615582565b50610c0c6002612792565b610c308686600081811061077c57634e487b7160e01b600052603260045260246000fd5b610c3a9089615b43565b600754604080516020808a028281018201909352898252939b50610c87936001600160a01b03909316928c928b918b91829185019084908082843760009201919091525061295292505050565b9150868260018451610c999190615b43565b81518110610cb757634e487b7160e01b600052603260045260246000fd5b60200260200101511015601c90610ce15760405162461bcd60e51b81526004016107449190615582565b50610d068686600081811061090157634e487b7160e01b600052603260045260246000fd5b600a54610af69083908890889060199060009060ff166012811115610d3b57634e487b7160e01b600052602160045260246000fd5b6012811115610d5a57634e487b7160e01b600052602160045260246000fd5b815260208082019290925260409081016000208151608081018352905463ffffffff8082168352600160201b8204811694830194909452600160401b8104841692820192909252600160601b9091049091166060820152886132d7565b606081602042821015610ddd5760405162461bcd60e51b81526004016107449190615582565b50610de86002612792565b6001600160a01b037f0000000000000000000000000000000000000000000000000000000000000000168686610e1f600182615b43565b818110610e3c57634e487b7160e01b600052603260045260246000fd5b9050602002016020810190610e519190614d9c565b6001600160a01b031614601b90610e7b5760405162461bcd60e51b81526004016107449190615582565b506007546040805160208089028281018201909352888252610ec6936001600160a01b0316928c92918b918b9182919085019084908082843760009201919091525061303f92505050565b91508682600081518110610eea57634e487b7160e01b600052603260045260246000fd5b60200260200101511115601f90610f145760405162461bcd60e51b81526004016107449190615582565b506108dc86866000818110610f3957634e487b7160e01b600052603260045260246000fd5b9050602002016020810190610f4e9190614d9c565b3384600081518110610f7057634e487b7160e01b600052603260045260246000fd5b602002602001015161287b565b80602042821015610fa15760405162461bcd60e51b81526004016107449190615582565b50610fac6002612792565b610fec85856000818110610fd057634e487b7160e01b600052603260045260246000fd5b9050602002016020810190610fe59190614d9c565b338961287b565b610ff69088615b43565b965061109e8585600081811061101c57634e487b7160e01b600052603260045260246000fd5b90506020020160208101906110319190614d9c565b6007543390611098906001600160a01b0316898960008161106257634e487b7160e01b600052603260045260246000fd5b90506020020160208101906110779190614d9c565b8a8a600181811061097d57634e487b7160e01b600052603260045260246000fd5b8a612bcf565b600085856110ad600182615b43565b8181106110ca57634e487b7160e01b600052603260045260246000fd5b90506020020160208101906110df9190614d9c565b6001600160a01b03166370a08231856040518263ffffffff1660e01b815260040161110a91906153c0565b60206040518083038186803b15801561112257600080fd5b505afa158015611136573d6000803e3d6000fd5b505050506040513d601f19601f8201168201806040525081019061115a91906150ab565b600a5490915061120c908790879060199060009060ff16601281111561119057634e487b7160e01b600052602160045260246000fd5b60128111156111af57634e487b7160e01b600052602160045260246000fd5b815260208082019290925260409081016000208151608081018352905463ffffffff8082168352600160201b8204811694830194909452600160401b8104841692820192909252600160601b90910490911660608201528761352e565b866112d182888861121e600182615b43565b81811061123b57634e487b7160e01b600052603260045260246000fd5b90506020020160208101906112509190614d9c565b6001600160a01b03166370a08231886040518263ffffffff1660e01b815260040161127b91906153c0565b60206040518083038186803b15801561129357600080fd5b505afa1580156112a7573d6000803e3d6000fd5b505050506040513d601f19601f820116820180604052508101906112cb91906150ab565b9061377b565b1015601c906112f35760405162461bcd60e51b81526004016107449190615582565b506112fc612fdb565b5050505050505050565b6000546001600160a01b03163314806113375750611322611b18565b6001600160a01b0316336001600160a01b0316145b6113535760405162461bcd60e51b8152600401610744906156d3565b6001600160a01b03811630146113e75760006001600160a01b0382161561137a578161137c565b305b600154604051636161293960e01b81529192506001600160a01b0316906361612939906113b39088908890889087906004016153d4565b600060405180830381600087803b1580156113cd57600080fd5b505af11580156113e1573d6000803e3d6000fd5b50505050505b50505050565b336113f6611b27565b6001600160a01b03161461141c5760405162461bcd60e51b81526004016107449061566b565b61142660006137bd565b565b8060204282101561144c5760405162461bcd60e51b81526004016107449190615582565b506114576002612792565b6001600160a01b037f000000000000000000000000000000000000000000000000000000000000000016858561148e600182615b43565b8181106114ab57634e487b7160e01b600052603260045260246000fd5b90506020020160208101906114c09190614d9c565b6001600160a01b031614601b906114ea5760405162461bcd60e51b81526004016107449190615582565b5061150f85856000818110610fd057634e487b7160e01b600052603260045260246000fd5b6115199088615b43565b965061153f8585600081811061101c57634e487b7160e01b600052603260045260246000fd5b61157d85858080602002602001604051908101604052809392919081815260200183836020028082843760009201919091525030925061380f915050565b6040516370a0823160e01b81526000906001600160a01b037f000000000000000000000000000000000000000000000000000000000000000016906370a08231906115cc9030906004016153c0565b60206040518083038186803b1580156115e457600080fd5b505afa1580156115f8573d6000803e3d6000fd5b505050506040513d601f19601f8201168201806040525081019061161c91906150ab565b9050601c878210156116415760405162461bcd60e51b81526004016107449190615582565b50604051632e1a7d4d60e01b8152600481018290527f00000000000000000000000000000000000000000000000000000000000000006001600160a01b031690632e1a7d4d90602401600060405180830381600087803b1580156116a457600080fd5b505af11580156116b8573d6000803e3d6000fd5b505050506116c68482612f12565b6112fc612fdb565b6060816020428210156116f45760405162461bcd60e51b81526004016107449190615582565b506116ff6002612792565b7f00000000000000000000000000000000000000000000000000000000000000006001600160a01b03168686600081811061174a57634e487b7160e01b600052603260045260246000fd5b905060200201602081019061175f9190614d9c565b6001600160a01b031614601b906117895760405162461bcd60e51b81526004016107449190615582565b5060075460408051602080890282810182019093528882526117d4936001600160a01b0316923492918b918b9182919085019084908082843760009201919091525061295292505050565b91508682600184516117e69190615b43565b8151811061180457634e487b7160e01b600052603260045260246000fd5b60200260200101511015601c9061182e5760405162461bcd60e51b81526004016107449190615582565b507f00000000000000000000000000000000000000000000000000000000000000006001600160a01b031663d0e30db08360008151811061187f57634e487b7160e01b600052603260045260246000fd5b60200260200101516040518263ffffffff1660e01b81526004016000604051808303818588803b1580156118b257600080fd5b505af11580156118c6573d6000803e3d6000fd5b50506007546001600160a01b037f00000000000000000000000000000000000000000000000000000000000000008116945063a9059cbb9350611924925016898960008161106257634e487b7160e01b600052603260045260246000fd5b8460008151811061194557634e487b7160e01b600052603260045260246000fd5b60200260200101516040518363ffffffff1660e01b815260040161196a9291906153ff565b602060405180830381600087803b15801561198457600080fd5b505af1158015611998573d6000803e3d6000fd5b505050506040513d601f19601f820116820180604052508101906119bc9190614e67565b6119d657634e487b7160e01b600052600160045260246000fd5b600a54611a0b9083908890889060199060009060ff166012811115610d3b57634e487b7160e01b600052602160045260246000fd5b611a13612fdb565b5095945050505050565b6000610714848484613a4a565b606081602042821015611a505760405162461bcd60e51b81526004016107449190615582565b50611a5b6002612792565b6007546040805160208089028281018201909352888252611aa5936001600160a01b0316928c92918b918b9182919085019084908082843760009201919091525061303f92505050565b91508682600081518110611ac957634e487b7160e01b600052603260045260246000fd5b60200260200101511115601f90611af35760405162461bcd60e51b81526004016107449190615582565b50610ce186866000818110610f3957634e487b7160e01b600052603260045260246000fd5b6000611b22611b27565b905090565b6009546001600160a01b031690565b611b3e611b18565b6001600160a01b0316336001600160a01b031614611b915760405162461bcd60e51b815260206004820152601060248201526f496e76616c69642063616c6c6572203360801b6044820152606401610744565b600080546001600160a01b039384166001600160a01b03199182161790915560018054929093169116179055565b6001600160a01b0381163014611c2e576000836006811115611bf157634e487b7160e01b600052602160045260246000fd5b1415611c2357600e80546001600160a01b0384166001600160a01b03199182168117909255600f805490911690911790555b611c2e838383613b1e565b505050565b611c3b611b27565b6001600160a01b0316336001600160a01b031614601a90611c6f5760405162461bcd60e51b81526004016107449190615582565b5080606411158015611c8357506113888111155b611cca5760405162461bcd60e51b81526020600482015260186024820152775072696365206c696d6974206f7574206f662072616e676560401b6044820152606401610744565b601155565b6000610714848484613cb1565b80602042821015611d005760405162461bcd60e51b81526004016107449190615582565b50611d0b6002612792565b7f00000000000000000000000000000000000000000000000000000000000000006001600160a01b031685856000818110611d5657634e487b7160e01b600052603260045260246000fd5b9050602002016020810190611d6b9190614d9c565b6001600160a01b031614601b90611d955760405162461bcd60e51b81526004016107449190615582565b5060003490507f00000000000000000000000000000000000000000000000000000000000000006001600160a01b031663d0e30db0826040518263ffffffff1660e01b81526004016000604051808303818588803b158015611df657600080fd5b505af1158015611e0a573d6000803e3d6000fd5b50506007546001600160a01b037f00000000000000000000000000000000000000000000000000000000000000008116945063a9059cbb9350611e68925016898960008161106257634e487b7160e01b600052603260045260246000fd5b836040518363ffffffff1660e01b8152600401611e869291906153ff565b602060405180830381600087803b158015611ea057600080fd5b505af1158015611eb4573d6000803e3d6000fd5b505050506040513d601f19601f82011682018060405250810190611ed89190614e67565b611ef257634e487b7160e01b600052600160045260246000fd5b60008686611f01600182615b43565b818110611f1e57634e487b7160e01b600052603260045260246000fd5b9050602002016020810190611f339190614d9c565b6001600160a01b03166370a08231866040518263ffffffff1660e01b8152600401611f5e91906153c0565b60206040518083038186803b158015611f7657600080fd5b505afa158015611f8a573d6000803e3d6000fd5b505050506040513d601f19601f82011682018060405250810190611fae91906150ab565b600a54909150612060908890889060199060009060ff166012811115611fe457634e487b7160e01b600052602160045260246000fd5b601281111561200357634e487b7160e01b600052602160045260246000fd5b815260208082019290925260409081016000208151608081018352905463ffffffff8082168352600160201b8204811694830194909452600160401b8104841692820192909252600160601b90910490911660608201528861352e565b876112d1828989612072600182615b43565b81811061208f57634e487b7160e01b600052603260045260246000fd5b90506020020160208101906120a49190614d9c565b6001600160a01b03166370a08231896040518263ffffffff1660e01b815260040161127b91906153c0565b6001600160a01b0381163014611c2e5760405163b1f2df4360e01b815273__$88bebae22a3ad6e62b56c303176513ecf8$__9063b1f2df439061211b90869060199087906004016154f7565b60006040518083038186803b15801561213357600080fd5b505af4158015612147573d6000803e3d6000fd5b505050507f029d9f0c8658b2b4deb9a71c950bd17f92125b77885562de42477ea2ea40b839838360405161217c929190615520565b60405180910390a1611c2e838383613d43565b600754600090819081906121cd906001600160a01b0316857f0000000000000000000000000000000000000000000000000000000000000000613e01565b9150915060006121fd857f0000000000000000000000000000000000000000000000000000000000000000613ee6565b509050846001600160a01b0316816001600160a01b03161461221f5781612221565b825b95945050505050565b6012818154811061223a57600080fd5b9060005260206000209060089182820401919006600402915054906101000a900460030b81565b600754606090610b23906001600160a01b03168484612952565b33612284611b27565b6001600160a01b0316146122aa5760405162461bcd60e51b81526004016107449061566b565b6001600160a01b03811661230f5760405162461bcd60e51b815260206004820152602660248201527f4f776e61626c653a206e6577206f776e657220697320746865207a65726f206160448201526564647265737360d01b6064820152608401610744565b612318816137bd565b50565b6060816020428210156123415760405162461bcd60e51b81526004016107449190615582565b5061234c6002612792565b7f00000000000000000000000000000000000000000000000000000000000000006001600160a01b03168686600081811061239757634e487b7160e01b600052603260045260246000fd5b90506020020160208101906123ac9190614d9c565b6001600160a01b031614601b906123d65760405162461bcd60e51b81526004016107449190615582565b506007546040805160208089028281018201909352888252612421936001600160a01b0316928b92918b918b9182919085019084908082843760009201919091525061303f92505050565b9150348260008151811061244557634e487b7160e01b600052603260045260246000fd5b60200260200101511115601f9061246f5760405162461bcd60e51b81526004016107449190615582565b507f00000000000000000000000000000000000000000000000000000000000000006001600160a01b031663d0e30db0836000815181106124c057634e487b7160e01b600052603260045260246000fd5b60200260200101516040518263ffffffff1660e01b81526004016000604051808303818588803b1580156124f357600080fd5b505af1158015612507573d6000803e3d6000fd5b50506007546001600160a01b037f00000000000000000000000000000000000000000000000000000000000000008116945063a9059cbb9350612565925016898960008161106257634e487b7160e01b600052603260045260246000fd5b8460008151811061258657634e487b7160e01b600052603260045260246000fd5b60200260200101516040518363ffffffff1660e01b81526004016125ab9291906153ff565b602060405180830381600087803b1580156125c557600080fd5b505af11580156125d9573d6000803e3d6000fd5b505050506040513d601f19601f820116820180604052508101906125fd9190614e67565b61261757634e487b7160e01b600052600160045260246000fd5b600a5461264c9083908890889060199060009060ff166012811115610d3b57634e487b7160e01b600052602160045260246000fd5b8160008151811061266d57634e487b7160e01b600052603260045260246000fd5b6020026020010151341115611a0b57611a0b33836000815181106126a157634e487b7160e01b600052603260045260246000fd5b6020026020010151346126b49190615b43565b612f12565b60008084116127195760405162461bcd60e51b815260206004820152602660248201527f5844414f4c6962726172793a20494e53554646494349454e545f494e5055545f604482015265105353d5539560d21b6064820152608401610744565b6000831180156127295750600082115b6127455760405162461bcd60e51b815260040161074490615628565b6000612753856126ff613fcc565b905060006127618285613fcc565b9050600061277b8361277588612710613fcc565b9061404b565b9050612787818361587c565b979650505050505050565b600e54604051630ed4fac360e41b81526001600160a01b039091169063ed4fac30906127c29084906004016154e9565b608060405180830381600087803b1580156127dc57600080fd5b505af11580156127f0573d6000803e3d6000fd5b505050506040513d601f19601f820116820180604052508101906128149190615002565b8051600a8054909190829060ff1916600183601281111561284557634e487b7160e01b600052602160045260246000fd5b021790555060208201516001820155604082015160028201556060909101516003909101805460ff191691151591909117905550565b600d5460009060ff16801561289d57506002546001600160a01b038581169116145b1561071757600a54610714908490849060199060009060ff1660128111156128d557634e487b7160e01b600052602160045260246000fd5b60128111156128f457634e487b7160e01b600052602160045260246000fd5b815260208082019290925260409081016000208151608081018352905463ffffffff8082168352600160201b8204811694830194909452600160401b8104841692820192909252600160601b909104909116606082015260016140a8565b60606002825110156129765760405162461bcd60e51b8152600401610744906156a0565b81516001600160401b0381111561299d57634e487b7160e01b600052604160045260246000fd5b6040519080825280602002602001820160405280156129c6578160200160208202803683370190505b50905082816000815181106129eb57634e487b7160e01b600052603260045260246000fd5b60200260200101818152505060005b60018351612a089190615b43565b811015612af857600080612a7787868581518110612a3657634e487b7160e01b600052603260045260246000fd5b602002602001015187866001612a4c9190615811565b81518110612a6a57634e487b7160e01b600052603260045260246000fd5b6020026020010151613e01565b91509150612aad848481518110612a9e57634e487b7160e01b600052603260045260246000fd5b602002602001015183836126b9565b84612ab9856001615811565b81518110612ad757634e487b7160e01b600052603260045260246000fd5b60200260200101818152505050508080612af090615bc0565b9150506129fa565b509392505050565b6000806000612b0f8585613ee6565b6040516001600160601b0319606084811b8216602084015283901b1660348201529193509150869060480160405160208183030381529060405280519060200120604051602001612bad9291906001600160f81b0319815260609290921b6001600160601b031916600183015260158201527fd82b487e43a65baeb339506bdc74ee3db934eba36ef521f21567d6e410fa2795603582015260550190565b60408051601f1981840301815291905280516020909101209695505050505050565b604080516001600160a01b0385811660248301528481166044830152606480830185905283518084039091018152608490920183526020820180516001600160e01b03166323b872dd60e01b1790529151600092839290881691612c3391906153a4565b6000604051808303816000865af19150503d8060008114612c70576040519150601f19603f3d011682016040523d82523d6000602084013e612c75565b606091505b5091509150818015612c9f575080511580612c9f575080806020019051810190612c9f9190614e67565b612cf75760405162461bcd60e51b8152602060048201526024808201527f5472616e7366657248656c7065723a205452414e534645525f46524f4d5f46416044820152631253115160e21b6064820152608401610744565b505050505050565b60005b60018351612d109190615b43565b8110156113e757600080848381518110612d3a57634e487b7160e01b600052603260045260246000fd5b602002602001015185846001612d509190615811565b81518110612d6e57634e487b7160e01b600052603260045260246000fd5b602002602001015191509150600080612d878484614131565b81519193509150600089612d9c886001615811565b81518110612dba57634e487b7160e01b600052603260045260246000fd5b6020026020010151905060008085602001516001600160a01b0316886001600160a01b031614612dec57826000612df0565b6000835b91509150600060028c51612e049190615b43565b8a10612e10578a612e58565b600754612e58906001600160a01b0316898e612e2d8e6002615811565b81518110612e4b57634e487b7160e01b600052603260045260246000fd5b6020026020010151612b00565b6040805160008152602081019182905263022c0d9f60e01b9091529091506001600160a01b0386169063022c0d9f90612e9a9086908690869060248101615773565b600060405180830381600087803b158015612eb457600080fd5b505af1158015612ec8573d6000803e3d6000fd5b50505050612ed4611b27565b6001600160a01b0316336001600160a01b031614612ef657612ef68688614478565b5050505050505050508080612f0a90615bc0565b915050612d02565b604080516000808252602082019092526001600160a01b038416908390604051612f3c91906153a4565b60006040518083038185875af1925050503d8060008114612f79576040519150601f19603f3d011682016040523d82523d6000602084013e612f7e565b606091505b5050905080611c2e5760405162461bcd60e51b815260206004820152602360248201527f5472616e7366657248656c7065723a204554485f5452414e534645525f46414960448201526213115160ea1b6064820152608401610744565b600e60009054906101000a90046001600160a01b03166001600160a01b031663b9d91aea6040518163ffffffff1660e01b8152600401600060405180830381600087803b15801561302b57600080fd5b505af11580156113e7573d6000803e3d6000fd5b60606002825110156130635760405162461bcd60e51b8152600401610744906156a0565b81516001600160401b0381111561308a57634e487b7160e01b600052604160045260246000fd5b6040519080825280602002602001820160405280156130b3578160200160208202803683370190505b5090508281600183516130c69190615b43565b815181106130e457634e487b7160e01b600052603260045260246000fd5b6020026020010181815250506000600183516131009190615b43565b90505b8015612af857600080613162878661311c600187615b43565b8151811061313a57634e487b7160e01b600052603260045260246000fd5b6020026020010151878681518110612a6a57634e487b7160e01b600052603260045260246000fd5b9150915061319884848151811061318957634e487b7160e01b600052603260045260246000fd5b60200260200101518383613a4a565b846131a4600186615b43565b815181106131c257634e487b7160e01b600052603260045260246000fd5b602002602001018181525050505080806131db90615ba9565b915050613103565b6000546001600160a01b031633148061321457506131ff611b18565b6001600160a01b0316336001600160a01b0316145b6132305760405162461bcd60e51b8152600401610744906156d3565b6001600160a01b03811630146132d35760006001600160a01b038216156132575781613259565b305b6001549091506001600160a01b031615611c2e5760015460405163147ec66d60e11b81526001600160a01b03909116906328fd8cda9061329f9086908590600401615739565b600060405180830381600087803b1580156132b957600080fd5b505af11580156132cd573d6000803e3d6000fd5b50505050505b5050565b600d5460ff16801561333a57506002546001600160a01b031684846132fd600182615b43565b81811061331a57634e487b7160e01b600052603260045260246000fd5b905060200201602081019061332f9190614d9c565b6001600160a01b0316145b156134e8576002546040516370a0823160e01b815230916000916001600160a01b03909116906370a08231906133749085906004016153c0565b60206040518083038186803b15801561338c57600080fd5b505afa1580156133a0573d6000803e3d6000fd5b505050506040513d601f19601f820116820180604052508101906133c491906150ab565b905061340587878780806020026020016040519081016040528093929190818152602001838360200280828437600092019190915250879250612cff915050565b6002546040516370a0823160e01b815260009183916001600160a01b03909116906370a082319061343a9087906004016153c0565b60206040518083038186803b15801561345257600080fd5b505afa158015613466573d6000803e3d6000fd5b505050506040513d601f19601f8201168201806040525081019061348a91906150ab565b6134949190615b43565b90506134a383828760006140a8565b6134ad9082615b43565b9050836001600160a01b0316836001600160a01b0316146134e0576002546134e0906001600160a01b0316848684612bcf565b505050613527565b61352785858580806020026020016040519081016040528093929190818152602001838360200280828437600092019190915250869250612cff915050565b5050505050565b600d5460ff16801561359157506002546001600160a01b03168484613554600182615b43565b81811061357157634e487b7160e01b600052603260045260246000fd5b90506020020160208101906135869190614d9c565b6001600160a01b0316145b1561373d576002546040516370a0823160e01b815230916000916001600160a01b03909116906370a08231906135cb9085906004016153c0565b60206040518083038186803b1580156135e357600080fd5b505afa1580156135f7573d6000803e3d6000fd5b505050506040513d601f19601f8201168201806040525081019061361b91906150ab565b905061365b86868080602002602001604051908101604052809392919081815260200183836020028082843760009201919091525086925061380f915050565b6002546040516370a0823160e01b815260009183916001600160a01b03909116906370a08231906136909087906004016153c0565b60206040518083038186803b1580156136a857600080fd5b505afa1580156136bc573d6000803e3d6000fd5b505050506040513d601f19601f820116820180604052508101906136e091906150ab565b6136ea9190615b43565b90506136f983828760006140a8565b6137039082615b43565b9050836001600160a01b0316836001600160a01b03161461373557600254613735906001600160a01b03168583614521565b5050506113e7565b6113e784848080602002602001604051908101604052809392919081815260200183836020028082843760009201919091525085925061380f915050565b6000610b2383836040518060400160405280601e81526020017f536166654d6174683a207375627472616374696f6e206f766572666c6f770000815250614637565b600980546001600160a01b038381166001600160a01b0319831681179093556040519116919082907f8be0079c531659141344cd1fd0a4f28419497f9722a3daafe3b4186f6b6457e090600090a35050565b60005b600183516138209190615b43565b811015611c2e5760008084838151811061384a57634e487b7160e01b600052603260045260246000fd5b6020026020010151858460016138609190615811565b8151811061387e57634e487b7160e01b600052603260045260246000fd5b6020026020010151915091506000806138978484614131565b9150915060008260000151905060008060008086602001516001600160a01b0316896001600160a01b0316146138d657866080015187606001516138e1565b866060015187608001515b91509150613915828a6001600160a01b03166370a08231886040518263ffffffff1660e01b815260040161127b91906153c0565b92506139228383836126b9565b935050505060008085602001516001600160a01b0316886001600160a01b03161461394f57826000613953565b6000835b91509150600060028c516139679190615b43565b8a10613973578a613990565b600754613990906001600160a01b0316898e612e2d8e6002615811565b6040805160008152602081019182905263022c0d9f60e01b9091529091506001600160a01b0386169063022c0d9f906139d29086908690869060248101615773565b600060405180830381600087803b1580156139ec57600080fd5b505af1158015613a00573d6000803e3d6000fd5b50505050613a0c611b27565b6001600160a01b0316336001600160a01b031614613a2e57613a2e8688614478565b5050505050505050508080613a4290615bc0565b915050613812565b6000808411613aab5760405162461bcd60e51b815260206004820152602760248201527f5844414f4c6962726172793a20494e53554646494349454e545f4f555450555460448201526617d05353d5539560ca1b6064820152608401610744565b600083118015613abb5750600082115b613ad75760405162461bcd60e51b815260040161074490615628565b6000613aef612710613ae98688613fcc565b90613fcc565b90506000613b036126ff613ae9868961377b565b9050613b146001612775838561587c565b9695505050505050565b6000546001600160a01b0316331480613b4f5750613b3a611b18565b6001600160a01b0316336001600160a01b0316145b613b6b5760405162461bcd60e51b8152600401610744906156d3565b6001600160a01b0381163014611c2e5760405163085b199160e11b815273__$88bebae22a3ad6e62b56c303176513ecf8$__906310b6332290613bb790869086906002906004016154c1565b60006040518083038186803b158015613bcf57600080fd5b505af4158015613be3573d6000803e3d6000fd5b505050507fb38e5ed9c964a80c4cf1080ee37772ec4a2552b0d5b9713873d3d6efb38e6fd8838333604051613c1a93929190615491565b60405180910390a160006001600160a01b03821615613c395781613c3b565b305b6001549091506001600160a01b0316156113e7576001546040516349443ceb60e11b81526001600160a01b039091169063928879d690613c8390879087908690600401615491565b600060405180830381600087803b158015613c9d57600080fd5b505af11580156112fc573d6000803e3d6000fd5b6000808411613d025760405162461bcd60e51b815260206004820181905260248201527f5844414f4c6962726172793a20494e53554646494349454e545f414d4f554e546044820152606401610744565b600083118015613d125750600082115b613d2e5760405162461bcd60e51b815260040161074490615628565b82613d398584613fcc565b610714919061587c565b6000546001600160a01b0316331480613d745750613d5f611b18565b6001600160a01b0316336001600160a01b0316145b613d905760405162461bcd60e51b8152600401610744906156d3565b6001600160a01b0381163014611c2e5760006001600160a01b03821615613db75781613db9565b305b6001549091506001600160a01b0316156113e75760015460405163b8d05b1160e01b81526001600160a01b039091169063b8d05b1190613c839087908790869060040161553b565b6000806000613e108585613ee6565b509050613e1e868686612b00565b50600080613e2d888888612b00565b6001600160a01b0316630902f1ac6040518163ffffffff1660e01b815260040160606040518083038186803b158015613e6557600080fd5b505afa158015613e79573d6000803e3d6000fd5b505050506040513d601f19601f82011682018060405250810190613e9d9190615058565b506001600160701b031691506001600160701b03169150826001600160a01b0316876001600160a01b031614613ed4578082613ed7565b81815b90999098509650505050505050565b600080826001600160a01b0316846001600160a01b03161415613f4b5760405162461bcd60e51b815260206004820181905260248201527f5844414f4c6962726172793a204944454e544943414c5f4144445245535345536044820152606401610744565b826001600160a01b0316846001600160a01b031610613f6b578284613f6e565b83835b90925090506001600160a01b038216613fc55760405162461bcd60e51b81526020600482015260196024820152785844414f4c6962726172793a205a45524f5f4144445245535360381b6044820152606401610744565b9250929050565b600082613fdb57506000610b26565b6000613fe78385615b24565b905082613ff4858361587c565b14610b235760405162461bcd60e51b815260206004820152602160248201527f536166654d6174683a206d756c7469706c69636174696f6e206f766572666c6f6044820152607760f81b6064820152608401610744565b6000806140588385615811565b905083811015610b235760405162461bcd60e51b815260206004820152601b60248201527a536166654d6174683a206164646974696f6e206f766572666c6f7760281b6044820152606401610744565b600f5460405163051ac12560e51b81526000916001600160a01b03169063a35824a0906140df908890889088908890600401615418565b602060405180830381600087803b1580156140f957600080fd5b505af115801561410d573d6000803e3d6000fd5b505050506040513d601f19601f8201168201806040525081019061222191906150ab565b6040805160e081018252600080825260208201819052918101829052606081018290526080810182905260a0810182905260c0810191909152600754600090614184906001600160a01b03168585612b00565b6001600160a01b031680835260408051630dfe168160e01b81529051630dfe168191600480820192602092909190829003018186803b1580156141c657600080fd5b505afa1580156141da573d6000803e3d6000fd5b505050506040513d601f19601f820116820180604052508101906141fe9190614db8565b82600001516001600160a01b031663d21220a76040518163ffffffff1660e01b815260040160206040518083038186803b15801561423b57600080fd5b505afa15801561424f573d6000803e3d6000fd5b505050506040513d601f19601f820116820180604052508101906142739190614db8565b6001600160a01b03908116604080860191909152918116602080860182905260009182526013905291909120600101541615806142d157506040808301516001600160a01b0390811660009081526013602052919091206001015416155b905080156143775781600001516001600160a01b0316630902f1ac6040518163ffffffff1660e01b815260040160606040518083038186803b15801561431657600080fd5b505afa15801561432a573d6000803e3d6000fd5b505050506040513d601f19601f8201168201806040525081019061434e9190615058565b506001600160701b039081166080850152166060830152600b546143729083614668565b613fc5565b81602001516001600160a01b031663313ce5676040518163ffffffff1660e01b815260040160206040518083038186803b1580156143b457600080fd5b505afa1580156143c8573d6000803e3d6000fd5b505050506040513d601f19601f820116820180604052508101906143ec91906152d0565b82604001516001600160a01b031663313ce5676040518163ffffffff1660e01b815260040160206040518083038186803b15801561442957600080fd5b505afa15801561443d573d6000803e3d6000fd5b505050506040513d601f19601f8201168201806040525081019061446191906152d0565b60ff90811660c08501521660a08301529250929050565b80600001516001600160a01b0316630902f1ac6040518163ffffffff1660e01b815260040160606040518083038186803b1580156144b557600080fd5b505afa1580156144c9573d6000803e3d6000fd5b505050506040513d601f19601f820116820180604052508101906144ed9190615058565b506001600160701b039081166080840152166060820152811561451857614513816146cf565b6132d3565b6132d381614820565b600080846001600160a01b031663a9059cbb85856040516024016145469291906153ff565b6040516020818303038152906040529060e01b6020820180516001600160e01b03838183161783525050505060405161457f91906153a4565b6000604051808303816000865af19150503d80600081146145bc576040519150601f19603f3d011682016040523d82523d6000602084013e6145c1565b606091505b50915091508180156145eb5750805115806145eb5750808060200190518101906145eb9190614e67565b6135275760405162461bcd60e51b815260206004820152601f60248201527f5472616e7366657248656c7065723a205452414e534645525f4641494c4544006044820152606401610744565b6000818484111561465b5760405162461bcd60e51b8152600401610744919061556f565b5060006122218486615b43565b80516001600160a01b031660009081526010602052604090206002015482146132d357606081015181516001600160a01b03908116600090815260106020526040808220939093556080840151845183168252838220600101559251168252902060020155565b600081608001516b204fce5e3e2502611000000083606001516146f29190615b24565b6146fc919061587c565b82516001600160a01b03908116600090815260106020526040808220600101548651909316825281205492935091614740906b204fce5e3e25026110000000615b24565b61474a919061587c565b905060006011546005600a61475f91906159c0565b6147699190615811565b905060008161477a6005600a6159c0565b6147849085615b24565b61478e919061587c565b9050600061479e6005600a6159c0565b6147a88486615b24565b6147b2919061587c565b90508482111580156147c45750808511155b612cf75760405162461bcd60e51b815260206004820152602760248201527f45786365737369766520646576696174696f6e2066726f6d2070726576696f756044820152667320707269636560c81b6064820152608401610744565b600061482b826148b3565b9050600080614842846020015185604001516148fe565b915091508282131580156148565750808313155b6113e75760405162461bcd60e51b815260206004820152602860248201527f45786365737369766520646576696174696f6e2066726f6d20436861696e4c696044820152676e6b20707269636560c01b6064820152608401610744565b600081608001518260a001518360c0015160176148d09190615829565b6148da9190615b5a565b6148e590600a6159cf565b83606001516148f49190615b24565b610b26919061587c565b6001600160a01b038083166000908152601360209081526040808320815160a08101835281546001600160401b038082168352600160401b8204811695830195909552600160801b8104851693820193909352600160c01b909204909216606082015260019091015490921660808301819052909182916149915760405162461bcd60e51b8152600401610744906156fd565b600081608001516001600160a01b031663feaf968c6040518163ffffffff1660e01b815260040160a06040518083038186803b1580156149d057600080fd5b505afa1580156149e4573d6000803e3d6000fd5b505050506040513d601f19601f82011682018060405250810190614a089190615281565b5050506001600160a01b03808816600090815260136020908152604091829020825160a08101845281546001600160401b038082168352600160401b8204811694830194909452600160801b8104841694820194909452600160c01b909304909116606083015260010154909116608082018190529193509150614a9e5760405162461bcd60e51b8152600401610744906156fd565b600081608001516001600160a01b031663feaf968c6040518163ffffffff1660e01b815260040160a06040518083038186803b158015614add57600080fd5b505afa158015614af1573d6000803e3d6000fd5b505050506040513d601f19601f82011682018060405250810190614b159190615281565b5050865185516014549395506001600160401b039182169450169160011180159150614b45575060125460145411155b614b8f5760405162461bcd60e51b815260206004820152601b60248201527a52756c654f757450657263656e74206f7574206f662072616e676560281b6044820152606401610744565b600060126001601454614ba29190615b43565b81548110614bc057634e487b7160e01b600052603260045260246000fd5b60009182526020822060088204015460079091166004026101000a9004600390810b900b915081614bf18486615aa1565b614bfb9084615aa1565b614c0760056004615811565b614c1290600a6159c0565b614c1c86886157d0565b614c269190615aa1565b614c3091906157d0565b614c3a9190615aa1565b6002614c4860056004615811565b614c5390600a6159c0565b614c5d91906159a4565b614c6791906157d0565b90508481614c7760056002615b24565b614c82906017615811565b614c8d906008615811565b614c9890600a6159c0565b614ca2908a615aa1565b614cac919061584e565b614cb6919061584e565b995084816008614cc860056002615b24565b614cd3906017615b43565b614cdd9190615b43565b614ce890600a6159c0565b614cf2908a615aa1565b614cfc9190615aa1565b614d06919061584e565b985050505050505050509250929050565b60008083601f840112614d28578081fd5b5081356001600160401b03811115614d3e578182fd5b6020830191508360208260051b8501011115613fc557600080fd5b80518015158114614d6957600080fd5b919050565b80516001600160701b0381168114614d6957600080fd5b80516001600160501b0381168114614d6957600080fd5b600060208284031215614dad578081fd5b8135610b2381615c33565b600060208284031215614dc9578081fd5b8151610b2381615c33565b60008060408385031215614de6578081fd5b8235614df181615c33565b91506020830135614e0181615c33565b809150509250929050565b60008060008060808587031215614e21578182fd5b8435614e2c81615c33565b93506020850135614e3c81615c33565b92506040850135614e4c81615c33565b91506060850135614e5c81615c33565b939692955090935050565b600060208284031215614e78578081fd5b610b2382614d59565b600080600060608486031215614e95578283fd5b833560078110614ea3578384fd5b92506020840135614eb381615c33565b91506040840135614ec381615c33565b809150509250925092565b600060208284031215614edf578081fd5b8135610b2381615c48565b600080600083850360c0811215614eff578182fd5b8435614f0a81615c48565b93506080601f1982011215614f1d578182fd5b50614f2860806157a0565b6020850135614f3681615c55565b81526040850135614f4681615c55565b60208201526060850135614f5981615c55565b60408201526080850135614f6c81615c55565b6060820152915060a0840135614ec381615c33565b60008082840360a0811215614f94578283fd5b6080811215614fa1578283fd5b50614fac60806157a0565b8335614fb781615c33565b81526020840135614fc781615c33565b60208201526040840135614fda81615c33565b60408201526060840135614fed81615c33565b606082015291506080830135614e0181615c33565b600060808284031215615013578081fd5b61501d60806157a0565b825161502881615c48565b80825250602083015160208201526040830151604082015261504c60608401614d59565b60608201529392505050565b60008060006060848603121561506c578081fd5b61507584614d6e565b925061508360208501614d6e565b91506040840151614ec381615c55565b6000602082840312156150a4578081fd5b5035919050565b6000602082840312156150bc578081fd5b5051919050565b6000806000806000608086880312156150da578283fd5b8535945060208601356001600160401b038111156150f6578384fd5b61510288828901614d17565b909550935050604086013561511681615c33565b949793965091946060013592915050565b60008060408385031215615139578182fd5b823591506020808401356001600160401b0380821115615157578384fd5b818601915086601f83011261516a578384fd5b81358181111561517c5761517c615c1d565b8060051b915061518d8483016157a0565b8181528481019084860184860187018b10156151a7578788fd5b8795505b838610156151d557803594506151c085615c33565b848352600195909501949186019186016151ab565b508096505050505050509250929050565b60008060008060008060a087890312156151fe578384fd5b863595506020870135945060408701356001600160401b03811115615221578485fd5b61522d89828a01614d17565b909550935050606087013561524181615c33565b80925050608087013590509295509295509295565b60008060006060848603121561526a578081fd5b505081359360208301359350604090920135919050565b600080600080600060a08688031215615298578283fd5b6152a186614d85565b94506020860151935060408601519250606086015191506152c460808701614d85565b90509295509295909350565b6000602082840312156152e1578081fd5b815160ff81168114610b23578182fd5b60008151808452615309816020860160208601615b7d565b601f01601f19169290920160200192915050565b6007811061532d5761532d615c07565b9052565b6013811061532d5761532d615c07565b805163ffffffff908116835260208083015182169084015260408083015182169084015260609182015116910152565b80516001600160a01b03908116835260208083015182169084015260408083015182169084015260609182015116910152565b600082516153b6818460208701615b7d565b9190910192915050565b6001600160a01b0391909116815260200190565b6001600160a01b03948516815292841660208401529083166040830152909116606082015260800190565b6001600160a01b03929092168252602082015260400190565b6001600160a01b03851681526020810184905260e0810161543c6040830185615341565b82151560c083015295945050505050565b6020808252825182820181905260009190848201906040850190845b8181101561548557835183529284019291840191600101615469565b50909695505050505050565b6060810161549f828661531d565b6001600160a01b03938416602083015291909216604090920191909152919050565b606081016154cf828661531d565b6001600160a01b0393909316602082015260400152919050565b60208101610b268284615331565b60c081016155058286615331565b8360208301526155186040830184615341565b949350505050565b60a0810161552e8285615331565b6107176020830184615341565b60c081016155498286615331565b6155566020830185615341565b6001600160a01b039290921660a0919091015292915050565b600060208252610b2360208301846152f1565b6000602080835281845483600182811c9150808316806155a357607f831692505b8583108114156155c157634e487b7160e01b87526022600452602487fd5b8786018381526020018180156155de57600181146155ef57615619565b60ff19861682528782019650615619565b60008b815260209020895b86811015615613578154848201529085019089016155fa565b83019750505b50949998505050505050505050565b60208082526023908201527f5844414f4c6962726172793a20494e53554646494349454e545f4c495155494460408201526249545960e81b606082015260800190565b6020808252818101527f4f776e61626c653a2063616c6c6572206973206e6f7420746865206f776e6572604082015260600190565b6020808252601990820152780b088829e98d2c4e4c2e4f27440929cac82989288bea082a89603b1b604082015260600190565b60208082526010908201526f496e76616c69642063616c6c6572203160801b604082015260600190565b60208082526014908201527310da1a585b931a5b9ac81b9bdd08199b9bdd5b9960621b604082015260600190565b60808101610b268284615371565b60a081016157478285615371565b6001600160a01b039290921660809190910152919050565b82815260a081016107176020830184615371565b600085825284602083015260018060a01b038416604083015260806060830152613b1460808301846152f1565b604051601f8201601f191681016001600160401b03811182821017156157c8576157c8615c1d565b604052919050565b600080821280156001600160ff1b03849003851316156157f2576157f2615bdb565b600160ff1b839003841281161561580b5761580b615bdb565b50500190565b6000821982111561582457615824615bdb565b500190565b600060ff821660ff84168060ff0382111561584657615846615bdb565b019392505050565b60008261585d5761585d615bf1565b600160ff1b82146000198414161561587757615877615bdb565b500590565b60008261588b5761588b615bf1565b500490565b80825b60018086116158a257506158cd565b8187048211156158b4576158b4615bdb565b808616156158c157918102915b9490941c938002615893565b94509492505050565b60008280156158ec57600181146158f6576158ff565b6001915050615518565b82915050615518565b508161590d57506000615518565b5060016000821380821461592657801561593d5761594f565b82860483111561593857615938615bdb565b61594f565b82860583121561594f5761594f615bdb565b508083161561595b5750805b61596c858460011c84850284615890565b808704821160008313161561598357615983615bdb565b808605821260008312161561599a5761599a615bdb565b0295945050505050565b6000610b236001600160ff1b03600160ff1b60ff8616856158d6565b6000610b2360001984846159dd565b6000610b2360001960ff8516845b6000826159ec57506001610717565b816159f957506000610717565b8160018114615a0f5760028114615a1957615a46565b6001915050610717565b60ff841115615a2a57615a2a615bdb565b6001841b915084821115615a4057615a40615bdb565b50610717565b5060208310610133831016604e8410600b8410161715615a79575081810a83811115615a7457615a74615bdb565b610717565b615a868484846001615890565b808604821115615a9857615a98615bdb565b02949350505050565b60006001600160ff1b0381841382841380821686840486111615615ac757615ac7615bdb565b600160ff1b84871282811687830589121615615ae557615ae5615bdb565b858712925087820587128484161615615b0057615b00615bdb565b87850587128184161615615b1657615b16615bdb565b505050929093029392505050565b6000816000190483118215151615615b3e57615b3e615bdb565b500290565b600082821015615b5557615b55615bdb565b500390565b600060ff821660ff841680821015615b7457615b74615bdb565b90039392505050565b60005b83811015615b98578181015183820152602001615b80565b838111156113e75750506000910152565b600081615bb857615bb8615bdb565b506000190190565b6000600019821415615bd457615bd4615bdb565b5060010190565b634e487b7160e01b600052601160045260246000fd5b634e487b7160e01b600052601260045260246000fd5b634e487b7160e01b600052602160045260246000fd5b634e487b7160e01b600052604160045260246000fd5b6001600160a01b038116811461231857600080fd5b6013811061231857600080fd5b63ffffffff8116811461231857600080fdfea26469706673582212202af4528a2c8175b606bf9125c41caf2dd81ac3acc699439d9ca0038af525e46464736f6c634300080300335844414f54616b65723a2045786365737369766520696e70757420616d6f756e745844414f54616b65723a20496e73756666696369656e74206f757470757420616d6f756e74",
  "linkReferences": {
    "contracts/libraries/WireLibrary.sol": {
      "WireLibrary": [
        {
          "length": 20,
          "start": 30195
        },
        {
          "length": 20,
          "start": 35740
        },
        {
          "length": 20,
          "start": 42552
        }
      ]
    }
  },
  "deployedLinkReferences": {
    "contracts/libraries/WireLibrary.sol": {
      "WireLibrary": [
        {
          "length": 20,
          "start": 2885
        },
        {
          "length": 20,
          "start": 8430
        },
        {
          "length": 20,
          "start": 15242
        }
      ]
    }
  }
}