{
  "_format": "hh-sol-artifact-1",
  "contractName": "RCrssToken",
  "sourceName": "contracts/repay/RCrssToken.sol",
  "abi": [
    {
      "inputs": [],
      "stateMutability": "nonpayable",
      "type": "constructor"
    },
    {
      "anonymous": false,
      "inputs": [
        {
          "indexed": true,
          "internalType": "address",
          "name": "owner",
          "type": "address"
        },
        {
          "indexed": true,
          "internalType": "address",
          "name": "spender",
          "type": "address"
        },
        {
          "indexed": false,
          "internalType": "uint256",
          "name": "value",
          "type": "uint256"
        }
      ],
      "name": "Approval",
      "type": "event"
    },
    {
      "anonymous": false,
      "inputs": [
        {
          "indexed": false,
          "internalType": "uint8",
          "name": "version",
          "type": "uint8"
        }
      ],
      "name": "Initialized",
      "type": "event"
    },
    {
      "anonymous": false,
      "inputs": [
        {
          "indexed": true,
          "internalType": "address",
          "name": "previousOwner",
          "type": "address"
        },
        {
          "indexed": true,
          "internalType": "address",
          "name": "newOwner",
          "type": "address"
        }
      ],
      "name": "OwnershipTransferred",
      "type": "event"
    },
    {
      "anonymous": false,
      "inputs": [
        {
          "indexed": true,
          "internalType": "address",
          "name": "from",
          "type": "address"
        },
        {
          "indexed": true,
          "internalType": "address",
          "name": "to",
          "type": "address"
        },
        {
          "indexed": false,
          "internalType": "uint256",
          "name": "value",
          "type": "uint256"
        }
      ],
      "name": "Transfer",
      "type": "event"
    },
    {
      "inputs": [
        {
          "internalType": "address",
          "name": "_owner",
          "type": "address"
        },
        {
          "internalType": "address",
          "name": "_spender",
          "type": "address"
        }
      ],
      "name": "allowance",
      "outputs": [
        {
          "internalType": "uint256",
          "name": "",
          "type": "uint256"
        }
      ],
      "stateMutability": "view",
      "type": "function"
    },
    {
      "inputs": [
        {
          "internalType": "address",
          "name": "spender",
          "type": "address"
        },
        {
          "internalType": "uint256",
          "name": "amount",
          "type": "uint256"
        }
      ],
      "name": "approve",
      "outputs": [
        {
          "internalType": "bool",
          "name": "",
          "type": "bool"
        }
      ],
      "stateMutability": "nonpayable",
      "type": "function"
    },
    {
      "inputs": [
        {
          "internalType": "address",
          "name": "account",
          "type": "address"
        }
      ],
      "name": "balanceOf",
      "outputs": [
        {
          "internalType": "uint256",
          "name": "",
          "type": "uint256"
        }
      ],
      "stateMutability": "view",
      "type": "function"
    },
    {
      "inputs": [
        {
          "internalType": "address",
          "name": "from",
          "type": "address"
        },
        {
          "internalType": "uint256",
          "name": "amount",
          "type": "uint256"
        }
      ],
      "name": "burn",
      "outputs": [],
      "stateMutability": "nonpayable",
      "type": "function"
    },
    {
      "inputs": [
        {
          "internalType": "address",
          "name": "_repay",
          "type": "address"
        }
      ],
      "name": "changeRepay",
      "outputs": [],
      "stateMutability": "nonpayable",
      "type": "function"
    },
    {
      "inputs": [],
      "name": "decimals",
      "outputs": [
        {
          "internalType": "uint8",
          "name": "",
          "type": "uint8"
        }
      ],
      "stateMutability": "view",
      "type": "function"
    },
    {
      "inputs": [],
      "name": "initialize",
      "outputs": [],
      "stateMutability": "nonpayable",
      "type": "function"
    },
    {
      "inputs": [
        {
          "internalType": "address",
          "name": "to",
          "type": "address"
        },
        {
          "internalType": "uint256",
          "name": "amount",
          "type": "uint256"
        }
      ],
      "name": "mint",
      "outputs": [],
      "stateMutability": "nonpayable",
      "type": "function"
    },
    {
      "inputs": [],
      "name": "name",
      "outputs": [
        {
          "internalType": "string",
          "name": "",
          "type": "string"
        }
      ],
      "stateMutability": "view",
      "type": "function"
    },
    {
      "inputs": [],
      "name": "owner",
      "outputs": [
        {
          "internalType": "address",
          "name": "",
          "type": "address"
        }
      ],
      "stateMutability": "view",
      "type": "function"
    },
    {
      "inputs": [],
      "name": "renounceOwnership",
      "outputs": [],
      "stateMutability": "nonpayable",
      "type": "function"
    },
    {
      "inputs": [],
      "name": "symbol",
      "outputs": [
        {
          "internalType": "string",
          "name": "",
          "type": "string"
        }
      ],
      "stateMutability": "view",
      "type": "function"
    },
    {
      "inputs": [],
      "name": "totalSupply",
      "outputs": [
        {
          "internalType": "uint256",
          "name": "",
          "type": "uint256"
        }
      ],
      "stateMutability": "view",
      "type": "function"
    },
    {
      "inputs": [
        {
          "internalType": "address",
          "name": "recipient",
          "type": "address"
        },
        {
          "internalType": "uint256",
          "name": "amount",
          "type": "uint256"
        }
      ],
      "name": "transfer",
      "outputs": [
        {
          "internalType": "bool",
          "name": "",
          "type": "bool"
        }
      ],
      "stateMutability": "nonpayable",
      "type": "function"
    },
    {
      "inputs": [
        {
          "internalType": "address",
          "name": "sender",
          "type": "address"
        },
        {
          "internalType": "address",
          "name": "recipient",
          "type": "address"
        },
        {
          "internalType": "uint256",
          "name": "amount",
          "type": "uint256"
        }
      ],
      "name": "transferFrom",
      "outputs": [
        {
          "internalType": "bool",
          "name": "",
          "type": "bool"
        }
      ],
      "stateMutability": "nonpayable",
      "type": "function"
    },
    {
      "inputs": [
        {
          "internalType": "address",
          "name": "newOwner",
          "type": "address"
        }
      ],
      "name": "transferOwnership",
      "outputs": [],
      "stateMutability": "nonpayable",
      "type": "function"
    },
    {
      "inputs": [
        {
          "internalType": "uint256",
          "name": "",
          "type": "uint256"
        }
      ],
      "name": "victims",
      "outputs": [
        {
          "internalType": "address",
          "name": "",
          "type": "address"
        }
      ],
      "stateMutability": "view",
      "type": "function"
    },
    {
      "inputs": [],
      "name": "victimsLen",
      "outputs": [
        {
          "internalType": "uint256",
          "name": "",
          "type": "uint256"
        }
      ],
      "stateMutability": "view",
      "type": "function"
    }
  ],
  "bytecode": "0x608060405234801561001057600080fd5b5061001a3361001f565b61006f565b600080546001600160a01b038381166001600160a01b0319831681178455604051919092169283917f8be0079c531659141344cd1fd0a4f28419497f9722a3daafe3b4186f6b6457e09190a35050565b610f8d8061007e6000396000f3fe608060405234801561001057600080fd5b50600436106100e65760003560e01c806306fdde03146100eb578063095ea7b31461012457806318160ddd1461014757806323b872dd14610159578063313ce5671461016c57806340c10f191461017b57806358223f8f1461019057806370a08231146101a3578063715018a6146101b65780638129fc1c146101be5780638da5cb5b146101c657806395d89b41146101e65780639dc29fac14610207578063a9059cbb1461021a578063bd85440a1461022d578063dafee77d14610235578063dd62ed3e14610248578063f2fde38b14610281575b600080fd5b60408051808201909152600b81526a2921a929a9902a37b5b2b760a91b60208201525b60405161011b9190610dcf565b60405180910390f35b610137610132366004610d8e565b610294565b604051901515815260200161011b565b6002545b60405190815260200161011b565b610137610167366004610d53565b6102aa565b6040516012815260200161011b565b61018e610189366004610d8e565b61036a565b005b61018e61019e366004610d00565b61046b565b61014b6101b1366004610d00565b6104d7565b61018e6104f6565b61018e610531565b6101ce610646565b6040516001600160a01b03909116815260200161011b565b604080518082019091526005815264524352535360d81b602082015261010e565b61018e610215366004610d8e565b610655565b610137610228366004610d8e565b6107be565b60045461014b565b6101ce610243366004610db7565b6107cb565b61014b610256366004610d21565b6001600160a01b03918216600090815260016020908152604080832093909416825291909152205490565b61018e61028f366004610d00565b6107f5565b60006102a1338484610892565b50600192915050565b60006001600160a01b0384163314610355576001600160a01b03841660009081526001602090815260408083203384529091529020548281101561033f5760405162461bcd60e51b815260206004820152602160248201527f5472616e7366657220616d6f756e74206578636565647320616c6c6f77616e636044820152606560f81b60648201526084015b60405180910390fd5b610353853361034e8685610eea565b610892565b505b61036084848461097f565b5060019392505050565b6005546001600160a01b03163314801561038e57506005546001600160a01b031615155b6103aa5760405162461bcd60e51b815260040161033690610e22565b6040805180820190915260138152600080516020610f3883398151915260208201526001600160a01b0383166103f35760405162461bcd60e51b81526004016103369190610dcf565b5080600260008282546104069190610ed2565b90915550506001600160a01b03821660009081526003602052604081208054839290610433908490610ed2565b90915550506040518181526001600160a01b03831690600090600080516020610f188339815191529060200160405180910390a35050565b6040805180820190915260138152600080516020610f3883398151915260208201526001600160a01b0382166104b45760405162461bcd60e51b81526004016103369190610dcf565b50600580546001600160a01b0319166001600160a01b0392909216919091179055565b6001600160a01b0381166000908152600360205260409020545b919050565b336104ff610646565b6001600160a01b0316146105255760405162461bcd60e51b815260040161033690610e9d565b61052f6000610b08565b565b600061053d6001610b58565b90508015610559576000805460ff60a81b1916600160a81b1790555b33610562610646565b6001600160a01b0316146105885760405162461bcd60e51b815260040161033690610e9d565b6105ae7370997970c51812dc3a010c7d01b50e0d17dc79c8670de0b6b3a7640000610bef565b6105d4733c44cdddb6a900fa2b585dd299e03d12fa4293bc678ac7230489e80000610bef565b6105fb7390f79bf6eb2c4f870365e785982e1f101e93b90668056bc75e2d63100000610bef565b8015610643576000805460ff60a81b19169055604051600181527f7f26b83ff96e1f2b6a682f133852f6798a09c465da95921460cefb38474024989060200160405180910390a15b50565b6000546001600160a01b031690565b6005546001600160a01b03163314801561067957506005546001600160a01b031615155b6106955760405162461bcd60e51b815260040161033690610e22565b6040805180820190915260138152600080516020610f3883398151915260208201526001600160a01b0383166106de5760405162461bcd60e51b81526004016103369190610dcf565b506001600160a01b038216600090815260036020908152604091829020548251808401909352601683527552435253533a20457863656564732062616c616e636560501b91830191909152908282101561074b5760405162461bcd60e51b81526004016103369190610dcf565b506107568282610eea565b6001600160a01b03841660009081526003602052604081209190915560028054849290610784908490610eea565b90915550506040518281526000906001600160a01b03851690600080516020610f18833981519152906020015b60405180910390a3505050565b60006102a133848461097f565b600481815481106107db57600080fd5b6000918252602090912001546001600160a01b0316905081565b336107fe610646565b6001600160a01b0316146108245760405162461bcd60e51b815260040161033690610e9d565b6001600160a01b0381166108895760405162461bcd60e51b815260206004820152602660248201527f4f776e61626c653a206e6577206f776e657220697320746865207a65726f206160448201526564647265737360d01b6064820152608401610336565b61064381610b08565b6040805180820190915260138152600080516020610f3883398151915260208201526001600160a01b0384166108db5760405162461bcd60e51b81526004016103369190610dcf565b506040805180820190915260138152600080516020610f3883398151915260208201526001600160a01b0383166109255760405162461bcd60e51b81526004016103369190610dcf565b506001600160a01b0383811660008181526001602090815260408083209487168084529482529182902085905590518481527f8c5be1e5ebec7d5bd14f71427d1e84f3dd0314c0f7b2291e5b200ac8c7c3b92591016107b1565b6040805180820190915260138152600080516020610f3883398151915260208201526001600160a01b0384166109c85760405162461bcd60e51b81526004016103369190610dcf565b506040805180820190915260138152600080516020610f3883398151915260208201526001600160a01b038316610a125760405162461bcd60e51b81526004016103369190610dcf565b506001600160a01b038316600090815260036020908152604091829020548251808401909352601683527552435253533a20457863656564732062616c616e636560501b918301919091529082821015610a7f5760405162461bcd60e51b81526004016103369190610dcf565b50610a8a8282610eea565b6001600160a01b038086166000908152600360205260408082209390935590851681529081208054849290610ac0908490610ed2565b92505081905550826001600160a01b0316846001600160a01b0316600080516020610f1883398151915284604051610afa91815260200190565b60405180910390a350505050565b600080546001600160a01b038381166001600160a01b0319831681178455604051919092169283917f8be0079c531659141344cd1fd0a4f28419497f9722a3daafe3b4186f6b6457e09190a35050565b60008054600160a81b900460ff1615610ba1578160ff166001148015610b7d5750303b155b610b995760405162461bcd60e51b815260040161033690610e4f565b5060006104f1565b60005460ff808416600160a01b9092041610610bcf5760405162461bcd60e51b815260040161033690610e4f565b506000805460ff60a01b1916600160a01b60ff84160217905560016104f1565b6001600160a01b03821615801590610c0657508015155b8015610c2857506001600160a01b038216600090815260036020526040902054155b610c635760405162461bcd60e51b815260206004820152600c60248201526b496e76616c6964206c6f737360a01b6044820152606401610336565b6001600160a01b038216600090815260036020526040812082905560028054839290610c90908490610ed2565b9091555050600480546001810182556000919091527f8a35acfbc15ff81a39ae7d344fd709f28e8600b4aa8c65c6b64bfe7fe36bd19b0180546001600160a01b0319166001600160a01b03939093169290921790915550565b80356001600160a01b03811681146104f157600080fd5b600060208284031215610d11578081fd5b610d1a82610ce9565b9392505050565b60008060408385031215610d33578081fd5b610d3c83610ce9565b9150610d4a60208401610ce9565b90509250929050565b600080600060608486031215610d67578081fd5b610d7084610ce9565b9250610d7e60208501610ce9565b9150604084013590509250925092565b60008060408385031215610da0578182fd5b610da983610ce9565b946020939093013593505050565b600060208284031215610dc8578081fd5b5035919050565b6000602080835283518082850152825b81811015610dfb57858101830151858201604001528201610ddf565b81811115610e0c5783604083870101525b50601f01601f1916929092016040019392505050565b6020808252601390820152722921a929a99d103bb937b7339031b0b63632b960691b604082015260600190565b6020808252602e908201527f496e697469616c697a61626c653a20636f6e747261637420697320616c72656160408201526d191e481a5b9a5d1a585b1a5e995960921b606082015260800190565b6020808252818101527f4f776e61626c653a2063616c6c6572206973206e6f7420746865206f776e6572604082015260600190565b60008219821115610ee557610ee5610f01565b500190565b600082821015610efc57610efc610f01565b500390565b634e487b7160e01b600052601160045260246000fdfeddf252ad1be2c89b69c2b068fc378daa952ba7f163c4a11628f55a4df523b3ef52435253533a205a65726f206164647265737300000000000000000000000000a26469706673582212206dc737ad153c56a353323669d0bffe7be715936d71e3df58b1203c3a35606f0864736f6c63430008030033",
  "linkReferences": {},
  "deployedLinkReferences": {}
}