{
  "_format": "hh-sol-artifact-1",
  "contractName": "XDAOFarm",
  "sourceName": "contracts/farm/XDAOFarm.sol",
  "abi": [
    {
      "inputs": [
        {
          "internalType": "address",
          "name": "crss",
          "type": "address"
        },
        {
          "internalType": "uint256",
          "name": "_crssPerBlock",
          "type": "uint256"
        },
        {
          "internalType": "uint256",
          "name": "_startBlock",
          "type": "uint256"
        }
      ],
      "stateMutability": "nonpayable",
      "type": "constructor"
    },
    {
      "anonymous": false,
      "inputs": [
        {
          "indexed": true,
          "internalType": "address",
          "name": "user",
          "type": "address"
        },
        {
          "indexed": false,
          "internalType": "address",
          "name": "referrer",
          "type": "address"
        }
      ],
      "name": "ChangeReferer",
      "type": "event"
    },
    {
      "anonymous": false,
      "inputs": [
        {
          "indexed": true,
          "internalType": "address",
          "name": "user",
          "type": "address"
        },
        {
          "indexed": true,
          "internalType": "uint256",
          "name": "pid",
          "type": "uint256"
        },
        {
          "indexed": false,
          "internalType": "uint256",
          "name": "crssAmount",
          "type": "uint256"
        },
        {
          "indexed": false,
          "internalType": "uint256",
          "name": "lpAmount",
          "type": "uint256"
        }
      ],
      "name": "CompoundAccumulated",
      "type": "event"
    },
    {
      "anonymous": false,
      "inputs": [
        {
          "indexed": true,
          "internalType": "address",
          "name": "user",
          "type": "address"
        },
        {
          "indexed": true,
          "internalType": "uint256",
          "name": "pid",
          "type": "uint256"
        },
        {
          "indexed": false,
          "internalType": "uint256",
          "name": "amount",
          "type": "uint256"
        }
      ],
      "name": "Deposit",
      "type": "event"
    },
    {
      "anonymous": false,
      "inputs": [
        {
          "indexed": true,
          "internalType": "address",
          "name": "user",
          "type": "address"
        },
        {
          "indexed": true,
          "internalType": "uint256",
          "name": "pid",
          "type": "uint256"
        },
        {
          "indexed": false,
          "internalType": "uint256",
          "name": "amount",
          "type": "uint256"
        }
      ],
      "name": "EmergencyWithdraw",
      "type": "event"
    },
    {
      "anonymous": false,
      "inputs": [
        {
          "indexed": true,
          "internalType": "address",
          "name": "user",
          "type": "address"
        },
        {
          "indexed": true,
          "internalType": "uint256",
          "name": "pid",
          "type": "uint256"
        },
        {
          "indexed": false,
          "internalType": "uint256",
          "name": "crssAmount",
          "type": "uint256"
        }
      ],
      "name": "HarvestAccumulated",
      "type": "event"
    },
    {
      "anonymous": false,
      "inputs": [
        {
          "indexed": true,
          "internalType": "address",
          "name": "user",
          "type": "address"
        },
        {
          "indexed": false,
          "internalType": "uint256",
          "name": "crssAmount",
          "type": "uint256"
        }
      ],
      "name": "MassCompoundRewards",
      "type": "event"
    },
    {
      "anonymous": false,
      "inputs": [
        {
          "indexed": true,
          "internalType": "address",
          "name": "user",
          "type": "address"
        },
        {
          "indexed": false,
          "internalType": "uint256",
          "name": "crssAmount",
          "type": "uint256"
        }
      ],
      "name": "MassHarvestRewards",
      "type": "event"
    },
    {
      "anonymous": false,
      "inputs": [
        {
          "indexed": true,
          "internalType": "address",
          "name": "user",
          "type": "address"
        },
        {
          "indexed": false,
          "internalType": "uint256",
          "name": "crssAmount",
          "type": "uint256"
        }
      ],
      "name": "MassStakeRewards",
      "type": "event"
    },
    {
      "anonymous": false,
      "inputs": [
        {
          "indexed": true,
          "internalType": "address",
          "name": "previousOwner",
          "type": "address"
        },
        {
          "indexed": true,
          "internalType": "address",
          "name": "newOwner",
          "type": "address"
        }
      ],
      "name": "OwnershipTransferred",
      "type": "event"
    },
    {
      "anonymous": false,
      "inputs": [
        {
          "indexed": false,
          "internalType": "enum SessionType",
          "name": "_sessionType",
          "type": "uint8"
        },
        {
          "components": [
            {
              "internalType": "uint32",
              "name": "develop",
              "type": "uint32"
            },
            {
              "internalType": "uint32",
              "name": "buyback",
              "type": "uint32"
            },
            {
              "internalType": "uint32",
              "name": "liquidity",
              "type": "uint32"
            },
            {
              "internalType": "uint32",
              "name": "treasury",
              "type": "uint32"
            }
          ],
          "indexed": false,
          "internalType": "struct FeeRates",
          "name": "_feeRates",
          "type": "tuple"
        }
      ],
      "name": "SetFeeRates",
      "type": "event"
    },
    {
      "anonymous": false,
      "inputs": [
        {
          "components": [
            {
              "internalType": "address",
              "name": "develop",
              "type": "address"
            },
            {
              "internalType": "address",
              "name": "buyback",
              "type": "address"
            },
            {
              "internalType": "address",
              "name": "liquidity",
              "type": "address"
            },
            {
              "internalType": "address",
              "name": "treasury",
              "type": "address"
            }
          ],
          "indexed": false,
          "internalType": "struct FeeStores",
          "name": "_feeStores",
          "type": "tuple"
        }
      ],
      "name": "SetFeeStores",
      "type": "event"
    },
    {
      "anonymous": false,
      "inputs": [
        {
          "indexed": false,
          "internalType": "address",
          "name": "migrator",
          "type": "address"
        }
      ],
      "name": "SetMigrator",
      "type": "event"
    },
    {
      "anonymous": false,
      "inputs": [
        {
          "indexed": false,
          "internalType": "enum NodeType",
          "name": "nodeType",
          "type": "uint8"
        },
        {
          "indexed": false,
          "internalType": "address",
          "name": "node",
          "type": "address"
        },
        {
          "indexed": false,
          "internalType": "address",
          "name": "msgSender",
          "type": "address"
        }
      ],
      "name": "SetNode",
      "type": "event"
    },
    {
      "anonymous": false,
      "inputs": [
        {
          "indexed": false,
          "internalType": "uint256",
          "name": "referralCommissionRate",
          "type": "uint256"
        }
      ],
      "name": "SetReferralCommissionRate",
      "type": "event"
    },
    {
      "anonymous": false,
      "inputs": [
        {
          "indexed": false,
          "internalType": "address",
          "name": "previousTreasury",
          "type": "address"
        },
        {
          "indexed": false,
          "internalType": "address",
          "name": "newTreeausery",
          "type": "address"
        }
      ],
      "name": "SetTreasuryAddress",
      "type": "event"
    },
    {
      "anonymous": false,
      "inputs": [
        {
          "indexed": false,
          "internalType": "address",
          "name": "_trustedForwarder",
          "type": "address"
        }
      ],
      "name": "SetTrustedForwarder",
      "type": "event"
    },
    {
      "anonymous": false,
      "inputs": [
        {
          "indexed": true,
          "internalType": "address",
          "name": "crssReferral",
          "type": "address"
        }
      ],
      "name": "SetcrssReferral",
      "type": "event"
    },
    {
      "anonymous": false,
      "inputs": [
        {
          "indexed": true,
          "internalType": "address",
          "name": "user",
          "type": "address"
        },
        {
          "indexed": true,
          "internalType": "uint256",
          "name": "pid",
          "type": "uint256"
        },
        {
          "indexed": false,
          "internalType": "uint256",
          "name": "amount",
          "type": "uint256"
        }
      ],
      "name": "StakeAccumulated",
      "type": "event"
    },
    {
      "anonymous": false,
      "inputs": [
        {
          "indexed": true,
          "internalType": "address",
          "name": "user",
          "type": "address"
        },
        {
          "indexed": false,
          "internalType": "uint256",
          "name": "poolId",
          "type": "uint256"
        },
        {
          "indexed": false,
          "internalType": "enum CollectOption",
          "name": "option",
          "type": "uint8"
        }
      ],
      "name": "SwitchCollectOption",
      "type": "event"
    },
    {
      "anonymous": false,
      "inputs": [
        {
          "indexed": true,
          "internalType": "address",
          "name": "user",
          "type": "address"
        },
        {
          "indexed": true,
          "internalType": "uint256",
          "name": "pid",
          "type": "uint256"
        },
        {
          "indexed": false,
          "internalType": "uint256",
          "name": "crssAmount",
          "type": "uint256"
        }
      ],
      "name": "VestAccumulated",
      "type": "event"
    },
    {
      "anonymous": false,
      "inputs": [
        {
          "indexed": true,
          "internalType": "address",
          "name": "user",
          "type": "address"
        },
        {
          "indexed": true,
          "internalType": "uint256",
          "name": "pid",
          "type": "uint256"
        },
        {
          "indexed": false,
          "internalType": "uint256",
          "name": "amount",
          "type": "uint256"
        }
      ],
      "name": "Withdraw",
      "type": "event"
    },
    {
      "anonymous": false,
      "inputs": [
        {
          "indexed": true,
          "internalType": "address",
          "name": "user",
          "type": "address"
        },
        {
          "indexed": true,
          "internalType": "uint256",
          "name": "pid",
          "type": "uint256"
        },
        {
          "indexed": false,
          "internalType": "uint256",
          "name": "amount",
          "type": "uint256"
        }
      ],
      "name": "WithdrawVest",
      "type": "event"
    },
    {
      "inputs": [
        {
          "internalType": "uint256",
          "name": "_allocPoint",
          "type": "uint256"
        },
        {
          "internalType": "address",
          "name": "_lpToken",
          "type": "address"
        },
        {
          "internalType": "bool",
          "name": "_withUpdate",
          "type": "bool"
        },
        {
          "internalType": "uint256",
          "name": "_depositFeeRate",
          "type": "uint256"
        }
      ],
      "name": "add",
      "outputs": [
        {
          "internalType": "uint256",
          "name": "totalAllocPoint",
          "type": "uint256"
        }
      ],
      "stateMutability": "nonpayable",
      "type": "function"
    },
    {
      "inputs": [
        {
          "internalType": "address",
          "name": "user",
          "type": "address"
        },
        {
          "internalType": "address",
          "name": "referrer",
          "type": "address"
        }
      ],
      "name": "changeReferrer",
      "outputs": [],
      "stateMutability": "nonpayable",
      "type": "function"
    },
    {
      "inputs": [],
      "name": "dailyPatrol",
      "outputs": [
        {
          "internalType": "bool",
          "name": "done",
          "type": "bool"
        }
      ],
      "stateMutability": "nonpayable",
      "type": "function"
    },
    {
      "inputs": [
        {
          "internalType": "uint256",
          "name": "_pid",
          "type": "uint256"
        },
        {
          "internalType": "uint256",
          "name": "_amount",
          "type": "uint256"
        }
      ],
      "name": "deposit",
      "outputs": [
        {
          "internalType": "uint256",
          "name": "deposited",
          "type": "uint256"
        }
      ],
      "stateMutability": "nonpayable",
      "type": "function"
    },
    {
      "inputs": [
        {
          "internalType": "uint256",
          "name": "_pid",
          "type": "uint256"
        }
      ],
      "name": "emergencyWithdraw",
      "outputs": [],
      "stateMutability": "nonpayable",
      "type": "function"
    },
    {
      "inputs": [],
      "name": "farmParams",
      "outputs": [
        {
          "internalType": "uint256",
          "name": "crssPerBlock",
          "type": "uint256"
        },
        {
          "internalType": "uint256",
          "name": "bonusMultiplier",
          "type": "uint256"
        },
        {
          "internalType": "uint256",
          "name": "totalAllocPoint",
          "type": "uint256"
        }
      ],
      "stateMutability": "view",
      "type": "function"
    },
    {
      "inputs": [
        {
          "internalType": "enum SessionType",
          "name": "",
          "type": "uint8"
        }
      ],
      "name": "feeRates",
      "outputs": [
        {
          "internalType": "uint32",
          "name": "develop",
          "type": "uint32"
        },
        {
          "internalType": "uint32",
          "name": "buyback",
          "type": "uint32"
        },
        {
          "internalType": "uint32",
          "name": "liquidity",
          "type": "uint32"
        },
        {
          "internalType": "uint32",
          "name": "treasury",
          "type": "uint32"
        }
      ],
      "stateMutability": "view",
      "type": "function"
    },
    {
      "inputs": [],
      "name": "feeStores",
      "outputs": [
        {
          "internalType": "address",
          "name": "develop",
          "type": "address"
        },
        {
          "internalType": "address",
          "name": "buyback",
          "type": "address"
        },
        {
          "internalType": "address",
          "name": "liquidity",
          "type": "address"
        },
        {
          "internalType": "address",
          "name": "treasury",
          "type": "address"
        }
      ],
      "stateMutability": "view",
      "type": "function"
    },
    {
      "inputs": [
        {
          "internalType": "uint256",
          "name": "_from",
          "type": "uint256"
        },
        {
          "internalType": "uint256",
          "name": "_to",
          "type": "uint256"
        }
      ],
      "name": "getMultiplier",
      "outputs": [
        {
          "internalType": "uint256",
          "name": "",
          "type": "uint256"
        }
      ],
      "stateMutability": "view",
      "type": "function"
    },
    {
      "inputs": [],
      "name": "getOwner",
      "outputs": [
        {
          "internalType": "address",
          "name": "",
          "type": "address"
        }
      ],
      "stateMutability": "view",
      "type": "function"
    },
    {
      "inputs": [
        {
          "internalType": "address",
          "name": "",
          "type": "address"
        },
        {
          "internalType": "address",
          "name": "",
          "type": "address"
        }
      ],
      "name": "getPairQuick",
      "outputs": [
        {
          "internalType": "address",
          "name": "",
          "type": "address"
        }
      ],
      "stateMutability": "view",
      "type": "function"
    },
    {
      "inputs": [
        {
          "internalType": "uint256",
          "name": "pid",
          "type": "uint256"
        },
        {
          "internalType": "address",
          "name": "userAddress",
          "type": "address"
        }
      ],
      "name": "getSubPooledTGR",
      "outputs": [
        {
          "components": [
            {
              "internalType": "uint256",
              "name": "toVest",
              "type": "uint256"
            },
            {
              "internalType": "uint256",
              "name": "toAccumulate",
              "type": "uint256"
            }
          ],
          "internalType": "struct SubPooledTGR",
          "name": "",
          "type": "tuple"
        }
      ],
      "stateMutability": "view",
      "type": "function"
    },
    {
      "inputs": [
        {
          "internalType": "uint256",
          "name": "pid",
          "type": "uint256"
        },
        {
          "internalType": "address",
          "name": "userAddress",
          "type": "address"
        }
      ],
      "name": "getUserState",
      "outputs": [
        {
          "components": [
            {
              "internalType": "uint256",
              "name": "collectOption",
              "type": "uint256"
            },
            {
              "internalType": "uint256",
              "name": "deposit",
              "type": "uint256"
            },
            {
              "internalType": "uint256",
              "name": "accRewards",
              "type": "uint256"
            },
            {
              "internalType": "uint256",
              "name": "totalVest",
              "type": "uint256"
            },
            {
              "internalType": "uint256",
              "name": "totalMatureVest",
              "type": "uint256"
            },
            {
              "internalType": "uint256",
              "name": "pendingTGR",
              "type": "uint256"
            },
            {
              "internalType": "uint256",
              "name": "rewardPayroll",
              "type": "uint256"
            },
            {
              "internalType": "uint256",
              "name": "lpBalance",
              "type": "uint256"
            },
            {
              "internalType": "uint256",
              "name": "crssBalance",
              "type": "uint256"
            },
            {
              "internalType": "uint256",
              "name": "totalAccRewards",
              "type": "uint256"
            }
          ],
          "internalType": "struct UserState",
          "name": "",
          "type": "tuple"
        }
      ],
      "stateMutability": "view",
      "type": "function"
    },
    {
      "inputs": [
        {
          "internalType": "uint256",
          "name": "pid",
          "type": "uint256"
        },
        {
          "internalType": "address",
          "name": "userAddress",
          "type": "address"
        }
      ],
      "name": "getVestList",
      "outputs": [
        {
          "components": [
            {
              "internalType": "uint256",
              "name": "principal",
              "type": "uint256"
            },
            {
              "internalType": "uint256",
              "name": "withdrawn",
              "type": "uint256"
            },
            {
              "internalType": "uint256",
              "name": "startTime",
              "type": "uint256"
            }
          ],
          "internalType": "struct VestChunk[]",
          "name": "",
          "type": "tuple[]"
        }
      ],
      "stateMutability": "view",
      "type": "function"
    },
    {
      "inputs": [
        {
          "internalType": "uint256",
          "name": "_pid",
          "type": "uint256"
        }
      ],
      "name": "harvestAccumulated",
      "outputs": [
        {
          "internalType": "uint256",
          "name": "harvested",
          "type": "uint256"
        }
      ],
      "stateMutability": "nonpayable",
      "type": "function"
    },
    {
      "inputs": [
        {
          "internalType": "address",
          "name": "pair",
          "type": "address"
        },
        {
          "internalType": "address",
          "name": "token0",
          "type": "address"
        },
        {
          "internalType": "address",
          "name": "token1",
          "type": "address"
        },
        {
          "internalType": "address",
          "name": "caller",
          "type": "address"
        }
      ],
      "name": "informOfPair",
      "outputs": [],
      "stateMutability": "nonpayable",
      "type": "function"
    },
    {
      "inputs": [
        {
          "internalType": "address",
          "name": "forwarder",
          "type": "address"
        }
      ],
      "name": "isTrustedForwarder",
      "outputs": [
        {
          "internalType": "bool",
          "name": "",
          "type": "bool"
        }
      ],
      "stateMutability": "view",
      "type": "function"
    },
    {
      "inputs": [],
      "name": "lastPatrolDay",
      "outputs": [
        {
          "internalType": "uint256",
          "name": "",
          "type": "uint256"
        }
      ],
      "stateMutability": "view",
      "type": "function"
    },
    {
      "inputs": [],
      "name": "massCompoundRewards",
      "outputs": [],
      "stateMutability": "nonpayable",
      "type": "function"
    },
    {
      "inputs": [],
      "name": "massHarvestRewards",
      "outputs": [
        {
          "internalType": "uint256",
          "name": "rewards",
          "type": "uint256"
        }
      ],
      "stateMutability": "nonpayable",
      "type": "function"
    },
    {
      "inputs": [],
      "name": "massStakeRewards",
      "outputs": [
        {
          "internalType": "uint256",
          "name": "rewards",
          "type": "uint256"
        }
      ],
      "stateMutability": "nonpayable",
      "type": "function"
    },
    {
      "inputs": [],
      "name": "massUpdatePools",
      "outputs": [],
      "stateMutability": "nonpayable",
      "type": "function"
    },
    {
      "inputs": [
        {
          "internalType": "uint256",
          "name": "_pid",
          "type": "uint256"
        }
      ],
      "name": "migrate",
      "outputs": [],
      "stateMutability": "nonpayable",
      "type": "function"
    },
    {
      "inputs": [],
      "name": "migrator",
      "outputs": [
        {
          "internalType": "contract IMigratorChef",
          "name": "",
          "type": "address"
        }
      ],
      "stateMutability": "view",
      "type": "function"
    },
    {
      "inputs": [],
      "name": "nextNode",
      "outputs": [
        {
          "internalType": "address",
          "name": "",
          "type": "address"
        }
      ],
      "stateMutability": "view",
      "type": "function"
    },
    {
      "inputs": [],
      "name": "owner",
      "outputs": [
        {
          "internalType": "address",
          "name": "",
          "type": "address"
        }
      ],
      "stateMutability": "view",
      "type": "function"
    },
    {
      "inputs": [
        {
          "internalType": "address",
          "name": "",
          "type": "address"
        }
      ],
      "name": "pairs",
      "outputs": [
        {
          "internalType": "address",
          "name": "token0",
          "type": "address"
        },
        {
          "internalType": "address",
          "name": "token1",
          "type": "address"
        }
      ],
      "stateMutability": "view",
      "type": "function"
    },
    {
      "inputs": [
        {
          "internalType": "uint256",
          "name": "",
          "type": "uint256"
        }
      ],
      "name": "poolInfo",
      "outputs": [
        {
          "internalType": "contract IERC20",
          "name": "lpToken",
          "type": "address"
        },
        {
          "internalType": "uint256",
          "name": "allocPoint",
          "type": "uint256"
        },
        {
          "internalType": "uint256",
          "name": "lastRewardBlock",
          "type": "uint256"
        },
        {
          "internalType": "uint256",
          "name": "accTGRPerShare",
          "type": "uint256"
        },
        {
          "internalType": "uint256",
          "name": "depositFeeRate",
          "type": "uint256"
        },
        {
          "internalType": "uint256",
          "name": "reward",
          "type": "uint256"
        },
        {
          "components": [
            {
              "internalType": "uint256",
              "name": "sumAmount",
              "type": "uint256"
            },
            {
              "components": [
                {
                  "internalType": "uint256",
                  "name": "bulk",
                  "type": "uint256"
                },
                {
                  "internalType": "uint256",
                  "name": "accPerShare",
                  "type": "uint256"
                }
              ],
              "internalType": "struct SubPool",
              "name": "Comp",
              "type": "tuple"
            }
          ],
          "internalType": "struct Struct_OnOff",
          "name": "OnOff",
          "type": "tuple"
        },
        {
          "components": [
            {
              "internalType": "uint256",
              "name": "sumAmount",
              "type": "uint256"
            },
            {
              "components": [
                {
                  "internalType": "uint256",
                  "name": "bulk",
                  "type": "uint256"
                },
                {
                  "internalType": "uint256",
                  "name": "accPerShare",
                  "type": "uint256"
                }
              ],
              "internalType": "struct SubPool",
              "name": "Comp",
              "type": "tuple"
            },
            {
              "components": [
                {
                  "internalType": "uint256",
                  "name": "bulk",
                  "type": "uint256"
                },
                {
                  "internalType": "uint256",
                  "name": "accPerShare",
                  "type": "uint256"
                }
              ],
              "internalType": "struct SubPool",
              "name": "Vest",
              "type": "tuple"
            }
          ],
          "internalType": "struct Struct_OnOn",
          "name": "OnOn",
          "type": "tuple"
        },
        {
          "components": [
            {
              "internalType": "uint256",
              "name": "sumAmount",
              "type": "uint256"
            },
            {
              "components": [
                {
                  "internalType": "uint256",
                  "name": "bulk",
                  "type": "uint256"
                },
                {
                  "internalType": "uint256",
                  "name": "accPerShare",
                  "type": "uint256"
                }
              ],
              "internalType": "struct SubPool",
              "name": "Vest",
              "type": "tuple"
            },
            {
              "components": [
                {
                  "internalType": "uint256",
                  "name": "bulk",
                  "type": "uint256"
                },
                {
                  "internalType": "uint256",
                  "name": "accPerShare",
                  "type": "uint256"
                }
              ],
              "internalType": "struct SubPool",
              "name": "Accum",
              "type": "tuple"
            }
          ],
          "internalType": "struct Struct_OffOn",
          "name": "OffOn",
          "type": "tuple"
        },
        {
          "components": [
            {
              "internalType": "uint256",
              "name": "sumAmount",
              "type": "uint256"
            },
            {
              "components": [
                {
                  "internalType": "uint256",
                  "name": "bulk",
                  "type": "uint256"
                },
                {
                  "internalType": "uint256",
                  "name": "accPerShare",
                  "type": "uint256"
                }
              ],
              "internalType": "struct SubPool",
              "name": "Accum",
              "type": "tuple"
            }
          ],
          "internalType": "struct Struct_OffOff",
          "name": "OffOff",
          "type": "tuple"
        }
      ],
      "stateMutability": "view",
      "type": "function"
    },
    {
      "inputs": [],
      "name": "poolLength",
      "outputs": [
        {
          "internalType": "uint256",
          "name": "",
          "type": "uint256"
        }
      ],
      "stateMutability": "view",
      "type": "function"
    },
    {
      "inputs": [],
      "name": "prevNode",
      "outputs": [
        {
          "internalType": "address",
          "name": "",
          "type": "address"
        }
      ],
      "stateMutability": "view",
      "type": "function"
    },
    {
      "inputs": [],
      "name": "renounceOwnership",
      "outputs": [],
      "stateMutability": "nonpayable",
      "type": "function"
    },
    {
      "inputs": [
        {
          "internalType": "uint256",
          "name": "_pid",
          "type": "uint256"
        },
        {
          "internalType": "uint256",
          "name": "_allocPoint",
          "type": "uint256"
        },
        {
          "internalType": "bool",
          "name": "_withUpdate",
          "type": "bool"
        },
        {
          "internalType": "uint256",
          "name": "_depositFeeRate",
          "type": "uint256"
        }
      ],
      "name": "set",
      "outputs": [
        {
          "internalType": "uint256",
          "name": "totalAllocPoint",
          "type": "uint256"
        }
      ],
      "stateMutability": "nonpayable",
      "type": "function"
    },
    {
      "inputs": [
        {
          "internalType": "uint256",
          "name": "_referralCommissionRate",
          "type": "uint256"
        },
        {
          "internalType": "uint256",
          "name": "_nonVestBurnRate",
          "type": "uint256"
        },
        {
          "internalType": "address",
          "name": "_stakeholders",
          "type": "address"
        },
        {
          "internalType": "uint256",
          "name": "_compoundFeeRate",
          "type": "uint256"
        }
      ],
      "name": "setFeeParams",
      "outputs": [],
      "stateMutability": "nonpayable",
      "type": "function"
    },
    {
      "inputs": [
        {
          "internalType": "enum SessionType",
          "name": "_sessionType",
          "type": "uint8"
        },
        {
          "components": [
            {
              "internalType": "uint32",
              "name": "develop",
              "type": "uint32"
            },
            {
              "internalType": "uint32",
              "name": "buyback",
              "type": "uint32"
            },
            {
              "internalType": "uint32",
              "name": "liquidity",
              "type": "uint32"
            },
            {
              "internalType": "uint32",
              "name": "treasury",
              "type": "uint32"
            }
          ],
          "internalType": "struct FeeRates",
          "name": "_feeRates",
          "type": "tuple"
        },
        {
          "internalType": "address",
          "name": "caller",
          "type": "address"
        }
      ],
      "name": "setFeeRates",
      "outputs": [],
      "stateMutability": "nonpayable",
      "type": "function"
    },
    {
      "inputs": [
        {
          "components": [
            {
              "internalType": "address",
              "name": "develop",
              "type": "address"
            },
            {
              "internalType": "address",
              "name": "buyback",
              "type": "address"
            },
            {
              "internalType": "address",
              "name": "liquidity",
              "type": "address"
            },
            {
              "internalType": "address",
              "name": "treasury",
              "type": "address"
            }
          ],
          "internalType": "struct FeeStores",
          "name": "_feeStores",
          "type": "tuple"
        },
        {
          "internalType": "address",
          "name": "caller",
          "type": "address"
        }
      ],
      "name": "setFeeStores",
      "outputs": [],
      "stateMutability": "nonpayable",
      "type": "function"
    },
    {
      "inputs": [
        {
          "internalType": "contract IMigratorChef",
          "name": "_migrator",
          "type": "address"
        }
      ],
      "name": "setMigrator",
      "outputs": [],
      "stateMutability": "nonpayable",
      "type": "function"
    },
    {
      "inputs": [
        {
          "internalType": "enum NodeType",
          "name": "nodeType",
          "type": "uint8"
        },
        {
          "internalType": "address",
          "name": "node",
          "type": "address"
        },
        {
          "internalType": "address",
          "name": "caller",
          "type": "address"
        }
      ],
      "name": "setNode",
      "outputs": [],
      "stateMutability": "nonpayable",
      "type": "function"
    },
    {
      "inputs": [
        {
          "internalType": "uint256",
          "name": "_referralCommissionRate",
          "type": "uint256"
        }
      ],
      "name": "setReferralCommissionRate",
      "outputs": [],
      "stateMutability": "nonpayable",
      "type": "function"
    },
    {
      "inputs": [
        {
          "internalType": "address",
          "name": "_crssReferral",
          "type": "address"
        }
      ],
      "name": "setTGRReferral",
      "outputs": [],
      "stateMutability": "nonpayable",
      "type": "function"
    },
    {
      "inputs": [
        {
          "internalType": "address",
          "name": "_trustedForwarder",
          "type": "address"
        }
      ],
      "name": "setTrustedForwarder",
      "outputs": [],
      "stateMutability": "nonpayable",
      "type": "function"
    },
    {
      "inputs": [
        {
          "internalType": "uint256",
          "name": "_pid",
          "type": "uint256"
        }
      ],
      "name": "stakeAccumulated",
      "outputs": [
        {
          "internalType": "uint256",
          "name": "staked",
          "type": "uint256"
        }
      ],
      "stateMutability": "nonpayable",
      "type": "function"
    },
    {
      "inputs": [],
      "name": "startBlock",
      "outputs": [
        {
          "internalType": "uint256",
          "name": "",
          "type": "uint256"
        }
      ],
      "stateMutability": "view",
      "type": "function"
    },
    {
      "inputs": [
        {
          "internalType": "uint256",
          "name": "_pid",
          "type": "uint256"
        },
        {
          "internalType": "enum CollectOption",
          "name": "newOption",
          "type": "uint8"
        }
      ],
      "name": "switchCollectOption",
      "outputs": [],
      "stateMutability": "nonpayable",
      "type": "function"
    },
    {
      "inputs": [
        {
          "internalType": "address",
          "name": "newOwner",
          "type": "address"
        }
      ],
      "name": "transferOwnership",
      "outputs": [],
      "stateMutability": "nonpayable",
      "type": "function"
    },
    {
      "inputs": [],
      "name": "trustedForwarder",
      "outputs": [
        {
          "internalType": "address",
          "name": "",
          "type": "address"
        }
      ],
      "stateMutability": "view",
      "type": "function"
    },
    {
      "inputs": [
        {
          "internalType": "uint256",
          "name": "multiplierNumber",
          "type": "uint256"
        }
      ],
      "name": "updateMultiplier",
      "outputs": [],
      "stateMutability": "nonpayable",
      "type": "function"
    },
    {
      "inputs": [
        {
          "internalType": "uint256",
          "name": "_pid",
          "type": "uint256"
        }
      ],
      "name": "updatePool",
      "outputs": [],
      "stateMutability": "nonpayable",
      "type": "function"
    },
    {
      "inputs": [
        {
          "internalType": "uint256",
          "name": "",
          "type": "uint256"
        },
        {
          "internalType": "address",
          "name": "",
          "type": "address"
        }
      ],
      "name": "userInfo",
      "outputs": [
        {
          "internalType": "uint256",
          "name": "amount",
          "type": "uint256"
        },
        {
          "internalType": "uint256",
          "name": "rewardDebt",
          "type": "uint256"
        },
        {
          "internalType": "uint256",
          "name": "debt1",
          "type": "uint256"
        },
        {
          "internalType": "uint256",
          "name": "debt2",
          "type": "uint256"
        },
        {
          "internalType": "uint256",
          "name": "accumulated",
          "type": "uint256"
        },
        {
          "internalType": "enum CollectOption",
          "name": "collectOption",
          "type": "uint8"
        }
      ],
      "stateMutability": "view",
      "type": "function"
    },
    {
      "inputs": [
        {
          "internalType": "uint256",
          "name": "_pid",
          "type": "uint256"
        }
      ],
      "name": "vestAccumulated",
      "outputs": [
        {
          "internalType": "uint256",
          "name": "vested",
          "type": "uint256"
        }
      ],
      "stateMutability": "nonpayable",
      "type": "function"
    },
    {
      "inputs": [
        {
          "internalType": "address",
          "name": "_prevNode",
          "type": "address"
        },
        {
          "internalType": "address",
          "name": "_nextNode",
          "type": "address"
        }
      ],
      "name": "wire",
      "outputs": [],
      "stateMutability": "nonpayable",
      "type": "function"
    },
    {
      "inputs": [
        {
          "internalType": "uint256",
          "name": "_pid",
          "type": "uint256"
        },
        {
          "internalType": "uint256",
          "name": "_amount",
          "type": "uint256"
        }
      ],
      "name": "withdraw",
      "outputs": [
        {
          "internalType": "uint256",
          "name": "withdrawn",
          "type": "uint256"
        }
      ],
      "stateMutability": "nonpayable",
      "type": "function"
    },
    {
      "inputs": [
        {
          "internalType": "uint256",
          "name": "_pid",
          "type": "uint256"
        },
        {
          "internalType": "uint256",
          "name": "_amount",
          "type": "uint256"
        }
      ],
      "name": "withdrawVest",
      "outputs": [
        {
          "internalType": "uint256",
          "name": "withdrawn",
          "type": "uint256"
        }
      ],
      "stateMutability": "nonpayable",
      "type": "function"
    },
    {
      "stateMutability": "payable",
      "type": "receive"
    }
  ],
  "bytecode": "0x60806040523480156200001157600080fd5b506040516200622c3803806200622c83398101604081905262000034916200049a565b620000486200004262000105565b6200013f565b60188290556001601981905562000067906103e8908590600062000191565b601a556040805180820190915260098152682337b93134b23232b760b91b6020820152438211620000b65760405162461bcd60e51b8152600401620000ad9190620004f6565b60405180910390fd5b50601d555050601f80546001600160a01b031990811690915560646021556161a8602355611388602555602480549091167323c6d84c09523032b08f9124a349760721af64f617905562000574565b6000601836108015906200012357506009546001600160a01b031633145b1562000139575060131936013560601c6200013c565b50335b90565b601080546001600160a01b038381166001600160a01b0319831681179093556040519116919082907f8be0079c531659141344cd1fd0a4f28419497f9722a3daafe3b4186f6b6457e090600090a35050565b60006200019d62000105565b6001600160a01b0316620001b96010546001600160a01b031690565b6001600160a01b031614620002115760405162461bcd60e51b815260206004820152601760248201527f63616c6c6572206973206e6f7420746865206f776e65720000000000000000006044820152606401620000ad565b60408051808201909152600b81526a496e76616c69642066656560a81b6020820152611388831115620002595760405162461bcd60e51b8152600401620000ad9190620004f6565b5082156200026b576200026b620003c9565b8360005b601b548110156200030f57816001600160a01b0316601b8281548110620002a657634e487b7160e01b600052603260045260246000fd5b60009182526020909120601690910201546001600160a01b03161415620002fa5760405162461bcd60e51b8152602060048201526007602482015266055736564204c560cc1b6044820152606401620000ad565b8062000306816200054c565b9150506200026f565b50601d54604051631742bc9f60e31b8152600481018890526001600160a01b0387166024820152604481018590526064810191909152601b608482015273__$db63f1588e8d684f73b3ba2d13f1c15561$__9063ba15e4f89060a40160206040518083038186803b1580156200038457600080fd5b505af415801562000399573d6000803e3d6000fd5b505050506040513d601f19601f82011682018060405250810190620003bf9190620004dd565b9695505050505050565b601b5460005b8181101562000496576000601b8281548110620003fc57634e487b7160e01b600052603260045260246000fd5b60009182526020909120604051633b25243b60e01b8152601690920201600482018190526018602483015260026044830152915073__$db63f1588e8d684f73b3ba2d13f1c15561$__90633b25243b9060640160006040518083038186803b1580156200046857600080fd5b505af41580156200047d573d6000803e3d6000fd5b5050505050806200048e906200054c565b9050620003cf565b5050565b600080600060608486031215620004af578283fd5b83516001600160a01b0381168114620004c6578384fd5b602085015160409095015190969495509392505050565b600060208284031215620004ef578081fd5b5051919050565b6000602080835283518082850152825b81811015620005245785810183015185820160400152820162000506565b81811115620005365783604083870101525b50601f01601f1916929092016040019392505050565b60006000198214156200056d57634e487b7160e01b81526011600452602481fd5b5060010190565b615ca880620005846000396000f3fe6080604052600436106102535760003560e01c8063081e3eda1461025f57806310224711146102875780631526fe271461030957806316df54541461033f5780631df9246c1461036d57806323cf311814610392578063249dfad7146103b457806328fd8cda146103e15780632bf7bfad146104015780633b38bf72146104165780633c1a308014610436578063441a3e7014610477578063454b06081461049757806348cd4cb1146104b75780634b85e059146104cd5780634eabd61b146104e257806351eb05a6146105025780635312ea8e14610522578063572b6c05146105425780635ffe6146146105625780636161293914610582578063630b5ba1146105a25780636495a0a6146105b757806365715c56146105d7578063715018a6146105f75780637cd07e471461060c5780637da0a8771461062c578063893d20e81461064c5780638da5cb5b146106615780638dbb1e3a1461067657806390e3677f14610696578063928879d6146106b657806393f1a40b146106d657806396805e5414610746578063a6b9331714610766578063b5f3296b14610793578063b8d05b11146107a8578063bcdc4146146107c8578063c34df95f146107e8578063c693390e14610815578063d6e1aa8814610835578063d74d3d7814610855578063d838f43e14610875578063da74222814610895578063e271c113146108b5578063e2bbb158146108cb578063e83357f2146108eb578063f28fadb81461090b578063f2fde38b1461092b578063f9a21e8a1461094b578063fdc535511461098e578063fe33b30214610a275761025a565b3661025a57005b600080fd5b34801561026b57600080fd5b50610274610a76565b6040519081526020015b60405180910390f35b34801561029357600080fd5b506102d96102a2366004615079565b60176020526000908152604090205463ffffffff80821691600160201b8104821691600160401b8204811691600160601b90041684565b6040805163ffffffff9586168152938516602085015291841691830191909152909116606082015260800161027e565b34801561031557600080fd5b506103296103243660046152ba565b610a7d565b60405161027e9a99989796959493929190615679565b34801561034b57600080fd5b50601854601954601a5461035e92919083565b60405161027e9392919061589f565b34801561037957600080fd5b50610382610bbb565b604051901515815260200161027e565b34801561039e57600080fd5b506103b26103ad366004614f45565b610c79565b005b3480156103c057600080fd5b506000546103d4906001600160a01b031681565b60405161027e9190615522565b3480156103ed57600080fd5b506103b26103fc366004615124565b610ce3565b34801561040d57600080fd5b506103b2610db7565b34801561042257600080fd5b506103b2610431366004614f61565b610ebf565b34801561044257600080fd5b506103d4610451366004614f61565b60126020908152600092835260408084209091529082529020546001600160a01b031681565b34801561048357600080fd5b5061027461049236600461537c565b610ffc565b3480156104a357600080fd5b506103b26104b23660046152ba565b611252565b3480156104c357600080fd5b50610274601d5481565b3480156104d957600080fd5b50610274611512565b3480156104ee57600080fd5b506103b26104fd3660046153c0565b6119d7565b34801561050e57600080fd5b506103b261051d3660046152ba565b611a72565b34801561052e57600080fd5b506103b261053d3660046152ba565b611b5e565b34801561054e57600080fd5b5061038261055d366004614f45565b611d6c565b34801561056e57600080fd5b506103b261057d3660046152ba565b611d83565b34801561058e57600080fd5b506103b261059d366004614f99565b611dc7565b3480156105ae57600080fd5b506103b2611e67565b3480156105c357600080fd5b506102746105d236600461537c565b611f27565b3480156105e357600080fd5b506001546103d4906001600160a01b031681565b34801561060357600080fd5b506103b2612167565b34801561061857600080fd5b506026546103d4906001600160a01b031681565b34801561063857600080fd5b506009546103d4906001600160a01b031681565b34801561065857600080fd5b506103d46121b2565b34801561066d57600080fd5b506103d46121c1565b34801561068257600080fd5b5061027461069136600461537c565b6121d0565b3480156106a257600080fd5b506103b26106b1366004614f61565b6121f3565b3480156106c257600080fd5b506103b26106d136600461502c565b61227c565b3480156106e257600080fd5b506107346106f13660046152ea565b601c602090815260009283526040808420909152908252902080546001820154600283015460038401546004850154600690950154939492939192909160ff1686565b60405161027e9695949392919061597f565b34801561075257600080fd5b5061027461076136600461530e565b6122f0565b34801561077257600080fd5b506107866107813660046152ea565b6124d8565b60405161027e9190615954565b34801561079f57600080fd5b5061027461261f565b3480156107b457600080fd5b506103b26107c3366004615095565b6127d4565b3480156107d457600080fd5b506102746107e33660046152ba565b612894565b3480156107f457600080fd5b506108086108033660046152ea565b612ab1565b60405161027e9190615620565b34801561082157600080fd5b506102746108303660046152ba565b612b96565b34801561084157600080fd5b506102746108503660046152ba565b6130bf565b34801561086157600080fd5b506103b26108703660046152ba565b6132f0565b34801561088157600080fd5b506103b2610890366004615355565b613359565b3480156108a157600080fd5b506103b26108b0366004614f45565b6134f0565b3480156108c157600080fd5b50610274601e5481565b3480156108d757600080fd5b506102746108e636600461537c565b6135c2565b3480156108f757600080fd5b506103b2610906366004614f45565b613914565b34801561091757600080fd5b506102746109263660046153ee565b61399d565b34801561093757600080fd5b506103b2610946366004614f45565b613b14565b34801561095757600080fd5b5060135460145460155460165461097e936001600160a01b03908116938116928116911684565b60405161027e9493929190615550565b34801561099a57600080fd5b506109ae6109a93660046152ea565b613bc4565b60405161027e9190600061014082019050825182526020830151602083015260408301516040830152606083015160608301526080830151608083015260a083015160a083015260c083015160c083015260e083015160e083015261010080840151818401525061012080840151818401525092915050565b348015610a3357600080fd5b50610a68610a42366004614f45565b601160205260009081526040902080546001909101546001600160a01b03918216911682565b60405161027e929190615536565b601b545b90565b601b8181548110610a8d57600080fd5b6000918252602091829020601690910201805460018201546002830154600384015460048501546005860154604080518082018252600689015481528151808301835260078a0154815260088a0154818c0152818b015281516060808201845260098b0154825283518085018552600a8c01548152600b8c0154818e0152828d015283518085018552600c8c01548152600d8c0154818e01528285015283519081018452600e8b0154815283518085018552600f8c0154815260108c0154818e0152818d01528351808501855260118c0154815260128c0154818e0152818501528351808501855260138c01548152845180860190955260148c015485526015909b0154848d01529a8a01929092526001600160a01b0390971699509497939692959194909391929091908a565b601e5460405163815bb4ab60e01b8152601b600482015260186024820152601f6044820152600260648201526084810191909152600090819073__$db63f1588e8d684f73b3ba2d13f1c15561$__9063815bb4ab9060a40160206040518083038186803b158015610c2b57600080fd5b505af4158015610c3f573d6000803e3d6000fd5b505050506040513d601f19601f82011682018060405250810190610c6391906152d2565b90508015610c7557601e819055600191505b5090565b610c81613d17565b6001600160a01b0316610c926121c1565b6001600160a01b031614610cc15760405162461bcd60e51b8152600401610cb8906157fc565b60405180910390fd5b602680546001600160a01b0319166001600160a01b0392909216919091179055565b610ced8282613d49565b604051633d8d54b760e11b815273__$4e096580cb5433c4a2c6afc0adc836c7da$__90637b1aa96e90610d2790601390869060040161588b565b60006040518083038186803b158015610d3f57600080fd5b505af4158015610d53573d6000803e3d6000fd5b505050506060820151602080546001600160a01b0319166001600160a01b039092169190911790556040517f119d2e55d36ac1023a728780d56fc7adb4fa783aa7d7972035442c6e7c9dbbba90610dab908490615857565b60405180910390a15050565b610dc1600d613e33565b610dc9610bbb565b506000610dd4613d17565b9050600073__$db63f1588e8d684f73b3ba2d13f1c15561$__632319704983601b601c6002601f60186040518763ffffffff1660e01b8152600401610e1e9695949392919061559f565b604080518083038186803b158015610e3557600080fd5b505af4158015610e49573d6000803e3d6000fd5b505050506040513d601f19601f82011682018060405250810190610e6d919061539d565b509050816001600160a01b03167fe8d66d10fff274a961292009640bd1ebdd01ab213e8277a1c1d9ead133eea37282604051610eab91815260200190565b60405180910390a2610ebb613f1c565b5050565b610ec7613d17565b6001600160a01b0316610ed86121c1565b6001600160a01b031614610efe5760405162461bcd60e51b8152600401610cb8906157fc565b816001600160a01b0316816001600160a01b03161415610f535760405162461bcd60e51b815260206004820152601060248201526f24b73b30b634b2103932b332b93932b960811b6044820152606401610cb8565b601f54604051630c7f7b6b60e01b81526001600160a01b0390911690630c7f7b6b90610f859085908590600401615536565b600060405180830381600087803b158015610f9f57600080fd5b505af1158015610fb3573d6000803e3d6000fd5b50505050816001600160a01b03167f38b0934f8eed89a05b4790475c223e24697d8c8c2aafaed33838eeb7b6ce732982604051610ff09190615522565b60405180910390a25050565b601b5460408051808201909152600f8152600080516020615c33833981519152602082015260009184919082106110465760405162461bcd60e51b8152600401610cb891906157c9565b506110516006613e33565b600061105b610bbb565b90506000611067613d17565b90506000601b878154811061108c57634e487b7160e01b600052603260045260246000fd5b600091825260208083208a8452601c825260408085206001600160a01b038816865290925292206016909102909101915083611137576040516363f466ef60e11b815273__$db63f1588e8d684f73b3ba2d13f1c15561$__9063c7e8cdde9061110690859085908890601f906002906018906004016158b5565b60006040518083038186803b15801561111e57600080fd5b505af4158015611132573d6000803e3d6000fd5b505050505b805487111561114557805496505b861561123f578154879650611166906001600160a01b031630886000613f86565b6111709088615b58565b8254909750611189906001600160a01b03168489614153565b60405163d9df3bb560e01b815273__$db63f1588e8d684f73b3ba2d13f1c15561$__9063d9df3bb5906111ca90859085908b90601f9060009060040161592f565b60006040518083038186803b1580156111e257600080fd5b505af41580156111f6573d6000803e3d6000fd5b5050505087836001600160a01b03167ff279e6a1f5e320cca91135676d9cb6e44ca8a08c0b88342bcdb1144f6511b5688860405161123691815260200190565b60405180910390a35b611247613f1c565b505050505092915050565b61125a613d17565b6001600160a01b031661126b6121c1565b6001600160a01b0316146112915760405162461bcd60e51b8152600401610cb8906157fc565b6026546001600160a01b03166112e05760405162461bcd60e51b815260206004820152601460248201527336b4b3b930ba329d1037379036b4b3b930ba37b960611b6044820152606401610cb8565b6000601b828154811061130357634e487b7160e01b600052603260045260246000fd5b60009182526020822060169091020180546040516370a0823160e01b81529193506001600160a01b0316919082906370a0823190611345903090600401615522565b60206040518083038186803b15801561135d57600080fd5b505afa158015611371573d6000803e3d6000fd5b505050506040513d601f19601f8201168201806040525081019061139591906152d2565b6026549091506113b2906001600160a01b038481169116836141a9565b60265460405163ce5494bb60e01b81526000916001600160a01b03169063ce5494bb906113e3908690600401615522565b602060405180830381600087803b1580156113fd57600080fd5b505af1158015611411573d6000803e3d6000fd5b505050506040513d601f19601f820116820180604052508101906114359190615010565b6040516370a0823160e01b81529091506001600160a01b038216906370a0823190611464903090600401615522565b60206040518083038186803b15801561147c57600080fd5b505afa158015611490573d6000803e3d6000fd5b505050506040513d601f19601f820116820180604052508101906114b491906152d2565b82146114f15760405162461bcd60e51b815260206004820152600c60248201526b1b5a59dc985d194e8818985960a21b6044820152606401610cb8565b83546001600160a01b0319166001600160a01b039190911617909255505050565b600061151e600c613e33565b611526610bbb565b506000611531613d17565b9050600073__$db63f1588e8d684f73b3ba2d13f1c15561$__63fc6bf4ee83601b601c601f600260186040518763ffffffff1660e01b815260040161157b9695949392919061559f565b60206040518083038186803b15801561159357600080fd5b505af41580156115a7573d6000803e3d6000fd5b505050506040513d601f19601f820116820180604052508101906115cb91906152d2565b905080156119ca576002546008546115f2916001600160a01b039081169116836000613f86565b6115fc9082615b58565b90506000601b60008154811061162257634e487b7160e01b600052603260045260246000fd5b60009182526020909120600854604051632894a4af60e01b81526016909302909101600483018190526001600160a01b0390911660248301526044820184905260136064830152915073__$db63f1588e8d684f73b3ba2d13f1c15561$__90632894a4af9060840160206040518083038186803b1580156116a257600080fd5b505af41580156116b6573d6000803e3d6000fd5b505050506040513d601f19601f820116820180604052508101906116da91906152d2565b6116e49083615b58565b6002546040516370a0823160e01b81529193506000916001600160a01b03909116906370a082319061171a903090600401615522565b60206040518083038186803b15801561173257600080fd5b505afa158015611746573d6000803e3d6000fd5b505050506040513d601f19601f8201168201806040525081019061176a91906152d2565b600854604051632b8fd27160e11b815291925073__$db63f1588e8d684f73b3ba2d13f1c15561$__9163571fa4e2916117b5916001600160a01b03909116903090889060040161557b565b60006040518083038186803b1580156117cd57600080fd5b505af41580156117e1573d6000803e3d6000fd5b50506002546040516370a0823160e01b81528493506001600160a01b0390911691506370a0823190611817903090600401615522565b60206040518083038186803b15801561182f57600080fd5b505afa158015611843573d6000803e3d6000fd5b505050506040513d601f19601f8201168201806040525081019061186791906152d2565b6118719190615b58565b6001600160a01b0385166000908152600080516020615c1383398151915260205260409081902090516363f466ef60e11b81529196508694509073__$db63f1588e8d684f73b3ba2d13f1c15561$__9063c7e8cdde906118e290869085908a90601f906002906018906004016158b5565b60006040518083038186803b1580156118fa57600080fd5b505af415801561190e573d6000803e3d6000fd5b505060405163d9df3bb560e01b815273__$db63f1588e8d684f73b3ba2d13f1c15561$__925063d9df3bb5915061195390869085908b90601f9060019060040161592f565b60006040518083038186803b15801561196b57600080fd5b505af415801561197f573d6000803e3d6000fd5b50505050846001600160a01b03167f16989eb9073f795386d3e9c3c944c43e65ad9668875042b7d01cc6f87c1b9d83876040516119be91815260200190565b60405180910390a25050505b6119d2613f1c565b505090565b6119df613d17565b6001600160a01b03166119f06121c1565b6001600160a01b031614611a165760405162461bcd60e51b8152600401610cb8906157fc565b6021849055604051848152600080516020615c538339815191529060200160405180910390a16023839055611a4a826142bb565b602480546001600160a01b0319166001600160a01b0393909316929092179091556025555050565b601b5460408051808201909152600f8152600080516020615c33833981519152602082015282918210611ab85760405162461bcd60e51b8152600401610cb891906157c9565b506000601b8381548110611adc57634e487b7160e01b600052603260045260246000fd5b9060005260206000209060160201905073__$db63f1588e8d684f73b3ba2d13f1c15561$__633b25243b82601860026040518463ffffffff1660e01b8152600401611b299392919061589f565b60006040518083038186803b158015611b4157600080fd5b505af4158015611b55573d6000803e3d6000fd5b50505050505050565b601b5460408051808201909152600f8152600080516020615c33833981519152602082015282918210611ba45760405162461bcd60e51b8152600401610cb891906157c9565b50611baf6010613e33565b6000611bb9613d17565b90506000601b8481548110611bde57634e487b7160e01b600052603260045260246000fd5b60009182526020808320878452601c825260408085206001600160a01b03881686529092529281902090516363f466ef60e11b81526016909202909201925073__$db63f1588e8d684f73b3ba2d13f1c15561$__9063c7e8cdde90611c5490859085908890601f906002906018906004016158b5565b60006040518083038186803b158015611c6c57600080fd5b505af4158015611c80573d6000803e3d6000fd5b505082549150508015611d5c5782548190611ca5906001600160a01b03168683614153565b60405163d9df3bb560e01b815273__$db63f1588e8d684f73b3ba2d13f1c15561$__9063d9df3bb590611ce690879087908690601f9060009060040161592f565b60006040518083038186803b158015611cfe57600080fd5b505af4158015611d12573d6000803e3d6000fd5b5050505086856001600160a01b03167fbb757047c2b5f3974fe26b7c10f732e7bce710b0952a71082702781e62ae059583604051611d5291815260200190565b60405180910390a3505b611d64613f1c565b505050505050565b6009546001600160a01b038281169116145b919050565b611d8b613d17565b6001600160a01b0316611d9c6121c1565b6001600160a01b031614611dc25760405162461bcd60e51b8152600401610cb8906157fc565b601955565b611dd384848484614305565b506040805180820182526001600160a01b039384168082529284166020808301828152968616600081815260118352858120945185549089166001600160a01b03199182161786559851600190950180549590981694891694909417909655848352601280825284842092845291815283832080548816871790559081528282209382529290925290208054909216179055565b601b5460005b81811015610ebb576000601b8281548110611e9857634e487b7160e01b600052603260045260246000fd5b9060005260206000209060160201905073__$db63f1588e8d684f73b3ba2d13f1c15561$__633b25243b82601860026040518463ffffffff1660e01b8152600401611ee59392919061589f565b60006040518083038186803b158015611efd57600080fd5b505af4158015611f11573d6000803e3d6000fd5b505050505080611f2090615b9b565b9050611e6d565b601b5460408051808201909152600f8152600080516020615c3383398151915260208201526000918491908210611f715760405162461bcd60e51b8152600401610cb891906157c9565b50611f7c600e613e33565b6000611f86610bbb565b90506000611f92613d17565b90506000601b8781548110611fb757634e487b7160e01b600052603260045260246000fd5b600091825260208083208a8452601c825260408085206001600160a01b038816865290925292206016909102909101915083612062576040516363f466ef60e11b815273__$db63f1588e8d684f73b3ba2d13f1c15561$__9063c7e8cdde9061203190859085908890601f906002906018906004016158b5565b60006040518083038186803b15801561204957600080fd5b505af415801561205d573d6000803e3d6000fd5b505050505b861561123f57612077816005016005896143eb565b6120819088615b58565b6002546008549198508897506120a6916001600160a01b039182169116886000613f86565b6120b09088615b58565b600854604051632b8fd27160e11b815291985073__$db63f1588e8d684f73b3ba2d13f1c15561$__9163571fa4e2916120fb916001600160a01b039091169087908c9060040161557b565b60006040518083038186803b15801561211357600080fd5b505af4158015612127573d6000803e3d6000fd5b5050505087836001600160a01b03167fc77de961bff87a335a505b2376f2de3694be653dea89bcfd78fc457dddfc85468860405161123691815260200190565b61216f613d17565b6001600160a01b03166121806121c1565b6001600160a01b0316146121a65760405162461bcd60e51b8152600401610cb8906157fc565b6121b06000614740565b565b60006121bc6121c1565b905090565b6010546001600160a01b031690565b6019546000906121e08484615b58565b6121ea9190615b39565b90505b92915050565b6121fb6121b2565b6001600160a01b0316336001600160a01b03161461224e5760405162461bcd60e51b815260206004820152601060248201526f496e76616c69642063616c6c6572203360801b6044820152606401610cb8565b600080546001600160a01b039384166001600160a01b03199182161790915560018054929093169116179055565b6001600160a01b03811630146122eb5760008360068111156122ae57634e487b7160e01b600052602160045260246000fd5b14156122e057600e80546001600160a01b0384166001600160a01b03199182168117909255600f805490911690911790555b6122eb838383614792565b505050565b60006122fa613d17565b6001600160a01b031661230b6121c1565b6001600160a01b0316146123315760405162461bcd60e51b8152600401610cb8906157fc565b60408051808201909152600b81526a496e76616c69642066656560a81b60208201526113888311156123765760405162461bcd60e51b8152600401610cb891906157c9565b50821561238557612385611e67565b8360005b601b5481101561242257816001600160a01b0316601b82815481106123be57634e487b7160e01b600052603260045260246000fd5b60009182526020909120601690910201546001600160a01b031614156124105760405162461bcd60e51b8152602060048201526007602482015266055736564204c560cc1b6044820152606401610cb8565b8061241a81615b9b565b915050612389565b50601d54604051631742bc9f60e31b8152600481018890526001600160a01b0387166024820152604481018590526064810191909152601b608482015273__$db63f1588e8d684f73b3ba2d13f1c15561$__9063ba15e4f89060a40160206040518083038186803b15801561249657600080fd5b505af41580156124aa573d6000803e3d6000fd5b505050506040513d601f19601f820116820180604052508101906124ce91906152d2565b9695505050505050565b6040805180820190915260008082526020820152601b5460408051808201909152600f8152600080516020615c338339815191526020820152849182106125325760405162461bcd60e51b8152600401610cb891906157c9565b5073__$db63f1588e8d684f73b3ba2d13f1c15561$__6342e75f2d601b868154811061256e57634e487b7160e01b600052603260045260246000fd5b60009182526020808320898452601c825260408085206001600160a01b038b1686529092529281902090516001600160e01b031960e086901b1681526125c893601690930290920191600401918252602082015260400190565b604080518083038186803b1580156125df57600080fd5b505af41580156125f3573d6000803e3d6000fd5b505050506040513d601f19601f8201168201806040525081019061261791906151fd565b949350505050565b600061262b600b613e33565b612633610bbb565b50600061263e613d17565b9050600073__$db63f1588e8d684f73b3ba2d13f1c15561$__63fc6bf4ee83601b601c601f600260186040518763ffffffff1660e01b81526004016126889695949392919061559f565b60206040518083038186803b1580156126a057600080fd5b505af41580156126b4573d6000803e3d6000fd5b505050506040513d601f19601f820116820180604052508101906126d891906152d2565b905080156119ca576002546008549193508391612704916001600160a01b039081169116836000613f86565b61270e9082615b58565b600854604051632b8fd27160e11b815291925073__$db63f1588e8d684f73b3ba2d13f1c15561$__9163571fa4e291612759916001600160a01b03909116908690869060040161557b565b60006040518083038186803b15801561277157600080fd5b505af4158015612785573d6000803e3d6000fd5b50505050816001600160a01b03167fe76fcec0d187f2217e3673f1cbfb8ef3c09dedb09b2857986f3bf6b60b35483c846040516127c491815260200190565b60405180910390a26119d2613f1c565b6001600160a01b03811630146122eb5760405163b1f2df4360e01b815273__$4e096580cb5433c4a2c6afc0adc836c7da$__9063b1f2df43906128209086906017908790600401615759565b60006040518083038186803b15801561283857600080fd5b505af415801561284c573d6000803e3d6000fd5b505050507f029d9f0c8658b2b4deb9a71c950bd17f92125b77885562de42477ea2ea40b839838360405161288192919061577a565b60405180910390a16122eb83838361492f565b601b5460408051808201909152600f8152600080516020615c33833981519152602082015260009183919082106128de5760405162461bcd60e51b8152600401610cb891906157c9565b506128e96008613e33565b60006128f3610bbb565b905060006128ff613d17565b90506000601b868154811061292457634e487b7160e01b600052603260045260246000fd5b60009182526020808320898452601c825260408085206001600160a01b0388168652909252922060169091029091019150836129cf576040516363f466ef60e11b815273__$db63f1588e8d684f73b3ba2d13f1c15561$__9063c7e8cdde9061299e90859085908890601f906002906018906004016158b5565b60006040518083038186803b1580156129b657600080fd5b505af41580156129ca573d6000803e3d6000fd5b505050505b60048101548015612a9e576002546008546129f9916001600160a01b039081169116836000613f86565b612a039082615b58565b6040805160608101825282815260006020808301828152428486019081526005890180546001808201835591865284862096516003909102909601958655915191850191909155516002909301929092556004860155905182815291985088925089916001600160a01b038716917ffd05f38b7adc0899d3b1f0851df984f0263828d0b21615a6e2ae6cf7e22e9a6991015b60405180910390a35b612aa6613f1c565b505050505050919050565b601b5460408051808201909152600f8152600080516020615c3383398151915260208201526060918491908210612afb5760405162461bcd60e51b8152600401610cb891906157c9565b506000848152601c602090815260408083206001600160a01b0387168452825280832060050180548251818502810185019093528083529193909284015b82821015612b895783829060005260206000209060030201604051806060016040529081600082015481526020016001820154815260200160028201548152505081526020019060010190612b39565b5050505091505092915050565b601b5460408051808201909152600f8152600080516020615c3383398151915260208201526000918391908210612be05760405162461bcd60e51b8152600401610cb891906157c9565b50612beb600a613e33565b6000612bf5610bbb565b90506000612c01613d17565b90506000601b8681548110612c2657634e487b7160e01b600052603260045260246000fd5b60009182526020808320898452601c825260408085206001600160a01b038816865290925292206016909102909101915083612cd1576040516363f466ef60e11b815273__$db63f1588e8d684f73b3ba2d13f1c15561$__9063c7e8cdde90612ca090859085908890601f906002906018906004016158b5565b60006040518083038186803b158015612cb857600080fd5b505af4158015612ccc573d6000803e3d6000fd5b505050505b60048101548015612a9e57600254600854612cfb916001600160a01b039081169116836000613f86565b612d059082615b58565b9050601b600081548110612d2957634e487b7160e01b600052603260045260246000fd5b600091825260208083206001600160a01b0388168452600080516020615c1383398151915290915260409283902092516363f466ef60e11b8152601690920201945090925073__$db63f1588e8d684f73b3ba2d13f1c15561$__9063c7e8cdde90612da590869086908990601f906002906018906004016158b5565b60006040518083038186803b158015612dbd57600080fd5b505af4158015612dd1573d6000803e3d6000fd5b50506002546040516370a0823160e01b8152600093506001600160a01b0390911691506370a0823190612e08903090600401615522565b60206040518083038186803b158015612e2057600080fd5b505afa158015612e34573d6000803e3d6000fd5b505050506040513d601f19601f82011682018060405250810190612e5891906152d2565b600854604051632b8fd27160e11b815291925073__$db63f1588e8d684f73b3ba2d13f1c15561$__9163571fa4e291612ea3916001600160a01b03909116903090879060040161557b565b60006040518083038186803b158015612ebb57600080fd5b505af4158015612ecf573d6000803e3d6000fd5b50506002546040516370a0823160e01b81528493506001600160a01b0390911691506370a0823190612f05903090600401615522565b60206040518083038186803b158015612f1d57600080fd5b505afa158015612f31573d6000803e3d6000fd5b505050506040513d601f19601f82011682018060405250810190612f5591906152d2565b612f5f9190615b58565b60405163046ee55f60e51b815290925073__$db63f1588e8d684f73b3ba2d13f1c15561$__90638ddcabe090612f9e908790869060139060040161589f565b60206040518083038186803b158015612fb657600080fd5b505af4158015612fca573d6000803e3d6000fd5b505050506040513d601f19601f82011682018060405250810190612fee91906152d2565b612ff89083615b58565b60405163d9df3bb560e01b815290985088925073__$db63f1588e8d684f73b3ba2d13f1c15561$__9063d9df3bb59061303f90879087908790601f9060019060040161592f565b60006040518083038186803b15801561305757600080fd5b505af415801561306b573d6000803e3d6000fd5b505060006004860155505060405182815289906001600160a01b038716907fbcfe5f02a2564c2694c8305295f77c0162f6892236ecf70159c367a13b9396cd9060200160405180910390a350612aa6613f1c565b601b5460408051808201909152600f8152600080516020615c33833981519152602082015260009183919082106131095760405162461bcd60e51b8152600401610cb891906157c9565b506131146009613e33565b600061311e610bbb565b9050600061312a613d17565b90506000601b868154811061314f57634e487b7160e01b600052603260045260246000fd5b60009182526020808320898452601c825260408085206001600160a01b0388168652909252922060169091029091019150836131fa576040516363f466ef60e11b815273__$db63f1588e8d684f73b3ba2d13f1c15561$__9063c7e8cdde906131c990859085908890601f906002906018906004016158b5565b60006040518083038186803b1580156131e157600080fd5b505af41580156131f5573d6000803e3d6000fd5b505050505b60048101548015612a9e57600254600854613224916001600160a01b039081169116836000613f86565b61322e9082615b58565b600854604051632b8fd27160e11b815291985088925073__$db63f1588e8d684f73b3ba2d13f1c15561$__9163571fa4e29161327c916001600160a01b03909116908890869060040161557b565b60006040518083038186803b15801561329457600080fd5b505af41580156132a8573d6000803e3d6000fd5b505060006004850155505060405181815288906001600160a01b038616907f67c784b6702ebe22776ccc295ad0405729f41e9351f6a7d0746da88eea0066ce90602001612a95565b6132f8613d17565b6001600160a01b03166133096121c1565b6001600160a01b03161461332f5760405162461bcd60e51b8152600401610cb8906157fc565b6021819055604051818152600080516020615c53833981519152906020015b60405180910390a150565b601b5460408051808201909152600f8152600080516020615c3383398151915260208201528391821061339f5760405162461bcd60e51b8152600401610cb891906157c9565b506133aa6011613e33565b60006133b4613d17565b90506000601b85815481106133d957634e487b7160e01b600052603260045260246000fd5b60009182526020808320888452601c825260408085206001600160a01b038816865290925292819020905162a79c2560e51b81526016909202909201925073__$db63f1588e8d684f73b3ba2d13f1c15561$__906314f384a09061345090859085908a908990601f906002906018906004016158e6565b60206040518083038186803b15801561346857600080fd5b505af415801561347c573d6000803e3d6000fd5b505050506040513d601f19601f820116820180604052508101906134a09190614ff4565b15611d5c57826001600160a01b03167fd110e49478fb844bed47b2decc6a7487f83ef74fafcd9098a57135b250a0b2af87876040516134e092919061596b565b60405180910390a2611d64613f1c565b6134f8613d17565b6001600160a01b03166135096121c1565b6001600160a01b03161461352f5760405162461bcd60e51b8152600401610cb8906157fc565b6040805180820190915260098152682337b93134b23232b760b91b60208201526001600160a01b0382166135765760405162461bcd60e51b8152600401610cb891906157c9565b50600980546001600160a01b0319166001600160a01b0383161790556040517f8c2bee8063bb4464870b7dfa415ebb2fe80bfa73ba20d6fbf0d42791274667ff9061334e908390615522565b601b5460408051808201909152600f8152600080516020615c338339815191526020820152600091849190821061360c5760405162461bcd60e51b8152600401610cb891906157c9565b506136176005613e33565b6000613621610bbb565b9050600061362d613d17565b90506000601b878154811061365257634e487b7160e01b600052603260045260246000fd5b600091825260208083208a8452601c825260408085206001600160a01b0388168652909252922060169091029091019150836136fd576040516363f466ef60e11b815273__$db63f1588e8d684f73b3ba2d13f1c15561$__9063c7e8cdde906136cc90859085908890601f906002906018906004016158b5565b60006040518083038186803b1580156136e457600080fd5b505af41580156136f8573d6000803e3d6000fd5b505050505b861561123f57604051634a9cd24b60e11b8152600481018390526001600160a01b03841660248201526044810188905273__$db63f1588e8d684f73b3ba2d13f1c15561$__90639539a4969060640160206040518083038186803b15801561376457600080fd5b505af4158015613778573d6000803e3d6000fd5b505050506040513d601f19601f8201168201806040525081019061379c91906152d2565b82549097506137b7906001600160a01b031630896000613f86565b6137c19088615b58565b60405163046ee55f60e51b815290975073__$db63f1588e8d684f73b3ba2d13f1c15561$__90638ddcabe0906138009085908b9060139060040161589f565b60206040518083038186803b15801561381857600080fd5b505af415801561382c573d6000803e3d6000fd5b505050506040513d601f19601f8201168201806040525081019061385091906152d2565b61385a9088615b58565b60405163d9df3bb560e01b815290975087965073__$db63f1588e8d684f73b3ba2d13f1c15561$__9063d9df3bb5906138a190859085908b90601f9060019060040161592f565b60006040518083038186803b1580156138b957600080fd5b505af41580156138cd573d6000803e3d6000fd5b50505050876138da613d17565b6001600160a01b03167f90890809c654f11d6e72a28fa60149770a0d11ec6c92319d6ceb2bb0a4ea1a158860405161123691815260200190565b61391c613d17565b6001600160a01b031661392d6121c1565b6001600160a01b0316146139535760405162461bcd60e51b8152600401610cb8906157fc565b601f80546001600160a01b0319166001600160a01b0383169081179091556040517f064d113b0320648c1daeae09fd3ef54b6fb8973a98fc5b0239958672e2fc623390600090a250565b60006139a7613d17565b6001600160a01b03166139b86121c1565b6001600160a01b0316146139de5760405162461bcd60e51b8152600401610cb8906157fc565b60408051808201909152600f8152600080516020615c33833981519152602082015285613a1e5760405162461bcd60e51b8152600401610cb891906157c9565b5060408051808201909152600b81526a496e76616c69642066656560a81b6020820152611388831115613a645760405162461bcd60e51b8152600401610cb891906157c9565b508215613a7357613a73611e67565b604051631658eba760e21b8152601b600482015260248101869052604481018590526064810183905273__$db63f1588e8d684f73b3ba2d13f1c15561$__90635963ae9c9060840160206040518083038186803b158015613ad357600080fd5b505af4158015613ae7573d6000803e3d6000fd5b505050506040513d601f19601f82011682018060405250810190613b0b91906152d2565b95945050505050565b613b1c613d17565b6001600160a01b0316613b2d6121c1565b6001600160a01b031614613b535760405162461bcd60e51b8152600401610cb8906157fc565b6001600160a01b038116613bb85760405162461bcd60e51b815260206004820152602660248201527f4f776e61626c653a206e6577206f776e657220697320746865207a65726f206160448201526564647265737360d01b6064820152608401610cb8565b613bc181614740565b50565b613c1a604051806101400160405280600081526020016000815260200160008152602001600081526020016000815260200160008152602001600081526020016000815260200160008152602001600081525090565b601b5460408051808201909152600f8152600080516020615c33833981519152602082015284918210613c605760405162461bcd60e51b8152600401610cb891906157c9565b50604051636d60ab0760e01b81526001600160a01b038416600482015260248101859052601b6044820152601c606482015260026084820152601860a4820152600560c482015273__$db63f1588e8d684f73b3ba2d13f1c15561$__90636d60ab079060e4016101406040518083038186803b158015613cdf57600080fd5b505af4158015613cf3573d6000803e3d6000fd5b505050506040513d601f19601f820116820180604052508101906126179190615230565b600060183610801590613d2e5750613d2e33611d6c565b15613d42575060131936013560601c610a7a565b5033610a7a565b6000546001600160a01b0316331480613d7a5750613d656121b2565b6001600160a01b0316336001600160a01b0316145b613d965760405162461bcd60e51b8152600401610cb89061582d565b6001600160a01b0381163014610ebb5760006001600160a01b03821615613dbd5781613dbf565b305b6001549091506001600160a01b0316156122eb5760015460405163147ec66d60e11b81526001600160a01b03909116906328fd8cda90613e059086908590600401615865565b600060405180830381600087803b158015613e1f57600080fd5b505af1158015611b55573d6000803e3d6000fd5b600e54604051630ed4fac360e41b81526001600160a01b039091169063ed4fac3090613e6390849060040161574b565b608060405180830381600087803b158015613e7d57600080fd5b505af1158015613e91573d6000803e3d6000fd5b505050506040513d601f19601f82011682018060405250810190613eb591906151a5565b8051600a8054909190829060ff19166001836012811115613ee657634e487b7160e01b600052602160045260246000fd5b021790555060208201516001820155604082015160028201556060909101516003909101805460ff191691151591909117905550565b600e60009054906101000a90046001600160a01b03166001600160a01b031663b9d91aea6040518163ffffffff1660e01b8152600401600060405180830381600087803b158015613f6c57600080fd5b505af1158015613f80573d6000803e3d6000fd5b50505050565b600d5460009060ff168015613f9b5750600083115b15612617576002546001600160a01b038681169116141561406c57600a54614065908590859060179060009060ff166012811115613fe957634e487b7160e01b600052602160045260246000fd5b601281111561400857634e487b7160e01b600052602160045260246000fd5b815260208082019290925260409081016000208151608081018352905463ffffffff8082168352600160201b8204811694830194909452600160401b8104841692820192909252600160601b9091049091166060820152856149ed565b9050612617565b600a54613b0b908690859060179060009060ff16601281111561409f57634e487b7160e01b600052602160045260246000fd5b60128111156140be57634e487b7160e01b600052602160045260246000fd5b81526020808201929092526040908101600020815160808082018452915463ffffffff8082168352600160201b8204811683870152600160401b8204811683860152600160601b90910416606080830191909152835192830184526013546001600160a01b03908116845260145481169584019590955260155485169383019390935260165490931691810191909152614a52565b6122eb8363a9059cbb60e01b84846040516024016141729291906155d2565b60408051601f198184030181529190526020810180516001600160e01b03166001600160e01b031990931692909217909152614bbf565b8015806142315750604051636eb1769f60e11b81526001600160a01b0384169063dd62ed3e906141df9030908690600401615536565b60206040518083038186803b1580156141f757600080fd5b505afa15801561420b573d6000803e3d6000fd5b505050506040513d601f19601f8201168201806040525081019061422f91906152d2565b155b61429c5760405162461bcd60e51b815260206004820152603660248201527f5361666545524332303a20617070726f76652066726f6d206e6f6e2d7a65726f60448201527520746f206e6f6e2d7a65726f20616c6c6f77616e636560501b6064820152608401610cb8565b6122eb8363095ea7b360e01b84846040516024016141729291906155d2565b60408051808201909152600c81526b5a65726f206164647265737360a01b60208201526001600160a01b038216610ebb5760405162461bcd60e51b8152600401610cb891906157c9565b6000546001600160a01b031633148061433657506143216121b2565b6001600160a01b0316336001600160a01b0316145b6143525760405162461bcd60e51b8152600401610cb89061582d565b6001600160a01b0381163014613f805760006001600160a01b03821615614379578161437b565b305b600154604051636161293960e01b81529192506001600160a01b0316906361612939906143b2908890889088908790600401615550565b600060405180830381600087803b1580156143cc57600080fd5b505af11580156143e0573d6000803e3d6000fd5b505050505050505050565b8060005b6000821180156143ff5750845481105b1561473857600085828154811061442657634e487b7160e01b600052603260045260246000fd5b906000526020600020906003020160020154426144439190615b58565b61444f90610258615b39565b61445a906018615b39565b61446590601e615b39565b905060008561447762278d0084615a05565b101561448f5761448a62278d0083615a05565b614491565b855b905060008784815481106144b557634e487b7160e01b600052603260045260246000fd5b90600052602060002090600302016001015487838a87815481106144e957634e487b7160e01b600052603260045260246000fd5b9060005260206000209060030201600001546145059190615b39565b61450f9190615a05565b6145199190615b58565b905084811115614573578488858154811061454457634e487b7160e01b600052603260045260246000fd5b9060005260206000209060030201600101600082825461456491906159ed565b90915550600095506145c69050565b61457d8186615b58565b9450808885815481106145a057634e487b7160e01b600052603260045260246000fd5b906000526020600020906003020160010160008282546145c091906159ed565b90915550505b8784815481106145e657634e487b7160e01b600052603260045260246000fd5b90600052602060002090600302016000015488858154811061461857634e487b7160e01b600052603260045260246000fd5b906000526020600020906003020160010154141561472257835b885461464090600190615b58565b8110156146d957886146538260016159ed565b8154811061467157634e487b7160e01b600052603260045260246000fd5b906000526020600020906003020189828154811061469f57634e487b7160e01b600052603260045260246000fd5b60009182526020909120825460039092020190815560018083015490820155600291820154910155806146d181615b9b565b915050614632565b50878054806146f857634e487b7160e01b600052603160045260246000fd5b60008281526020812060036000199093019283020181815560018101829055600201559055614730565b8361472c81615b9b565b9450505b5050506143ef565b509392505050565b601080546001600160a01b038381166001600160a01b0319831681179093556040519116919082907f8be0079c531659141344cd1fd0a4f28419497f9722a3daafe3b4186f6b6457e090600090a35050565b6000546001600160a01b03163314806147c357506147ae6121b2565b6001600160a01b0316336001600160a01b0316145b6147df5760405162461bcd60e51b8152600401610cb89061582d565b6001600160a01b03811630146122eb5760405163085b199160e11b815273__$4e096580cb5433c4a2c6afc0adc836c7da$__906310b633229061482b9086908690600290600401615723565b60006040518083038186803b15801561484357600080fd5b505af4158015614857573d6000803e3d6000fd5b505050507fb38e5ed9c964a80c4cf1080ee37772ec4a2552b0d5b9713873d3d6efb38e6fd883833360405161488e939291906156f3565b60405180910390a160006001600160a01b038216156148ad57816148af565b305b6001549091506001600160a01b031615613f80576001546040516349443ceb60e11b81526001600160a01b039091169063928879d6906148f7908790879086906004016156f3565b600060405180830381600087803b15801561491157600080fd5b505af1158015614925573d6000803e3d6000fd5b5050505050505050565b6000546001600160a01b0316331480614960575061494b6121b2565b6001600160a01b0316336001600160a01b0316145b61497c5760405162461bcd60e51b8152600401610cb89061582d565b6001600160a01b03811630146122eb5760006001600160a01b038216156149a357816149a5565b305b6001549091506001600160a01b031615613f805760015460405163b8d05b1160e01b81526001600160a01b039091169063b8d05b11906148f790879087908690600401615795565b600f5460405163051ac12560e51b81526000916001600160a01b03169063a35824a090614a249088908890889088906004016155eb565b602060405180830381600087803b158015614a3e57600080fd5b505af1158015613ae7573d6000803e3d6000fd5b6000808415614bb657835163ffffffff1615614aae57614a746005600a615a6b565b8451614a869063ffffffff1687615b39565b614a909190615a05565b9050614aa186846000015183614c91565b614aab81836159ed565b91505b602084015163ffffffff1615614b0757614aca6005600a615a6b565b6020850151614adf9063ffffffff1687615b39565b614ae99190615a05565b9050614afa86846020015183614c91565b614b0481836159ed565b91505b604084015163ffffffff1615614b6057614b236005600a615a6b565b6040850151614b389063ffffffff1687615b39565b614b429190615a05565b9050614b5386846040015183614c91565b614b5d81836159ed565b91505b606084015163ffffffff1615614bb657614b7c6005600a615a6b565b6060850151614b919063ffffffff1687615b39565b614b9b9190615a05565b9050614bac86846060015183614c91565b6124ce81836159ed565b50949350505050565b6000614c14826040518060400160405280602081526020017f5361666545524332303a206c6f772d6c6576656c2063616c6c206661696c6564815250856001600160a01b0316614dae9092919063ffffffff16565b8051909150156122eb5780806020019051810190614c329190614ff4565b6122eb5760405162461bcd60e51b815260206004820152602a60248201527f5361666545524332303a204552433230206f7065726174696f6e20646964206e6044820152691bdd081cdd58d8d9595960b21b6064820152608401610cb8565b600080846001600160a01b031663a9059cbb8585604051602401614cb69291906155d2565b6040516020818303038152906040529060e01b6020820180516001600160e01b038381831617835250505050604051614cef9190615506565b6000604051808303816000865af19150503d8060008114614d2c576040519150601f19603f3d011682016040523d82523d6000602084013e614d31565b606091505b5091509150818015614d5b575080511580614d5b575080806020019051810190614d5b9190614ff4565b614da75760405162461bcd60e51b815260206004820152601f60248201527f5472616e7366657248656c7065723a205452414e534645525f4641494c4544006044820152606401610cb8565b5050505050565b6060614dbd8484600085614dc7565b90505b9392505050565b606082471015614e285760405162461bcd60e51b815260206004820152602660248201527f416464726573733a20696e73756666696369656e742062616c616e636520666f6044820152651c8818d85b1b60d21b6064820152608401610cb8565b6001600160a01b0385163b614e7f5760405162461bcd60e51b815260206004820152601d60248201527f416464726573733a2063616c6c20746f206e6f6e2d636f6e74726163740000006044820152606401610cb8565b600080866001600160a01b03168587604051614e9b9190615506565b60006040518083038185875af1925050503d8060008114614ed8576040519150601f19603f3d011682016040523d82523d6000602084013e614edd565b606091505b5091509150614eed828286614ef8565b979650505050505050565b60608315614f07575081614dc0565b825115614f175782518084602001fd5b8160405162461bcd60e51b8152600401610cb891906157c9565b803563ffffffff81168114611d7e57600080fd5b600060208284031215614f56578081fd5b8135614dc081615be2565b60008060408385031215614f73578081fd5b8235614f7e81615be2565b91506020830135614f8e81615be2565b809150509250929050565b60008060008060808587031215614fae578182fd5b8435614fb981615be2565b93506020850135614fc981615be2565b92506040850135614fd981615be2565b91506060850135614fe981615be2565b939692955090935050565b600060208284031215615005578081fd5b8151614dc081615bf7565b600060208284031215615021578081fd5b8151614dc081615be2565b600080600060608486031215615040578081fd5b83356007811061504e578182fd5b9250602084013561505e81615be2565b9150604084013561506e81615be2565b809150509250925092565b60006020828403121561508a578081fd5b8135614dc081615c05565b600080600083850360c08112156150aa578182fd5b84356150b581615c05565b93506080601f19820112156150c8578182fd5b506150d360806159af565b6150df60208601614f31565b81526150ed60408601614f31565b60208201526150fe60608601614f31565b604082015261510f60808601614f31565b6060820152915060a084013561506e81615be2565b60008082840360a0811215615137578283fd5b6080811215615144578283fd5b5061514f60806159af565b833561515a81615be2565b8152602084013561516a81615be2565b6020820152604084013561517d81615be2565b6040820152606084013561519081615be2565b606082015291506080830135614f8e81615be2565b6000608082840312156151b6578081fd5b6151c060806159af565b82516151cb81615c05565b80825250602083015160208201526040830151604082015260608301516151f181615bf7565b60608201529392505050565b60006040828403121561520e578081fd5b61521860406159af565b82518152602083015160208201528091505092915050565b6000610140808385031215615243578182fd5b61524c816159af565b9050825181526020830151602082015260408301516040820152606083015160608201526080830151608082015260a083015160a082015260c083015160c082015260e083015160e08201526101008084015181830152506101208084015181830152508091505092915050565b6000602082840312156152cb578081fd5b5035919050565b6000602082840312156152e3578081fd5b5051919050565b600080604083850312156152fc578182fd5b823591506020830135614f8e81615be2565b60008060008060808587031215615323578182fd5b84359350602085013561533581615be2565b9250604085013561534581615bf7565b9396929550929360600135925050565b60008060408385031215615367578182fd5b82359150602083013560048110614f8e578182fd5b6000806040838503121561538e578182fd5b50508035926020909101359150565b600080604083850312156153af578182fd5b505080516020909101519092909150565b600080600080608085870312156153d5578182fd5b8435935060208501359250604085013561534581615be2565b60008060008060808587031215615403578182fd5b8435935060208501359250604085013561534581615bf7565b6004811061542c5761542c615bcc565b9052565b6007811061542c5761542c615bcc565b6013811061542c5761542c615bcc565b805163ffffffff908116835260208083015182169084015260408083015182169084015260609182015116910152565b80516001600160a01b03908116835260208083015182169084015260408083015182169084015260609182015116910152565b805182526020808201518051828501529081015160408401526122eb565b8051825260208082015180518285015290810151604084015250604081015180516060840152602081015160808401526122eb565b60008251615518818460208701615b6f565b9190910192915050565b6001600160a01b0391909116815260200190565b6001600160a01b0392831681529116602082015260400190565b6001600160a01b03948516815292841660208401529083166040830152909116606082015260800190565b6001600160a01b039384168152919092166020820152604081019190915260600190565b6001600160a01b03969096168652602086019490945260408501929092526060840152608083015260a082015260c00190565b6001600160a01b03929092168252602082015260400190565b6001600160a01b03851681526020810184905260e0810161560f6040830185615450565b82151560c083015295945050505050565b602080825282518282018190526000919060409081850190868401855b8281101561566c578151805185528681015187860152850151858501526060909301929085019060010161563d565b5091979650505050505050565b6001600160a01b038b168152602081018a905260408101899052606081018890526080810187905260a081018690526102c081016156ba60c08301876154b3565b6156c86101208301866154d1565b6156d66101c08301856154d1565b6156e46102608301846154b3565b9b9a5050505050505050505050565b606081016157018286615430565b6001600160a01b03938416602083015291909216604090920191909152919050565b606081016157318286615430565b6001600160a01b0393909316602082015260400152919050565b602081016121ed8284615440565b60c081016157678286615440565b8360208301526126176040830184615450565b60a081016157888285615440565b614dc06020830184615450565b60c081016157a38286615440565b6157b06020830185615450565b6001600160a01b039290921660a0919091015292915050565b60006020825282518060208401526157e8816040850160208701615b6f565b601f01601f19169190910160400192915050565b60208082526017908201527631b0b63632b91034b9903737ba103a34329037bbb732b960491b604082015260600190565b60208082526010908201526f496e76616c69642063616c6c6572203160801b604082015260600190565b608081016121ed8284615480565b60a081016158738285615480565b6001600160a01b039290921660809190910152919050565b82815260a08101614dc06020830184615480565b9283526020830191909152604082015260600190565b95865260208601949094526001600160a01b039290921660408501526060840152608083015260a082015260c00190565b8781526020810187905260e08101615901604083018861541c565b6001600160a01b03959095166060820152608081019390935260a083019190915260c0909101529392505050565b9485526020850193909352604084019190915260608301521515608082015260a00190565b8151815260208083015190820152604081016121ed565b82815260408101614dc0602083018461541c565b600060c082019050878252866020830152856040830152846060830152836080830152614eed60a083018461541c565b604051601f8201601f191681016001600160401b03811182821017156159e557634e487b7160e01b600052604160045260246000fd5b604052919050565b60008219821115615a0057615a00615bb6565b500190565b600082615a2057634e487b7160e01b81526012600452602481fd5b500490565b80825b6001808611615a375750615a62565b818704821115615a4957615a49615bb6565b80861615615a5657918102915b9490941c938002615a28565b94509492505050565b60006121ea6000198484600082615a8457506001614dc0565b81615a9157506000614dc0565b8160018114615aa75760028114615ab157615ade565b6001915050614dc0565b60ff841115615ac257615ac2615bb6565b6001841b915084821115615ad857615ad8615bb6565b50614dc0565b5060208310610133831016604e8410600b8410161715615b11575081810a83811115615b0c57615b0c615bb6565b614dc0565b615b1e8484846001615a25565b808604821115615b3057615b30615bb6565b02949350505050565b6000816000190483118215151615615b5357615b53615bb6565b500290565b600082821015615b6a57615b6a615bb6565b500390565b60005b83811015615b8a578181015183820152602001615b72565b83811115613f805750506000910152565b6000600019821415615baf57615baf615bb6565b5060010190565b634e487b7160e01b600052601160045260246000fd5b634e487b7160e01b600052602160045260246000fd5b6001600160a01b0381168114613bc157600080fd5b8015158114613bc157600080fd5b60138110613bc157600080fdfeb9c6de81004e18dedadca3e5eabaab449ca91dff6f58efc9461da635fe77f849496e76616c696420706f6f6c2069640000000000000000000000000000000000afbef49f2e149ae20a201034ffbdc25c493050d9aaa4b9a80d992cfc57821512a26469706673582212204c5aab07fe37d9f8c98da807d96e881d1fc11327700fde8007674d396300b14564736f6c63430008030033",
  "linkReferences": {
    "contracts/libraries/FarmLib.sol": {
      "FarmLib": [
        {
          "length": 20,
          "start": 846
        },
        {
          "length": 20,
          "start": 1074
        },
        {
          "length": 20,
          "start": 4474
        },
        {
          "length": 20,
          "start": 4958
        },
        {
          "length": 20,
          "start": 5717
        },
        {
          "length": 20,
          "start": 5916
        },
        {
          "length": 20,
          "start": 6843
        },
        {
          "length": 20,
          "start": 7153
        },
        {
          "length": 20,
          "start": 7427
        },
        {
          "length": 20,
          "start": 7729
        },
        {
          "length": 20,
          "start": 7843
        },
        {
          "length": 20,
          "start": 8306
        },
        {
          "length": 20,
          "start": 8611
        },
        {
          "length": 20,
          "start": 8760
        },
        {
          "length": 20,
          "start": 9262
        },
        {
          "length": 20,
          "start": 9600
        },
        {
          "length": 20,
          "start": 9801
        },
        {
          "length": 20,
          "start": 10725
        },
        {
          "length": 20,
          "start": 10937
        },
        {
          "length": 20,
          "start": 11208
        },
        {
          "length": 20,
          "start": 11431
        },
        {
          "length": 20,
          "start": 12013
        },
        {
          "length": 20,
          "start": 12783
        },
        {
          "length": 20,
          "start": 13044
        },
        {
          "length": 20,
          "start": 13297
        },
        {
          "length": 20,
          "start": 13557
        },
        {
          "length": 20,
          "start": 13713
        },
        {
          "length": 20,
          "start": 14104
        },
        {
          "length": 20,
          "start": 14282
        },
        {
          "length": 20,
          "start": 14749
        },
        {
          "length": 20,
          "start": 15387
        },
        {
          "length": 20,
          "start": 15539
        },
        {
          "length": 20,
          "start": 15703
        },
        {
          "length": 20,
          "start": 15859
        },
        {
          "length": 20,
          "start": 16418
        },
        {
          "length": 20,
          "start": 16941
        }
      ]
    },
    "contracts/libraries/WireLib.sol": {
      "WireLib": [
        {
          "length": 20,
          "start": 4736
        },
        {
          "length": 20,
          "start": 11639
        },
        {
          "length": 20,
          "start": 19842
        }
      ]
    }
  },
  "deployedLinkReferences": {
    "contracts/libraries/FarmLib.sol": {
      "FarmLib": [
        {
          "length": 20,
          "start": 3062
        },
        {
          "length": 20,
          "start": 3546
        },
        {
          "length": 20,
          "start": 4305
        },
        {
          "length": 20,
          "start": 4504
        },
        {
          "length": 20,
          "start": 5431
        },
        {
          "length": 20,
          "start": 5741
        },
        {
          "length": 20,
          "start": 6015
        },
        {
          "length": 20,
          "start": 6317
        },
        {
          "length": 20,
          "start": 6431
        },
        {
          "length": 20,
          "start": 6894
        },
        {
          "length": 20,
          "start": 7199
        },
        {
          "length": 20,
          "start": 7348
        },
        {
          "length": 20,
          "start": 7850
        },
        {
          "length": 20,
          "start": 8188
        },
        {
          "length": 20,
          "start": 8389
        },
        {
          "length": 20,
          "start": 9313
        },
        {
          "length": 20,
          "start": 9525
        },
        {
          "length": 20,
          "start": 9796
        },
        {
          "length": 20,
          "start": 10019
        },
        {
          "length": 20,
          "start": 10601
        },
        {
          "length": 20,
          "start": 11371
        },
        {
          "length": 20,
          "start": 11632
        },
        {
          "length": 20,
          "start": 11885
        },
        {
          "length": 20,
          "start": 12145
        },
        {
          "length": 20,
          "start": 12301
        },
        {
          "length": 20,
          "start": 12692
        },
        {
          "length": 20,
          "start": 12870
        },
        {
          "length": 20,
          "start": 13337
        },
        {
          "length": 20,
          "start": 13975
        },
        {
          "length": 20,
          "start": 14127
        },
        {
          "length": 20,
          "start": 14291
        },
        {
          "length": 20,
          "start": 14447
        },
        {
          "length": 20,
          "start": 15006
        },
        {
          "length": 20,
          "start": 15529
        }
      ]
    },
    "contracts/libraries/WireLib.sol": {
      "WireLib": [
        {
          "length": 20,
          "start": 3324
        },
        {
          "length": 20,
          "start": 10227
        },
        {
          "length": 20,
          "start": 18430
        }
      ]
    }
  }
}